{
  "contractName": "ERC1594Token",
  "abi": [
    {
      "inputs": [
        {
          "internalType": "string",
          "name": "name",
          "type": "string"
        },
        {
          "internalType": "string",
          "name": "symbol",
          "type": "string"
        },
        {
          "internalType": "uint8",
          "name": "decimals",
          "type": "uint8"
        }
      ],
      "stateMutability": "nonpayable",
      "type": "constructor"
    },
    {
      "anonymous": false,
      "inputs": [
        {
          "indexed": true,
          "internalType": "address",
          "name": "owner",
          "type": "address"
        },
        {
          "indexed": true,
          "internalType": "address",
          "name": "spender",
          "type": "address"
        },
        {
          "indexed": false,
          "internalType": "uint256",
          "name": "value",
          "type": "uint256"
        }
      ],
      "name": "Approval",
      "type": "event"
    },
    {
      "anonymous": false,
      "inputs": [],
      "name": "IssuanceFinalized",
      "type": "event"
    },
    {
      "anonymous": false,
      "inputs": [
        {
          "indexed": true,
          "internalType": "address",
          "name": "_operator",
          "type": "address"
        },
        {
          "indexed": true,
          "internalType": "address",
          "name": "_to",
          "type": "address"
        },
        {
          "indexed": false,
          "internalType": "uint256",
          "name": "_value",
          "type": "uint256"
        },
        {
          "indexed": false,
          "internalType": "bytes",
          "name": "_data",
          "type": "bytes"
        }
      ],
      "name": "Issued",
      "type": "event"
    },
    {
      "anonymous": false,
      "inputs": [
        {
          "indexed": true,
          "internalType": "address",
          "name": "previousOwner",
          "type": "address"
        },
        {
          "indexed": true,
          "internalType": "address",
          "name": "newOwner",
          "type": "address"
        }
      ],
      "name": "OwnershipTransferred",
      "type": "event"
    },
    {
      "anonymous": false,
      "inputs": [
        {
          "indexed": true,
          "internalType": "address",
          "name": "_operator",
          "type": "address"
        },
        {
          "indexed": true,
          "internalType": "address",
          "name": "_from",
          "type": "address"
        },
        {
          "indexed": false,
          "internalType": "uint256",
          "name": "_value",
          "type": "uint256"
        },
        {
          "indexed": false,
          "internalType": "bytes",
          "name": "_data",
          "type": "bytes"
        }
      ],
      "name": "Redeemed",
      "type": "event"
    },
    {
      "anonymous": false,
      "inputs": [
        {
          "indexed": true,
          "internalType": "address",
          "name": "from",
          "type": "address"
        },
        {
          "indexed": true,
          "internalType": "address",
          "name": "to",
          "type": "address"
        },
        {
          "indexed": false,
          "internalType": "uint256",
          "name": "value",
          "type": "uint256"
        }
      ],
      "name": "Transfer",
      "type": "event"
    },
    {
      "inputs": [
        {
          "internalType": "address",
          "name": "owner",
          "type": "address"
        },
        {
          "internalType": "address",
          "name": "spender",
          "type": "address"
        }
      ],
      "name": "allowance",
      "outputs": [
        {
          "internalType": "uint256",
          "name": "",
          "type": "uint256"
        }
      ],
      "stateMutability": "view",
      "type": "function"
    },
    {
      "inputs": [
        {
          "internalType": "address",
          "name": "spender",
          "type": "address"
        },
        {
          "internalType": "uint256",
          "name": "value",
          "type": "uint256"
        }
      ],
      "name": "approve",
      "outputs": [
        {
          "internalType": "bool",
          "name": "",
          "type": "bool"
        }
      ],
      "stateMutability": "nonpayable",
      "type": "function"
    },
    {
      "inputs": [
        {
          "internalType": "address",
          "name": "owner",
          "type": "address"
        }
      ],
      "name": "balanceOf",
      "outputs": [
        {
          "internalType": "uint256",
          "name": "",
          "type": "uint256"
        }
      ],
      "stateMutability": "view",
      "type": "function"
    },
    {
      "inputs": [
        {
          "internalType": "address",
          "name": "_to",
          "type": "address"
        },
        {
          "internalType": "uint256",
          "name": "_value",
          "type": "uint256"
        },
        {
          "internalType": "bytes",
          "name": "_data",
          "type": "bytes"
        }
      ],
      "name": "canTransfer",
      "outputs": [
        {
          "internalType": "bool",
          "name": "",
          "type": "bool"
        },
        {
          "internalType": "bytes1",
          "name": "",
          "type": "bytes1"
        },
        {
          "internalType": "bytes32",
          "name": "",
          "type": "bytes32"
        }
      ],
      "stateMutability": "view",
      "type": "function"
    },
    {
      "inputs": [
        {
          "internalType": "address",
          "name": "_from",
          "type": "address"
        },
        {
          "internalType": "address",
          "name": "_to",
          "type": "address"
        },
        {
          "internalType": "uint256",
          "name": "_value",
          "type": "uint256"
        },
        {
          "internalType": "bytes",
          "name": "_data",
          "type": "bytes"
        }
      ],
      "name": "canTransferFrom",
      "outputs": [
        {
          "internalType": "bool",
          "name": "",
          "type": "bool"
        },
        {
          "internalType": "bytes1",
          "name": "",
          "type": "bytes1"
        },
        {
          "internalType": "bytes32",
          "name": "",
          "type": "bytes32"
        }
      ],
      "stateMutability": "view",
      "type": "function"
    },
    {
      "inputs": [],
      "name": "decimals",
      "outputs": [
        {
          "internalType": "uint8",
          "name": "",
          "type": "uint8"
        }
      ],
      "stateMutability": "view",
      "type": "function"
    },
    {
      "inputs": [
        {
          "internalType": "address",
          "name": "spender",
          "type": "address"
        },
        {
          "internalType": "uint256",
          "name": "subtractedValue",
          "type": "uint256"
        }
      ],
      "name": "decreaseAllowance",
      "outputs": [
        {
          "internalType": "bool",
          "name": "",
          "type": "bool"
        }
      ],
      "stateMutability": "nonpayable",
      "type": "function"
    },
    {
      "inputs": [
        {
          "internalType": "address",
          "name": "spender",
          "type": "address"
        },
        {
          "internalType": "uint256",
          "name": "addedValue",
          "type": "uint256"
        }
      ],
      "name": "increaseAllowance",
      "outputs": [
        {
          "internalType": "bool",
          "name": "",
          "type": "bool"
        }
      ],
      "stateMutability": "nonpayable",
      "type": "function"
    },
    {
      "inputs": [],
      "name": "isIssuable",
      "outputs": [
        {
          "internalType": "bool",
          "name": "",
          "type": "bool"
        }
      ],
      "stateMutability": "view",
      "type": "function"
    },
    {
      "inputs": [
        {
          "internalType": "address",
          "name": "_tokenHolder",
          "type": "address"
        },
        {
          "internalType": "uint256",
          "name": "_value",
          "type": "uint256"
        },
        {
          "internalType": "bytes",
          "name": "_data",
          "type": "bytes"
        }
      ],
      "name": "issue",
      "outputs": [],
      "stateMutability": "nonpayable",
      "type": "function"
    },
    {
      "inputs": [],
      "name": "name",
      "outputs": [
        {
          "internalType": "string",
          "name": "",
          "type": "string"
        }
      ],
      "stateMutability": "view",
      "type": "function"
    },
    {
      "inputs": [],
      "name": "owner",
      "outputs": [
        {
          "internalType": "address",
          "name": "",
          "type": "address"
        }
      ],
      "stateMutability": "view",
      "type": "function"
    },
    {
      "inputs": [
        {
          "internalType": "uint256",
          "name": "_value",
          "type": "uint256"
        },
        {
          "internalType": "bytes",
          "name": "_data",
          "type": "bytes"
        }
      ],
      "name": "redeem",
      "outputs": [],
      "stateMutability": "nonpayable",
      "type": "function"
    },
    {
      "inputs": [
        {
          "internalType": "address",
          "name": "_tokenHolder",
          "type": "address"
        },
        {
          "internalType": "uint256",
          "name": "_value",
          "type": "uint256"
        },
        {
          "internalType": "bytes",
          "name": "_data",
          "type": "bytes"
        }
      ],
      "name": "redeemFrom",
      "outputs": [],
      "stateMutability": "nonpayable",
      "type": "function"
    },
    {
      "inputs": [],
      "name": "renounceOwnership",
      "outputs": [],
      "stateMutability": "nonpayable",
      "type": "function"
    },
    {
      "inputs": [],
      "name": "symbol",
      "outputs": [
        {
          "internalType": "string",
          "name": "",
          "type": "string"
        }
      ],
      "stateMutability": "view",
      "type": "function"
    },
    {
      "inputs": [],
      "name": "totalSupply",
      "outputs": [
        {
          "internalType": "uint256",
          "name": "",
          "type": "uint256"
        }
      ],
      "stateMutability": "view",
      "type": "function"
    },
    {
      "inputs": [
        {
          "internalType": "address",
          "name": "to",
          "type": "address"
        },
        {
          "internalType": "uint256",
          "name": "value",
          "type": "uint256"
        }
      ],
      "name": "transfer",
      "outputs": [
        {
          "internalType": "bool",
          "name": "",
          "type": "bool"
        }
      ],
      "stateMutability": "nonpayable",
      "type": "function"
    },
    {
      "inputs": [
        {
          "internalType": "address",
          "name": "from",
          "type": "address"
        },
        {
          "internalType": "address",
          "name": "to",
          "type": "address"
        },
        {
          "internalType": "uint256",
          "name": "value",
          "type": "uint256"
        }
      ],
      "name": "transferFrom",
      "outputs": [
        {
          "internalType": "bool",
          "name": "",
          "type": "bool"
        }
      ],
      "stateMutability": "nonpayable",
      "type": "function"
    },
    {
      "inputs": [
        {
          "internalType": "address",
          "name": "_from",
          "type": "address"
        },
        {
          "internalType": "address",
          "name": "_to",
          "type": "address"
        },
        {
          "internalType": "uint256",
          "name": "_value",
          "type": "uint256"
        },
        {
          "internalType": "bytes",
          "name": "_data",
          "type": "bytes"
        }
      ],
      "name": "transferFromWithData",
      "outputs": [],
      "stateMutability": "nonpayable",
      "type": "function"
    },
    {
      "inputs": [
        {
          "internalType": "address",
          "name": "newOwner",
          "type": "address"
        }
      ],
      "name": "transferOwnership",
      "outputs": [],
      "stateMutability": "nonpayable",
      "type": "function"
    },
    {
      "inputs": [
        {
          "internalType": "address",
          "name": "_to",
          "type": "address"
        },
        {
          "internalType": "uint256",
          "name": "_value",
          "type": "uint256"
        },
        {
          "internalType": "bytes",
          "name": "_data",
          "type": "bytes"
        }
      ],
      "name": "transferWithData",
      "outputs": [],
      "stateMutability": "nonpayable",
      "type": "function"
    },
    {
      "inputs": [],
      "name": "finalizeIssuance",
      "outputs": [],
      "stateMutability": "nonpayable",
      "type": "function"
    }
  ],
  "bytecode": "0x60806040526001600360146101000a81548160ff0219169083151502179055503480156200002c57600080fd5b5060405162002df338038062002df38339818101604052810190620000529190620003ca565b6040518060400160405280600d81526020017f50726f6a65637420546f6b656e000000000000000000000000000000000000008152506040518060400160405280600281526020017f50540000000000000000000000000000000000000000000000000000000000008152506012620000e0620000d46200012b60201b60201c565b6200013360201b60201c565b8260049081620000f19190620006af565b508160059081620001039190620006af565b5080600660006101000a81548160ff021916908360ff16021790555050505050505062000796565b600033905090565b6000600360009054906101000a900473ffffffffffffffffffffffffffffffffffffffff16905081600360006101000a81548173ffffffffffffffffffffffffffffffffffffffff021916908373ffffffffffffffffffffffffffffffffffffffff1602179055508173ffffffffffffffffffffffffffffffffffffffff168173ffffffffffffffffffffffffffffffffffffffff167f8be0079c531659141344cd1fd0a4f28419497f9722a3daafe3b4186f6b6457e060405160405180910390a35050565b6000604051905090565b600080fd5b600080fd5b600080fd5b600080fd5b6000601f19601f8301169050919050565b7f4e487b7100000000000000000000000000000000000000000000000000000000600052604160045260246000fd5b620002628262000217565b810181811067ffffffffffffffff8211171562000284576200028362000228565b5b80604052505050565b600062000299620001f9565b9050620002a7828262000257565b919050565b600067ffffffffffffffff821115620002ca57620002c962000228565b5b620002d58262000217565b9050602081019050919050565b60005b8381101562000302578082015181840152602081019050620002e5565b60008484015250505050565b6000620003256200031f84620002ac565b6200028d565b90508281526020810184848401111562000344576200034362000212565b5b62000351848285620002e2565b509392505050565b600082601f8301126200037157620003706200020d565b5b8151620003838482602086016200030e565b91505092915050565b600060ff82169050919050565b620003a4816200038c565b8114620003b057600080fd5b50565b600081519050620003c48162000399565b92915050565b600080600060608486031215620003e657620003e562000203565b5b600084015167ffffffffffffffff81111562000407576200040662000208565b5b620004158682870162000359565b935050602084015167ffffffffffffffff81111562000439576200043862000208565b5b620004478682870162000359565b92505060406200045a86828701620003b3565b9150509250925092565b600081519050919050565b7f4e487b7100000000000000000000000000000000000000000000000000000000600052602260045260246000fd5b60006002820490506001821680620004b757607f821691505b602082108103620004cd57620004cc6200046f565b5b50919050565b60008190508160005260206000209050919050565b60006020601f8301049050919050565b600082821b905092915050565b600060088302620005377fffffffffffffffffffffffffffffffffffffffffffffffffffffffffffffffff82620004f8565b620005438683620004f8565b95508019841693508086168417925050509392505050565b6000819050919050565b6000819050919050565b6000620005906200058a62000584846200055b565b62000565565b6200055b565b9050919050565b6000819050919050565b620005ac836200056f565b620005c4620005bb8262000597565b84845462000505565b825550505050565b600090565b620005db620005cc565b620005e8818484620005a1565b505050565b5b81811015620006105762000604600082620005d1565b600181019050620005ee565b5050565b601f8211156200065f576200062981620004d3565b6200063484620004e8565b8101602085101562000644578190505b6200065c6200065385620004e8565b830182620005ed565b50505b505050565b600082821c905092915050565b6000620006846000198460080262000664565b1980831691505092915050565b60006200069f838362000671565b9150826002028217905092915050565b620006ba8262000464565b67ffffffffffffffff811115620006d657620006d562000228565b5b620006e282546200049e565b620006ef82828562000614565b600060209050601f83116001811462000727576000841562000712578287015190505b6200071e858262000691565b8655506200078e565b601f1984166200073786620004d3565b60005b8281101562000761578489015182556001820191506020850194506020810190506200073a565b868310156200078157848901516200077d601f89168262000671565b8355505b6001600288020188555050505b505050505050565b61264d80620007a66000396000f3fe608060405234801561001057600080fd5b506004361061014d5760003560e01c806370a08231116100c3578063a9059cbb1161007c578063a9059cbb146103a6578063bb3acde9146103d6578063dd62ed3e146103f2578063e77c646d14610422578063ee532f311461043e578063f2fde38b1461045a5761014d565b806370a08231146102e4578063715018a6146103145780638da5cb5b1461031e57806395d89b411461033c5780639675193c1461035a578063a457c2d7146103765761014d565b806323b872dd1161011557806323b872dd146102225780632535f762146102525780632f1cae851461026e578063313ce5671461028c57806339509351146102aa57806354ff5b82146102da5761014d565b806306fdde0314610152578063095ea7b314610170578063122eb575146101a057806318160ddd146101d25780631badb25c146101f0575b600080fd5b61015a610476565b6040516101679190611d2c565b60405180910390f35b61018a60048036038101906101859190611df6565b610508565b6040516101979190611e51565b60405180910390f35b6101ba60048036038101906101b59190611fa1565b610632565b6040516101c993929190612078565b60405180910390f35b6101da610804565b6040516101e791906120be565b60405180910390f35b61020a600480360381019061020591906120d9565b61080e565b60405161021993929190612078565b60405180910390f35b61023c60048036038101906102379190612148565b610942565b6040516102499190611e51565b60405180910390f35b61026c600480360381019061026791906120d9565b61095b565b005b61027661096b565b6040516102839190611e51565b60405180910390f35b610294610982565b6040516102a191906121b7565b60405180910390f35b6102c460048036038101906102bf9190611df6565b610999565b6040516102d19190611e51565b60405180910390f35b6102e2610bcd565b005b6102fe60048036038101906102f991906121d2565b610c6d565b60405161030b91906120be565b60405180910390f35b61031c610cb5565b005b610326610cc9565b604051610333919061220e565b60405180910390f35b610344610cf3565b6040516103519190611d2c565b60405180910390f35b610374600480360381019061036f91906120d9565b610d85565b005b610390600480360381019061038b9190611df6565b610dfb565b60405161039d9190611e51565b60405180910390f35b6103c060048036038101906103bb9190611df6565b61102f565b6040516103cd9190611e51565b60405180910390f35b6103f060048036038101906103eb91906120d9565b611046565b005b61040c60048036038101906104079190612229565b611113565b60405161041991906120be565b60405180910390f35b61043c60048036038101906104379190612269565b61119a565b005b61045860048036038101906104539190611fa1565b611210565b005b610474600480360381019061046f91906121d2565b611222565b005b606060048054610485906122f4565b80601f01602080910402602001604051908101604052809291908181526020018280546104b1906122f4565b80156104fe5780601f106104d3576101008083540402835291602001916104fe565b820191906000526020600020905b8154815290600101906020018083116104e157829003601f168201915b5050505050905090565b60008073ffffffffffffffffffffffffffffffffffffffff168373ffffffffffffffffffffffffffffffffffffffff160361054257600080fd5b81600160003373ffffffffffffffffffffffffffffffffffffffff1673ffffffffffffffffffffffffffffffffffffffff16815260200190815260200160002060008573ffffffffffffffffffffffffffffffffffffffff1673ffffffffffffffffffffffffffffffffffffffff168152602001908152602001600020819055508273ffffffffffffffffffffffffffffffffffffffff163373ffffffffffffffffffffffffffffffffffffffff167f8c5be1e5ebec7d5bd14f71427d1e84f3dd0314c0f7b2291e5b200ac8c7c3b9258460405161062091906120be565b60405180910390a36001905092915050565b6000806000600160008873ffffffffffffffffffffffffffffffffffffffff1673ffffffffffffffffffffffffffffffffffffffff16815260200190815260200160002060003373ffffffffffffffffffffffffffffffffffffffff1673ffffffffffffffffffffffffffffffffffffffff168152602001908152602001600020548511156106d457600060536000801b8160f81b91509250925092506107fa565b846000808973ffffffffffffffffffffffffffffffffffffffff1673ffffffffffffffffffffffffffffffffffffffff16815260200190815260200160002054101561073357600060526000801b8160f81b91509250925092506107fa565b600073ffffffffffffffffffffffffffffffffffffffff168673ffffffffffffffffffffffffffffffffffffffff160361078057600060576000801b8160f81b91509250925092506107fa565b6107c86000808873ffffffffffffffffffffffffffffffffffffffff1673ffffffffffffffffffffffffffffffffffffffff16815260200190815260200160002054866112a5565b6107e557600060506000801b8160f81b91509250925092506107fa565b600160516000801b8160f81b91509250925092505b9450945094915050565b6000600254905090565b6000806000846000803373ffffffffffffffffffffffffffffffffffffffff1673ffffffffffffffffffffffffffffffffffffffff16815260200190815260200160002054101561087257600060526000801b8160f81b9150925092509250610939565b600073ffffffffffffffffffffffffffffffffffffffff168673ffffffffffffffffffffffffffffffffffffffff16036108bf57600060576000801b8160f81b9150925092509250610939565b6109076000808873ffffffffffffffffffffffffffffffffffffffff1673ffffffffffffffffffffffffffffffffffffffff16815260200190815260200160002054866112a5565b61092457600060506000801b8160f81b9150925092509250610939565b600160516000801b8160f81b91509250925092505b93509350939050565b6000610950338585856112d4565b600190509392505050565b61096633848461147d565b505050565b6000600360149054906101000a900460ff16905090565b6000600660009054906101000a900460ff16905090565b60008073ffffffffffffffffffffffffffffffffffffffff168373ffffffffffffffffffffffffffffffffffffffff16036109d357600080fd5b610a6282600160003373ffffffffffffffffffffffffffffffffffffffff1673ffffffffffffffffffffffffffffffffffffffff16815260200190815260200160002060008673ffffffffffffffffffffffffffffffffffffffff1673ffffffffffffffffffffffffffffffffffffffff1681526020019081526020016000205461169190919063ffffffff16565b600160003373ffffffffffffffffffffffffffffffffffffffff1673ffffffffffffffffffffffffffffffffffffffff16815260200190815260200160002060008573ffffffffffffffffffffffffffffffffffffffff1673ffffffffffffffffffffffffffffffffffffffff168152602001908152602001600020819055508273ffffffffffffffffffffffffffffffffffffffff163373ffffffffffffffffffffffffffffffffffffffff167f8c5be1e5ebec7d5bd14f71427d1e84f3dd0314c0f7b2291e5b200ac8c7c3b925600160003373ffffffffffffffffffffffffffffffffffffffff1673ffffffffffffffffffffffffffffffffffffffff16815260200190815260200160002060008773ffffffffffffffffffffffffffffffffffffffff1673ffffffffffffffffffffffffffffffffffffffff16815260200190815260200160002054604051610bbb91906120be565b60405180910390a36001905092915050565b610bd56116a7565b600360149054906101000a900460ff16610c24576040517f08c379a0000000000000000000000000000000000000000000000000000000008152600401610c1b90612371565b60405180910390fd5b6000600360146101000a81548160ff0219169083151502179055507f7be64d1bc574242f8d2e75d794df46c535a72ac78ce5aac3ff5f554281e1155c60405160405180910390a1565b60008060008373ffffffffffffffffffffffffffffffffffffffff1673ffffffffffffffffffffffffffffffffffffffff168152602001908152602001600020549050919050565b610cbd6116a7565b610cc76000611725565b565b6000600360009054906101000a900473ffffffffffffffffffffffffffffffffffffffff16905090565b606060058054610d02906122f4565b80601f0160208091040260200160405190810160405280929190818152602001828054610d2e906122f4565b8015610d7b5780601f10610d5057610100808354040283529160200191610d7b565b820191906000526020600020905b815481529060010190602001808311610d5e57829003601f168201915b5050505050905090565b610d8f83836117eb565b8273ffffffffffffffffffffffffffffffffffffffff163373ffffffffffffffffffffffffffffffffffffffff167fb7d0d6b60740753e9f16692a2f479472a1385aec2420fa43225b02f2ffa1afe78484604051610dee9291906123e6565b60405180910390a3505050565b60008073ffffffffffffffffffffffffffffffffffffffff168373ffffffffffffffffffffffffffffffffffffffff1603610e3557600080fd5b610ec482600160003373ffffffffffffffffffffffffffffffffffffffff1673ffffffffffffffffffffffffffffffffffffffff16815260200190815260200160002060008673ffffffffffffffffffffffffffffffffffffffff1673ffffffffffffffffffffffffffffffffffffffff1681526020019081526020016000205461199190919063ffffffff16565b600160003373ffffffffffffffffffffffffffffffffffffffff1673ffffffffffffffffffffffffffffffffffffffff16815260200190815260200160002060008573ffffffffffffffffffffffffffffffffffffffff1673ffffffffffffffffffffffffffffffffffffffff168152602001908152602001600020819055508273ffffffffffffffffffffffffffffffffffffffff163373ffffffffffffffffffffffffffffffffffffffff167f8c5be1e5ebec7d5bd14f71427d1e84f3dd0314c0f7b2291e5b200ac8c7c3b925600160003373ffffffffffffffffffffffffffffffffffffffff1673ffffffffffffffffffffffffffffffffffffffff16815260200190815260200160002060008773ffffffffffffffffffffffffffffffffffffffff1673ffffffffffffffffffffffffffffffffffffffff1681526020019081526020016000205460405161101d91906120be565b60405180910390a36001905092915050565b600061103c33848461147d565b6001905092915050565b61104e6116a7565b600360149054906101000a900460ff1661109d576040517f08c379a000000000000000000000000000000000000000000000000000000000815260040161109490612462565b60405180910390fd5b6110a783836119a7565b8273ffffffffffffffffffffffffffffffffffffffff163373ffffffffffffffffffffffffffffffffffffffff167f0e9905d62635f049c2f4e11678ebf9dc3d1f8c4a653e290759b772e47ba00d0084846040516111069291906123e6565b60405180910390a3505050565b6000600160008473ffffffffffffffffffffffffffffffffffffffff1673ffffffffffffffffffffffffffffffffffffffff16815260200190815260200160002060008373ffffffffffffffffffffffffffffffffffffffff1673ffffffffffffffffffffffffffffffffffffffff16815260200190815260200160002054905092915050565b6111a43383611af8565b3373ffffffffffffffffffffffffffffffffffffffff16600073ffffffffffffffffffffffffffffffffffffffff167fb7d0d6b60740753e9f16692a2f479472a1385aec2420fa43225b02f2ffa1afe784846040516112049291906123e6565b60405180910390a35050565b61121c338585856112d4565b50505050565b61122a6116a7565b600073ffffffffffffffffffffffffffffffffffffffff168173ffffffffffffffffffffffffffffffffffffffff1603611299576040517f08c379a0000000000000000000000000000000000000000000000000000000008152600401611290906124f4565b60405180910390fd5b6112a281611725565b50565b60008082846112b49190612543565b9050838110156112c85760009150506112ce565b60019150505b92915050565b600160008473ffffffffffffffffffffffffffffffffffffffff1673ffffffffffffffffffffffffffffffffffffffff16815260200190815260200160002060008573ffffffffffffffffffffffffffffffffffffffff1673ffffffffffffffffffffffffffffffffffffffff1681526020019081526020016000205481111561135d57600080fd5b6113ec81600160008673ffffffffffffffffffffffffffffffffffffffff1673ffffffffffffffffffffffffffffffffffffffff16815260200190815260200160002060008773ffffffffffffffffffffffffffffffffffffffff1673ffffffffffffffffffffffffffffffffffffffff1681526020019081526020016000205461199190919063ffffffff16565b600160008573ffffffffffffffffffffffffffffffffffffffff1673ffffffffffffffffffffffffffffffffffffffff16815260200190815260200160002060008673ffffffffffffffffffffffffffffffffffffffff1673ffffffffffffffffffffffffffffffffffffffff1681526020019081526020016000208190555061147783838361147d565b50505050565b6000808473ffffffffffffffffffffffffffffffffffffffff1673ffffffffffffffffffffffffffffffffffffffff168152602001908152602001600020548111156114c857600080fd5b600073ffffffffffffffffffffffffffffffffffffffff168273ffffffffffffffffffffffffffffffffffffffff160361150157600080fd5b611552816000808673ffffffffffffffffffffffffffffffffffffffff1673ffffffffffffffffffffffffffffffffffffffff1681526020019081526020016000205461199190919063ffffffff16565b6000808573ffffffffffffffffffffffffffffffffffffffff1673ffffffffffffffffffffffffffffffffffffffff168152602001908152602001600020819055506115e5816000808573ffffffffffffffffffffffffffffffffffffffff1673ffffffffffffffffffffffffffffffffffffffff1681526020019081526020016000205461169190919063ffffffff16565b6000808473ffffffffffffffffffffffffffffffffffffffff1673ffffffffffffffffffffffffffffffffffffffff168152602001908152602001600020819055508173ffffffffffffffffffffffffffffffffffffffff168373ffffffffffffffffffffffffffffffffffffffff167fddf252ad1be2c89b69c2b068fc378daa952ba7f163c4a11628f55a4df523b3ef8360405161168491906120be565b60405180910390a3505050565b6000818361169f9190612543565b905092915050565b6116af611c94565b73ffffffffffffffffffffffffffffffffffffffff166116cd610cc9565b73ffffffffffffffffffffffffffffffffffffffff1614611723576040517f08c379a000000000000000000000000000000000000000000000000000000000815260040161171a906125c3565b60405180910390fd5b565b6000600360009054906101000a900473ffffffffffffffffffffffffffffffffffffffff16905081600360006101000a81548173ffffffffffffffffffffffffffffffffffffffff021916908373ffffffffffffffffffffffffffffffffffffffff1602179055508173ffffffffffffffffffffffffffffffffffffffff168173ffffffffffffffffffffffffffffffffffffffff167f8be0079c531659141344cd1fd0a4f28419497f9722a3daafe3b4186f6b6457e060405160405180910390a35050565b600160008373ffffffffffffffffffffffffffffffffffffffff1673ffffffffffffffffffffffffffffffffffffffff16815260200190815260200160002060003373ffffffffffffffffffffffffffffffffffffffff1673ffffffffffffffffffffffffffffffffffffffff1681526020019081526020016000205481111561187457600080fd5b61190381600160008573ffffffffffffffffffffffffffffffffffffffff1673ffffffffffffffffffffffffffffffffffffffff16815260200190815260200160002060003373ffffffffffffffffffffffffffffffffffffffff1673ffffffffffffffffffffffffffffffffffffffff1681526020019081526020016000205461199190919063ffffffff16565b600160008473ffffffffffffffffffffffffffffffffffffffff1673ffffffffffffffffffffffffffffffffffffffff16815260200190815260200160002060003373ffffffffffffffffffffffffffffffffffffffff1673ffffffffffffffffffffffffffffffffffffffff1681526020019081526020016000208190555061198d8282611af8565b5050565b6000818361199f91906125e3565b905092915050565b600073ffffffffffffffffffffffffffffffffffffffff168273ffffffffffffffffffffffffffffffffffffffff16036119e057600080fd5b6119f58160025461169190919063ffffffff16565b600281905550611a4c816000808573ffffffffffffffffffffffffffffffffffffffff1673ffffffffffffffffffffffffffffffffffffffff1681526020019081526020016000205461169190919063ffffffff16565b6000808473ffffffffffffffffffffffffffffffffffffffff1673ffffffffffffffffffffffffffffffffffffffff168152602001908152602001600020819055508173ffffffffffffffffffffffffffffffffffffffff16600073ffffffffffffffffffffffffffffffffffffffff167fddf252ad1be2c89b69c2b068fc378daa952ba7f163c4a11628f55a4df523b3ef83604051611aec91906120be565b60405180910390a35050565b600073ffffffffffffffffffffffffffffffffffffffff168273ffffffffffffffffffffffffffffffffffffffff1603611b3157600080fd5b6000808373ffffffffffffffffffffffffffffffffffffffff1673ffffffffffffffffffffffffffffffffffffffff16815260200190815260200160002054811115611b7c57600080fd5b611b918160025461199190919063ffffffff16565b600281905550611be8816000808573ffffffffffffffffffffffffffffffffffffffff1673ffffffffffffffffffffffffffffffffffffffff1681526020019081526020016000205461199190919063ffffffff16565b6000808473ffffffffffffffffffffffffffffffffffffffff1673ffffffffffffffffffffffffffffffffffffffff16815260200190815260200160002081905550600073ffffffffffffffffffffffffffffffffffffffff168273ffffffffffffffffffffffffffffffffffffffff167fddf252ad1be2c89b69c2b068fc378daa952ba7f163c4a11628f55a4df523b3ef83604051611c8891906120be565b60405180910390a35050565b600033905090565b600081519050919050565b600082825260208201905092915050565b60005b83811015611cd6578082015181840152602081019050611cbb565b60008484015250505050565b6000601f19601f8301169050919050565b6000611cfe82611c9c565b611d088185611ca7565b9350611d18818560208601611cb8565b611d2181611ce2565b840191505092915050565b60006020820190508181036000830152611d468184611cf3565b905092915050565b6000604051905090565b600080fd5b600080fd5b600073ffffffffffffffffffffffffffffffffffffffff82169050919050565b6000611d8d82611d62565b9050919050565b611d9d81611d82565b8114611da857600080fd5b50565b600081359050611dba81611d94565b92915050565b6000819050919050565b611dd381611dc0565b8114611dde57600080fd5b50565b600081359050611df081611dca565b92915050565b60008060408385031215611e0d57611e0c611d58565b5b6000611e1b85828601611dab565b9250506020611e2c85828601611de1565b9150509250929050565b60008115159050919050565b611e4b81611e36565b82525050565b6000602082019050611e666000830184611e42565b92915050565b600080fd5b600080fd5b7f4e487b7100000000000000000000000000000000000000000000000000000000600052604160045260246000fd5b611eae82611ce2565b810181811067ffffffffffffffff82111715611ecd57611ecc611e76565b5b80604052505050565b6000611ee0611d4e565b9050611eec8282611ea5565b919050565b600067ffffffffffffffff821115611f0c57611f0b611e76565b5b611f1582611ce2565b9050602081019050919050565b82818337600083830152505050565b6000611f44611f3f84611ef1565b611ed6565b905082815260208101848484011115611f6057611f5f611e71565b5b611f6b848285611f22565b509392505050565b600082601f830112611f8857611f87611e6c565b5b8135611f98848260208601611f31565b91505092915050565b60008060008060808587031215611fbb57611fba611d58565b5b6000611fc987828801611dab565b9450506020611fda87828801611dab565b9350506040611feb87828801611de1565b925050606085013567ffffffffffffffff81111561200c5761200b611d5d565b5b61201887828801611f73565b91505092959194509250565b60007fff0000000000000000000000000000000000000000000000000000000000000082169050919050565b61205981612024565b82525050565b6000819050919050565b6120728161205f565b82525050565b600060608201905061208d6000830186611e42565b61209a6020830185612050565b6120a76040830184612069565b949350505050565b6120b881611dc0565b82525050565b60006020820190506120d360008301846120af565b92915050565b6000806000606084860312156120f2576120f1611d58565b5b600061210086828701611dab565b935050602061211186828701611de1565b925050604084013567ffffffffffffffff81111561213257612131611d5d565b5b61213e86828701611f73565b9150509250925092565b60008060006060848603121561216157612160611d58565b5b600061216f86828701611dab565b935050602061218086828701611dab565b925050604061219186828701611de1565b9150509250925092565b600060ff82169050919050565b6121b18161219b565b82525050565b60006020820190506121cc60008301846121a8565b92915050565b6000602082840312156121e8576121e7611d58565b5b60006121f684828501611dab565b91505092915050565b61220881611d82565b82525050565b600060208201905061222360008301846121ff565b92915050565b600080604083850312156122405761223f611d58565b5b600061224e85828601611dab565b925050602061225f85828601611dab565b9150509250929050565b600080604083850312156122805761227f611d58565b5b600061228e85828601611de1565b925050602083013567ffffffffffffffff8111156122af576122ae611d5d565b5b6122bb85828601611f73565b9150509250929050565b7f4e487b7100000000000000000000000000000000000000000000000000000000600052602260045260246000fd5b6000600282049050600182168061230c57607f821691505b60208210810361231f5761231e6122c5565b5b50919050565b7f49737375616e636520616c726561647920636c6f736564000000000000000000600082015250565b600061235b601783611ca7565b915061236682612325565b602082019050919050565b6000602082019050818103600083015261238a8161234e565b9050919050565b600081519050919050565b600082825260208201905092915050565b60006123b882612391565b6123c2818561239c565b93506123d2818560208601611cb8565b6123db81611ce2565b840191505092915050565b60006040820190506123fb60008301856120af565b818103602083015261240d81846123ad565b90509392505050565b7f49737375616e636520697320636c6f7365640000000000000000000000000000600082015250565b600061244c601283611ca7565b915061245782612416565b602082019050919050565b6000602082019050818103600083015261247b8161243f565b9050919050565b7f4f776e61626c653a206e6577206f776e657220697320746865207a65726f206160008201527f6464726573730000000000000000000000000000000000000000000000000000602082015250565b60006124de602683611ca7565b91506124e982612482565b604082019050919050565b6000602082019050818103600083015261250d816124d1565b9050919050565b7f4e487b7100000000000000000000000000000000000000000000000000000000600052601160045260246000fd5b600061254e82611dc0565b915061255983611dc0565b925082820190508082111561257157612570612514565b5b92915050565b7f4f776e61626c653a2063616c6c6572206973206e6f7420746865206f776e6572600082015250565b60006125ad602083611ca7565b91506125b882612577565b602082019050919050565b600060208201905081810360008301526125dc816125a0565b9050919050565b60006125ee82611dc0565b91506125f983611dc0565b925082820390508181111561261157612610612514565b5b9291505056fea26469706673582212204e34fb8c1e8eba202de32639d31cdfcc6eda8b09827ff102e5bf072e231bf50464736f6c63430008100033",
  "immutableReferences": {},
  "source": "// SPDX-License-Identifier: MIT\npragma solidity ^0.8.16;\nimport \"./ERC1594.sol\";\nimport \"./ERC20Detailed.sol\";\n\ncontract ERC1594Token is ERC1594, ERC20Detailed {\n    constructor(\n        string memory name,\n        string memory symbol,\n        uint8 decimals\n    ) ERC20Detailed(\"Project Token\", \"PT\", 18) {}\n\n    event IssuanceFinalized();\n\n    function finalizeIssuance() external onlyOwner {\n        require(issuance, \"Issuance already closed\");\n        issuance = false;\n        emit IssuanceFinalized();\n    }\n}\n",
  "sourcePath": "/mnt/c/Users/HP/Desktop/MODUS/contracts/tokens/ProjectToken.sol",
  "compiler": {
    "name": "solc",
    "version": "0.8.16+commit.07a7930e.Emscripten.clang"
  },
  "schemaVersion": "3.4.9",
  "updatedAt": "2022-12-12T11:26:31.748Z",
  "devdoc": {
    "kind": "dev",
    "methods": {
      "allowance(address,address)": {
        "details": "Function to check the amount of tokens that an owner allowed to a spender.",
        "params": {
          "owner": "address The address which owns the funds.",
          "spender": "address The address which will spend the funds."
        },
        "returns": {
          "_0": "A uint256 specifying the amount of tokens still available for the spender."
        }
      },
      "approve(address,uint256)": {
        "details": "Approve the passed address to spend the specified amount of tokens on behalf of msg.sender. Beware that changing an allowance with this method brings the risk that someone may use both the old and the new allowance by unfortunate transaction ordering. One possible solution to mitigate this race condition is to first reduce the spender's allowance to 0 and set the desired value afterwards: https://github.com/ethereum/EIPs/issues/20#issuecomment-263524729",
        "params": {
          "spender": "The address which will spend the funds.",
          "value": "The amount of tokens to be spent."
        }
      },
      "balanceOf(address)": {
        "details": "Gets the balance of the specified address.",
        "params": {
          "owner": "The address to query the balance of."
        },
        "returns": {
          "_0": "An uint256 representing the amount owned by the passed address."
        }
      },
      "canTransfer(address,uint256,bytes)": {
        "params": {
          "_data": "The `bytes _data` allows arbitrary data to be submitted alongside the transfer.",
          "_to": "address The address which you want to transfer to",
          "_value": "uint256 the amount of tokens to be transferred"
        },
        "returns": {
          "_0": "bool It signifies whether the transaction will be executed or not.",
          "_1": "byte Ethereum status code (ESC)",
          "_2": "bytes32 Application specific reason code"
        }
      },
      "canTransferFrom(address,address,uint256,bytes)": {
        "params": {
          "_data": "The `bytes _data` allows arbitrary data to be submitted alongside the transfer.",
          "_from": "address The address which you want to send tokens from",
          "_to": "address The address which you want to transfer to",
          "_value": "uint256 the amount of tokens to be transferred"
        },
        "returns": {
          "_0": "bool It signifies whether the transaction will be executed or not.",
          "_1": "byte Ethereum status code (ESC)",
          "_2": "bytes32 Application specific reason code"
        }
      },
      "decreaseAllowance(address,uint256)": {
        "details": "Decrease the amount of tokens that an owner allowed to a spender. approve should be called when allowed_[_spender] == 0. To decrement allowed value is better to use this function to avoid 2 calls (and wait until the first transaction is mined) From MonolithDAO Token.sol",
        "params": {
          "spender": "The address which will spend the funds.",
          "subtractedValue": "The amount of tokens to decrease the allowance by."
        }
      },
      "increaseAllowance(address,uint256)": {
        "details": "Increase the amount of tokens that an owner allowed to a spender. approve should be called when allowed_[_spender] == 0. To increment allowed value is better to use this function to avoid 2 calls (and wait until the first transaction is mined) From MonolithDAO Token.sol",
        "params": {
          "addedValue": "The amount of tokens to increase the allowance by.",
          "spender": "The address which will spend the funds."
        }
      },
      "isIssuable()": {
        "details": "If a token returns FALSE for `isIssuable()` then it MUST always return FALSE in the future. If a token returns FALSE for `isIssuable()` then it MUST never allow additional tokens to be issued.",
        "returns": {
          "_0": "bool `true` signifies the minting is allowed. While `false` denotes the end of minting"
        }
      },
      "issue(address,uint256,bytes)": {
        "details": "It only be called by the token issuer or the operator defined by the issuer. ERC1594 doesn't have have the any logic related to operator but its superset ERC1400 have the operator logic and this function is allowed to call by the operator.",
        "params": {
          "_data": "The `bytes _data` allows arbitrary data to be submitted alongside the transfer.",
          "_tokenHolder": "The account that will receive the created tokens (account should be whitelisted or KYCed).",
          "_value": "The amount of tokens need to be issued"
        }
      },
      "owner()": {
        "details": "Returns the address of the current owner."
      },
      "redeem(uint256,bytes)": {
        "params": {
          "_data": "The `bytes _data` it can be used in the token contract to authenticate the redemption.",
          "_value": "The amount of tokens need to be redeemed"
        }
      },
      "redeemFrom(address,uint256,bytes)": {
        "details": "It is analogy to `transferFrom`",
        "params": {
          "_data": "The `bytes _data` it can be used in the token contract to authenticate the redemption.",
          "_tokenHolder": "The account whose tokens gets redeemed.",
          "_value": "The amount of tokens need to be redeemed"
        }
      },
      "renounceOwnership()": {
        "details": "Leaves the contract without owner. It will not be possible to call `onlyOwner` functions anymore. Can only be called by the current owner. NOTE: Renouncing ownership will leave the contract without an owner, thereby removing any functionality that is only available to the owner."
      },
      "totalSupply()": {
        "details": "Total number of tokens in existence"
      },
      "transfer(address,uint256)": {
        "details": "Transfer token for a specified address",
        "params": {
          "to": "The address to transfer to.",
          "value": "The amount to be transferred."
        }
      },
      "transferFrom(address,address,uint256)": {
        "details": "Transfer tokens from one address to another",
        "params": {
          "from": "address The address which you want to send tokens from",
          "to": "address The address which you want to transfer to",
          "value": "uint256 the amount of tokens to be transferred"
        }
      },
      "transferFromWithData(address,address,uint256,bytes)": {
        "details": "`msg.sender` MUST have a sufficient `allowance` set and this `allowance` must be debited by the `_value`.",
        "params": {
          "_data": "The `bytes _data` allows arbitrary data to be submitted alongside the transfer. for the token contract to interpret or record. This could be signed data authorising the transfer (e.g. a dynamic whitelist) but is flexible enough to accomadate other use-cases.",
          "_from": "address The address which you want to send tokens from",
          "_to": "address The address which you want to transfer to",
          "_value": "uint256 the amount of tokens to be transferred"
        }
      },
      "transferOwnership(address)": {
        "details": "Transfers ownership of the contract to a new account (`newOwner`). Can only be called by the current owner."
      },
      "transferWithData(address,uint256,bytes)": {
        "params": {
          "_data": "The `bytes _data` allows arbitrary data to be submitted alongside the transfer. for the token contract to interpret or record. This could be signed data authorising the transfer (e.g. a dynamic whitelist) but is flexible enough to accomadate other use-cases.",
          "_to": "address The address which you want to transfer to",
          "_value": "uint256 the amount of tokens to be transferred"
        }
      }
    },
    "version": 1
  },
  "userdoc": {
    "kind": "user",
    "methods": {
      "canTransfer(address,uint256,bytes)": {
        "notice": "Transfers of securities may fail for a number of reasons. So this function will used to understand the cause of failure by getting the byte value. Which will be the ESC that follows the EIP 1066. ESC can be mapped with a reson string to understand the failure cause, table of Ethereum status code will always reside off-chain"
      },
      "canTransferFrom(address,address,uint256,bytes)": {
        "notice": "Transfers of securities may fail for a number of reasons. So this function will used to understand the cause of failure by getting the byte value. Which will be the ESC that follows the EIP 1066. ESC can be mapped with a reson string to understand the failure cause, table of Ethereum status code will always reside off-chain"
      },
      "isIssuable()": {
        "notice": "A security token issuer can specify that issuance has finished for the token (i.e. no new tokens can be minted or issued)."
      },
      "issue(address,uint256,bytes)": {
        "notice": "This function must be called to increase the total supply (Corresponds to mint function of ERC20)."
      },
      "redeem(uint256,bytes)": {
        "notice": "This function redeem an amount of the token of a msg.sender. For doing so msg.sender may incentivize using different ways that could be implemented with in the `redeem` function definition. But those implementations are out of the scope of the ERC1594."
      },
      "redeemFrom(address,uint256,bytes)": {
        "notice": "This function redeem an amount of the token of a msg.sender. For doing so msg.sender may incentivize using different ways that could be implemented with in the `redeem` function definition. But those implementations are out of the scope of the ERC1594."
      },
      "transferFromWithData(address,address,uint256,bytes)": {
        "notice": "Transfer restrictions can take many forms and typically involve on-chain rules or whitelists. However for many types of approved transfers, maintaining an on-chain list of approved transfers can be cumbersome and expensive. An alternative is the co-signing approach, where in addition to the token holder approving a token transfer, and authorised entity provides signed data which further validates the transfer."
      },
      "transferWithData(address,uint256,bytes)": {
        "notice": "Transfer restrictions can take many forms and typically involve on-chain rules or whitelists. However for many types of approved transfers, maintaining an on-chain list of approved transfers can be cumbersome and expensive. An alternative is the co-signing approach, where in addition to the token holder approving a token transfer, and authorised entity provides signed data which further validates the transfer."
      }
    },
    "version": 1
  }
}