{
  "contractName": "ERC1594",
  "abi": [
    {
      "inputs": [],
      "stateMutability": "nonpayable",
      "type": "constructor"
    },
    {
      "anonymous": false,
      "inputs": [
        {
          "indexed": true,
          "internalType": "address",
          "name": "owner",
          "type": "address"
        },
        {
          "indexed": true,
          "internalType": "address",
          "name": "spender",
          "type": "address"
        },
        {
          "indexed": false,
          "internalType": "uint256",
          "name": "value",
          "type": "uint256"
        }
      ],
      "name": "Approval",
      "type": "event"
    },
    {
      "anonymous": false,
      "inputs": [
        {
          "indexed": true,
          "internalType": "address",
          "name": "_operator",
          "type": "address"
        },
        {
          "indexed": true,
          "internalType": "address",
          "name": "_to",
          "type": "address"
        },
        {
          "indexed": false,
          "internalType": "uint256",
          "name": "_value",
          "type": "uint256"
        },
        {
          "indexed": false,
          "internalType": "bytes",
          "name": "_data",
          "type": "bytes"
        }
      ],
      "name": "Issued",
      "type": "event"
    },
    {
      "anonymous": false,
      "inputs": [
        {
          "indexed": true,
          "internalType": "address",
          "name": "previousOwner",
          "type": "address"
        },
        {
          "indexed": true,
          "internalType": "address",
          "name": "newOwner",
          "type": "address"
        }
      ],
      "name": "OwnershipTransferred",
      "type": "event"
    },
    {
      "anonymous": false,
      "inputs": [
        {
          "indexed": true,
          "internalType": "address",
          "name": "_operator",
          "type": "address"
        },
        {
          "indexed": true,
          "internalType": "address",
          "name": "_from",
          "type": "address"
        },
        {
          "indexed": false,
          "internalType": "uint256",
          "name": "_value",
          "type": "uint256"
        },
        {
          "indexed": false,
          "internalType": "bytes",
          "name": "_data",
          "type": "bytes"
        }
      ],
      "name": "Redeemed",
      "type": "event"
    },
    {
      "anonymous": false,
      "inputs": [
        {
          "indexed": true,
          "internalType": "address",
          "name": "from",
          "type": "address"
        },
        {
          "indexed": true,
          "internalType": "address",
          "name": "to",
          "type": "address"
        },
        {
          "indexed": false,
          "internalType": "uint256",
          "name": "value",
          "type": "uint256"
        }
      ],
      "name": "Transfer",
      "type": "event"
    },
    {
      "inputs": [
        {
          "internalType": "address",
          "name": "owner",
          "type": "address"
        },
        {
          "internalType": "address",
          "name": "spender",
          "type": "address"
        }
      ],
      "name": "allowance",
      "outputs": [
        {
          "internalType": "uint256",
          "name": "",
          "type": "uint256"
        }
      ],
      "stateMutability": "view",
      "type": "function"
    },
    {
      "inputs": [
        {
          "internalType": "address",
          "name": "spender",
          "type": "address"
        },
        {
          "internalType": "uint256",
          "name": "value",
          "type": "uint256"
        }
      ],
      "name": "approve",
      "outputs": [
        {
          "internalType": "bool",
          "name": "",
          "type": "bool"
        }
      ],
      "stateMutability": "nonpayable",
      "type": "function"
    },
    {
      "inputs": [
        {
          "internalType": "address",
          "name": "owner",
          "type": "address"
        }
      ],
      "name": "balanceOf",
      "outputs": [
        {
          "internalType": "uint256",
          "name": "",
          "type": "uint256"
        }
      ],
      "stateMutability": "view",
      "type": "function"
    },
    {
      "inputs": [
        {
          "internalType": "address",
          "name": "spender",
          "type": "address"
        },
        {
          "internalType": "uint256",
          "name": "subtractedValue",
          "type": "uint256"
        }
      ],
      "name": "decreaseAllowance",
      "outputs": [
        {
          "internalType": "bool",
          "name": "",
          "type": "bool"
        }
      ],
      "stateMutability": "nonpayable",
      "type": "function"
    },
    {
      "inputs": [
        {
          "internalType": "address",
          "name": "spender",
          "type": "address"
        },
        {
          "internalType": "uint256",
          "name": "addedValue",
          "type": "uint256"
        }
      ],
      "name": "increaseAllowance",
      "outputs": [
        {
          "internalType": "bool",
          "name": "",
          "type": "bool"
        }
      ],
      "stateMutability": "nonpayable",
      "type": "function"
    },
    {
      "inputs": [],
      "name": "owner",
      "outputs": [
        {
          "internalType": "address",
          "name": "",
          "type": "address"
        }
      ],
      "stateMutability": "view",
      "type": "function"
    },
    {
      "inputs": [],
      "name": "renounceOwnership",
      "outputs": [],
      "stateMutability": "nonpayable",
      "type": "function"
    },
    {
      "inputs": [],
      "name": "totalSupply",
      "outputs": [
        {
          "internalType": "uint256",
          "name": "",
          "type": "uint256"
        }
      ],
      "stateMutability": "view",
      "type": "function"
    },
    {
      "inputs": [
        {
          "internalType": "address",
          "name": "to",
          "type": "address"
        },
        {
          "internalType": "uint256",
          "name": "value",
          "type": "uint256"
        }
      ],
      "name": "transfer",
      "outputs": [
        {
          "internalType": "bool",
          "name": "",
          "type": "bool"
        }
      ],
      "stateMutability": "nonpayable",
      "type": "function"
    },
    {
      "inputs": [
        {
          "internalType": "address",
          "name": "from",
          "type": "address"
        },
        {
          "internalType": "address",
          "name": "to",
          "type": "address"
        },
        {
          "internalType": "uint256",
          "name": "value",
          "type": "uint256"
        }
      ],
      "name": "transferFrom",
      "outputs": [
        {
          "internalType": "bool",
          "name": "",
          "type": "bool"
        }
      ],
      "stateMutability": "nonpayable",
      "type": "function"
    },
    {
      "inputs": [
        {
          "internalType": "address",
          "name": "newOwner",
          "type": "address"
        }
      ],
      "name": "transferOwnership",
      "outputs": [],
      "stateMutability": "nonpayable",
      "type": "function"
    },
    {
      "inputs": [
        {
          "internalType": "address",
          "name": "_to",
          "type": "address"
        },
        {
          "internalType": "uint256",
          "name": "_value",
          "type": "uint256"
        },
        {
          "internalType": "bytes",
          "name": "_data",
          "type": "bytes"
        }
      ],
      "name": "transferWithData",
      "outputs": [],
      "stateMutability": "nonpayable",
      "type": "function"
    },
    {
      "inputs": [
        {
          "internalType": "address",
          "name": "_from",
          "type": "address"
        },
        {
          "internalType": "address",
          "name": "_to",
          "type": "address"
        },
        {
          "internalType": "uint256",
          "name": "_value",
          "type": "uint256"
        },
        {
          "internalType": "bytes",
          "name": "_data",
          "type": "bytes"
        }
      ],
      "name": "transferFromWithData",
      "outputs": [],
      "stateMutability": "nonpayable",
      "type": "function"
    },
    {
      "inputs": [],
      "name": "isIssuable",
      "outputs": [
        {
          "internalType": "bool",
          "name": "",
          "type": "bool"
        }
      ],
      "stateMutability": "view",
      "type": "function"
    },
    {
      "inputs": [
        {
          "internalType": "address",
          "name": "_tokenHolder",
          "type": "address"
        },
        {
          "internalType": "uint256",
          "name": "_value",
          "type": "uint256"
        },
        {
          "internalType": "bytes",
          "name": "_data",
          "type": "bytes"
        }
      ],
      "name": "issue",
      "outputs": [],
      "stateMutability": "nonpayable",
      "type": "function"
    },
    {
      "inputs": [
        {
          "internalType": "uint256",
          "name": "_value",
          "type": "uint256"
        },
        {
          "internalType": "bytes",
          "name": "_data",
          "type": "bytes"
        }
      ],
      "name": "redeem",
      "outputs": [],
      "stateMutability": "nonpayable",
      "type": "function"
    },
    {
      "inputs": [
        {
          "internalType": "address",
          "name": "_tokenHolder",
          "type": "address"
        },
        {
          "internalType": "uint256",
          "name": "_value",
          "type": "uint256"
        },
        {
          "internalType": "bytes",
          "name": "_data",
          "type": "bytes"
        }
      ],
      "name": "redeemFrom",
      "outputs": [],
      "stateMutability": "nonpayable",
      "type": "function"
    },
    {
      "inputs": [
        {
          "internalType": "address",
          "name": "_to",
          "type": "address"
        },
        {
          "internalType": "uint256",
          "name": "_value",
          "type": "uint256"
        },
        {
          "internalType": "bytes",
          "name": "_data",
          "type": "bytes"
        }
      ],
      "name": "canTransfer",
      "outputs": [
        {
          "internalType": "bool",
          "name": "",
          "type": "bool"
        },
        {
          "internalType": "bytes1",
          "name": "",
          "type": "bytes1"
        },
        {
          "internalType": "bytes32",
          "name": "",
          "type": "bytes32"
        }
      ],
      "stateMutability": "view",
      "type": "function"
    },
    {
      "inputs": [
        {
          "internalType": "address",
          "name": "_from",
          "type": "address"
        },
        {
          "internalType": "address",
          "name": "_to",
          "type": "address"
        },
        {
          "internalType": "uint256",
          "name": "_value",
          "type": "uint256"
        },
        {
          "internalType": "bytes",
          "name": "_data",
          "type": "bytes"
        }
      ],
      "name": "canTransferFrom",
      "outputs": [
        {
          "internalType": "bool",
          "name": "",
          "type": "bool"
        },
        {
          "internalType": "bytes1",
          "name": "",
          "type": "bytes1"
        },
        {
          "internalType": "bytes32",
          "name": "",
          "type": "bytes32"
        }
      ],
      "stateMutability": "view",
      "type": "function"
    }
  ],
  "bytecode": "0x60806040526001600360146101000a81548160ff02191690831515021790555034801561002b57600080fd5b5061004861003d61004d60201b60201c565b61005560201b60201c565b61011b565b600033905090565b6000600360009054906101000a900473ffffffffffffffffffffffffffffffffffffffff16905081600360006101000a81548173ffffffffffffffffffffffffffffffffffffffff021916908373ffffffffffffffffffffffffffffffffffffffff1602179055508173ffffffffffffffffffffffffffffffffffffffff168173ffffffffffffffffffffffffffffffffffffffff167f8be0079c531659141344cd1fd0a4f28419497f9722a3daafe3b4186f6b6457e060405160405180910390a35050565b612279806200012b6000396000f3fe608060405234801561001057600080fd5b50600436106101215760003560e01c8063715018a6116100ad578063bb3acde911610071578063bb3acde914610346578063dd62ed3e14610362578063e77c646d14610392578063ee532f31146103ae578063f2fde38b146103ca57610121565b8063715018a6146102a25780638da5cb5b146102ac5780639675193c146102ca578063a457c2d7146102e6578063a9059cbb1461031657610121565b806323b872dd116100f457806323b872dd146101d85780632535f762146102085780632f1cae8514610224578063395093511461024257806370a082311461027257610121565b8063095ea7b314610126578063122eb5751461015657806318160ddd146101885780631badb25c146101a6575b600080fd5b610140600480360381019061013b9190611ad9565b6103e6565b60405161014d9190611b34565b60405180910390f35b610170600480360381019061016b9190611c95565b610510565b60405161017f93929190611d6c565b60405180910390f35b6101906106e2565b60405161019d9190611db2565b60405180910390f35b6101c060048036038101906101bb9190611dcd565b6106ec565b6040516101cf93929190611d6c565b60405180910390f35b6101f260048036038101906101ed9190611e3c565b610820565b6040516101ff9190611b34565b60405180910390f35b610222600480360381019061021d9190611dcd565b610839565b005b61022c610849565b6040516102399190611b34565b60405180910390f35b61025c60048036038101906102579190611ad9565b610860565b6040516102699190611b34565b60405180910390f35b61028c60048036038101906102879190611e8f565b610a94565b6040516102999190611db2565b60405180910390f35b6102aa610adc565b005b6102b4610af0565b6040516102c19190611ecb565b60405180910390f35b6102e460048036038101906102df9190611dcd565b610b1a565b005b61030060048036038101906102fb9190611ad9565b610b90565b60405161030d9190611b34565b60405180910390f35b610330600480360381019061032b9190611ad9565b610dc4565b60405161033d9190611b34565b60405180910390f35b610360600480360381019061035b9190611dcd565b610ddb565b005b61037c60048036038101906103779190611ee6565b610ea8565b6040516103899190611db2565b60405180910390f35b6103ac60048036038101906103a79190611f26565b610f2f565b005b6103c860048036038101906103c39190611c95565b610fa5565b005b6103e460048036038101906103df9190611e8f565b610fb7565b005b60008073ffffffffffffffffffffffffffffffffffffffff168373ffffffffffffffffffffffffffffffffffffffff160361042057600080fd5b81600160003373ffffffffffffffffffffffffffffffffffffffff1673ffffffffffffffffffffffffffffffffffffffff16815260200190815260200160002060008573ffffffffffffffffffffffffffffffffffffffff1673ffffffffffffffffffffffffffffffffffffffff168152602001908152602001600020819055508273ffffffffffffffffffffffffffffffffffffffff163373ffffffffffffffffffffffffffffffffffffffff167f8c5be1e5ebec7d5bd14f71427d1e84f3dd0314c0f7b2291e5b200ac8c7c3b925846040516104fe9190611db2565b60405180910390a36001905092915050565b6000806000600160008873ffffffffffffffffffffffffffffffffffffffff1673ffffffffffffffffffffffffffffffffffffffff16815260200190815260200160002060003373ffffffffffffffffffffffffffffffffffffffff1673ffffffffffffffffffffffffffffffffffffffff168152602001908152602001600020548511156105b257600060536000801b8160f81b91509250925092506106d8565b846000808973ffffffffffffffffffffffffffffffffffffffff1673ffffffffffffffffffffffffffffffffffffffff16815260200190815260200160002054101561061157600060526000801b8160f81b91509250925092506106d8565b600073ffffffffffffffffffffffffffffffffffffffff168673ffffffffffffffffffffffffffffffffffffffff160361065e57600060576000801b8160f81b91509250925092506106d8565b6106a66000808873ffffffffffffffffffffffffffffffffffffffff1673ffffffffffffffffffffffffffffffffffffffff168152602001908152602001600020548661103a565b6106c357600060506000801b8160f81b91509250925092506106d8565b600160516000801b8160f81b91509250925092505b9450945094915050565b6000600254905090565b6000806000846000803373ffffffffffffffffffffffffffffffffffffffff1673ffffffffffffffffffffffffffffffffffffffff16815260200190815260200160002054101561075057600060526000801b8160f81b9150925092509250610817565b600073ffffffffffffffffffffffffffffffffffffffff168673ffffffffffffffffffffffffffffffffffffffff160361079d57600060576000801b8160f81b9150925092509250610817565b6107e56000808873ffffffffffffffffffffffffffffffffffffffff1673ffffffffffffffffffffffffffffffffffffffff168152602001908152602001600020548661103a565b61080257600060506000801b8160f81b9150925092509250610817565b600160516000801b8160f81b91509250925092505b93509350939050565b600061082e33858585611069565b600190509392505050565b610844338484611212565b505050565b6000600360149054906101000a900460ff16905090565b60008073ffffffffffffffffffffffffffffffffffffffff168373ffffffffffffffffffffffffffffffffffffffff160361089a57600080fd5b61092982600160003373ffffffffffffffffffffffffffffffffffffffff1673ffffffffffffffffffffffffffffffffffffffff16815260200190815260200160002060008673ffffffffffffffffffffffffffffffffffffffff1673ffffffffffffffffffffffffffffffffffffffff1681526020019081526020016000205461142690919063ffffffff16565b600160003373ffffffffffffffffffffffffffffffffffffffff1673ffffffffffffffffffffffffffffffffffffffff16815260200190815260200160002060008573ffffffffffffffffffffffffffffffffffffffff1673ffffffffffffffffffffffffffffffffffffffff168152602001908152602001600020819055508273ffffffffffffffffffffffffffffffffffffffff163373ffffffffffffffffffffffffffffffffffffffff167f8c5be1e5ebec7d5bd14f71427d1e84f3dd0314c0f7b2291e5b200ac8c7c3b925600160003373ffffffffffffffffffffffffffffffffffffffff1673ffffffffffffffffffffffffffffffffffffffff16815260200190815260200160002060008773ffffffffffffffffffffffffffffffffffffffff1673ffffffffffffffffffffffffffffffffffffffff16815260200190815260200160002054604051610a829190611db2565b60405180910390a36001905092915050565b60008060008373ffffffffffffffffffffffffffffffffffffffff1673ffffffffffffffffffffffffffffffffffffffff168152602001908152602001600020549050919050565b610ae461143c565b610aee60006114ba565b565b6000600360009054906101000a900473ffffffffffffffffffffffffffffffffffffffff16905090565b610b248383611580565b8273ffffffffffffffffffffffffffffffffffffffff163373ffffffffffffffffffffffffffffffffffffffff167fb7d0d6b60740753e9f16692a2f479472a1385aec2420fa43225b02f2ffa1afe78484604051610b83929190612001565b60405180910390a3505050565b60008073ffffffffffffffffffffffffffffffffffffffff168373ffffffffffffffffffffffffffffffffffffffff1603610bca57600080fd5b610c5982600160003373ffffffffffffffffffffffffffffffffffffffff1673ffffffffffffffffffffffffffffffffffffffff16815260200190815260200160002060008673ffffffffffffffffffffffffffffffffffffffff1673ffffffffffffffffffffffffffffffffffffffff1681526020019081526020016000205461172690919063ffffffff16565b600160003373ffffffffffffffffffffffffffffffffffffffff1673ffffffffffffffffffffffffffffffffffffffff16815260200190815260200160002060008573ffffffffffffffffffffffffffffffffffffffff1673ffffffffffffffffffffffffffffffffffffffff168152602001908152602001600020819055508273ffffffffffffffffffffffffffffffffffffffff163373ffffffffffffffffffffffffffffffffffffffff167f8c5be1e5ebec7d5bd14f71427d1e84f3dd0314c0f7b2291e5b200ac8c7c3b925600160003373ffffffffffffffffffffffffffffffffffffffff1673ffffffffffffffffffffffffffffffffffffffff16815260200190815260200160002060008773ffffffffffffffffffffffffffffffffffffffff1673ffffffffffffffffffffffffffffffffffffffff16815260200190815260200160002054604051610db29190611db2565b60405180910390a36001905092915050565b6000610dd1338484611212565b6001905092915050565b610de361143c565b600360149054906101000a900460ff16610e32576040517f08c379a0000000000000000000000000000000000000000000000000000000008152600401610e299061208e565b60405180910390fd5b610e3c838361173c565b8273ffffffffffffffffffffffffffffffffffffffff163373ffffffffffffffffffffffffffffffffffffffff167f0e9905d62635f049c2f4e11678ebf9dc3d1f8c4a653e290759b772e47ba00d008484604051610e9b929190612001565b60405180910390a3505050565b6000600160008473ffffffffffffffffffffffffffffffffffffffff1673ffffffffffffffffffffffffffffffffffffffff16815260200190815260200160002060008373ffffffffffffffffffffffffffffffffffffffff1673ffffffffffffffffffffffffffffffffffffffff16815260200190815260200160002054905092915050565b610f39338361188d565b3373ffffffffffffffffffffffffffffffffffffffff16600073ffffffffffffffffffffffffffffffffffffffff167fb7d0d6b60740753e9f16692a2f479472a1385aec2420fa43225b02f2ffa1afe78484604051610f99929190612001565b60405180910390a35050565b610fb133858585611069565b50505050565b610fbf61143c565b600073ffffffffffffffffffffffffffffffffffffffff168173ffffffffffffffffffffffffffffffffffffffff160361102e576040517f08c379a000000000000000000000000000000000000000000000000000000000815260040161102590612120565b60405180910390fd5b611037816114ba565b50565b6000808284611049919061216f565b90508381101561105d576000915050611063565b60019150505b92915050565b600160008473ffffffffffffffffffffffffffffffffffffffff1673ffffffffffffffffffffffffffffffffffffffff16815260200190815260200160002060008573ffffffffffffffffffffffffffffffffffffffff1673ffffffffffffffffffffffffffffffffffffffff168152602001908152602001600020548111156110f257600080fd5b61118181600160008673ffffffffffffffffffffffffffffffffffffffff1673ffffffffffffffffffffffffffffffffffffffff16815260200190815260200160002060008773ffffffffffffffffffffffffffffffffffffffff1673ffffffffffffffffffffffffffffffffffffffff1681526020019081526020016000205461172690919063ffffffff16565b600160008573ffffffffffffffffffffffffffffffffffffffff1673ffffffffffffffffffffffffffffffffffffffff16815260200190815260200160002060008673ffffffffffffffffffffffffffffffffffffffff1673ffffffffffffffffffffffffffffffffffffffff1681526020019081526020016000208190555061120c838383611212565b50505050565b6000808473ffffffffffffffffffffffffffffffffffffffff1673ffffffffffffffffffffffffffffffffffffffff1681526020019081526020016000205481111561125d57600080fd5b600073ffffffffffffffffffffffffffffffffffffffff168273ffffffffffffffffffffffffffffffffffffffff160361129657600080fd5b6112e7816000808673ffffffffffffffffffffffffffffffffffffffff1673ffffffffffffffffffffffffffffffffffffffff1681526020019081526020016000205461172690919063ffffffff16565b6000808573ffffffffffffffffffffffffffffffffffffffff1673ffffffffffffffffffffffffffffffffffffffff1681526020019081526020016000208190555061137a816000808573ffffffffffffffffffffffffffffffffffffffff1673ffffffffffffffffffffffffffffffffffffffff1681526020019081526020016000205461142690919063ffffffff16565b6000808473ffffffffffffffffffffffffffffffffffffffff1673ffffffffffffffffffffffffffffffffffffffff168152602001908152602001600020819055508173ffffffffffffffffffffffffffffffffffffffff168373ffffffffffffffffffffffffffffffffffffffff167fddf252ad1be2c89b69c2b068fc378daa952ba7f163c4a11628f55a4df523b3ef836040516114199190611db2565b60405180910390a3505050565b60008183611434919061216f565b905092915050565b611444611a29565b73ffffffffffffffffffffffffffffffffffffffff16611462610af0565b73ffffffffffffffffffffffffffffffffffffffff16146114b8576040517f08c379a00000000000000000000000000000000000000000000000000000000081526004016114af906121ef565b60405180910390fd5b565b6000600360009054906101000a900473ffffffffffffffffffffffffffffffffffffffff16905081600360006101000a81548173ffffffffffffffffffffffffffffffffffffffff021916908373ffffffffffffffffffffffffffffffffffffffff1602179055508173ffffffffffffffffffffffffffffffffffffffff168173ffffffffffffffffffffffffffffffffffffffff167f8be0079c531659141344cd1fd0a4f28419497f9722a3daafe3b4186f6b6457e060405160405180910390a35050565b600160008373ffffffffffffffffffffffffffffffffffffffff1673ffffffffffffffffffffffffffffffffffffffff16815260200190815260200160002060003373ffffffffffffffffffffffffffffffffffffffff1673ffffffffffffffffffffffffffffffffffffffff1681526020019081526020016000205481111561160957600080fd5b61169881600160008573ffffffffffffffffffffffffffffffffffffffff1673ffffffffffffffffffffffffffffffffffffffff16815260200190815260200160002060003373ffffffffffffffffffffffffffffffffffffffff1673ffffffffffffffffffffffffffffffffffffffff1681526020019081526020016000205461172690919063ffffffff16565b600160008473ffffffffffffffffffffffffffffffffffffffff1673ffffffffffffffffffffffffffffffffffffffff16815260200190815260200160002060003373ffffffffffffffffffffffffffffffffffffffff1673ffffffffffffffffffffffffffffffffffffffff16815260200190815260200160002081905550611722828261188d565b5050565b60008183611734919061220f565b905092915050565b600073ffffffffffffffffffffffffffffffffffffffff168273ffffffffffffffffffffffffffffffffffffffff160361177557600080fd5b61178a8160025461142690919063ffffffff16565b6002819055506117e1816000808573ffffffffffffffffffffffffffffffffffffffff1673ffffffffffffffffffffffffffffffffffffffff1681526020019081526020016000205461142690919063ffffffff16565b6000808473ffffffffffffffffffffffffffffffffffffffff1673ffffffffffffffffffffffffffffffffffffffff168152602001908152602001600020819055508173ffffffffffffffffffffffffffffffffffffffff16600073ffffffffffffffffffffffffffffffffffffffff167fddf252ad1be2c89b69c2b068fc378daa952ba7f163c4a11628f55a4df523b3ef836040516118819190611db2565b60405180910390a35050565b600073ffffffffffffffffffffffffffffffffffffffff168273ffffffffffffffffffffffffffffffffffffffff16036118c657600080fd5b6000808373ffffffffffffffffffffffffffffffffffffffff1673ffffffffffffffffffffffffffffffffffffffff1681526020019081526020016000205481111561191157600080fd5b6119268160025461172690919063ffffffff16565b60028190555061197d816000808573ffffffffffffffffffffffffffffffffffffffff1673ffffffffffffffffffffffffffffffffffffffff1681526020019081526020016000205461172690919063ffffffff16565b6000808473ffffffffffffffffffffffffffffffffffffffff1673ffffffffffffffffffffffffffffffffffffffff16815260200190815260200160002081905550600073ffffffffffffffffffffffffffffffffffffffff168273ffffffffffffffffffffffffffffffffffffffff167fddf252ad1be2c89b69c2b068fc378daa952ba7f163c4a11628f55a4df523b3ef83604051611a1d9190611db2565b60405180910390a35050565b600033905090565b6000604051905090565b600080fd5b600080fd5b600073ffffffffffffffffffffffffffffffffffffffff82169050919050565b6000611a7082611a45565b9050919050565b611a8081611a65565b8114611a8b57600080fd5b50565b600081359050611a9d81611a77565b92915050565b6000819050919050565b611ab681611aa3565b8114611ac157600080fd5b50565b600081359050611ad381611aad565b92915050565b60008060408385031215611af057611aef611a3b565b5b6000611afe85828601611a8e565b9250506020611b0f85828601611ac4565b9150509250929050565b60008115159050919050565b611b2e81611b19565b82525050565b6000602082019050611b496000830184611b25565b92915050565b600080fd5b600080fd5b6000601f19601f8301169050919050565b7f4e487b7100000000000000000000000000000000000000000000000000000000600052604160045260246000fd5b611ba282611b59565b810181811067ffffffffffffffff82111715611bc157611bc0611b6a565b5b80604052505050565b6000611bd4611a31565b9050611be08282611b99565b919050565b600067ffffffffffffffff821115611c0057611bff611b6a565b5b611c0982611b59565b9050602081019050919050565b82818337600083830152505050565b6000611c38611c3384611be5565b611bca565b905082815260208101848484011115611c5457611c53611b54565b5b611c5f848285611c16565b509392505050565b600082601f830112611c7c57611c7b611b4f565b5b8135611c8c848260208601611c25565b91505092915050565b60008060008060808587031215611caf57611cae611a3b565b5b6000611cbd87828801611a8e565b9450506020611cce87828801611a8e565b9350506040611cdf87828801611ac4565b925050606085013567ffffffffffffffff811115611d0057611cff611a40565b5b611d0c87828801611c67565b91505092959194509250565b60007fff0000000000000000000000000000000000000000000000000000000000000082169050919050565b611d4d81611d18565b82525050565b6000819050919050565b611d6681611d53565b82525050565b6000606082019050611d816000830186611b25565b611d8e6020830185611d44565b611d9b6040830184611d5d565b949350505050565b611dac81611aa3565b82525050565b6000602082019050611dc76000830184611da3565b92915050565b600080600060608486031215611de657611de5611a3b565b5b6000611df486828701611a8e565b9350506020611e0586828701611ac4565b925050604084013567ffffffffffffffff811115611e2657611e25611a40565b5b611e3286828701611c67565b9150509250925092565b600080600060608486031215611e5557611e54611a3b565b5b6000611e6386828701611a8e565b9350506020611e7486828701611a8e565b9250506040611e8586828701611ac4565b9150509250925092565b600060208284031215611ea557611ea4611a3b565b5b6000611eb384828501611a8e565b91505092915050565b611ec581611a65565b82525050565b6000602082019050611ee06000830184611ebc565b92915050565b60008060408385031215611efd57611efc611a3b565b5b6000611f0b85828601611a8e565b9250506020611f1c85828601611a8e565b9150509250929050565b60008060408385031215611f3d57611f3c611a3b565b5b6000611f4b85828601611ac4565b925050602083013567ffffffffffffffff811115611f6c57611f6b611a40565b5b611f7885828601611c67565b9150509250929050565b600081519050919050565b600082825260208201905092915050565b60005b83811015611fbc578082015181840152602081019050611fa1565b60008484015250505050565b6000611fd382611f82565b611fdd8185611f8d565b9350611fed818560208601611f9e565b611ff681611b59565b840191505092915050565b60006040820190506120166000830185611da3565b81810360208301526120288184611fc8565b90509392505050565b600082825260208201905092915050565b7f49737375616e636520697320636c6f7365640000000000000000000000000000600082015250565b6000612078601283612031565b915061208382612042565b602082019050919050565b600060208201905081810360008301526120a78161206b565b9050919050565b7f4f776e61626c653a206e6577206f776e657220697320746865207a65726f206160008201527f6464726573730000000000000000000000000000000000000000000000000000602082015250565b600061210a602683612031565b9150612115826120ae565b604082019050919050565b60006020820190508181036000830152612139816120fd565b9050919050565b7f4e487b7100000000000000000000000000000000000000000000000000000000600052601160045260246000fd5b600061217a82611aa3565b915061218583611aa3565b925082820190508082111561219d5761219c612140565b5b92915050565b7f4f776e61626c653a2063616c6c6572206973206e6f7420746865206f776e6572600082015250565b60006121d9602083612031565b91506121e4826121a3565b602082019050919050565b60006020820190508181036000830152612208816121cc565b9050919050565b600061221a82611aa3565b915061222583611aa3565b925082820390508181111561223d5761223c612140565b5b9291505056fea2646970667358221220128feb55e165d9093b38242059a76cd14ad50842fa6bef0fcbd9a8bcbdc1b60f64736f6c63430008100033",
  "immutableReferences": {},
  "source": "// SPDX-License-Identifier: MIT\npragma solidity ^0.8.16;\n\nimport \"../interfaces/IERC1594.sol\";\nimport \"./ERC20Token.sol\";\n\nimport \"../math/KindMath.sol\";\nimport \"@openzeppelin/contracts/access/Ownable.sol\";\n\n/**\n * @title Standard implementation of ERC1594 (Subset of ERC1400 https://github.com/ethereum/EIPs/issues/1411)\n */\ncontract ERC1594 is IERC1594, ERC20Token, Ownable {\n    // Variable which tells whether issuance is ON or OFF forever\n    // Implementers need to implement one more function to reset the value of `issuance` variable\n    // to false. That function is not a part of the standard (EIP-1594) as it is depend on the various factors\n    // issuer, followed compliance rules etc. So issuers have the choice how they want to close the issuance.\n    bool internal issuance = true;\n\n    /// Constructor\n    constructor() {}\n\n    /**\n     * @notice Transfer restrictions can take many forms and typically involve on-chain rules or whitelists.\n     * However for many types of approved transfers, maintaining an on-chain list of approved transfers can be\n     * cumbersome and expensive. An alternative is the co-signing approach, where in addition to the token holder\n     * approving a token transfer, and authorised entity provides signed data which further validates the transfer.\n     * @param _to address The address which you want to transfer to\n     * @param _value uint256 the amount of tokens to be transferred\n     * @param _data The `bytes _data` allows arbitrary data to be submitted alongside the transfer.\n     * for the token contract to interpret or record. This could be signed data authorising the transfer\n     * (e.g. a dynamic whitelist) but is flexible enough to accomadate other use-cases.\n     */\n    function transferWithData(\n        address _to,\n        uint256 _value,\n        bytes memory _data\n    ) external {\n        // Add a function to validate the `_data` parameter\n        _transfer(msg.sender, _to, _value);\n    }\n\n    /**\n     * @notice Transfer restrictions can take many forms and typically involve on-chain rules or whitelists.\n     * However for many types of approved transfers, maintaining an on-chain list of approved transfers can be\n     * cumbersome and expensive. An alternative is the co-signing approach, where in addition to the token holder\n     * approving a token transfer, and authorised entity provides signed data which further validates the transfer.\n     * @dev `msg.sender` MUST have a sufficient `allowance` set and this `allowance` must be debited by the `_value`.\n     * @param _from address The address which you want to send tokens from\n     * @param _to address The address which you want to transfer to\n     * @param _value uint256 the amount of tokens to be transferred\n     * @param _data The `bytes _data` allows arbitrary data to be submitted alongside the transfer.\n     * for the token contract to interpret or record. This could be signed data authorising the transfer\n     * (e.g. a dynamic whitelist) but is flexible enough to accomadate other use-cases.\n     */\n    function transferFromWithData(\n        address _from,\n        address _to,\n        uint256 _value,\n        bytes memory _data\n    ) external {\n        // Add a function to validate the `_data` parameter\n        _transferFrom(msg.sender, _from, _to, _value);\n    }\n\n    /**\n     * @notice A security token issuer can specify that issuance has finished for the token\n     * (i.e. no new tokens can be minted or issued).\n     * @dev If a token returns FALSE for `isIssuable()` then it MUST always return FALSE in the future.\n     * If a token returns FALSE for `isIssuable()` then it MUST never allow additional tokens to be issued.\n     * @return bool `true` signifies the minting is allowed. While `false` denotes the end of minting\n     */\n    function isIssuable() external view returns (bool) {\n        return issuance;\n    }\n\n    /**\n     * @notice This function must be called to increase the total supply (Corresponds to mint function of ERC20).\n     * @dev It only be called by the token issuer or the operator defined by the issuer. ERC1594 doesn't have\n     * have the any logic related to operator but its superset ERC1400 have the operator logic and this function\n     * is allowed to call by the operator.\n     * @param _tokenHolder The account that will receive the created tokens (account should be whitelisted or KYCed).\n     * @param _value The amount of tokens need to be issued\n     * @param _data The `bytes _data` allows arbitrary data to be submitted alongside the transfer.\n     */\n    function issue(\n        address _tokenHolder,\n        uint256 _value,\n        bytes memory _data\n    ) external onlyOwner {\n        // Add a function to validate the `_data` parameter\n        require(issuance, \"Issuance is closed\");\n        _mint(_tokenHolder, _value);\n        emit Issued(msg.sender, _tokenHolder, _value, _data);\n    }\n\n    /**\n     * @notice This function redeem an amount of the token of a msg.sender. For doing so msg.sender may incentivize\n     * using different ways that could be implemented with in the `redeem` function definition. But those implementations\n     * are out of the scope of the ERC1594.\n     * @param _value The amount of tokens need to be redeemed\n     * @param _data The `bytes _data` it can be used in the token contract to authenticate the redemption.\n     */\n    function redeem(uint256 _value, bytes memory _data) external {\n        // Add a function to validate the `_data` parameter\n        _burn(msg.sender, _value);\n        emit Redeemed(address(0), msg.sender, _value, _data);\n    }\n\n    /**\n     * @notice This function redeem an amount of the token of a msg.sender. For doing so msg.sender may incentivize\n     * using different ways that could be implemented with in the `redeem` function definition. But those implementations\n     * are out of the scope of the ERC1594.\n     * @dev It is analogy to `transferFrom`\n     * @param _tokenHolder The account whose tokens gets redeemed.\n     * @param _value The amount of tokens need to be redeemed\n     * @param _data The `bytes _data` it can be used in the token contract to authenticate the redemption.\n     */\n    function redeemFrom(\n        address _tokenHolder,\n        uint256 _value,\n        bytes memory _data\n    ) external {\n        // Add a function to validate the `_data` parameter\n        _burnFrom(_tokenHolder, _value);\n        emit Redeemed(msg.sender, _tokenHolder, _value, _data);\n    }\n\n    /**\n     * @notice Transfers of securities may fail for a number of reasons. So this function will used to understand the\n     * cause of failure by getting the byte value. Which will be the ESC that follows the EIP 1066. ESC can be mapped\n     * with a reson string to understand the failure cause, table of Ethereum status code will always reside off-chain\n     * @param _to address The address which you want to transfer to\n     * @param _value uint256 the amount of tokens to be transferred\n     * @param _data The `bytes _data` allows arbitrary data to be submitted alongside the transfer.\n     * @return bool It signifies whether the transaction will be executed or not.\n     * @return byte Ethereum status code (ESC)\n     * @return bytes32 Application specific reason code\n     */\n    function canTransfer(\n        address _to,\n        uint256 _value,\n        bytes memory _data\n    ) external view returns (bool, bytes1, bytes32) {\n        // Add a function to validate the `_data` parameter\n        if (_balances[msg.sender] < _value) return (false, 0x52, bytes32(0));\n        else if (_to == address(0)) return (false, 0x57, bytes32(0));\n        else if (!KindMath.checkAdd(_balances[_to], _value))\n            return (false, 0x50, bytes32(0));\n        return (true, 0x51, bytes32(0));\n    }\n\n    /**\n     * @notice Transfers of securities may fail for a number of reasons. So this function will used to understand the\n     * cause of failure by getting the byte value. Which will be the ESC that follows the EIP 1066. ESC can be mapped\n     * with a reson string to understand the failure cause, table of Ethereum status code will always reside off-chain\n     * @param _from address The address which you want to send tokens from\n     * @param _to address The address which you want to transfer to\n     * @param _value uint256 the amount of tokens to be transferred\n     * @param _data The `bytes _data` allows arbitrary data to be submitted alongside the transfer.\n     * @return bool It signifies whether the transaction will be executed or not.\n     * @return byte Ethereum status code (ESC)\n     * @return bytes32 Application specific reason code\n     */\n    function canTransferFrom(\n        address _from,\n        address _to,\n        uint256 _value,\n        bytes memory _data\n    ) external view returns (bool, bytes1, bytes32) {\n        // Add a function to validate the `_data` parameter\n        if (_value > _allowed[_from][msg.sender])\n            return (false, 0x53, bytes32(0));\n        else if (_balances[_from] < _value) return (false, 0x52, bytes32(0));\n        else if (_to == address(0)) return (false, 0x57, bytes32(0));\n        else if (!KindMath.checkAdd(_balances[_to], _value))\n            return (false, 0x50, bytes32(0));\n        return (true, 0x51, bytes32(0));\n    }\n}\n",
  "sourcePath": "/mnt/c/Users/HP/Desktop/MODUS/contracts/tokens/ERC1594.sol",
  "compiler": {
    "name": "solc",
    "version": "0.8.16+commit.07a7930e.Emscripten.clang"
  },
  "schemaVersion": "3.4.9",
  "updatedAt": "2022-12-12T11:22:04.956Z",
  "devdoc": {
    "kind": "dev",
    "methods": {
      "allowance(address,address)": {
        "details": "Function to check the amount of tokens that an owner allowed to a spender.",
        "params": {
          "owner": "address The address which owns the funds.",
          "spender": "address The address which will spend the funds."
        },
        "returns": {
          "_0": "A uint256 specifying the amount of tokens still available for the spender."
        }
      },
      "approve(address,uint256)": {
        "details": "Approve the passed address to spend the specified amount of tokens on behalf of msg.sender. Beware that changing an allowance with this method brings the risk that someone may use both the old and the new allowance by unfortunate transaction ordering. One possible solution to mitigate this race condition is to first reduce the spender's allowance to 0 and set the desired value afterwards: https://github.com/ethereum/EIPs/issues/20#issuecomment-263524729",
        "params": {
          "spender": "The address which will spend the funds.",
          "value": "The amount of tokens to be spent."
        }
      },
      "balanceOf(address)": {
        "details": "Gets the balance of the specified address.",
        "params": {
          "owner": "The address to query the balance of."
        },
        "returns": {
          "_0": "An uint256 representing the amount owned by the passed address."
        }
      },
      "canTransfer(address,uint256,bytes)": {
        "params": {
          "_data": "The `bytes _data` allows arbitrary data to be submitted alongside the transfer.",
          "_to": "address The address which you want to transfer to",
          "_value": "uint256 the amount of tokens to be transferred"
        },
        "returns": {
          "_0": "bool It signifies whether the transaction will be executed or not.",
          "_1": "byte Ethereum status code (ESC)",
          "_2": "bytes32 Application specific reason code"
        }
      },
      "canTransferFrom(address,address,uint256,bytes)": {
        "params": {
          "_data": "The `bytes _data` allows arbitrary data to be submitted alongside the transfer.",
          "_from": "address The address which you want to send tokens from",
          "_to": "address The address which you want to transfer to",
          "_value": "uint256 the amount of tokens to be transferred"
        },
        "returns": {
          "_0": "bool It signifies whether the transaction will be executed or not.",
          "_1": "byte Ethereum status code (ESC)",
          "_2": "bytes32 Application specific reason code"
        }
      },
      "decreaseAllowance(address,uint256)": {
        "details": "Decrease the amount of tokens that an owner allowed to a spender. approve should be called when allowed_[_spender] == 0. To decrement allowed value is better to use this function to avoid 2 calls (and wait until the first transaction is mined) From MonolithDAO Token.sol",
        "params": {
          "spender": "The address which will spend the funds.",
          "subtractedValue": "The amount of tokens to decrease the allowance by."
        }
      },
      "increaseAllowance(address,uint256)": {
        "details": "Increase the amount of tokens that an owner allowed to a spender. approve should be called when allowed_[_spender] == 0. To increment allowed value is better to use this function to avoid 2 calls (and wait until the first transaction is mined) From MonolithDAO Token.sol",
        "params": {
          "addedValue": "The amount of tokens to increase the allowance by.",
          "spender": "The address which will spend the funds."
        }
      },
      "isIssuable()": {
        "details": "If a token returns FALSE for `isIssuable()` then it MUST always return FALSE in the future. If a token returns FALSE for `isIssuable()` then it MUST never allow additional tokens to be issued.",
        "returns": {
          "_0": "bool `true` signifies the minting is allowed. While `false` denotes the end of minting"
        }
      },
      "issue(address,uint256,bytes)": {
        "details": "It only be called by the token issuer or the operator defined by the issuer. ERC1594 doesn't have have the any logic related to operator but its superset ERC1400 have the operator logic and this function is allowed to call by the operator.",
        "params": {
          "_data": "The `bytes _data` allows arbitrary data to be submitted alongside the transfer.",
          "_tokenHolder": "The account that will receive the created tokens (account should be whitelisted or KYCed).",
          "_value": "The amount of tokens need to be issued"
        }
      },
      "owner()": {
        "details": "Returns the address of the current owner."
      },
      "redeem(uint256,bytes)": {
        "params": {
          "_data": "The `bytes _data` it can be used in the token contract to authenticate the redemption.",
          "_value": "The amount of tokens need to be redeemed"
        }
      },
      "redeemFrom(address,uint256,bytes)": {
        "details": "It is analogy to `transferFrom`",
        "params": {
          "_data": "The `bytes _data` it can be used in the token contract to authenticate the redemption.",
          "_tokenHolder": "The account whose tokens gets redeemed.",
          "_value": "The amount of tokens need to be redeemed"
        }
      },
      "renounceOwnership()": {
        "details": "Leaves the contract without owner. It will not be possible to call `onlyOwner` functions anymore. Can only be called by the current owner. NOTE: Renouncing ownership will leave the contract without an owner, thereby removing any functionality that is only available to the owner."
      },
      "totalSupply()": {
        "details": "Total number of tokens in existence"
      },
      "transfer(address,uint256)": {
        "details": "Transfer token for a specified address",
        "params": {
          "to": "The address to transfer to.",
          "value": "The amount to be transferred."
        }
      },
      "transferFrom(address,address,uint256)": {
        "details": "Transfer tokens from one address to another",
        "params": {
          "from": "address The address which you want to send tokens from",
          "to": "address The address which you want to transfer to",
          "value": "uint256 the amount of tokens to be transferred"
        }
      },
      "transferFromWithData(address,address,uint256,bytes)": {
        "details": "`msg.sender` MUST have a sufficient `allowance` set and this `allowance` must be debited by the `_value`.",
        "params": {
          "_data": "The `bytes _data` allows arbitrary data to be submitted alongside the transfer. for the token contract to interpret or record. This could be signed data authorising the transfer (e.g. a dynamic whitelist) but is flexible enough to accomadate other use-cases.",
          "_from": "address The address which you want to send tokens from",
          "_to": "address The address which you want to transfer to",
          "_value": "uint256 the amount of tokens to be transferred"
        }
      },
      "transferOwnership(address)": {
        "details": "Transfers ownership of the contract to a new account (`newOwner`). Can only be called by the current owner."
      },
      "transferWithData(address,uint256,bytes)": {
        "params": {
          "_data": "The `bytes _data` allows arbitrary data to be submitted alongside the transfer. for the token contract to interpret or record. This could be signed data authorising the transfer (e.g. a dynamic whitelist) but is flexible enough to accomadate other use-cases.",
          "_to": "address The address which you want to transfer to",
          "_value": "uint256 the amount of tokens to be transferred"
        }
      }
    },
    "title": "Standard implementation of ERC1594 (Subset of ERC1400 https://github.com/ethereum/EIPs/issues/1411)",
    "version": 1
  },
  "userdoc": {
    "kind": "user",
    "methods": {
      "canTransfer(address,uint256,bytes)": {
        "notice": "Transfers of securities may fail for a number of reasons. So this function will used to understand the cause of failure by getting the byte value. Which will be the ESC that follows the EIP 1066. ESC can be mapped with a reson string to understand the failure cause, table of Ethereum status code will always reside off-chain"
      },
      "canTransferFrom(address,address,uint256,bytes)": {
        "notice": "Transfers of securities may fail for a number of reasons. So this function will used to understand the cause of failure by getting the byte value. Which will be the ESC that follows the EIP 1066. ESC can be mapped with a reson string to understand the failure cause, table of Ethereum status code will always reside off-chain"
      },
      "constructor": {
        "notice": "Constructor"
      },
      "isIssuable()": {
        "notice": "A security token issuer can specify that issuance has finished for the token (i.e. no new tokens can be minted or issued)."
      },
      "issue(address,uint256,bytes)": {
        "notice": "This function must be called to increase the total supply (Corresponds to mint function of ERC20)."
      },
      "redeem(uint256,bytes)": {
        "notice": "This function redeem an amount of the token of a msg.sender. For doing so msg.sender may incentivize using different ways that could be implemented with in the `redeem` function definition. But those implementations are out of the scope of the ERC1594."
      },
      "redeemFrom(address,uint256,bytes)": {
        "notice": "This function redeem an amount of the token of a msg.sender. For doing so msg.sender may incentivize using different ways that could be implemented with in the `redeem` function definition. But those implementations are out of the scope of the ERC1594."
      },
      "transferFromWithData(address,address,uint256,bytes)": {
        "notice": "Transfer restrictions can take many forms and typically involve on-chain rules or whitelists. However for many types of approved transfers, maintaining an on-chain list of approved transfers can be cumbersome and expensive. An alternative is the co-signing approach, where in addition to the token holder approving a token transfer, and authorised entity provides signed data which further validates the transfer."
      },
      "transferWithData(address,uint256,bytes)": {
        "notice": "Transfer restrictions can take many forms and typically involve on-chain rules or whitelists. However for many types of approved transfers, maintaining an on-chain list of approved transfers can be cumbersome and expensive. An alternative is the co-signing approach, where in addition to the token holder approving a token transfer, and authorised entity provides signed data which further validates the transfer."
      }
    },
    "version": 1
  }
}