{
  "contractName": "KYC",
  "abi": [
    {
      "anonymous": false,
      "inputs": [
        {
          "indexed": true,
          "internalType": "address",
          "name": "approvedAddress",
          "type": "address"
        }
      ],
      "name": "Approval",
      "type": "event"
    },
    {
      "inputs": [
        {
          "internalType": "address",
          "name": "",
          "type": "address"
        }
      ],
      "name": "approved",
      "outputs": [
        {
          "internalType": "bool",
          "name": "",
          "type": "bool"
        }
      ],
      "stateMutability": "view",
      "type": "function"
    },
    {
      "inputs": [
        {
          "internalType": "address",
          "name": "user",
          "type": "address"
        }
      ],
      "name": "approve",
      "outputs": [],
      "stateMutability": "nonpayable",
      "type": "function"
    },
    {
      "inputs": [
        {
          "internalType": "address",
          "name": "user",
          "type": "address"
        }
      ],
      "name": "isApproved",
      "outputs": [
        {
          "internalType": "bool",
          "name": "",
          "type": "bool"
        }
      ],
      "stateMutability": "view",
      "type": "function"
    },
    {
      "inputs": [
        {
          "internalType": "address",
          "name": "user",
          "type": "address"
        }
      ],
      "name": "checkKYC",
      "outputs": [
        {
          "internalType": "string",
          "name": "",
          "type": "string"
        }
      ],
      "stateMutability": "view",
      "type": "function"
    }
  ],
  "bytecode": "0x608060405234801561001057600080fd5b506104c3806100206000396000f3fe608060405234801561001057600080fd5b506004361061004c5760003560e01c8063673448dd146100515780638846594b14610081578063d8b964e6146100b1578063daea85c5146100e1575b600080fd5b61006b60048036038101906100669190610378565b6100fd565b60405161007891906103c0565b60405180910390f35b61009b60048036038101906100969190610378565b610152565b6040516100a8919061046b565b60405180910390f35b6100cb60048036038101906100c69190610378565b610220565b6040516100d891906103c0565b60405180910390f35b6100fb60048036038101906100f69190610378565b610240565b005b60008060008373ffffffffffffffffffffffffffffffffffffffff1673ffffffffffffffffffffffffffffffffffffffff16815260200190815260200160002060009054906101000a900460ff169050919050565b60606000808373ffffffffffffffffffffffffffffffffffffffff1673ffffffffffffffffffffffffffffffffffffffff16815260200190815260200160002060009054906101000a900460ff16156101e2576040518060400160405280600881526020017f417070726f766564000000000000000000000000000000000000000000000000815250905061021b565b6040518060400160405280600c81526020017f4e6f7420417070726f766564000000000000000000000000000000000000000081525090505b919050565b60006020528060005260406000206000915054906101000a900460ff1681565b3373ffffffffffffffffffffffffffffffffffffffff163373ffffffffffffffffffffffffffffffffffffffff161461027857600080fd5b60016000808373ffffffffffffffffffffffffffffffffffffffff1673ffffffffffffffffffffffffffffffffffffffff16815260200190815260200160002060006101000a81548160ff0219169083151502179055508073ffffffffffffffffffffffffffffffffffffffff167f19996ea5aede4d14af17b07567999b4c9d512663cfdaa4b01313d0c4af7a6ce760405160405180910390a250565b600080fd5b600073ffffffffffffffffffffffffffffffffffffffff82169050919050565b60006103458261031a565b9050919050565b6103558161033a565b811461036057600080fd5b50565b6000813590506103728161034c565b92915050565b60006020828403121561038e5761038d610315565b5b600061039c84828501610363565b91505092915050565b60008115159050919050565b6103ba816103a5565b82525050565b60006020820190506103d560008301846103b1565b92915050565b600081519050919050565b600082825260208201905092915050565b60005b838110156104155780820151818401526020810190506103fa565b60008484015250505050565b6000601f19601f8301169050919050565b600061043d826103db565b61044781856103e6565b93506104578185602086016103f7565b61046081610421565b840191505092915050565b600060208201905081810360008301526104858184610432565b90509291505056fea264697066735822122011a20a5b523e8022b00de40249f2ab9279ea22222038ccc8eda725531ef693d864736f6c63430008100033",
  "immutableReferences": {},
  "source": "// SPDX-License-Identifier: MIT\npragma solidity ^0.8.16;\n\ncontract KYC {\n    mapping(address => bool) public approved;\n    event Approval(address indexed approvedAddress);\n\n    function approve(address user) public {\n        require(msg.sender == msg.sender);\n        approved[user] = true;\n        emit Approval(user);\n    }\n\n    function isApproved(address user) public view returns (bool) {\n        return approved[user];\n    }\n\n    function checkKYC(address user) public view returns (string memory) {\n        if (approved[user]) {\n            return \"Approved\";\n        } else {\n            return \"Not Approved\";\n        }\n    }\n}\n",
  "sourcePath": "/mnt/c/Users/HP/Desktop/MODUS/contracts/KYC/KYC.sol",
  "compiler": {
    "name": "solc",
    "version": "0.8.16+commit.07a7930e.Emscripten.clang"
  },
  "schemaVersion": "3.4.9",
  "updatedAt": "2023-01-18T09:39:41.328Z",
  "devdoc": {
    "kind": "dev",
    "methods": {},
    "version": 1
  },
  "userdoc": {
    "kind": "user",
    "methods": {},
    "version": 1
  }
}