{
  "contractName": "ModusFactory",
  "abi": [
    {
      "anonymous": false,
      "inputs": [
        {
          "indexed": true,
          "internalType": "address",
          "name": "previousOwner",
          "type": "address"
        },
        {
          "indexed": true,
          "internalType": "address",
          "name": "newOwner",
          "type": "address"
        }
      ],
      "name": "OwnershipTransferred",
      "type": "event"
    },
    {
      "anonymous": false,
      "inputs": [
        {
          "indexed": false,
          "internalType": "uint256",
          "name": "propertyId",
          "type": "uint256"
        },
        {
          "indexed": false,
          "internalType": "uint256",
          "name": "price",
          "type": "uint256"
        }
      ],
      "name": "PropertyListed",
      "type": "event"
    },
    {
      "inputs": [
        {
          "internalType": "uint256",
          "name": "_tier",
          "type": "uint256"
        },
        {
          "internalType": "uint256",
          "name": "_eligibleAmount",
          "type": "uint256"
        }
      ],
      "name": "assignTierstoEligibleAmount",
      "outputs": [],
      "stateMutability": "nonpayable",
      "type": "function"
    },
    {
      "inputs": [
        {
          "internalType": "uint256",
          "name": "_propertyID",
          "type": "uint256"
        }
      ],
      "name": "getPropertyDetails",
      "outputs": [
        {
          "components": [
            {
              "internalType": "uint256",
              "name": "originalPrice",
              "type": "uint256"
            },
            {
              "internalType": "uint256",
              "name": "availableRaiseAmount",
              "type": "uint256"
            },
            {
              "internalType": "uint256",
              "name": "raisedAmount",
              "type": "uint256"
            },
            {
              "internalType": "bool",
              "name": "exists",
              "type": "bool"
            }
          ],
          "internalType": "struct Modus.Property",
          "name": "",
          "type": "tuple"
        }
      ],
      "stateMutability": "view",
      "type": "function"
    },
    {
      "inputs": [
        {
          "internalType": "uint256",
          "name": "",
          "type": "uint256"
        }
      ],
      "name": "idToProperty",
      "outputs": [
        {
          "internalType": "string",
          "name": "",
          "type": "string"
        }
      ],
      "stateMutability": "view",
      "type": "function"
    },
    {
      "inputs": [
        {
          "internalType": "uint256",
          "name": "_propertyID",
          "type": "uint256"
        },
        {
          "internalType": "uint256",
          "name": "_amount",
          "type": "uint256"
        }
      ],
      "name": "invest",
      "outputs": [],
      "stateMutability": "payable",
      "type": "function"
    },
    {
      "inputs": [
        {
          "internalType": "address",
          "name": "",
          "type": "address"
        }
      ],
      "name": "investments",
      "outputs": [
        {
          "internalType": "uint256",
          "name": "",
          "type": "uint256"
        }
      ],
      "stateMutability": "view",
      "type": "function"
    },
    {
      "inputs": [],
      "name": "owner",
      "outputs": [
        {
          "internalType": "address",
          "name": "",
          "type": "address"
        }
      ],
      "stateMutability": "view",
      "type": "function"
    },
    {
      "inputs": [
        {
          "internalType": "uint256",
          "name": "",
          "type": "uint256"
        }
      ],
      "name": "properties",
      "outputs": [
        {
          "internalType": "uint256",
          "name": "originalPrice",
          "type": "uint256"
        },
        {
          "internalType": "uint256",
          "name": "availableRaiseAmount",
          "type": "uint256"
        },
        {
          "internalType": "uint256",
          "name": "raisedAmount",
          "type": "uint256"
        },
        {
          "internalType": "bool",
          "name": "exists",
          "type": "bool"
        }
      ],
      "stateMutability": "view",
      "type": "function"
    },
    {
      "inputs": [],
      "name": "propertyID",
      "outputs": [
        {
          "internalType": "uint256",
          "name": "",
          "type": "uint256"
        }
      ],
      "stateMutability": "view",
      "type": "function"
    },
    {
      "inputs": [],
      "name": "renounceOwnership",
      "outputs": [],
      "stateMutability": "nonpayable",
      "type": "function"
    },
    {
      "inputs": [
        {
          "internalType": "uint256",
          "name": "",
          "type": "uint256"
        }
      ],
      "name": "tierToEligibleAmount",
      "outputs": [
        {
          "internalType": "uint256",
          "name": "",
          "type": "uint256"
        }
      ],
      "stateMutability": "view",
      "type": "function"
    },
    {
      "inputs": [],
      "name": "token",
      "outputs": [
        {
          "internalType": "contract IERC20",
          "name": "",
          "type": "address"
        }
      ],
      "stateMutability": "view",
      "type": "function"
    },
    {
      "inputs": [
        {
          "internalType": "address",
          "name": "newOwner",
          "type": "address"
        }
      ],
      "name": "transferOwnership",
      "outputs": [],
      "stateMutability": "nonpayable",
      "type": "function"
    },
    {
      "inputs": [
        {
          "internalType": "uint256",
          "name": "_price",
          "type": "uint256"
        }
      ],
      "name": "listProperty",
      "outputs": [
        {
          "internalType": "uint256",
          "name": "",
          "type": "uint256"
        }
      ],
      "stateMutability": "nonpayable",
      "type": "function"
    }
  ],
  "bytecode": "0x608060405234801561001057600080fd5b5061002d61002261003260201b60201c565b61003a60201b60201c565b6100fe565b600033905090565b60008060009054906101000a900473ffffffffffffffffffffffffffffffffffffffff169050816000806101000a81548173ffffffffffffffffffffffffffffffffffffffff021916908373ffffffffffffffffffffffffffffffffffffffff1602179055508173ffffffffffffffffffffffffffffffffffffffff168173ffffffffffffffffffffffffffffffffffffffff167f8be0079c531659141344cd1fd0a4f28419497f9722a3daafe3b4186f6b6457e060405160405180910390a35050565b6147a18061010d6000396000f3fe608060405260043610620000d45760003560e01c806396b98862116200008b578063d87aa6431162000061578063d87aa64314620002d5578063f2fde38b14620002f5578063f7b108081462000323578063fc0c546a146200036a57620000d4565b806396b98862146200021d578063a23342de1462000261578063b6aee1cf146200029157620000d4565b8063126dbe4314620000d95780631e89606f146200011d578063666404721462000161578063715018a6146200018f57806389215a8314620001a95780638da5cb5b14620001ed575b600080fd5b348015620000e657600080fd5b50620001056004803603810190620000ff919062000e19565b6200039a565b60405162000114919062000ed6565b60405180910390f35b3480156200012a57600080fd5b5062000149600480360381019062000143919062000e19565b62000402565b60405162000158919062000f8d565b60405180910390f35b3480156200016e57600080fd5b506200018d600480360381019062000187919062000fb1565b620004aa565b005b3480156200019c57600080fd5b50620001a76200068f565b005b348015620001b657600080fd5b50620001d56004803603810190620001cf919062000e19565b620006a7565b604051620001e4919062001009565b60405180910390f35b348015620001fa57600080fd5b5062000205620006bf565b6040516200021491906200106b565b60405180910390f35b3480156200022a57600080fd5b50620002496004803603810190620002439190620010b9565b620006e8565b60405162000258919062001009565b60405180910390f35b3480156200026e57600080fd5b506200027962000700565b60405162000288919062001009565b60405180910390f35b3480156200029e57600080fd5b50620002bd6004803603810190620002b7919062000e19565b62000706565b604051620002cc919062001009565b60405180910390f35b620002f36004803603810190620002ed919062000fb1565b62000822565b005b3480156200030257600080fd5b506200032160048036038101906200031b9190620010b9565b62000b63565b005b3480156200033057600080fd5b506200034f600480360381019062000349919062000e19565b62000bed565b604051620003619493929190620010fc565b60405180910390f35b3480156200037757600080fd5b506200038262000c2a565b604051620003919190620011b4565b60405180910390f35b620003a462000da1565b600560008381526020019081526020016000206040518060800160405290816000820154815260200160018201548152602001600282015481526020016003820160009054906101000a900460ff1615151515815250509050919050565b60046020528060005260406000206000915090508054620004239062001200565b80601f0160208091040260200160405190810160405280929190818152602001828054620004519062001200565b8015620004a25780601f106200047657610100808354040283529160200191620004a2565b820191906000526020600020905b8154815290600101906020018083116200048457829003601f168201915b505050505081565b620004b462000c50565b6000600160009054906101000a900473ffffffffffffffffffffffffffffffffffffffff1673ffffffffffffffffffffffffffffffffffffffff166385a62d2e6040518163ffffffff1660e01b8152600401602060405180830381865afa15801562000524573d6000803e3d6000fd5b505050506040513d601f19601f820116820180604052508101906200054a91906200124c565b036200058d576040517f08c379a00000000000000000000000000000000000000000000000000000000081526004016200058490620012ce565b60405180910390fd5b600082118015620006315750600160009054906101000a900473ffffffffffffffffffffffffffffffffffffffff1673ffffffffffffffffffffffffffffffffffffffff166385a62d2e6040518163ffffffff1660e01b8152600401602060405180830381865afa15801562000607573d6000803e3d6000fd5b505050506040513d601f19601f820116820180604052508101906200062d91906200124c565b8211155b62000673576040517f08c379a00000000000000000000000000000000000000000000000000000000081526004016200066a9062001340565b60405180910390fd5b8060066000848152602001908152602001600020819055505050565b6200069962000c50565b620006a5600062000cd5565b565b60066020528060005260406000206000915090505481565b60008060009054906101000a900473ffffffffffffffffffffffffffffffffffffffff16905090565b60076020528060005260406000206000915090505481565b60025481565b6000600160025462000719919062001391565b600281905550604051806080016040528083815260200160008152602001600081526020016001151581525060056000600254815260200190815260200160002060008201518160000155602082015181600101556040820151816002015560608201518160030160006101000a81548160ff02191690831515021790555090505060003383604051620007ad9062000dcb565b620007ba929190620013cc565b604051809103906000f080158015620007d7573d6000803e3d6000fd5b5090507fd2acfbe1632c42ab1e36cabad615126d27fa805ef1e2efc7ceec17c60ffbaafd600254846040516200080f929190620013f9565b60405180910390a1600254915050919050565b6000811162000868576040517f08c379a00000000000000000000000000000000000000000000000000000000081526004016200085f906200149c565b60405180910390fd5b6000821180156200089957506005600083815260200190815260200160002060030160009054906101000a900460ff165b620008db576040517f08c379a0000000000000000000000000000000000000000000000000000000008152600401620008d2906200150e565b60405180910390fd5b600560008381526020019081526020016000206000015481111562000937576040517f08c379a00000000000000000000000000000000000000000000000000000000081526004016200092e90620015a6565b60405180910390fd5b6005600060025481526020019081526020016000206001015481111562000995576040517f08c379a00000000000000000000000000000000000000000000000000000000081526004016200098c906200163e565b60405180910390fd5b600360009054906101000a900473ffffffffffffffffffffffffffffffffffffffff1673ffffffffffffffffffffffffffffffffffffffff1663a9059cbb33836040518363ffffffff1660e01b8152600401620009f4929190620013cc565b6020604051808303816000875af115801562000a14573d6000803e3d6000fd5b505050506040513d601f19601f8201168201806040525081019062000a3a919062001691565b62000a7c576040517f08c379a000000000000000000000000000000000000000000000000000000000815260040162000a739062001713565b60405180910390fd5b80600560006002548152602001908152602001600020600201600082825462000aa6919062001391565b92505081905550600560006002548152602001908152602001600020600201546005600060025481526020019081526020016000206000015462000aeb919062001735565b6005600060025481526020019081526020016000206001018190555080600760003373ffffffffffffffffffffffffffffffffffffffff1673ffffffffffffffffffffffffffffffffffffffff168152602001908152602001600020600082825462000b58919062001391565b925050819055505050565b62000b6d62000c50565b600073ffffffffffffffffffffffffffffffffffffffff168173ffffffffffffffffffffffffffffffffffffffff160362000bdf576040517f08c379a000000000000000000000000000000000000000000000000000000000815260040162000bd690620017e6565b60405180910390fd5b62000bea8162000cd5565b50565b60056020528060005260406000206000915090508060000154908060010154908060020154908060030160009054906101000a900460ff16905084565b600360009054906101000a900473ffffffffffffffffffffffffffffffffffffffff1681565b62000c5a62000d99565b73ffffffffffffffffffffffffffffffffffffffff1662000c7a620006bf565b73ffffffffffffffffffffffffffffffffffffffff161462000cd3576040517f08c379a000000000000000000000000000000000000000000000000000000000815260040162000cca9062001858565b60405180910390fd5b565b60008060009054906101000a900473ffffffffffffffffffffffffffffffffffffffff169050816000806101000a81548173ffffffffffffffffffffffffffffffffffffffff021916908373ffffffffffffffffffffffffffffffffffffffff1602179055508173ffffffffffffffffffffffffffffffffffffffff168173ffffffffffffffffffffffffffffffffffffffff167f8be0079c531659141344cd1fd0a4f28419497f9722a3daafe3b4186f6b6457e060405160405180910390a35050565b600033905090565b60405180608001604052806000815260200160008152602001600081526020016000151581525090565b612ef1806200187b83390190565b600080fd5b6000819050919050565b62000df38162000dde565b811462000dff57600080fd5b50565b60008135905062000e138162000de8565b92915050565b60006020828403121562000e325762000e3162000dd9565b5b600062000e428482850162000e02565b91505092915050565b62000e568162000dde565b82525050565b60008115159050919050565b62000e738162000e5c565b82525050565b60808201600082015162000e91600085018262000e4b565b50602082015162000ea6602085018262000e4b565b50604082015162000ebb604085018262000e4b565b50606082015162000ed0606085018262000e68565b50505050565b600060808201905062000eed600083018462000e79565b92915050565b600081519050919050565b600082825260208201905092915050565b60005b8381101562000f2f57808201518184015260208101905062000f12565b60008484015250505050565b6000601f19601f8301169050919050565b600062000f598262000ef3565b62000f65818562000efe565b935062000f7781856020860162000f0f565b62000f828162000f3b565b840191505092915050565b6000602082019050818103600083015262000fa9818462000f4c565b905092915050565b6000806040838503121562000fcb5762000fca62000dd9565b5b600062000fdb8582860162000e02565b925050602062000fee8582860162000e02565b9150509250929050565b620010038162000dde565b82525050565b600060208201905062001020600083018462000ff8565b92915050565b600073ffffffffffffffffffffffffffffffffffffffff82169050919050565b6000620010538262001026565b9050919050565b620010658162001046565b82525050565b60006020820190506200108260008301846200105a565b92915050565b620010938162001046565b81146200109f57600080fd5b50565b600081359050620010b38162001088565b92915050565b600060208284031215620010d257620010d162000dd9565b5b6000620010e284828501620010a2565b91505092915050565b620010f68162000e5c565b82525050565b600060808201905062001113600083018762000ff8565b62001122602083018662000ff8565b62001131604083018562000ff8565b620011406060830184620010eb565b95945050505050565b6000819050919050565b6000620011746200116e620011688462001026565b62001149565b62001026565b9050919050565b6000620011888262001153565b9050919050565b60006200119c826200117b565b9050919050565b620011ae816200118f565b82525050565b6000602082019050620011cb6000830184620011a3565b92915050565b7f4e487b7100000000000000000000000000000000000000000000000000000000600052602260045260246000fd5b600060028204905060018216806200121957607f821691505b6020821081036200122f576200122e620011d1565b5b50919050565b600081519050620012468162000de8565b92915050565b60006020828403121562001265576200126462000dd9565b5b6000620012758482850162001235565b91505092915050565b7f4d6f647573466163746f72793a204e6f2074696572732050726573656e740000600082015250565b6000620012b6601e8362000efe565b9150620012c3826200127e565b602082019050919050565b60006020820190508181036000830152620012e981620012a7565b9050919050565b7f4d6f647573466163746f72793a20496e76616c69642074696572204944000000600082015250565b600062001328601d8362000efe565b91506200133582620012f0565b602082019050919050565b600060208201905081810360008301526200135b8162001319565b9050919050565b7f4e487b7100000000000000000000000000000000000000000000000000000000600052601160045260246000fd5b60006200139e8262000dde565b9150620013ab8362000dde565b9250828201905080821115620013c657620013c562001362565b5b92915050565b6000604082019050620013e360008301856200105a565b620013f2602083018462000ff8565b9392505050565b600060408201905062001410600083018562000ff8565b6200141f602083018462000ff8565b9392505050565b7f4d6f647573466163746f72793a20416d6f756e74206d7573742062652067726560008201527f61746572207468616e207a65726f000000000000000000000000000000000000602082015250565b600062001484602e8362000efe565b9150620014918262001426565b604082019050919050565b60006020820190508181036000830152620014b78162001475565b9050919050565b7f4d6f647573466163746f72793a20496e76616c69642070726f70657274790000600082015250565b6000620014f6601e8362000efe565b91506200150382620014be565b602082019050919050565b600060208201905081810360008301526200152981620014e7565b9050919050565b7f4d6f647573466163746f72793a20416d6f756e7420677265617465722074686160008201527f6e20726571756972656420616d6f756e74000000000000000000000000000000602082015250565b60006200158e60318362000efe565b91506200159b8262001530565b604082019050919050565b60006020820190508181036000830152620015c1816200157f565b9050919050565b7f4d6f647573466163746f72793a20416d6f756e7420677265617465722074686160008201527f6e20726571756972656420726169736520616d6f756e74000000000000000000602082015250565b60006200162660378362000efe565b91506200163382620015c8565b604082019050919050565b60006020820190508181036000830152620016598162001617565b9050919050565b6200166b8162000e5c565b81146200167757600080fd5b50565b6000815190506200168b8162001660565b92915050565b600060208284031215620016aa57620016a962000dd9565b5b6000620016ba848285016200167a565b91505092915050565b7f546f6b656e207472616e73666572206661696c65642e00000000000000000000600082015250565b6000620016fb60168362000efe565b91506200170882620016c3565b602082019050919050565b600060208201905081810360008301526200172e81620016ec565b9050919050565b6000620017428262000dde565b91506200174f8362000dde565b92508282039050818111156200176a576200176962001362565b5b92915050565b7f4f776e61626c653a206e6577206f776e657220697320746865207a65726f206160008201527f6464726573730000000000000000000000000000000000000000000000000000602082015250565b6000620017ce60268362000efe565b9150620017db8262001770565b604082019050919050565b600060208201905081810360008301526200180181620017bf565b9050919050565b7f4f776e61626c653a2063616c6c6572206973206e6f7420746865206f776e6572600082015250565b60006200184060208362000efe565b91506200184d8262001808565b602082019050919050565b60006020820190508181036000830152620018738162001831565b905091905056fe60806040526001600360146101000a81548160ff0219169083151502179055503480156200002c57600080fd5b5060405162002ef138038062002ef1833981810160405281019062000052919062000429565b6040518060400160405280600d81526020017f50726f6a65637420546f6b656e000000000000000000000000000000000000008152506040518060400160405280600281526020017f50540000000000000000000000000000000000000000000000000000000000008152506012620000e0620000d46200013c60201b60201c565b6200014460201b60201c565b8260049081620000f19190620006e0565b508160059081620001039190620006e0565b5080600660006101000a81548160ff021916908360ff1602179055505050506200013482826200020a60201b60201c565b50506200085f565b600033905090565b6000600360009054906101000a900473ffffffffffffffffffffffffffffffffffffffff16905081600360006101000a81548173ffffffffffffffffffffffffffffffffffffffff021916908373ffffffffffffffffffffffffffffffffffffffff1602179055508173ffffffffffffffffffffffffffffffffffffffff168173ffffffffffffffffffffffffffffffffffffffff167f8be0079c531659141344cd1fd0a4f28419497f9722a3daafe3b4186f6b6457e060405160405180910390a35050565b600073ffffffffffffffffffffffffffffffffffffffff168273ffffffffffffffffffffffffffffffffffffffff16036200024457600080fd5b62000260816002546200036c60201b620012da1790919060201c565b600281905550620002be816000808573ffffffffffffffffffffffffffffffffffffffff1673ffffffffffffffffffffffffffffffffffffffff168152602001908152602001600020546200036c60201b620012da1790919060201c565b6000808473ffffffffffffffffffffffffffffffffffffffff1673ffffffffffffffffffffffffffffffffffffffff168152602001908152602001600020819055508173ffffffffffffffffffffffffffffffffffffffff16600073ffffffffffffffffffffffffffffffffffffffff167fddf252ad1be2c89b69c2b068fc378daa952ba7f163c4a11628f55a4df523b3ef83604051620003609190620007d8565b60405180910390a35050565b600081836200037c919062000824565b905092915050565b600080fd5b600073ffffffffffffffffffffffffffffffffffffffff82169050919050565b6000620003b68262000389565b9050919050565b620003c881620003a9565b8114620003d457600080fd5b50565b600081519050620003e881620003bd565b92915050565b6000819050919050565b6200040381620003ee565b81146200040f57600080fd5b50565b6000815190506200042381620003f8565b92915050565b6000806040838503121562000443576200044262000384565b5b60006200045385828601620003d7565b9250506020620004668582860162000412565b9150509250929050565b600081519050919050565b7f4e487b7100000000000000000000000000000000000000000000000000000000600052604160045260246000fd5b7f4e487b7100000000000000000000000000000000000000000000000000000000600052602260045260246000fd5b60006002820490506001821680620004f257607f821691505b602082108103620005085762000507620004aa565b5b50919050565b60008190508160005260206000209050919050565b60006020601f8301049050919050565b600082821b905092915050565b600060088302620005727fffffffffffffffffffffffffffffffffffffffffffffffffffffffffffffffff8262000533565b6200057e868362000533565b95508019841693508086168417925050509392505050565b6000819050919050565b6000620005c1620005bb620005b584620003ee565b62000596565b620003ee565b9050919050565b6000819050919050565b620005dd83620005a0565b620005f5620005ec82620005c8565b84845462000540565b825550505050565b600090565b6200060c620005fd565b62000619818484620005d2565b505050565b5b8181101562000641576200063560008262000602565b6001810190506200061f565b5050565b601f82111562000690576200065a816200050e565b620006658462000523565b8101602085101562000675578190505b6200068d620006848562000523565b8301826200061e565b50505b505050565b600082821c905092915050565b6000620006b56000198460080262000695565b1980831691505092915050565b6000620006d08383620006a2565b9150826002028217905092915050565b620006eb8262000470565b67ffffffffffffffff8111156200070757620007066200047b565b5b620007138254620004d9565b6200072082828562000645565b600060209050601f83116001811462000758576000841562000743578287015190505b6200074f8582620006c2565b865550620007bf565b601f19841662000768866200050e565b60005b8281101562000792578489015182556001820191506020850194506020810190506200076b565b86831015620007b25784890151620007ae601f891682620006a2565b8355505b6001600288020188555050505b505050505050565b620007d281620003ee565b82525050565b6000602082019050620007ef6000830184620007c7565b92915050565b7f4e487b7100000000000000000000000000000000000000000000000000000000600052601160045260246000fd5b60006200083182620003ee565b91506200083e83620003ee565b9250828201905080821115620008595762000858620007f5565b5b92915050565b612682806200086f6000396000f3fe608060405234801561001057600080fd5b50600436106101585760003560e01c806370a08231116100c3578063a9059cbb1161007c578063a9059cbb146103cd578063bb3acde9146103fd578063dd62ed3e14610419578063e77c646d14610449578063ee532f3114610465578063f2fde38b1461048157610158565b806370a082311461030b578063715018a61461033b5780638da5cb5b1461034557806395d89b41146103635780639675193c14610381578063a457c2d71461039d57610158565b80632535f762116101155780632535f7621461025d5780632f1cae8514610279578063313ce5671461029757806339509351146102b557806340c10f19146102e557806354ff5b821461030157610158565b806306fdde031461015d578063095ea7b31461017b578063122eb575146101ab57806318160ddd146101dd5780631badb25c146101fb57806323b872dd1461022d575b600080fd5b61016561049d565b6040516101729190611d61565b60405180910390f35b61019560048036038101906101909190611e2b565b61052f565b6040516101a29190611e86565b60405180910390f35b6101c560048036038101906101c09190611fd6565b610659565b6040516101d4939291906120ad565b60405180910390f35b6101e561082b565b6040516101f291906120f3565b60405180910390f35b6102156004803603810190610210919061210e565b610835565b604051610224939291906120ad565b60405180910390f35b6102476004803603810190610242919061217d565b610969565b6040516102549190611e86565b60405180910390f35b6102776004803603810190610272919061210e565b610982565b005b610281610992565b60405161028e9190611e86565b60405180910390f35b61029f6109a9565b6040516102ac91906121ec565b60405180910390f35b6102cf60048036038101906102ca9190611e2b565b6109c0565b6040516102dc9190611e86565b60405180910390f35b6102ff60048036038101906102fa9190611e2b565b610bf4565b005b610309610c02565b005b61032560048036038101906103209190612207565b610ca2565b60405161033291906120f3565b60405180910390f35b610343610cea565b005b61034d610cfe565b60405161035a9190612243565b60405180910390f35b61036b610d28565b6040516103789190611d61565b60405180910390f35b61039b6004803603810190610396919061210e565b610dba565b005b6103b760048036038101906103b29190611e2b565b610e30565b6040516103c49190611e86565b60405180910390f35b6103e760048036038101906103e29190611e2b565b611064565b6040516103f49190611e86565b60405180910390f35b6104176004803603810190610412919061210e565b61107b565b005b610433600480360381019061042e919061225e565b611148565b60405161044091906120f3565b60405180910390f35b610463600480360381019061045e919061229e565b6111cf565b005b61047f600480360381019061047a9190611fd6565b611245565b005b61049b60048036038101906104969190612207565b611257565b005b6060600480546104ac90612329565b80601f01602080910402602001604051908101604052809291908181526020018280546104d890612329565b80156105255780601f106104fa57610100808354040283529160200191610525565b820191906000526020600020905b81548152906001019060200180831161050857829003601f168201915b5050505050905090565b60008073ffffffffffffffffffffffffffffffffffffffff168373ffffffffffffffffffffffffffffffffffffffff160361056957600080fd5b81600160003373ffffffffffffffffffffffffffffffffffffffff1673ffffffffffffffffffffffffffffffffffffffff16815260200190815260200160002060008573ffffffffffffffffffffffffffffffffffffffff1673ffffffffffffffffffffffffffffffffffffffff168152602001908152602001600020819055508273ffffffffffffffffffffffffffffffffffffffff163373ffffffffffffffffffffffffffffffffffffffff167f8c5be1e5ebec7d5bd14f71427d1e84f3dd0314c0f7b2291e5b200ac8c7c3b9258460405161064791906120f3565b60405180910390a36001905092915050565b6000806000600160008873ffffffffffffffffffffffffffffffffffffffff1673ffffffffffffffffffffffffffffffffffffffff16815260200190815260200160002060003373ffffffffffffffffffffffffffffffffffffffff1673ffffffffffffffffffffffffffffffffffffffff168152602001908152602001600020548511156106fb57600060536000801b8160f81b9150925092509250610821565b846000808973ffffffffffffffffffffffffffffffffffffffff1673ffffffffffffffffffffffffffffffffffffffff16815260200190815260200160002054101561075a57600060526000801b8160f81b9150925092509250610821565b600073ffffffffffffffffffffffffffffffffffffffff168673ffffffffffffffffffffffffffffffffffffffff16036107a757600060576000801b8160f81b9150925092509250610821565b6107ef6000808873ffffffffffffffffffffffffffffffffffffffff1673ffffffffffffffffffffffffffffffffffffffff16815260200190815260200160002054866112f0565b61080c57600060506000801b8160f81b9150925092509250610821565b600160516000801b8160f81b91509250925092505b9450945094915050565b6000600254905090565b6000806000846000803373ffffffffffffffffffffffffffffffffffffffff1673ffffffffffffffffffffffffffffffffffffffff16815260200190815260200160002054101561089957600060526000801b8160f81b9150925092509250610960565b600073ffffffffffffffffffffffffffffffffffffffff168673ffffffffffffffffffffffffffffffffffffffff16036108e657600060576000801b8160f81b9150925092509250610960565b61092e6000808873ffffffffffffffffffffffffffffffffffffffff1673ffffffffffffffffffffffffffffffffffffffff16815260200190815260200160002054866112f0565b61094b57600060506000801b8160f81b9150925092509250610960565b600160516000801b8160f81b91509250925092505b93509350939050565b60006109773385858561131f565b600190509392505050565b61098d3384846114c8565b505050565b6000600360149054906101000a900460ff16905090565b6000600660009054906101000a900460ff16905090565b60008073ffffffffffffffffffffffffffffffffffffffff168373ffffffffffffffffffffffffffffffffffffffff16036109fa57600080fd5b610a8982600160003373ffffffffffffffffffffffffffffffffffffffff1673ffffffffffffffffffffffffffffffffffffffff16815260200190815260200160002060008673ffffffffffffffffffffffffffffffffffffffff1673ffffffffffffffffffffffffffffffffffffffff168152602001908152602001600020546112da90919063ffffffff16565b600160003373ffffffffffffffffffffffffffffffffffffffff1673ffffffffffffffffffffffffffffffffffffffff16815260200190815260200160002060008573ffffffffffffffffffffffffffffffffffffffff1673ffffffffffffffffffffffffffffffffffffffff168152602001908152602001600020819055508273ffffffffffffffffffffffffffffffffffffffff163373ffffffffffffffffffffffffffffffffffffffff167f8c5be1e5ebec7d5bd14f71427d1e84f3dd0314c0f7b2291e5b200ac8c7c3b925600160003373ffffffffffffffffffffffffffffffffffffffff1673ffffffffffffffffffffffffffffffffffffffff16815260200190815260200160002060008773ffffffffffffffffffffffffffffffffffffffff1673ffffffffffffffffffffffffffffffffffffffff16815260200190815260200160002054604051610be291906120f3565b60405180910390a36001905092915050565b610bfe82826116dc565b5050565b610c0a61182d565b600360149054906101000a900460ff16610c59576040517f08c379a0000000000000000000000000000000000000000000000000000000008152600401610c50906123a6565b60405180910390fd5b6000600360146101000a81548160ff0219169083151502179055507f7be64d1bc574242f8d2e75d794df46c535a72ac78ce5aac3ff5f554281e1155c60405160405180910390a1565b60008060008373ffffffffffffffffffffffffffffffffffffffff1673ffffffffffffffffffffffffffffffffffffffff168152602001908152602001600020549050919050565b610cf261182d565b610cfc60006118ab565b565b6000600360009054906101000a900473ffffffffffffffffffffffffffffffffffffffff16905090565b606060058054610d3790612329565b80601f0160208091040260200160405190810160405280929190818152602001828054610d6390612329565b8015610db05780601f10610d8557610100808354040283529160200191610db0565b820191906000526020600020905b815481529060010190602001808311610d9357829003601f168201915b5050505050905090565b610dc48383611971565b8273ffffffffffffffffffffffffffffffffffffffff163373ffffffffffffffffffffffffffffffffffffffff167fb7d0d6b60740753e9f16692a2f479472a1385aec2420fa43225b02f2ffa1afe78484604051610e2392919061241b565b60405180910390a3505050565b60008073ffffffffffffffffffffffffffffffffffffffff168373ffffffffffffffffffffffffffffffffffffffff1603610e6a57600080fd5b610ef982600160003373ffffffffffffffffffffffffffffffffffffffff1673ffffffffffffffffffffffffffffffffffffffff16815260200190815260200160002060008673ffffffffffffffffffffffffffffffffffffffff1673ffffffffffffffffffffffffffffffffffffffff16815260200190815260200160002054611b1790919063ffffffff16565b600160003373ffffffffffffffffffffffffffffffffffffffff1673ffffffffffffffffffffffffffffffffffffffff16815260200190815260200160002060008573ffffffffffffffffffffffffffffffffffffffff1673ffffffffffffffffffffffffffffffffffffffff168152602001908152602001600020819055508273ffffffffffffffffffffffffffffffffffffffff163373ffffffffffffffffffffffffffffffffffffffff167f8c5be1e5ebec7d5bd14f71427d1e84f3dd0314c0f7b2291e5b200ac8c7c3b925600160003373ffffffffffffffffffffffffffffffffffffffff1673ffffffffffffffffffffffffffffffffffffffff16815260200190815260200160002060008773ffffffffffffffffffffffffffffffffffffffff1673ffffffffffffffffffffffffffffffffffffffff1681526020019081526020016000205460405161105291906120f3565b60405180910390a36001905092915050565b60006110713384846114c8565b6001905092915050565b61108361182d565b600360149054906101000a900460ff166110d2576040517f08c379a00000000000000000000000000000000000000000000000000000000081526004016110c990612497565b60405180910390fd5b6110dc83836116dc565b8273ffffffffffffffffffffffffffffffffffffffff163373ffffffffffffffffffffffffffffffffffffffff167f0e9905d62635f049c2f4e11678ebf9dc3d1f8c4a653e290759b772e47ba00d00848460405161113b92919061241b565b60405180910390a3505050565b6000600160008473ffffffffffffffffffffffffffffffffffffffff1673ffffffffffffffffffffffffffffffffffffffff16815260200190815260200160002060008373ffffffffffffffffffffffffffffffffffffffff1673ffffffffffffffffffffffffffffffffffffffff16815260200190815260200160002054905092915050565b6111d93383611b2d565b3373ffffffffffffffffffffffffffffffffffffffff16600073ffffffffffffffffffffffffffffffffffffffff167fb7d0d6b60740753e9f16692a2f479472a1385aec2420fa43225b02f2ffa1afe7848460405161123992919061241b565b60405180910390a35050565b6112513385858561131f565b50505050565b61125f61182d565b600073ffffffffffffffffffffffffffffffffffffffff168173ffffffffffffffffffffffffffffffffffffffff16036112ce576040517f08c379a00000000000000000000000000000000000000000000000000000000081526004016112c590612529565b60405180910390fd5b6112d7816118ab565b50565b600081836112e89190612578565b905092915050565b60008082846112ff9190612578565b905083811015611313576000915050611319565b60019150505b92915050565b600160008473ffffffffffffffffffffffffffffffffffffffff1673ffffffffffffffffffffffffffffffffffffffff16815260200190815260200160002060008573ffffffffffffffffffffffffffffffffffffffff1673ffffffffffffffffffffffffffffffffffffffff168152602001908152602001600020548111156113a857600080fd5b61143781600160008673ffffffffffffffffffffffffffffffffffffffff1673ffffffffffffffffffffffffffffffffffffffff16815260200190815260200160002060008773ffffffffffffffffffffffffffffffffffffffff1673ffffffffffffffffffffffffffffffffffffffff16815260200190815260200160002054611b1790919063ffffffff16565b600160008573ffffffffffffffffffffffffffffffffffffffff1673ffffffffffffffffffffffffffffffffffffffff16815260200190815260200160002060008673ffffffffffffffffffffffffffffffffffffffff1673ffffffffffffffffffffffffffffffffffffffff168152602001908152602001600020819055506114c28383836114c8565b50505050565b6000808473ffffffffffffffffffffffffffffffffffffffff1673ffffffffffffffffffffffffffffffffffffffff1681526020019081526020016000205481111561151357600080fd5b600073ffffffffffffffffffffffffffffffffffffffff168273ffffffffffffffffffffffffffffffffffffffff160361154c57600080fd5b61159d816000808673ffffffffffffffffffffffffffffffffffffffff1673ffffffffffffffffffffffffffffffffffffffff16815260200190815260200160002054611b1790919063ffffffff16565b6000808573ffffffffffffffffffffffffffffffffffffffff1673ffffffffffffffffffffffffffffffffffffffff16815260200190815260200160002081905550611630816000808573ffffffffffffffffffffffffffffffffffffffff1673ffffffffffffffffffffffffffffffffffffffff168152602001908152602001600020546112da90919063ffffffff16565b6000808473ffffffffffffffffffffffffffffffffffffffff1673ffffffffffffffffffffffffffffffffffffffff168152602001908152602001600020819055508173ffffffffffffffffffffffffffffffffffffffff168373ffffffffffffffffffffffffffffffffffffffff167fddf252ad1be2c89b69c2b068fc378daa952ba7f163c4a11628f55a4df523b3ef836040516116cf91906120f3565b60405180910390a3505050565b600073ffffffffffffffffffffffffffffffffffffffff168273ffffffffffffffffffffffffffffffffffffffff160361171557600080fd5b61172a816002546112da90919063ffffffff16565b600281905550611781816000808573ffffffffffffffffffffffffffffffffffffffff1673ffffffffffffffffffffffffffffffffffffffff168152602001908152602001600020546112da90919063ffffffff16565b6000808473ffffffffffffffffffffffffffffffffffffffff1673ffffffffffffffffffffffffffffffffffffffff168152602001908152602001600020819055508173ffffffffffffffffffffffffffffffffffffffff16600073ffffffffffffffffffffffffffffffffffffffff167fddf252ad1be2c89b69c2b068fc378daa952ba7f163c4a11628f55a4df523b3ef8360405161182191906120f3565b60405180910390a35050565b611835611cc9565b73ffffffffffffffffffffffffffffffffffffffff16611853610cfe565b73ffffffffffffffffffffffffffffffffffffffff16146118a9576040517f08c379a00000000000000000000000000000000000000000000000000000000081526004016118a0906125f8565b60405180910390fd5b565b6000600360009054906101000a900473ffffffffffffffffffffffffffffffffffffffff16905081600360006101000a81548173ffffffffffffffffffffffffffffffffffffffff021916908373ffffffffffffffffffffffffffffffffffffffff1602179055508173ffffffffffffffffffffffffffffffffffffffff168173ffffffffffffffffffffffffffffffffffffffff167f8be0079c531659141344cd1fd0a4f28419497f9722a3daafe3b4186f6b6457e060405160405180910390a35050565b600160008373ffffffffffffffffffffffffffffffffffffffff1673ffffffffffffffffffffffffffffffffffffffff16815260200190815260200160002060003373ffffffffffffffffffffffffffffffffffffffff1673ffffffffffffffffffffffffffffffffffffffff168152602001908152602001600020548111156119fa57600080fd5b611a8981600160008573ffffffffffffffffffffffffffffffffffffffff1673ffffffffffffffffffffffffffffffffffffffff16815260200190815260200160002060003373ffffffffffffffffffffffffffffffffffffffff1673ffffffffffffffffffffffffffffffffffffffff16815260200190815260200160002054611b1790919063ffffffff16565b600160008473ffffffffffffffffffffffffffffffffffffffff1673ffffffffffffffffffffffffffffffffffffffff16815260200190815260200160002060003373ffffffffffffffffffffffffffffffffffffffff1673ffffffffffffffffffffffffffffffffffffffff16815260200190815260200160002081905550611b138282611b2d565b5050565b60008183611b259190612618565b905092915050565b600073ffffffffffffffffffffffffffffffffffffffff168273ffffffffffffffffffffffffffffffffffffffff1603611b6657600080fd5b6000808373ffffffffffffffffffffffffffffffffffffffff1673ffffffffffffffffffffffffffffffffffffffff16815260200190815260200160002054811115611bb157600080fd5b611bc681600254611b1790919063ffffffff16565b600281905550611c1d816000808573ffffffffffffffffffffffffffffffffffffffff1673ffffffffffffffffffffffffffffffffffffffff16815260200190815260200160002054611b1790919063ffffffff16565b6000808473ffffffffffffffffffffffffffffffffffffffff1673ffffffffffffffffffffffffffffffffffffffff16815260200190815260200160002081905550600073ffffffffffffffffffffffffffffffffffffffff168273ffffffffffffffffffffffffffffffffffffffff167fddf252ad1be2c89b69c2b068fc378daa952ba7f163c4a11628f55a4df523b3ef83604051611cbd91906120f3565b60405180910390a35050565b600033905090565b600081519050919050565b600082825260208201905092915050565b60005b83811015611d0b578082015181840152602081019050611cf0565b60008484015250505050565b6000601f19601f8301169050919050565b6000611d3382611cd1565b611d3d8185611cdc565b9350611d4d818560208601611ced565b611d5681611d17565b840191505092915050565b60006020820190508181036000830152611d7b8184611d28565b905092915050565b6000604051905090565b600080fd5b600080fd5b600073ffffffffffffffffffffffffffffffffffffffff82169050919050565b6000611dc282611d97565b9050919050565b611dd281611db7565b8114611ddd57600080fd5b50565b600081359050611def81611dc9565b92915050565b6000819050919050565b611e0881611df5565b8114611e1357600080fd5b50565b600081359050611e2581611dff565b92915050565b60008060408385031215611e4257611e41611d8d565b5b6000611e5085828601611de0565b9250506020611e6185828601611e16565b9150509250929050565b60008115159050919050565b611e8081611e6b565b82525050565b6000602082019050611e9b6000830184611e77565b92915050565b600080fd5b600080fd5b7f4e487b7100000000000000000000000000000000000000000000000000000000600052604160045260246000fd5b611ee382611d17565b810181811067ffffffffffffffff82111715611f0257611f01611eab565b5b80604052505050565b6000611f15611d83565b9050611f218282611eda565b919050565b600067ffffffffffffffff821115611f4157611f40611eab565b5b611f4a82611d17565b9050602081019050919050565b82818337600083830152505050565b6000611f79611f7484611f26565b611f0b565b905082815260208101848484011115611f9557611f94611ea6565b5b611fa0848285611f57565b509392505050565b600082601f830112611fbd57611fbc611ea1565b5b8135611fcd848260208601611f66565b91505092915050565b60008060008060808587031215611ff057611fef611d8d565b5b6000611ffe87828801611de0565b945050602061200f87828801611de0565b935050604061202087828801611e16565b925050606085013567ffffffffffffffff81111561204157612040611d92565b5b61204d87828801611fa8565b91505092959194509250565b60007fff0000000000000000000000000000000000000000000000000000000000000082169050919050565b61208e81612059565b82525050565b6000819050919050565b6120a781612094565b82525050565b60006060820190506120c26000830186611e77565b6120cf6020830185612085565b6120dc604083018461209e565b949350505050565b6120ed81611df5565b82525050565b600060208201905061210860008301846120e4565b92915050565b60008060006060848603121561212757612126611d8d565b5b600061213586828701611de0565b935050602061214686828701611e16565b925050604084013567ffffffffffffffff81111561216757612166611d92565b5b61217386828701611fa8565b9150509250925092565b60008060006060848603121561219657612195611d8d565b5b60006121a486828701611de0565b93505060206121b586828701611de0565b92505060406121c686828701611e16565b9150509250925092565b600060ff82169050919050565b6121e6816121d0565b82525050565b600060208201905061220160008301846121dd565b92915050565b60006020828403121561221d5761221c611d8d565b5b600061222b84828501611de0565b91505092915050565b61223d81611db7565b82525050565b60006020820190506122586000830184612234565b92915050565b6000806040838503121561227557612274611d8d565b5b600061228385828601611de0565b925050602061229485828601611de0565b9150509250929050565b600080604083850312156122b5576122b4611d8d565b5b60006122c385828601611e16565b925050602083013567ffffffffffffffff8111156122e4576122e3611d92565b5b6122f085828601611fa8565b9150509250929050565b7f4e487b7100000000000000000000000000000000000000000000000000000000600052602260045260246000fd5b6000600282049050600182168061234157607f821691505b602082108103612354576123536122fa565b5b50919050565b7f49737375616e636520616c726561647920636c6f736564000000000000000000600082015250565b6000612390601783611cdc565b915061239b8261235a565b602082019050919050565b600060208201905081810360008301526123bf81612383565b9050919050565b600081519050919050565b600082825260208201905092915050565b60006123ed826123c6565b6123f781856123d1565b9350612407818560208601611ced565b61241081611d17565b840191505092915050565b600060408201905061243060008301856120e4565b818103602083015261244281846123e2565b90509392505050565b7f49737375616e636520697320636c6f7365640000000000000000000000000000600082015250565b6000612481601283611cdc565b915061248c8261244b565b602082019050919050565b600060208201905081810360008301526124b081612474565b9050919050565b7f4f776e61626c653a206e6577206f776e657220697320746865207a65726f206160008201527f6464726573730000000000000000000000000000000000000000000000000000602082015250565b6000612513602683611cdc565b915061251e826124b7565b604082019050919050565b6000602082019050818103600083015261254281612506565b9050919050565b7f4e487b7100000000000000000000000000000000000000000000000000000000600052601160045260246000fd5b600061258382611df5565b915061258e83611df5565b92508282019050808211156125a6576125a5612549565b5b92915050565b7f4f776e61626c653a2063616c6c6572206973206e6f7420746865206f776e6572600082015250565b60006125e2602083611cdc565b91506125ed826125ac565b602082019050919050565b60006020820190508181036000830152612611816125d5565b9050919050565b600061262382611df5565b915061262e83611df5565b925082820390508181111561264657612645612549565b5b9291505056fea2646970667358221220f2f1d4f464d18ae24a8a568116771b9bacf4ec5002518b567fedf3812c1b372664736f6c63430008100033a2646970667358221220751128e986f44811e225f54da87e121ecca912601d7cd506c0e0270286c0c40864736f6c63430008100033",
  "immutableReferences": {},
  "source": "// SPDX-License-Identifier: MIT\npragma solidity ^0.8.16;\nimport \"@openzeppelin/contracts/access/Ownable.sol\";\nimport \"@openzeppelin/contracts/token/ERC20/IERC20.sol\";\n\nimport \"../tokens/ProjectToken.sol\";\n\nimport \"./Modus.sol\";\n\ncontract ModusFactory is Modus {\n    event PropertyListed(uint256 propertyId, uint256 price);\n\n    function listProperty(uint _price) public returns (uint256) {\n        Modus.propertyID = Modus.propertyID + 1;\n        Modus.properties[Modus.propertyID] = Modus.Property({\n            originalPrice: _price,\n            availableRaiseAmount: 0,\n            raisedAmount: 0,\n            exists: true\n        });\n\n        // Create a new instance of the token contract\n        ProjectToken newProjectTokenAddress = new ProjectToken(\n            msg.sender,\n            _price\n        );\n        // Mint the new token\n        //newProjectTokenAddress.mint(msg.sender, _price);\n        emit PropertyListed(Modus.propertyID, _price);\n        return Modus.propertyID;\n    }\n}\n",
  "sourcePath": "/mnt/c/Users/HP/Desktop/MODUS/contracts/realEstate/ModusFactory.sol",
  "compiler": {
    "name": "solc",
    "version": "0.8.16+commit.07a7930e.Emscripten.clang"
  },
  "schemaVersion": "3.4.9",
  "updatedAt": "2023-01-18T09:39:41.407Z",
  "devdoc": {
    "kind": "dev",
    "methods": {
      "owner()": {
        "details": "Returns the address of the current owner."
      },
      "renounceOwnership()": {
        "details": "Leaves the contract without owner. It will not be possible to call `onlyOwner` functions anymore. Can only be called by the current owner. NOTE: Renouncing ownership will leave the contract without an owner, thereby removing any functionality that is only available to the owner."
      },
      "transferOwnership(address)": {
        "details": "Transfers ownership of the contract to a new account (`newOwner`). Can only be called by the current owner."
      }
    },
    "version": 1
  },
  "userdoc": {
    "kind": "user",
    "methods": {},
    "version": 1
  }
}