{
  "contractName": "Modus",
  "abi": [
    {
      "inputs": [
        {
          "internalType": "address",
          "name": "treasury",
          "type": "address"
        },
        {
          "internalType": "address",
          "name": "founder1",
          "type": "address"
        },
        {
          "internalType": "address",
          "name": "founder2",
          "type": "address"
        }
      ],
      "stateMutability": "nonpayable",
      "type": "constructor"
    },
    {
      "anonymous": false,
      "inputs": [
        {
          "indexed": true,
          "internalType": "address",
          "name": "owner",
          "type": "address"
        },
        {
          "indexed": true,
          "internalType": "address",
          "name": "spender",
          "type": "address"
        },
        {
          "indexed": false,
          "internalType": "uint256",
          "name": "value",
          "type": "uint256"
        }
      ],
      "name": "Approval",
      "type": "event"
    },
    {
      "anonymous": false,
      "inputs": [
        {
          "indexed": true,
          "internalType": "address",
          "name": "from",
          "type": "address"
        },
        {
          "indexed": true,
          "internalType": "address",
          "name": "to",
          "type": "address"
        },
        {
          "indexed": false,
          "internalType": "uint256",
          "name": "value",
          "type": "uint256"
        }
      ],
      "name": "Transfer",
      "type": "event"
    },
    {
      "inputs": [
        {
          "internalType": "address",
          "name": "owner",
          "type": "address"
        },
        {
          "internalType": "address",
          "name": "spender",
          "type": "address"
        }
      ],
      "name": "allowance",
      "outputs": [
        {
          "internalType": "uint256",
          "name": "",
          "type": "uint256"
        }
      ],
      "stateMutability": "view",
      "type": "function"
    },
    {
      "inputs": [
        {
          "internalType": "address",
          "name": "spender",
          "type": "address"
        },
        {
          "internalType": "uint256",
          "name": "amount",
          "type": "uint256"
        }
      ],
      "name": "approve",
      "outputs": [
        {
          "internalType": "bool",
          "name": "",
          "type": "bool"
        }
      ],
      "stateMutability": "nonpayable",
      "type": "function"
    },
    {
      "inputs": [
        {
          "internalType": "address",
          "name": "account",
          "type": "address"
        }
      ],
      "name": "balanceOf",
      "outputs": [
        {
          "internalType": "uint256",
          "name": "",
          "type": "uint256"
        }
      ],
      "stateMutability": "view",
      "type": "function"
    },
    {
      "inputs": [
        {
          "internalType": "address",
          "name": "spender",
          "type": "address"
        },
        {
          "internalType": "uint256",
          "name": "subtractedValue",
          "type": "uint256"
        }
      ],
      "name": "decreaseAllowance",
      "outputs": [
        {
          "internalType": "bool",
          "name": "",
          "type": "bool"
        }
      ],
      "stateMutability": "nonpayable",
      "type": "function"
    },
    {
      "inputs": [
        {
          "internalType": "address",
          "name": "spender",
          "type": "address"
        },
        {
          "internalType": "uint256",
          "name": "addedValue",
          "type": "uint256"
        }
      ],
      "name": "increaseAllowance",
      "outputs": [
        {
          "internalType": "bool",
          "name": "",
          "type": "bool"
        }
      ],
      "stateMutability": "nonpayable",
      "type": "function"
    },
    {
      "inputs": [],
      "name": "name",
      "outputs": [
        {
          "internalType": "string",
          "name": "",
          "type": "string"
        }
      ],
      "stateMutability": "view",
      "type": "function"
    },
    {
      "inputs": [],
      "name": "symbol",
      "outputs": [
        {
          "internalType": "string",
          "name": "",
          "type": "string"
        }
      ],
      "stateMutability": "view",
      "type": "function"
    },
    {
      "inputs": [],
      "name": "totalSupply",
      "outputs": [
        {
          "internalType": "uint256",
          "name": "",
          "type": "uint256"
        }
      ],
      "stateMutability": "view",
      "type": "function"
    },
    {
      "inputs": [
        {
          "internalType": "address",
          "name": "to",
          "type": "address"
        },
        {
          "internalType": "uint256",
          "name": "amount",
          "type": "uint256"
        }
      ],
      "name": "transfer",
      "outputs": [
        {
          "internalType": "bool",
          "name": "",
          "type": "bool"
        }
      ],
      "stateMutability": "nonpayable",
      "type": "function"
    },
    {
      "inputs": [
        {
          "internalType": "address",
          "name": "from",
          "type": "address"
        },
        {
          "internalType": "address",
          "name": "to",
          "type": "address"
        },
        {
          "internalType": "uint256",
          "name": "amount",
          "type": "uint256"
        }
      ],
      "name": "transferFrom",
      "outputs": [
        {
          "internalType": "bool",
          "name": "",
          "type": "bool"
        }
      ],
      "stateMutability": "nonpayable",
      "type": "function"
    },
    {
      "inputs": [],
      "name": "decimals",
      "outputs": [
        {
          "internalType": "uint8",
          "name": "",
          "type": "uint8"
        }
      ],
      "stateMutability": "pure",
      "type": "function"
    }
  ],
  "bytecode": "0x60806040523480156200001157600080fd5b5060405162001ca338038062001ca3833981810160405281019062000037919062000379565b6040518060400160405280600581526020017f4d6f6475730000000000000000000000000000000000000000000000000000008152506040518060400160405280600581526020017f4d4f4455530000000000000000000000000000000000000000000000000000008152508160039081620000b491906200064f565b508060049081620000c691906200064f565b5050506200010883620000de6200018f60201b60201c565b600a620000ec9190620008c6565b6207a120620000fc919062000917565b6200019860201b60201c565b62000147826200011d6200018f60201b60201c565b600a6200012b9190620008c6565b6203d0906200013b919062000917565b6200019860201b60201c565b62000186816200015c6200018f60201b60201c565b600a6200016a9190620008c6565b6203d0906200017a919062000917565b6200019860201b60201c565b50505062000a64565b60006012905090565b600073ffffffffffffffffffffffffffffffffffffffff168273ffffffffffffffffffffffffffffffffffffffff16036200020a576040517f08c379a00000000000000000000000000000000000000000000000000000000081526004016200020190620009d9565b60405180910390fd5b6200021e600083836200030560201b60201c565b8060026000828254620002329190620009fb565b92505081905550806000808473ffffffffffffffffffffffffffffffffffffffff1673ffffffffffffffffffffffffffffffffffffffff168152602001908152602001600020600082825401925050819055508173ffffffffffffffffffffffffffffffffffffffff16600073ffffffffffffffffffffffffffffffffffffffff167fddf252ad1be2c89b69c2b068fc378daa952ba7f163c4a11628f55a4df523b3ef83604051620002e5919062000a47565b60405180910390a362000301600083836200030a60201b60201c565b5050565b505050565b505050565b600080fd5b600073ffffffffffffffffffffffffffffffffffffffff82169050919050565b6000620003418262000314565b9050919050565b620003538162000334565b81146200035f57600080fd5b50565b600081519050620003738162000348565b92915050565b6000806000606084860312156200039557620003946200030f565b5b6000620003a58682870162000362565b9350506020620003b88682870162000362565b9250506040620003cb8682870162000362565b9150509250925092565b600081519050919050565b7f4e487b7100000000000000000000000000000000000000000000000000000000600052604160045260246000fd5b7f4e487b7100000000000000000000000000000000000000000000000000000000600052602260045260246000fd5b600060028204905060018216806200045757607f821691505b6020821081036200046d576200046c6200040f565b5b50919050565b60008190508160005260206000209050919050565b60006020601f8301049050919050565b600082821b905092915050565b600060088302620004d77fffffffffffffffffffffffffffffffffffffffffffffffffffffffffffffffff8262000498565b620004e3868362000498565b95508019841693508086168417925050509392505050565b6000819050919050565b6000819050919050565b6000620005306200052a6200052484620004fb565b62000505565b620004fb565b9050919050565b6000819050919050565b6200054c836200050f565b620005646200055b8262000537565b848454620004a5565b825550505050565b600090565b6200057b6200056c565b6200058881848462000541565b505050565b5b81811015620005b057620005a460008262000571565b6001810190506200058e565b5050565b601f821115620005ff57620005c98162000473565b620005d48462000488565b81016020851015620005e4578190505b620005fc620005f38562000488565b8301826200058d565b50505b505050565b600082821c905092915050565b6000620006246000198460080262000604565b1980831691505092915050565b60006200063f838362000611565b9150826002028217905092915050565b6200065a82620003d5565b67ffffffffffffffff811115620006765762000675620003e0565b5b6200068282546200043e565b6200068f828285620005b4565b600060209050601f831160018114620006c75760008415620006b2578287015190505b620006be858262000631565b8655506200072e565b601f198416620006d78662000473565b60005b828110156200070157848901518255600182019150602085019450602081019050620006da565b868310156200072157848901516200071d601f89168262000611565b8355505b6001600288020188555050505b505050505050565b7f4e487b7100000000000000000000000000000000000000000000000000000000600052601160045260246000fd5b60008160011c9050919050565b6000808291508390505b6001851115620007c4578086048111156200079c576200079b62000736565b5b6001851615620007ac5780820291505b8081029050620007bc8562000765565b94506200077c565b94509492505050565b600082620007df5760019050620008b2565b81620007ef5760009050620008b2565b8160018114620008085760028114620008135762000849565b6001915050620008b2565b60ff84111562000828576200082762000736565b5b8360020a91508482111562000842576200084162000736565b5b50620008b2565b5060208310610133831016604e8410600b8410161715620008835782820a9050838111156200087d576200087c62000736565b5b620008b2565b62000892848484600162000772565b92509050818404811115620008ac57620008ab62000736565b5b81810290505b9392505050565b600060ff82169050919050565b6000620008d382620004fb565b9150620008e083620008b9565b92506200090f7fffffffffffffffffffffffffffffffffffffffffffffffffffffffffffffffff8484620007cd565b905092915050565b60006200092482620004fb565b91506200093183620004fb565b9250817fffffffffffffffffffffffffffffffffffffffffffffffffffffffffffffffff04831182151516156200096d576200096c62000736565b5b828202905092915050565b600082825260208201905092915050565b7f45524332303a206d696e7420746f20746865207a65726f206164647265737300600082015250565b6000620009c1601f8362000978565b9150620009ce8262000989565b602082019050919050565b60006020820190508181036000830152620009f481620009b2565b9050919050565b600062000a0882620004fb565b915062000a1583620004fb565b925082820190508082111562000a305762000a2f62000736565b5b92915050565b62000a4181620004fb565b82525050565b600060208201905062000a5e600083018462000a36565b92915050565b61122f8062000a746000396000f3fe608060405234801561001057600080fd5b50600436106100a95760003560e01c80633950935111610071578063395093511461016857806370a082311461019857806395d89b41146101c8578063a457c2d7146101e6578063a9059cbb14610216578063dd62ed3e14610246576100a9565b806306fdde03146100ae578063095ea7b3146100cc57806318160ddd146100fc57806323b872dd1461011a578063313ce5671461014a575b600080fd5b6100b6610276565b6040516100c39190610b0c565b60405180910390f35b6100e660048036038101906100e19190610bc7565b610308565b6040516100f39190610c22565b60405180910390f35b61010461032b565b6040516101119190610c4c565b60405180910390f35b610134600480360381019061012f9190610c67565b610335565b6040516101419190610c22565b60405180910390f35b610152610364565b60405161015f9190610cd6565b60405180910390f35b610182600480360381019061017d9190610bc7565b61036d565b60405161018f9190610c22565b60405180910390f35b6101b260048036038101906101ad9190610cf1565b6103a4565b6040516101bf9190610c4c565b60405180910390f35b6101d06103ec565b6040516101dd9190610b0c565b60405180910390f35b61020060048036038101906101fb9190610bc7565b61047e565b60405161020d9190610c22565b60405180910390f35b610230600480360381019061022b9190610bc7565b6104f5565b60405161023d9190610c22565b60405180910390f35b610260600480360381019061025b9190610d1e565b610518565b60405161026d9190610c4c565b60405180910390f35b60606003805461028590610d8d565b80601f01602080910402602001604051908101604052809291908181526020018280546102b190610d8d565b80156102fe5780601f106102d3576101008083540402835291602001916102fe565b820191906000526020600020905b8154815290600101906020018083116102e157829003601f168201915b5050505050905090565b60008061031361059f565b90506103208185856105a7565b600191505092915050565b6000600254905090565b60008061034061059f565b905061034d858285610770565b6103588585856107fc565b60019150509392505050565b60006012905090565b60008061037861059f565b905061039981858561038a8589610518565b6103949190610ded565b6105a7565b600191505092915050565b60008060008373ffffffffffffffffffffffffffffffffffffffff1673ffffffffffffffffffffffffffffffffffffffff168152602001908152602001600020549050919050565b6060600480546103fb90610d8d565b80601f016020809104026020016040519081016040528092919081815260200182805461042790610d8d565b80156104745780601f1061044957610100808354040283529160200191610474565b820191906000526020600020905b81548152906001019060200180831161045757829003601f168201915b5050505050905090565b60008061048961059f565b905060006104978286610518565b9050838110156104dc576040517f08c379a00000000000000000000000000000000000000000000000000000000081526004016104d390610e93565b60405180910390fd5b6104e982868684036105a7565b60019250505092915050565b60008061050061059f565b905061050d8185856107fc565b600191505092915050565b6000600160008473ffffffffffffffffffffffffffffffffffffffff1673ffffffffffffffffffffffffffffffffffffffff16815260200190815260200160002060008373ffffffffffffffffffffffffffffffffffffffff1673ffffffffffffffffffffffffffffffffffffffff16815260200190815260200160002054905092915050565b600033905090565b600073ffffffffffffffffffffffffffffffffffffffff168373ffffffffffffffffffffffffffffffffffffffff1603610616576040517f08c379a000000000000000000000000000000000000000000000000000000000815260040161060d90610f25565b60405180910390fd5b600073ffffffffffffffffffffffffffffffffffffffff168273ffffffffffffffffffffffffffffffffffffffff1603610685576040517f08c379a000000000000000000000000000000000000000000000000000000000815260040161067c90610fb7565b60405180910390fd5b80600160008573ffffffffffffffffffffffffffffffffffffffff1673ffffffffffffffffffffffffffffffffffffffff16815260200190815260200160002060008473ffffffffffffffffffffffffffffffffffffffff1673ffffffffffffffffffffffffffffffffffffffff168152602001908152602001600020819055508173ffffffffffffffffffffffffffffffffffffffff168373ffffffffffffffffffffffffffffffffffffffff167f8c5be1e5ebec7d5bd14f71427d1e84f3dd0314c0f7b2291e5b200ac8c7c3b925836040516107639190610c4c565b60405180910390a3505050565b600061077c8484610518565b90507fffffffffffffffffffffffffffffffffffffffffffffffffffffffffffffffff81146107f657818110156107e8576040517f08c379a00000000000000000000000000000000000000000000000000000000081526004016107df90611023565b60405180910390fd5b6107f584848484036105a7565b5b50505050565b600073ffffffffffffffffffffffffffffffffffffffff168373ffffffffffffffffffffffffffffffffffffffff160361086b576040517f08c379a0000000000000000000000000000000000000000000000000000000008152600401610862906110b5565b60405180910390fd5b600073ffffffffffffffffffffffffffffffffffffffff168273ffffffffffffffffffffffffffffffffffffffff16036108da576040517f08c379a00000000000000000000000000000000000000000000000000000000081526004016108d190611147565b60405180910390fd5b6108e5838383610a72565b60008060008573ffffffffffffffffffffffffffffffffffffffff1673ffffffffffffffffffffffffffffffffffffffff1681526020019081526020016000205490508181101561096b576040517f08c379a0000000000000000000000000000000000000000000000000000000008152600401610962906111d9565b60405180910390fd5b8181036000808673ffffffffffffffffffffffffffffffffffffffff1673ffffffffffffffffffffffffffffffffffffffff16815260200190815260200160002081905550816000808573ffffffffffffffffffffffffffffffffffffffff1673ffffffffffffffffffffffffffffffffffffffff168152602001908152602001600020600082825401925050819055508273ffffffffffffffffffffffffffffffffffffffff168473ffffffffffffffffffffffffffffffffffffffff167fddf252ad1be2c89b69c2b068fc378daa952ba7f163c4a11628f55a4df523b3ef84604051610a599190610c4c565b60405180910390a3610a6c848484610a77565b50505050565b505050565b505050565b600081519050919050565b600082825260208201905092915050565b60005b83811015610ab6578082015181840152602081019050610a9b565b60008484015250505050565b6000601f19601f8301169050919050565b6000610ade82610a7c565b610ae88185610a87565b9350610af8818560208601610a98565b610b0181610ac2565b840191505092915050565b60006020820190508181036000830152610b268184610ad3565b905092915050565b600080fd5b600073ffffffffffffffffffffffffffffffffffffffff82169050919050565b6000610b5e82610b33565b9050919050565b610b6e81610b53565b8114610b7957600080fd5b50565b600081359050610b8b81610b65565b92915050565b6000819050919050565b610ba481610b91565b8114610baf57600080fd5b50565b600081359050610bc181610b9b565b92915050565b60008060408385031215610bde57610bdd610b2e565b5b6000610bec85828601610b7c565b9250506020610bfd85828601610bb2565b9150509250929050565b60008115159050919050565b610c1c81610c07565b82525050565b6000602082019050610c376000830184610c13565b92915050565b610c4681610b91565b82525050565b6000602082019050610c616000830184610c3d565b92915050565b600080600060608486031215610c8057610c7f610b2e565b5b6000610c8e86828701610b7c565b9350506020610c9f86828701610b7c565b9250506040610cb086828701610bb2565b9150509250925092565b600060ff82169050919050565b610cd081610cba565b82525050565b6000602082019050610ceb6000830184610cc7565b92915050565b600060208284031215610d0757610d06610b2e565b5b6000610d1584828501610b7c565b91505092915050565b60008060408385031215610d3557610d34610b2e565b5b6000610d4385828601610b7c565b9250506020610d5485828601610b7c565b9150509250929050565b7f4e487b7100000000000000000000000000000000000000000000000000000000600052602260045260246000fd5b60006002820490506001821680610da557607f821691505b602082108103610db857610db7610d5e565b5b50919050565b7f4e487b7100000000000000000000000000000000000000000000000000000000600052601160045260246000fd5b6000610df882610b91565b9150610e0383610b91565b9250828201905080821115610e1b57610e1a610dbe565b5b92915050565b7f45524332303a2064656372656173656420616c6c6f77616e63652062656c6f7760008201527f207a65726f000000000000000000000000000000000000000000000000000000602082015250565b6000610e7d602583610a87565b9150610e8882610e21565b604082019050919050565b60006020820190508181036000830152610eac81610e70565b9050919050565b7f45524332303a20617070726f76652066726f6d20746865207a65726f2061646460008201527f7265737300000000000000000000000000000000000000000000000000000000602082015250565b6000610f0f602483610a87565b9150610f1a82610eb3565b604082019050919050565b60006020820190508181036000830152610f3e81610f02565b9050919050565b7f45524332303a20617070726f766520746f20746865207a65726f20616464726560008201527f7373000000000000000000000000000000000000000000000000000000000000602082015250565b6000610fa1602283610a87565b9150610fac82610f45565b604082019050919050565b60006020820190508181036000830152610fd081610f94565b9050919050565b7f45524332303a20696e73756666696369656e7420616c6c6f77616e6365000000600082015250565b600061100d601d83610a87565b915061101882610fd7565b602082019050919050565b6000602082019050818103600083015261103c81611000565b9050919050565b7f45524332303a207472616e736665722066726f6d20746865207a65726f20616460008201527f6472657373000000000000000000000000000000000000000000000000000000602082015250565b600061109f602583610a87565b91506110aa82611043565b604082019050919050565b600060208201905081810360008301526110ce81611092565b9050919050565b7f45524332303a207472616e7366657220746f20746865207a65726f206164647260008201527f6573730000000000000000000000000000000000000000000000000000000000602082015250565b6000611131602383610a87565b915061113c826110d5565b604082019050919050565b6000602082019050818103600083015261116081611124565b9050919050565b7f45524332303a207472616e7366657220616d6f756e742065786365656473206260008201527f616c616e63650000000000000000000000000000000000000000000000000000602082015250565b60006111c3602683610a87565b91506111ce82611167565b604082019050919050565b600060208201905081810360008301526111f2816111b6565b905091905056fea264697066735822122036e9e85961b784ce187c61e0c572154ec3e2153f8268efdc4c6068443a302ca764736f6c63430008100033",
  "immutableReferences": {},
  "source": "// SPDX-License-Identifier: MIT\npragma solidity ^0.8.16;\n\nimport \"@openzeppelin/contracts/token/ERC20/ERC20.sol\";\n\ncontract Modus is ERC20 {\n    constructor(\n        address treasury,\n        address founder1,\n        address founder2\n    ) ERC20(\"Modus\", \"MODUS\") {\n        _mint(treasury, 500000 * 10 ** decimals());\n        _mint(founder1, 250000 * 10 ** decimals());\n        _mint(founder2, 250000 * 10 ** decimals());\n    }\n\n    function decimals() public pure override returns (uint8) {\n        return 18;\n    }\n}\n",
  "sourcePath": "/mnt/c/Users/HP/Desktop/MODUS/contracts/tokens/Modus.sol",
  "compiler": {
    "name": "solc",
    "version": "0.8.16+commit.07a7930e.Emscripten.clang"
  },
  "schemaVersion": "3.4.9",
  "updatedAt": "2022-12-12T11:26:31.713Z",
  "devdoc": {
    "kind": "dev",
    "methods": {
      "allowance(address,address)": {
        "details": "See {IERC20-allowance}."
      },
      "approve(address,uint256)": {
        "details": "See {IERC20-approve}. NOTE: If `amount` is the maximum `uint256`, the allowance is not updated on `transferFrom`. This is semantically equivalent to an infinite approval. Requirements: - `spender` cannot be the zero address."
      },
      "balanceOf(address)": {
        "details": "See {IERC20-balanceOf}."
      },
      "decimals()": {
        "details": "Returns the number of decimals used to get its user representation. For example, if `decimals` equals `2`, a balance of `505` tokens should be displayed to a user as `5.05` (`505 / 10 ** 2`). Tokens usually opt for a value of 18, imitating the relationship between Ether and Wei. This is the value {ERC20} uses, unless this function is overridden; NOTE: This information is only used for _display_ purposes: it in no way affects any of the arithmetic of the contract, including {IERC20-balanceOf} and {IERC20-transfer}."
      },
      "decreaseAllowance(address,uint256)": {
        "details": "Atomically decreases the allowance granted to `spender` by the caller. This is an alternative to {approve} that can be used as a mitigation for problems described in {IERC20-approve}. Emits an {Approval} event indicating the updated allowance. Requirements: - `spender` cannot be the zero address. - `spender` must have allowance for the caller of at least `subtractedValue`."
      },
      "increaseAllowance(address,uint256)": {
        "details": "Atomically increases the allowance granted to `spender` by the caller. This is an alternative to {approve} that can be used as a mitigation for problems described in {IERC20-approve}. Emits an {Approval} event indicating the updated allowance. Requirements: - `spender` cannot be the zero address."
      },
      "name()": {
        "details": "Returns the name of the token."
      },
      "symbol()": {
        "details": "Returns the symbol of the token, usually a shorter version of the name."
      },
      "totalSupply()": {
        "details": "See {IERC20-totalSupply}."
      },
      "transfer(address,uint256)": {
        "details": "See {IERC20-transfer}. Requirements: - `to` cannot be the zero address. - the caller must have a balance of at least `amount`."
      },
      "transferFrom(address,address,uint256)": {
        "details": "See {IERC20-transferFrom}. Emits an {Approval} event indicating the updated allowance. This is not required by the EIP. See the note at the beginning of {ERC20}. NOTE: Does not update the allowance if the current allowance is the maximum `uint256`. Requirements: - `from` and `to` cannot be the zero address. - `from` must have a balance of at least `amount`. - the caller must have allowance for ``from``'s tokens of at least `amount`."
      }
    },
    "version": 1
  },
  "userdoc": {
    "kind": "user",
    "methods": {},
    "version": 1
  }
}