{
  "contractName": "ModusStakingContract",
  "abi": [
    {
      "inputs": [
        {
          "internalType": "address",
          "name": "_stakingToken",
          "type": "address"
        },
        {
          "internalType": "uint256",
          "name": "_unstakingPeriod",
          "type": "uint256"
        }
      ],
      "stateMutability": "nonpayable",
      "type": "constructor"
    },
    {
      "anonymous": false,
      "inputs": [
        {
          "indexed": true,
          "internalType": "address",
          "name": "account",
          "type": "address"
        },
        {
          "indexed": false,
          "internalType": "uint256",
          "name": "amount",
          "type": "uint256"
        }
      ],
      "name": "StakeDeposited",
      "type": "event"
    },
    {
      "anonymous": false,
      "inputs": [
        {
          "indexed": false,
          "internalType": "uint256",
          "name": "IDtier",
          "type": "uint256"
        },
        {
          "indexed": false,
          "internalType": "uint256",
          "name": "tierStakeAmount",
          "type": "uint256"
        }
      ],
      "name": "TierAdded",
      "type": "event"
    },
    {
      "anonymous": false,
      "inputs": [
        {
          "indexed": true,
          "internalType": "address",
          "name": "account",
          "type": "address"
        },
        {
          "indexed": false,
          "internalType": "uint256",
          "name": "amount",
          "type": "uint256"
        }
      ],
      "name": "WithdrawExecuted",
      "type": "event"
    },
    {
      "anonymous": false,
      "inputs": [
        {
          "indexed": true,
          "internalType": "address",
          "name": "account",
          "type": "address"
        },
        {
          "indexed": false,
          "internalType": "uint256",
          "name": "amount",
          "type": "uint256"
        },
        {
          "indexed": false,
          "internalType": "uint256",
          "name": "initiateDate",
          "type": "uint256"
        }
      ],
      "name": "WithdrawInitiated",
      "type": "event"
    },
    {
      "inputs": [],
      "name": "currentTotalStake",
      "outputs": [
        {
          "internalType": "uint256",
          "name": "",
          "type": "uint256"
        }
      ],
      "stateMutability": "view",
      "type": "function"
    },
    {
      "inputs": [],
      "name": "owner",
      "outputs": [
        {
          "internalType": "address",
          "name": "",
          "type": "address"
        }
      ],
      "stateMutability": "view",
      "type": "function"
    },
    {
      "inputs": [
        {
          "internalType": "uint256",
          "name": "",
          "type": "uint256"
        }
      ],
      "name": "tierAllocated",
      "outputs": [
        {
          "internalType": "uint256",
          "name": "tokensToStake",
          "type": "uint256"
        },
        {
          "internalType": "uint256",
          "name": "investorsCount",
          "type": "uint256"
        }
      ],
      "stateMutability": "view",
      "type": "function"
    },
    {
      "inputs": [],
      "name": "tierID",
      "outputs": [
        {
          "internalType": "uint256",
          "name": "",
          "type": "uint256"
        }
      ],
      "stateMutability": "view",
      "type": "function"
    },
    {
      "inputs": [],
      "name": "token",
      "outputs": [
        {
          "internalType": "contract IERC20",
          "name": "",
          "type": "address"
        }
      ],
      "stateMutability": "view",
      "type": "function"
    },
    {
      "inputs": [],
      "name": "totalTiers",
      "outputs": [
        {
          "internalType": "uint256",
          "name": "",
          "type": "uint256"
        }
      ],
      "stateMutability": "view",
      "type": "function"
    },
    {
      "inputs": [],
      "name": "unstakingPeriod",
      "outputs": [
        {
          "internalType": "uint256",
          "name": "",
          "type": "uint256"
        }
      ],
      "stateMutability": "view",
      "type": "function"
    },
    {
      "inputs": [
        {
          "internalType": "address",
          "name": "_token",
          "type": "address"
        }
      ],
      "name": "setTokenAddress",
      "outputs": [],
      "stateMutability": "nonpayable",
      "type": "function"
    },
    {
      "inputs": [
        {
          "internalType": "uint256",
          "name": "_tokensToStake",
          "type": "uint256"
        }
      ],
      "name": "setTiers",
      "outputs": [],
      "stateMutability": "nonpayable",
      "type": "function"
    },
    {
      "inputs": [
        {
          "internalType": "uint256",
          "name": "_tierID",
          "type": "uint256"
        },
        {
          "internalType": "uint256",
          "name": "_tokensToStake",
          "type": "uint256"
        }
      ],
      "name": "updateTiers",
      "outputs": [],
      "stateMutability": "nonpayable",
      "type": "function"
    },
    {
      "inputs": [
        {
          "internalType": "uint256",
          "name": "_stakedAmount",
          "type": "uint256"
        }
      ],
      "name": "determineTiers",
      "outputs": [
        {
          "internalType": "uint256",
          "name": "tier",
          "type": "uint256"
        }
      ],
      "stateMutability": "view",
      "type": "function"
    },
    {
      "inputs": [
        {
          "internalType": "uint256",
          "name": "_tierID",
          "type": "uint256"
        }
      ],
      "name": "totalInvestorsInTier",
      "outputs": [
        {
          "internalType": "uint256",
          "name": "",
          "type": "uint256"
        }
      ],
      "stateMutability": "view",
      "type": "function"
    },
    {
      "inputs": [
        {
          "internalType": "uint256",
          "name": "_tierID",
          "type": "uint256"
        }
      ],
      "name": "stakeTokensInTier",
      "outputs": [
        {
          "internalType": "uint256",
          "name": "",
          "type": "uint256"
        }
      ],
      "stateMutability": "view",
      "type": "function"
    },
    {
      "inputs": [
        {
          "internalType": "address",
          "name": "account",
          "type": "address"
        }
      ],
      "name": "getTierDetails",
      "outputs": [
        {
          "internalType": "uint256",
          "name": "tier",
          "type": "uint256"
        }
      ],
      "stateMutability": "nonpayable",
      "type": "function"
    },
    {
      "inputs": [
        {
          "internalType": "uint256",
          "name": "amount",
          "type": "uint256"
        }
      ],
      "name": "deposit",
      "outputs": [],
      "stateMutability": "nonpayable",
      "type": "function"
    },
    {
      "inputs": [
        {
          "internalType": "uint256",
          "name": "withdrawAmount",
          "type": "uint256"
        }
      ],
      "name": "initiateWithdrawal",
      "outputs": [],
      "stateMutability": "nonpayable",
      "type": "function"
    },
    {
      "inputs": [],
      "name": "executeWithdrawal",
      "outputs": [],
      "stateMutability": "nonpayable",
      "type": "function"
    },
    {
      "inputs": [
        {
          "internalType": "address",
          "name": "account",
          "type": "address"
        }
      ],
      "name": "getStakeDetails",
      "outputs": [
        {
          "internalType": "uint256",
          "name": "initialDeposit",
          "type": "uint256"
        },
        {
          "internalType": "uint256",
          "name": "startDate",
          "type": "uint256"
        },
        {
          "internalType": "uint256",
          "name": "endDate",
          "type": "uint256"
        }
      ],
      "stateMutability": "view",
      "type": "function"
    }
  ],
  "bytecode": "0x6080604052600060045560006005553480156200001b57600080fd5b506040516200278b3803806200278b8339818101604052810190620000419190620001e8565b33600160006101000a81548173ffffffffffffffffffffffffffffffffffffffff021916908373ffffffffffffffffffffffffffffffffffffffff160217905550600073ffffffffffffffffffffffffffffffffffffffff168273ffffffffffffffffffffffffffffffffffffffff1603620000f4576040517f08c379a0000000000000000000000000000000000000000000000000000000008152600401620000eb90620002b6565b60405180910390fd5b816000806101000a81548173ffffffffffffffffffffffffffffffffffffffff021916908373ffffffffffffffffffffffffffffffffffffffff160217905550806003819055505050620002d8565b600080fd5b600073ffffffffffffffffffffffffffffffffffffffff82169050919050565b6000620001758262000148565b9050919050565b620001878162000168565b81146200019357600080fd5b50565b600081519050620001a7816200017c565b92915050565b6000819050919050565b620001c281620001ad565b8114620001ce57600080fd5b50565b600081519050620001e281620001b7565b92915050565b6000806040838503121562000202576200020162000143565b5b6000620002128582860162000196565b92505060206200022585828601620001d1565b9150509250929050565b600082825260208201905092915050565b7f4d6f6475735374616b696e673a20496e76616c696420746f6b656e206164647260008201527f6573730000000000000000000000000000000000000000000000000000000000602082015250565b60006200029e6023836200022f565b9150620002ab8262000240565b604082019050919050565b60006020820190508181036000830152620002d1816200028f565b9050919050565b6124a380620002e86000396000f3fe608060405234801561001057600080fd5b50600436106101165760003560e01c806397ff5b6b116100a2578063dbf1229d11610071578063dbf1229d146102f4578063f21c783b14610310578063f41322ac1461032e578063fa45aa0014610360578063fc0c546a1461036a57610116565b806397ff5b6b1461026e578063a235f85c1461029e578063b6b55f25146102ba578063ce4843e9146102d657610116565b806326a4e8d2116100e957806326a4e8d2146101c857806379eaaf61146101e457806385a62d2e146102025780638da5cb5b14610220578063975bc0141461023e57610116565b806307803ddf1461011b57806312edde5e1461014c5780631c75eaa814610168578063237c336414610198575b600080fd5b61013560048036038101906101309190611810565b610388565b60405161014392919061184c565b60405180910390f35b61016660048036038101906101619190611810565b6103ac565b005b610182600480360381019061017d91906118d3565b610615565b60405161018f9190611900565b60405180910390f35b6101b260048036038101906101ad9190611810565b610791565b6040516101bf9190611900565b60405180910390f35b6101e260048036038101906101dd91906118d3565b6107b1565b005b6101ec6108f3565b6040516101f99190611900565b60405180910390f35b61020a6108f9565b6040516102179190611900565b60405180910390f35b6102286108ff565b604051610235919061192a565b60405180910390f35b61025860048036038101906102539190611810565b610925565b6040516102659190611900565b60405180910390f35b61028860048036038101906102839190611810565b610a20565b6040516102959190611900565b60405180910390f35b6102b860048036038101906102b39190611945565b610a40565b005b6102d460048036038101906102cf9190611810565b610be8565b005b6102de610df2565b6040516102eb9190611900565b60405180910390f35b61030e60048036038101906103099190611810565b610df8565b005b610318611014565b6040516103259190611900565b60405180910390f35b610348600480360381019061034391906118d3565b61101a565b60405161035793929190611985565b60405180910390f35b6103686111a1565b005b61037261178b565b60405161037f9190611a1b565b60405180910390f35b60086020528060005260406000206000915090508060000154908060010154905082565b6000600660003373ffffffffffffffffffffffffffffffffffffffff1673ffffffffffffffffffffffffffffffffffffffff16815260200190815260200160002090506000600760003373ffffffffffffffffffffffffffffffffffffffff1673ffffffffffffffffffffffffffffffffffffffff168152602001908152602001600020905060008311610475576040517f08c379a000000000000000000000000000000000000000000000000000000000815260040161046c90611ab9565b60405180910390fd5b81600001548311156104bc576040517f08c379a00000000000000000000000000000000000000000000000000000000081526004016104b390611b4b565b60405180910390fd5b6000826000015403610503576040517f08c379a00000000000000000000000000000000000000000000000000000000081526004016104fa90611bdd565b60405180910390fd5b600082600201541461054a576040517f08c379a000000000000000000000000000000000000000000000000000000000815260040161054190611c6f565b60405180910390fd5b6000816001015414610591576040517f08c379a000000000000000000000000000000000000000000000000000000000815260040161058890611c6f565b60405180910390fd5b428260020181905550828160010181905550428160000181905550826002546105ba9190611cbe565b6002819055503373ffffffffffffffffffffffffffffffffffffffff167ff908b12fe0d8dc1ff4fda115e5bace3a7ad1aad889daca8e638ca0b29f806577844260405161060892919061184c565b60405180910390a2505050565b6000600660008373ffffffffffffffffffffffffffffffffffffffff1673ffffffffffffffffffffffffffffffffffffffff16815260200190815260200160002060030160009054906101000a900460ff1680156106b657506000600660008473ffffffffffffffffffffffffffffffffffffffff1673ffffffffffffffffffffffffffffffffffffffff1681526020019081526020016000206000015414155b6106f5576040517f08c379a00000000000000000000000000000000000000000000000000000000081526004016106ec90611d64565b60405180910390fd5b6000600660008473ffffffffffffffffffffffffffffffffffffffff1673ffffffffffffffffffffffffffffffffffffffff1681526020019081526020016000206040518060800160405290816000820154815260200160018201548152602001600282015481526020016003820160009054906101000a900460ff16151515158152505090506107898160000151610925565b915050919050565b600060086000838152602001908152602001600020600101549050919050565b600160009054906101000a900473ffffffffffffffffffffffffffffffffffffffff1673ffffffffffffffffffffffffffffffffffffffff163373ffffffffffffffffffffffffffffffffffffffff1614610841576040517f08c379a000000000000000000000000000000000000000000000000000000000815260040161083890611df6565b60405180910390fd5b600073ffffffffffffffffffffffffffffffffffffffff168173ffffffffffffffffffffffffffffffffffffffff16036108b0576040517f08c379a00000000000000000000000000000000000000000000000000000000081526004016108a790611e88565b60405180910390fd5b806000806101000a81548173ffffffffffffffffffffffffffffffffffffffff021916908373ffffffffffffffffffffffffffffffffffffffff16021790555050565b60055481565b60045481565b600160009054906101000a900473ffffffffffffffffffffffffffffffffffffffff1681565b6000808203610969576040517f08c379a000000000000000000000000000000000000000000000000000000000815260040161096090611d64565b60405180910390fd5b6000600190506000600554905060016005540361098b57600192505050610a1b565b6008600060055481526020019081526020016000206000015484106109b65760055492505050610a1b565b5b80821015610a095760006109cb83836117af565b905084600860008381526020019081526020016000206000015411156109f357809150610a03565b600181610a009190611ea8565b92505b506109b7565b600182610a169190611cbe565b925050505b919050565b600060086000838152602001908152602001600020600001549050919050565b600160009054906101000a900473ffffffffffffffffffffffffffffffffffffffff1673ffffffffffffffffffffffffffffffffffffffff163373ffffffffffffffffffffffffffffffffffffffff1614610ad0576040517f08c379a0000000000000000000000000000000000000000000000000000000008152600401610ac790611df6565b60405180910390fd5b60008203610b13576040517f08c379a0000000000000000000000000000000000000000000000000000000008152600401610b0a90611f28565b60405180910390fd5b60086000600184610b249190611ea8565b81526020019081526020016000206000015481108015610b65575060086000600184610b509190611cbe565b81526020019081526020016000206000015481115b610ba4576040517f08c379a0000000000000000000000000000000000000000000000000000000008152600401610b9b90611fba565b60405180910390fd5b604051806040016040528082815260200160008152506008600084815260200190815260200160002060008201518160000155602082015181600101559050505050565b6000600660003373ffffffffffffffffffffffffffffffffffffffff1673ffffffffffffffffffffffffffffffffffffffff168152602001908152602001600020905081816000016000828254610c3f9190611ea8565b9250508190555042816001018190555060018160030160006101000a81548160ff0219169083151502179055508160026000828254610c7e9190611ea8565b9250508190555060008054906101000a900473ffffffffffffffffffffffffffffffffffffffff1673ffffffffffffffffffffffffffffffffffffffff166323b872dd3330856040518463ffffffff1660e01b8152600401610ce293929190611fda565b6020604051808303816000875af1158015610d01573d6000803e3d6000fd5b505050506040513d601f19601f82011682018060405250810190610d259190612049565b610d64576040517f08c379a0000000000000000000000000000000000000000000000000000000008152600401610d5b906120e8565b60405180910390fd5b6000610d6f33610615565b90506001600860008381526020019081526020016000206001016000828254610d989190611ea8565b925050819055503373ffffffffffffffffffffffffffffffffffffffff167f0a7bb2e28cc4698aac06db79cf9163bfcc20719286cf59fa7d492ceda1b8edc284604051610de59190611900565b60405180910390a2505050565b60025481565b600160009054906101000a900473ffffffffffffffffffffffffffffffffffffffff1673ffffffffffffffffffffffffffffffffffffffff163373ffffffffffffffffffffffffffffffffffffffff1614610e88576040517f08c379a0000000000000000000000000000000000000000000000000000000008152600401610e7f90611df6565b60405180910390fd5b600160046000828254610e9b9190611ea8565b92505081905550600060045403610ee7576040517f08c379a0000000000000000000000000000000000000000000000000000000008152600401610ede90611f28565b60405180910390fd5b600860006001600454610efa9190611ea8565b81526020019081526020016000206000015481108015610f3d5750600860006001600454610f289190611cbe565b81526020019081526020016000206000015481115b610f7c576040517f08c379a0000000000000000000000000000000000000000000000000000000008152600401610f7390611fba565b60405180910390fd5b60405180604001604052808281526020016000815250600860006004548152602001908152602001600020600082015181600001556020820151816001015590505060056000815480929190610fd190612108565b91905055507fcfc4d8961c232632c6b09bddf66bc413cb73448057d761d8e9131102f8fb3f996004548260405161100992919061184c565b60405180910390a150565b60035481565b6000806000600660008573ffffffffffffffffffffffffffffffffffffffff1673ffffffffffffffffffffffffffffffffffffffff16815260200190815260200160002060030160009054906101000a900460ff1680156110be57506000600660008673ffffffffffffffffffffffffffffffffffffffff1673ffffffffffffffffffffffffffffffffffffffff1681526020019081526020016000206000015414155b6110fd576040517f08c379a00000000000000000000000000000000000000000000000000000000081526004016110f490611d64565b60405180910390fd5b6000600660008673ffffffffffffffffffffffffffffffffffffffff1673ffffffffffffffffffffffffffffffffffffffff1681526020019081526020016000206040518060800160405290816000820154815260200160018201548152602001600282015481526020016003820160009054906101000a900460ff1615151515815250509050806000015181602001518260400151935093509350509193909250565b6000600660003373ffffffffffffffffffffffffffffffffffffffff1673ffffffffffffffffffffffffffffffffffffffff1681526020019081526020016000206040518060800160405290816000820154815260200160018201548152602001600282015481526020016003820160009054906101000a900460ff16151515158152505090506000600760003373ffffffffffffffffffffffffffffffffffffffff1673ffffffffffffffffffffffffffffffffffffffff168152602001908152602001600020604051806040016040529081600082015481526020016001820154815250509050600082604001511415806112a357506000816020015114155b6112e2576040517f08c379a00000000000000000000000000000000000000000000000000000000081526004016112d9906121c2565b60405180910390fd5b6000826000015103611329576040517f08c379a000000000000000000000000000000000000000000000000000000000815260040161132090611bdd565b60405180910390fd5b60006201518083604001514261133f9190611cbe565b6113499190612211565b9050806003541115611390576040517f08c379a0000000000000000000000000000000000000000000000000000000008152600401611387906122b4565b60405180910390fd5b600061139b33610615565b905060016008600083815260200190815260200160002060010160008282546113c49190611cbe565b925050819055506000808460200151036113e25784600001516113e8565b83602001515b90508085600001511015611431576040517f08c379a00000000000000000000000000000000000000000000000000000000081526004016114289061236c565b60405180910390fd5b808560000151111561151e5780600660003373ffffffffffffffffffffffffffffffffffffffff1673ffffffffffffffffffffffffffffffffffffffff1681526020019081526020016000206000015461148b9190611cbe565b600660003373ffffffffffffffffffffffffffffffffffffffff1673ffffffffffffffffffffffffffffffffffffffff168152602001908152602001600020600001819055506000600660003373ffffffffffffffffffffffffffffffffffffffff1673ffffffffffffffffffffffffffffffffffffffff1681526020019081526020016000206002018190555061158d565b600660003373ffffffffffffffffffffffffffffffffffffffff1673ffffffffffffffffffffffffffffffffffffffff168152602001908152602001600020600080820160009055600182016000905560028201600090556003820160006101000a81549060ff021916905550505b60008054906101000a900473ffffffffffffffffffffffffffffffffffffffff1673ffffffffffffffffffffffffffffffffffffffff1663a9059cbb33836040518363ffffffff1660e01b81526004016115e892919061238c565b6020604051808303816000875af1158015611607573d6000803e3d6000fd5b505050506040513d601f19601f8201168201806040525081019061162b9190612049565b61166a576040517f08c379a00000000000000000000000000000000000000000000000000000000081526004016116619061244d565b60405180910390fd5b6000600760003373ffffffffffffffffffffffffffffffffffffffff1673ffffffffffffffffffffffffffffffffffffffff168152602001908152602001600020600101819055506000600760003373ffffffffffffffffffffffffffffffffffffffff1673ffffffffffffffffffffffffffffffffffffffff16815260200190815260200160002060000181905550600061170533610615565b9050600160086000838152602001908152602001600020600101600082825461172e9190611ea8565b925050819055503373ffffffffffffffffffffffffffffffffffffffff167f7b2a72f0889ae9bb89e8ee7ec3e7c465552d1b76d51df9b0426d0e4e7f39528f8360405161177b9190611900565b60405180910390a2505050505050565b60008054906101000a900473ffffffffffffffffffffffffffffffffffffffff1681565b600060028284186117c09190612211565b8284166117cd9190611ea8565b905092915050565b600080fd5b6000819050919050565b6117ed816117da565b81146117f857600080fd5b50565b60008135905061180a816117e4565b92915050565b600060208284031215611826576118256117d5565b5b6000611834848285016117fb565b91505092915050565b611846816117da565b82525050565b6000604082019050611861600083018561183d565b61186e602083018461183d565b9392505050565b600073ffffffffffffffffffffffffffffffffffffffff82169050919050565b60006118a082611875565b9050919050565b6118b081611895565b81146118bb57600080fd5b50565b6000813590506118cd816118a7565b92915050565b6000602082840312156118e9576118e86117d5565b5b60006118f7848285016118be565b91505092915050565b6000602082019050611915600083018461183d565b92915050565b61192481611895565b82525050565b600060208201905061193f600083018461191b565b92915050565b6000806040838503121561195c5761195b6117d5565b5b600061196a858286016117fb565b925050602061197b858286016117fb565b9150509250929050565b600060608201905061199a600083018661183d565b6119a7602083018561183d565b6119b4604083018461183d565b949350505050565b6000819050919050565b60006119e16119dc6119d784611875565b6119bc565b611875565b9050919050565b60006119f3826119c6565b9050919050565b6000611a05826119e8565b9050919050565b611a15816119fa565b82525050565b6000602082019050611a306000830184611a0c565b92915050565b600082825260208201905092915050565b7f4d6f6475735374616b696e673a20496e76616c6964207769746864726177616c60008201527f20616d6f756e7400000000000000000000000000000000000000000000000000602082015250565b6000611aa3602783611a36565b9150611aae82611a47565b604082019050919050565b60006020820190508181036000830152611ad281611a96565b9050919050565b7f4d6f6475735374616b696e673a20576974686472617720616d6f756e7420657860008201527f6365656420746865207374616b6520616d6f756e740000000000000000000000602082015250565b6000611b35603583611a36565b9150611b4082611ad9565b604082019050919050565b60006020820190508181036000830152611b6481611b28565b9050919050565b7f4d6f6475735374616b696e673a205468657265206973206e6f207374616b652060008201527f6465706f73697420666f722074686973206163636f756e740000000000000000602082015250565b6000611bc7603883611a36565b9150611bd282611b6b565b604082019050919050565b60006020820190508181036000830152611bf681611bba565b9050919050565b7f4d6f6475735374616b696e673a20596f75206861766520616c7265616479206960008201527f6e6974696174656420746865207769746864726177616c000000000000000000602082015250565b6000611c59603783611a36565b9150611c6482611bfd565b604082019050919050565b60006020820190508181036000830152611c8881611c4c565b9050919050565b7f4e487b7100000000000000000000000000000000000000000000000000000000600052601160045260246000fd5b6000611cc9826117da565b9150611cd4836117da565b9250828203905081811115611cec57611ceb611c8f565b5b92915050565b7f4d6f6475735374616b696e673a2054686973206163636f756e7420646f65736e60008201527f277420686176652061207374616b65206465706f736974000000000000000000602082015250565b6000611d4e603783611a36565b9150611d5982611cf2565b604082019050919050565b60006020820190508181036000830152611d7d81611d41565b9050919050565b7f4d6f6475735374616b696e673a204164647265737320756e617574686f72697a60008201527f6564000000000000000000000000000000000000000000000000000000000000602082015250565b6000611de0602283611a36565b9150611deb82611d84565b604082019050919050565b60006020820190508181036000830152611e0f81611dd3565b9050919050565b7f4d6f6475735374616b696e673a20496e76616c696420746f6b656e206164647260008201527f6573730000000000000000000000000000000000000000000000000000000000602082015250565b6000611e72602383611a36565b9150611e7d82611e16565b604082019050919050565b60006020820190508181036000830152611ea181611e65565b9050919050565b6000611eb3826117da565b9150611ebe836117da565b9250828201905080821115611ed657611ed5611c8f565b5b92915050565b7f4d6f6475735374616b696e673a20496e76616c69642074696572204944000000600082015250565b6000611f12601d83611a36565b9150611f1d82611edc565b602082019050919050565b60006020820190508181036000830152611f4181611f05565b9050919050565b7f4d6f6475735374616b696e673a20546f6b656e20666f7220746869732074696560008201527f72206d75737420626520696e20736f72746564206f7264657220000000000000602082015250565b6000611fa4603a83611a36565b9150611faf82611f48565b604082019050919050565b60006020820190508181036000830152611fd381611f97565b9050919050565b6000606082019050611fef600083018661191b565b611ffc602083018561191b565b612009604083018461183d565b949350505050565b60008115159050919050565b61202681612011565b811461203157600080fd5b50565b6000815190506120438161201d565b92915050565b60006020828403121561205f5761205e6117d5565b5b600061206d84828501612034565b91505092915050565b7f4d6f6475735374616b696e673a20536f6d657468696e672077656e742077726f60008201527f6e6720647572696e672074686520746f6b656e207472616e7366657200000000602082015250565b60006120d2603c83611a36565b91506120dd82612076565b604082019050919050565b60006020820190508181036000830152612101816120c5565b9050919050565b6000612113826117da565b91507fffffffffffffffffffffffffffffffffffffffffffffffffffffffffffffffff820361214557612144611c8f565b5b600182019050919050565b7f4d6f6475735374616b696e673a20576974686472617720616d6f756e7420697360008201527f206e6f7420696e697469616c697a656400000000000000000000000000000000602082015250565b60006121ac603083611a36565b91506121b782612150565b604082019050919050565b600060208201905081810360008301526121db8161219f565b9050919050565b7f4e487b7100000000000000000000000000000000000000000000000000000000600052601260045260246000fd5b600061221c826117da565b9150612227836117da565b925082612237576122366121e2565b5b828204905092915050565b7f4d6f6475735374616b696e673a2054686520756e7374616b696e67207065726960008201527f6f6420646964206e6f7420706173730000000000000000000000000000000000602082015250565b600061229e602f83611a36565b91506122a982612242565b604082019050919050565b600060208201905081810360008301526122cd81612291565b9050919050565b7f4d6f6475735374616b696e673a2052656d61696e696e67207374616b6564657060008201527f6f73697420616d6f756e74206d75737420626520686967686572207468616e2060208201527f776974686472617720616d6f756e740000000000000000000000000000000000604082015250565b6000612356604f83611a36565b9150612361826122d4565b606082019050919050565b6000602082019050818103600083015261238581612349565b9050919050565b60006040820190506123a1600083018561191b565b6123ae602083018461183d565b9392505050565b7f4d6f6475735374616b696e673a20536f6d657468696e672077656e742077726f60008201527f6e67207768696c65207472616e7366657272696e6720796f757220696e69746960208201527f616c206465706f73697400000000000000000000000000000000000000000000604082015250565b6000612437604a83611a36565b9150612442826123b5565b606082019050919050565b600060208201905081810360008301526124668161242a565b905091905056fea2646970667358221220820f2ca40085e9c9ae2ca2e2909299a693361f9f21b782f137215d910cf1373b64736f6c63430008100033",
  "immutableReferences": {},
  "source": "// SPDX-License-Identifier: MIT\npragma solidity ^0.8.16;\n\nimport \"@openzeppelin/contracts/token/ERC20/IERC20.sol\";\nimport \"@openzeppelin/contracts/utils/math/Math.sol\";\n\ncontract ModusStakingContract {\n    /* Contract state variables */\n    IERC20 public token;\n    address public owner;\n    uint256 public currentTotalStake;\n    uint256 public unstakingPeriod;\n    uint256 public tierID = 0;\n    uint256 public totalTiers = 0;\n\n    /* Struct Declarations */\n    struct StakeDeposit {\n        uint256 amount;\n        uint256 startDate;\n        uint256 endDate;\n        bool exists;\n    }\n\n    struct WithdrawalState {\n        uint256 initiateDate;\n        uint256 amount;\n    }\n\n    struct Tier {\n        uint256 tokensToStake;\n        uint256 investorsCount;\n    }\n\n    /* Mappings */\n    mapping(address => StakeDeposit) private _stakeDeposits;\n    mapping(address => WithdrawalState) private _withdrawStates;\n    mapping(uint256 => Tier) public tierAllocated;\n\n    /* Events */\n    event StakeDeposited(address indexed account, uint256 amount);\n    event WithdrawInitiated(\n        address indexed account,\n        uint256 amount,\n        uint256 initiateDate\n    );\n    event WithdrawExecuted(address indexed account, uint256 amount);\n    event TierAdded(uint256 IDtier, uint256 tierStakeAmount);\n\n    /* Modifiers */\n    modifier onlyOwner() {\n        require(msg.sender == owner, \"ModusStaking: Address unauthorized\");\n        _;\n    }\n\n    /* Constructor */\n    constructor(address _stakingToken, uint256 _unstakingPeriod) {\n        owner = msg.sender;\n        require(\n            _stakingToken != address(0),\n            \"ModusStaking: Invalid token address\"\n        );\n\n        token = IERC20(_stakingToken);\n        unstakingPeriod = _unstakingPeriod;\n    }\n\n    /* Owner Functions */\n\n    /**\n     * @notice This function is used to set modus token address\n     * @dev only the owner can call this function\n     * @param _token Address of the modus token\n     */\n    function setTokenAddress(address _token) external onlyOwner {\n        require(_token != address(0), \"ModusStaking: Invalid token address\");\n        token = IERC20(_token);\n    }\n\n    /**\n     * @notice This function is used to set Tiers based on modus staked\n     * @dev only the owner can call this function\n     * @param _tokensToStake Amount of the modus token for each Tier\n     */\n    function setTiers(uint256 _tokensToStake) external onlyOwner {\n        tierID += 1;\n        require(tierID != 0, \"ModusStaking: Invalid tier ID\");\n        require(\n            _tokensToStake < tierAllocated[tierID + 1].tokensToStake &&\n                _tokensToStake > tierAllocated[tierID - 1].tokensToStake,\n            \"ModusStaking: Token for this tier must be in sorted order \"\n        );\n        tierAllocated[tierID] = Tier(_tokensToStake, 0);\n        totalTiers++;\n        emit TierAdded(tierID, _tokensToStake);\n    }\n\n    /**\n     * @notice This function is used to set Tiers based on modus staked\n     * @dev only the owner can call this function\n     * @param _tokensToStake Amount of the modus token for each Tier\n     * @param _tierID ID of the tier to be updated\n     */\n    function updateTiers(\n        uint256 _tierID,\n        uint256 _tokensToStake\n    ) external onlyOwner {\n        require(_tierID != 0, \"ModusStaking: Invalid tier ID\");\n        require(\n            _tokensToStake < tierAllocated[_tierID + 1].tokensToStake &&\n                _tokensToStake > tierAllocated[_tierID - 1].tokensToStake,\n            \"ModusStaking: Token for this tier must be in sorted order \"\n        );\n        tierAllocated[_tierID] = Tier(_tokensToStake, 0);\n    }\n\n    /* Tier */\n    /**\n     * @notice This function is used to determine Tiers based on modus staked\n     * @param _stakedAmount Amount of the modus token staked by user\n     * @return tier Returns the tier ID\n     */\n    function determineTiers(\n        uint256 _stakedAmount\n    ) public view returns (uint256 tier) {\n        require(\n            _stakedAmount != 0,\n            \"ModusStaking: This account doesn't have a stake deposit\"\n        );\n        uint256 low = 1;\n        uint256 high = totalTiers;\n        if (totalTiers == 1) {\n            return 1;\n        } else if (_stakedAmount >= tierAllocated[totalTiers].tokensToStake) {\n            return totalTiers;\n        } else {\n            while (low < high) {\n                uint256 mid = Math.average(low, high);\n                if (tierAllocated[mid].tokensToStake > _stakedAmount) {\n                    high = mid;\n                } else {\n                    low = mid + 1;\n                }\n            }\n            return low - 1;\n        }\n    }\n\n    /**\n     * @notice This function is used to determine total investors in a tier\n     * @param _tierID Tier ID of the user\n     * @return  Returns the investors count in each tier\n     */\n    function totalInvestorsInTier(\n        uint256 _tierID\n    ) external view returns (uint256) {\n        return tierAllocated[_tierID].investorsCount;\n    }\n\n    /**\n     * @notice This function is used to determine stake amount for a tier\n     * @param _tierID Tier ID of the user\n     * @return  Returns stake amount in each tier\n     */\n    function stakeTokensInTier(\n        uint256 _tierID\n    ) external view returns (uint256) {\n        return tierAllocated[_tierID].tokensToStake;\n    }\n\n    /**\n     * @notice This function is used to get the Tier details of the user\n     * @param account Address of the user staked\n     * @return tier Returns the tier ID\n     */\n    function getTierDetails(address account) public returns (uint256 tier) {\n        require(\n            _stakeDeposits[account].exists &&\n                _stakeDeposits[account].amount != 0,\n            \"ModusStaking: This account doesn't have a stake deposit\"\n        );\n\n        StakeDeposit memory s = _stakeDeposits[account];\n\n        return (determineTiers(s.amount));\n    }\n\n    /* Staking */\n    /**\n     * @notice This function is used to deposit and stake the modus token\n     * @param amount Amount of the modus token the user wish to stake\n     */\n    function deposit(uint256 amount) external {\n        StakeDeposit storage stakeDeposit = _stakeDeposits[msg.sender];\n\n        stakeDeposit.amount += amount;\n        stakeDeposit.startDate = block.timestamp;\n        stakeDeposit.exists = true;\n\n        currentTotalStake += amount;\n\n        // Transfer the Tokens to this contract\n        require(\n            token.transferFrom(msg.sender, address(this), amount),\n            \"ModusStaking: Something went wrong during the token transfer\"\n        );\n        uint256 toTier = getTierDetails(msg.sender);\n        tierAllocated[toTier].investorsCount += 1;\n\n        emit StakeDeposited(msg.sender, amount);\n    }\n\n    /**\n     * @notice This function is used to initiate withdrawal of tokens staked\n     * @param withdrawAmount Amount of the modus token user wish to withdraw\n     */\n    function initiateWithdrawal(uint256 withdrawAmount) external {\n        StakeDeposit storage stakeDeposit = _stakeDeposits[msg.sender];\n        WithdrawalState storage withdrawState = _withdrawStates[msg.sender];\n        require(withdrawAmount > 0, \"ModusStaking: Invalid withdrawal amount\");\n        require(\n            withdrawAmount <= stakeDeposit.amount,\n            \"ModusStaking: Withdraw amount exceed the stake amount\"\n        );\n        require(\n            stakeDeposit.amount != 0,\n            \"ModusStaking: There is no stake deposit for this account\"\n        );\n        require(\n            stakeDeposit.endDate == 0,\n            \"ModusStaking: You have already initiated the withdrawal\"\n        );\n        require(\n            withdrawState.amount == 0,\n            \"ModusStaking: You have already initiated the withdrawal\"\n        );\n        // set stakeDeposit end to current block timestamp (for struct StakeDeposit)\n        stakeDeposit.endDate = block.timestamp;\n        withdrawState.amount = withdrawAmount;\n        withdrawState.initiateDate = block.timestamp;\n\n        currentTotalStake = currentTotalStake - withdrawAmount;\n\n        emit WithdrawInitiated(msg.sender, withdrawAmount, block.timestamp);\n    }\n\n    /**\n     * @notice This function is used to execute withdrawal after its initialized\n     */\n    function executeWithdrawal() external {\n        StakeDeposit memory stakeDeposit = _stakeDeposits[msg.sender];\n        //get withdraw state of the user (amount and initiate date)\n        WithdrawalState memory withdrawState = _withdrawStates[msg.sender];\n\n        require(\n            // stakeDeposit.endDate != 0 as timestamp of block recorded when withdrawal initiated\n            stakeDeposit.endDate != 0 || withdrawState.amount != 0,\n            \"ModusStaking: Withdraw amount is not initialized\"\n        );\n        require(\n            stakeDeposit.amount != 0,\n            \"ModusStaking: There is no stake deposit for this account\"\n        );\n\n        // validate enough days have passed from initiating the withdrawal\n        uint256 daysPassed = (block.timestamp - stakeDeposit.endDate) / 1 days;\n        require(\n            unstakingPeriod <= daysPassed,\n            \"ModusStaking: The unstaking period did not pass\"\n        );\n\n        // reducing the investors count of current tier\n        uint256 currentTier = getTierDetails(msg.sender);\n        tierAllocated[currentTier].investorsCount -= 1;\n\n        // check whether withdrawing full stake deposit or partially\n        uint256 amount = withdrawState.amount != 0\n            ? withdrawState.amount\n            : stakeDeposit.amount;\n\n        require(\n            stakeDeposit.amount >= amount,\n            \"ModusStaking: Remaining stakedeposit amount must be higher than withdraw amount\"\n        );\n        if (stakeDeposit.amount > amount) {\n            _stakeDeposits[msg.sender].amount =\n                (_stakeDeposits[msg.sender].amount) -\n                (amount);\n            _stakeDeposits[msg.sender].endDate = 0;\n        } else {\n            delete _stakeDeposits[msg.sender];\n        }\n\n        require(\n            token.transfer(msg.sender, amount),\n            \"ModusStaking: Something went wrong while transferring your initial deposit\"\n        );\n\n        _withdrawStates[msg.sender].amount = 0;\n        _withdrawStates[msg.sender].initiateDate = 0;\n\n        //update investors tier count with current stake value\n        uint256 latestTier = getTierDetails(msg.sender);\n        tierAllocated[latestTier].investorsCount += 1;\n\n        emit WithdrawExecuted(msg.sender, amount);\n    }\n\n    // VIEW FUNCTIONS FOR HELPING THE USER AND CLIENT INTERFACE\n    /**\n     * @notice Helper function to get the stake details of the user\n     * @param account Address of the user staked\n     * @return initialDeposit Returns the stake deposit of the user\n     * @return startDate Returns the start date of staking\n     * @return endDate Returns the end date of staking\n     */\n    function getStakeDetails(\n        address account\n    )\n        external\n        view\n        returns (uint256 initialDeposit, uint256 startDate, uint256 endDate)\n    {\n        require(\n            _stakeDeposits[account].exists &&\n                _stakeDeposits[account].amount != 0,\n            \"ModusStaking: This account doesn't have a stake deposit\"\n        );\n\n        StakeDeposit memory s = _stakeDeposits[account];\n\n        return (s.amount, s.startDate, s.endDate);\n    }\n}\n",
  "sourcePath": "/mnt/c/Users/HP/Desktop/MODUS/contracts/staking/ModusStaking.sol",
  "compiler": {
    "name": "solc",
    "version": "0.8.16+commit.07a7930e.Emscripten.clang"
  },
  "schemaVersion": "3.4.9",
  "updatedAt": "2022-12-25T08:53:03.956Z",
  "devdoc": {
    "kind": "dev",
    "methods": {
      "deposit(uint256)": {
        "params": {
          "amount": "Amount of the modus token the user wish to stake"
        }
      },
      "determineTiers(uint256)": {
        "params": {
          "_stakedAmount": "Amount of the modus token staked by user"
        },
        "returns": {
          "tier": "Returns the tier ID"
        }
      },
      "getStakeDetails(address)": {
        "params": {
          "account": "Address of the user staked"
        },
        "returns": {
          "endDate": "Returns the end date of staking",
          "initialDeposit": "Returns the stake deposit of the user",
          "startDate": "Returns the start date of staking"
        }
      },
      "getTierDetails(address)": {
        "params": {
          "account": "Address of the user staked"
        },
        "returns": {
          "tier": "Returns the tier ID"
        }
      },
      "initiateWithdrawal(uint256)": {
        "params": {
          "withdrawAmount": "Amount of the modus token user wish to withdraw"
        }
      },
      "setTiers(uint256)": {
        "details": "only the owner can call this function",
        "params": {
          "_tokensToStake": "Amount of the modus token for each Tier"
        }
      },
      "setTokenAddress(address)": {
        "details": "only the owner can call this function",
        "params": {
          "_token": "Address of the modus token"
        }
      },
      "stakeTokensInTier(uint256)": {
        "params": {
          "_tierID": "Tier ID of the user"
        },
        "returns": {
          "_0": "Returns stake amount in each tier"
        }
      },
      "totalInvestorsInTier(uint256)": {
        "params": {
          "_tierID": "Tier ID of the user"
        },
        "returns": {
          "_0": "Returns the investors count in each tier"
        }
      },
      "updateTiers(uint256,uint256)": {
        "details": "only the owner can call this function",
        "params": {
          "_tierID": "ID of the tier to be updated",
          "_tokensToStake": "Amount of the modus token for each Tier"
        }
      }
    },
    "version": 1
  },
  "userdoc": {
    "kind": "user",
    "methods": {
      "deposit(uint256)": {
        "notice": "This function is used to deposit and stake the modus token"
      },
      "determineTiers(uint256)": {
        "notice": "This function is used to determine Tiers based on modus staked"
      },
      "executeWithdrawal()": {
        "notice": "This function is used to execute withdrawal after its initialized"
      },
      "getStakeDetails(address)": {
        "notice": "Helper function to get the stake details of the user"
      },
      "getTierDetails(address)": {
        "notice": "This function is used to get the Tier details of the user"
      },
      "initiateWithdrawal(uint256)": {
        "notice": "This function is used to initiate withdrawal of tokens staked"
      },
      "setTiers(uint256)": {
        "notice": "This function is used to set Tiers based on modus staked"
      },
      "setTokenAddress(address)": {
        "notice": "This function is used to set modus token address"
      },
      "stakeTokensInTier(uint256)": {
        "notice": "This function is used to determine stake amount for a tier"
      },
      "totalInvestorsInTier(uint256)": {
        "notice": "This function is used to determine total investors in a tier"
      },
      "updateTiers(uint256,uint256)": {
        "notice": "This function is used to set Tiers based on modus staked"
      }
    },
    "version": 1
  }
}