{
  "contractName": "ModusStakingContract",
  "abi": [
    {
      "inputs": [
        {
          "internalType": "address",
          "name": "_stakingToken",
          "type": "address"
        },
        {
          "internalType": "uint256",
          "name": "_unstakingPeriod",
          "type": "uint256"
        }
      ],
      "stateMutability": "nonpayable",
      "type": "constructor"
    },
    {
      "anonymous": false,
      "inputs": [
        {
          "indexed": true,
          "internalType": "address",
          "name": "account",
          "type": "address"
        },
        {
          "indexed": false,
          "internalType": "uint256",
          "name": "amount",
          "type": "uint256"
        }
      ],
      "name": "StakeDeposited",
      "type": "event"
    },
    {
      "anonymous": false,
      "inputs": [
        {
          "indexed": false,
          "internalType": "uint256",
          "name": "IDtier",
          "type": "uint256"
        },
        {
          "indexed": false,
          "internalType": "uint256",
          "name": "tierStakeAmount",
          "type": "uint256"
        }
      ],
      "name": "TierAdded",
      "type": "event"
    },
    {
      "anonymous": false,
      "inputs": [
        {
          "indexed": false,
          "internalType": "uint256",
          "name": "IDtier",
          "type": "uint256"
        },
        {
          "indexed": false,
          "internalType": "uint256",
          "name": "tierStakeAmount",
          "type": "uint256"
        }
      ],
      "name": "TierUpdated",
      "type": "event"
    },
    {
      "anonymous": false,
      "inputs": [
        {
          "indexed": true,
          "internalType": "address",
          "name": "account",
          "type": "address"
        },
        {
          "indexed": false,
          "internalType": "uint256",
          "name": "amount",
          "type": "uint256"
        }
      ],
      "name": "WithdrawExecuted",
      "type": "event"
    },
    {
      "anonymous": false,
      "inputs": [
        {
          "indexed": true,
          "internalType": "address",
          "name": "account",
          "type": "address"
        },
        {
          "indexed": false,
          "internalType": "uint256",
          "name": "amount",
          "type": "uint256"
        },
        {
          "indexed": false,
          "internalType": "uint256",
          "name": "initiateDate",
          "type": "uint256"
        }
      ],
      "name": "WithdrawInitiated",
      "type": "event"
    },
    {
      "inputs": [
        {
          "internalType": "address",
          "name": "",
          "type": "address"
        }
      ],
      "name": "_stakeDeposits",
      "outputs": [
        {
          "internalType": "uint256",
          "name": "amount",
          "type": "uint256"
        },
        {
          "internalType": "uint256",
          "name": "startDate",
          "type": "uint256"
        },
        {
          "internalType": "uint256",
          "name": "endDate",
          "type": "uint256"
        },
        {
          "internalType": "bool",
          "name": "exists",
          "type": "bool"
        }
      ],
      "stateMutability": "view",
      "type": "function"
    },
    {
      "inputs": [],
      "name": "currentTotalStake",
      "outputs": [
        {
          "internalType": "uint256",
          "name": "",
          "type": "uint256"
        }
      ],
      "stateMutability": "view",
      "type": "function"
    },
    {
      "inputs": [],
      "name": "owner",
      "outputs": [
        {
          "internalType": "address",
          "name": "",
          "type": "address"
        }
      ],
      "stateMutability": "view",
      "type": "function"
    },
    {
      "inputs": [
        {
          "internalType": "uint256",
          "name": "",
          "type": "uint256"
        }
      ],
      "name": "tierAllocated",
      "outputs": [
        {
          "internalType": "uint256",
          "name": "tokensToStake",
          "type": "uint256"
        },
        {
          "internalType": "uint256",
          "name": "investorsCount",
          "type": "uint256"
        }
      ],
      "stateMutability": "view",
      "type": "function"
    },
    {
      "inputs": [],
      "name": "tierID",
      "outputs": [
        {
          "internalType": "uint256",
          "name": "",
          "type": "uint256"
        }
      ],
      "stateMutability": "view",
      "type": "function"
    },
    {
      "inputs": [],
      "name": "token",
      "outputs": [
        {
          "internalType": "contract IERC20",
          "name": "",
          "type": "address"
        }
      ],
      "stateMutability": "view",
      "type": "function"
    },
    {
      "inputs": [],
      "name": "totalTiers",
      "outputs": [
        {
          "internalType": "uint256",
          "name": "",
          "type": "uint256"
        }
      ],
      "stateMutability": "view",
      "type": "function"
    },
    {
      "inputs": [],
      "name": "unstakingPeriod",
      "outputs": [
        {
          "internalType": "uint256",
          "name": "",
          "type": "uint256"
        }
      ],
      "stateMutability": "view",
      "type": "function"
    },
    {
      "inputs": [
        {
          "internalType": "address",
          "name": "_token",
          "type": "address"
        }
      ],
      "name": "setTokenAddress",
      "outputs": [],
      "stateMutability": "nonpayable",
      "type": "function"
    },
    {
      "inputs": [
        {
          "internalType": "uint256",
          "name": "_tokensToStake",
          "type": "uint256"
        }
      ],
      "name": "setTiers",
      "outputs": [],
      "stateMutability": "nonpayable",
      "type": "function"
    },
    {
      "inputs": [
        {
          "internalType": "uint256",
          "name": "_tierID",
          "type": "uint256"
        },
        {
          "internalType": "uint256",
          "name": "_tokensToStake",
          "type": "uint256"
        }
      ],
      "name": "updateTiers",
      "outputs": [],
      "stateMutability": "nonpayable",
      "type": "function"
    },
    {
      "inputs": [
        {
          "internalType": "uint256",
          "name": "_stakedAmount",
          "type": "uint256"
        }
      ],
      "name": "determineTiers",
      "outputs": [
        {
          "internalType": "uint256",
          "name": "tier",
          "type": "uint256"
        }
      ],
      "stateMutability": "view",
      "type": "function"
    },
    {
      "inputs": [
        {
          "internalType": "uint256",
          "name": "_tierID",
          "type": "uint256"
        }
      ],
      "name": "totalInvestorsInTier",
      "outputs": [
        {
          "internalType": "uint256",
          "name": "",
          "type": "uint256"
        }
      ],
      "stateMutability": "view",
      "type": "function"
    },
    {
      "inputs": [
        {
          "internalType": "uint256",
          "name": "_tierID",
          "type": "uint256"
        }
      ],
      "name": "stakeTokensInTier",
      "outputs": [
        {
          "internalType": "uint256",
          "name": "",
          "type": "uint256"
        }
      ],
      "stateMutability": "view",
      "type": "function"
    },
    {
      "inputs": [
        {
          "internalType": "uint256",
          "name": "amount",
          "type": "uint256"
        }
      ],
      "name": "deposit",
      "outputs": [],
      "stateMutability": "nonpayable",
      "type": "function"
    },
    {
      "inputs": [
        {
          "internalType": "uint256",
          "name": "withdrawAmount",
          "type": "uint256"
        }
      ],
      "name": "initiateWithdrawal",
      "outputs": [],
      "stateMutability": "nonpayable",
      "type": "function"
    },
    {
      "inputs": [],
      "name": "executeWithdrawal",
      "outputs": [],
      "stateMutability": "nonpayable",
      "type": "function"
    },
    {
      "inputs": [
        {
          "internalType": "address",
          "name": "account",
          "type": "address"
        }
      ],
      "name": "getStakeDetails",
      "outputs": [
        {
          "internalType": "uint256",
          "name": "initialDeposit",
          "type": "uint256"
        },
        {
          "internalType": "uint256",
          "name": "startDate",
          "type": "uint256"
        },
        {
          "internalType": "uint256",
          "name": "endDate",
          "type": "uint256"
        }
      ],
      "stateMutability": "view",
      "type": "function"
    }
  ],
  "bytecode": "0x6080604052600060045560006005553480156200001b57600080fd5b5060405162002a7e38038062002a7e8339818101604052810190620000419190620001e8565b33600160006101000a81548173ffffffffffffffffffffffffffffffffffffffff021916908373ffffffffffffffffffffffffffffffffffffffff160217905550600073ffffffffffffffffffffffffffffffffffffffff168273ffffffffffffffffffffffffffffffffffffffff1603620000f4576040517f08c379a0000000000000000000000000000000000000000000000000000000008152600401620000eb90620002b6565b60405180910390fd5b816000806101000a81548173ffffffffffffffffffffffffffffffffffffffff021916908373ffffffffffffffffffffffffffffffffffffffff160217905550806003819055505050620002d8565b600080fd5b600073ffffffffffffffffffffffffffffffffffffffff82169050919050565b6000620001758262000148565b9050919050565b620001878162000168565b81146200019357600080fd5b50565b600081519050620001a7816200017c565b92915050565b6000819050919050565b620001c281620001ad565b8114620001ce57600080fd5b50565b600081519050620001e281620001b7565b92915050565b6000806040838503121562000202576200020162000143565b5b6000620002128582860162000196565b92505060206200022585828601620001d1565b9150509250929050565b600082825260208201905092915050565b7f4d6f6475735374616b696e673a20496e76616c696420746f6b656e206164647260008201527f6573730000000000000000000000000000000000000000000000000000000000602082015250565b60006200029e6023836200022f565b9150620002ab8262000240565b604082019050919050565b60006020820190508181036000830152620002d1816200028f565b9050919050565b61279680620002e86000396000f3fe608060405234801561001057600080fd5b50600436106101165760003560e01c8063a235f85c116100a2578063f21c783b11610071578063f21c783b146102e0578063f41322ac146102fe578063f672812514610330578063fa45aa0014610363578063fc0c546a1461036d57610116565b8063a235f85c1461026e578063b6b55f251461028a578063ce4843e9146102a6578063dbf1229d146102c457610116565b806379eaaf61116100e957806379eaaf61146101b457806385a62d2e146101d25780638da5cb5b146101f0578063975bc0141461020e57806397ff5b6b1461023e57610116565b806307803ddf1461011b57806312edde5e1461014c578063237c33641461016857806326a4e8d214610198575b600080fd5b61013560048036038101906101309190611841565b61038b565b60405161014392919061187d565b60405180910390f35b61016660048036038101906101619190611841565b6103af565b005b610182600480360381019061017d9190611841565b610618565b60405161018f91906118a6565b60405180910390f35b6101b260048036038101906101ad919061191f565b610638565b005b6101bc61077a565b6040516101c991906118a6565b60405180910390f35b6101da610780565b6040516101e791906118a6565b60405180910390f35b6101f8610786565b604051610205919061195b565b60405180910390f35b61022860048036038101906102239190611841565b6107ac565b60405161023591906118a6565b60405180910390f35b61025860048036038101906102539190611841565b610900565b60405161026591906118a6565b60405180910390f35b61028860048036038101906102839190611976565b610920565b005b6102a4600480360381019061029f9190611841565b610b38565b005b6102ae610e05565b6040516102bb91906118a6565b60405180910390f35b6102de60048036038101906102d99190611841565b610e0b565b005b6102e8610ff8565b6040516102f591906118a6565b60405180910390f35b6103186004803603810190610313919061191f565b610ffe565b604051610327939291906119b6565b60405180910390f35b61034a6004803603810190610345919061191f565b6110a6565b60405161035a9493929190611a08565b60405180910390f35b61036b6110e3565b005b6103756117bc565b6040516103829190611aac565b60405180910390f35b60086020528060005260406000206000915090508060000154908060010154905082565b6000600660003373ffffffffffffffffffffffffffffffffffffffff1673ffffffffffffffffffffffffffffffffffffffff16815260200190815260200160002090506000600760003373ffffffffffffffffffffffffffffffffffffffff1673ffffffffffffffffffffffffffffffffffffffff168152602001908152602001600020905060008311610478576040517f08c379a000000000000000000000000000000000000000000000000000000000815260040161046f90611b4a565b60405180910390fd5b60008260000154036104bf576040517f08c379a00000000000000000000000000000000000000000000000000000000081526004016104b690611bdc565b60405180910390fd5b8160000154831115610506576040517f08c379a00000000000000000000000000000000000000000000000000000000081526004016104fd90611c6e565b60405180910390fd5b600082600201541461054d576040517f08c379a000000000000000000000000000000000000000000000000000000000815260040161054490611d00565b60405180910390fd5b6000816001015414610594576040517f08c379a000000000000000000000000000000000000000000000000000000000815260040161058b90611d00565b60405180910390fd5b428260020181905550828160010181905550428160000181905550826002546105bd9190611d4f565b6002819055503373ffffffffffffffffffffffffffffffffffffffff167ff908b12fe0d8dc1ff4fda115e5bace3a7ad1aad889daca8e638ca0b29f806577844260405161060b92919061187d565b60405180910390a2505050565b600060086000838152602001908152602001600020600101549050919050565b600160009054906101000a900473ffffffffffffffffffffffffffffffffffffffff1673ffffffffffffffffffffffffffffffffffffffff163373ffffffffffffffffffffffffffffffffffffffff16146106c8576040517f08c379a00000000000000000000000000000000000000000000000000000000081526004016106bf90611df5565b60405180910390fd5b600073ffffffffffffffffffffffffffffffffffffffff168173ffffffffffffffffffffffffffffffffffffffff1603610737576040517f08c379a000000000000000000000000000000000000000000000000000000000815260040161072e90611e87565b60405180910390fd5b806000806101000a81548173ffffffffffffffffffffffffffffffffffffffff021916908373ffffffffffffffffffffffffffffffffffffffff16021790555050565b60055481565b60045481565b600160009054906101000a900473ffffffffffffffffffffffffffffffffffffffff1681565b60008082036107f0576040517f08c379a00000000000000000000000000000000000000000000000000000000081526004016107e790611f19565b60405180910390fd5b600060019050600060055490506008600083815260200190815260200160002060000154841015610856576040517f08c379a000000000000000000000000000000000000000000000000000000000815260040161084d90611fab565b60405180910390fd5b60016005540361086b576001925050506108fb565b60086000600554815260200190815260200160002060000154841061089657600554925050506108fb565b5b808210156108e95760006108ab83836117e0565b905084600860008381526020019081526020016000206000015411156108d3578091506108e3565b6001816108e09190611fcb565b92505b50610897565b6001826108f69190611d4f565b925050505b919050565b600060086000838152602001908152602001600020600001549050919050565b600160009054906101000a900473ffffffffffffffffffffffffffffffffffffffff1673ffffffffffffffffffffffffffffffffffffffff163373ffffffffffffffffffffffffffffffffffffffff16146109b0576040517f08c379a00000000000000000000000000000000000000000000000000000000081526004016109a790611df5565b60405180910390fd5b600082036109f3576040517f08c379a00000000000000000000000000000000000000000000000000000000081526004016109ea9061204b565b60405180910390fd5b60086000600184610a049190611d4f565b8152602001908152602001600020600001548111610a57576040517f08c379a0000000000000000000000000000000000000000000000000000000008152600401610a4e90612103565b60405180910390fd5b60086000600184610a689190611fcb565b8152602001908152602001600020600001548110610abb576040517f08c379a0000000000000000000000000000000000000000000000000000000008152600401610ab290612195565b60405180910390fd5b604051806040016040528082815260200160008152506008600084815260200190815260200160002060008201518160000155602082015181600101559050507f5349d126fd113e080c8df8082fb24f953d527eca3de019efe9b3574285b3f0418282604051610b2c92919061187d565b60405180910390a15050565b60008103610b7b576040517f08c379a0000000000000000000000000000000000000000000000000000000008152600401610b7290612227565b60405180910390fd5b6000600660003373ffffffffffffffffffffffffffffffffffffffff1673ffffffffffffffffffffffffffffffffffffffff16815260200190815260200160002090506000808260030160009054906101000a900460ff1615610c0157610be583600001546107ac565b9050600860008281526020019081526020016000206001015491505b83836000016000828254610c159190611fcb565b9250508190555042836001018190555060018360030160006101000a81548160ff0219169083151502179055508360026000828254610c549190611fcb565b9250508190555060008054906101000a900473ffffffffffffffffffffffffffffffffffffffff1673ffffffffffffffffffffffffffffffffffffffff166323b872dd3330876040518463ffffffff1660e01b8152600401610cb893929190612247565b6020604051808303816000875af1158015610cd7573d6000803e3d6000fd5b505050506040513d601f19601f82011682018060405250810190610cfb91906122aa565b610d3a576040517f08c379a0000000000000000000000000000000000000000000000000000000008152600401610d3190612349565b60405180910390fd5b6000610d4984600001546107ac565b90506001600860008381526020019081526020016000206001016000828254610d729190611fcb565b9250508190555060008314610db0576001600860008481526020019081526020016000206001016000828254610da89190611d4f565b925050819055505b3373ffffffffffffffffffffffffffffffffffffffff167f0a7bb2e28cc4698aac06db79cf9163bfcc20719286cf59fa7d492ceda1b8edc286604051610df691906118a6565b60405180910390a25050505050565b60025481565b600160009054906101000a900473ffffffffffffffffffffffffffffffffffffffff1673ffffffffffffffffffffffffffffffffffffffff163373ffffffffffffffffffffffffffffffffffffffff1614610e9b576040517f08c379a0000000000000000000000000000000000000000000000000000000008152600401610e9290611df5565b60405180910390fd5b600160046000828254610eae9190611fcb565b92505081905550600060045403610efa576040517f08c379a0000000000000000000000000000000000000000000000000000000008152600401610ef19061204b565b60405180910390fd5b600860006001600454610f0d9190611d4f565b8152602001908152602001600020600001548111610f60576040517f08c379a0000000000000000000000000000000000000000000000000000000008152600401610f57906123db565b60405180910390fd5b60405180604001604052808281526020016000815250600860006004548152602001908152602001600020600082015181600001556020820151816001015590505060056000815480929190610fb5906123fb565b91905055507fcfc4d8961c232632c6b09bddf66bc413cb73448057d761d8e9131102f8fb3f9960045482604051610fed92919061187d565b60405180910390a150565b60035481565b600080600080600660008673ffffffffffffffffffffffffffffffffffffffff1673ffffffffffffffffffffffffffffffffffffffff1681526020019081526020016000206040518060800160405290816000820154815260200160018201548152602001600282015481526020016003820160009054906101000a900460ff1615151515815250509050806000015181602001518260400151935093509350509193909250565b60066020528060005260406000206000915090508060000154908060010154908060020154908060030160009054906101000a900460ff16905084565b6000600660003373ffffffffffffffffffffffffffffffffffffffff1673ffffffffffffffffffffffffffffffffffffffff1681526020019081526020016000206040518060800160405290816000820154815260200160018201548152602001600282015481526020016003820160009054906101000a900460ff16151515158152505090506000600760003373ffffffffffffffffffffffffffffffffffffffff1673ffffffffffffffffffffffffffffffffffffffff168152602001908152602001600020604051806040016040529081600082015481526020016001820154815250509050600082604001511415806111e557506000816020015114155b611224576040517f08c379a000000000000000000000000000000000000000000000000000000000815260040161121b906124b5565b60405180910390fd5b600082600001510361126b576040517f08c379a000000000000000000000000000000000000000000000000000000000815260040161126290611bdc565b60405180910390fd5b6000620151808360400151426112819190611d4f565b61128b9190612504565b90508060035411156112d2576040517f08c379a00000000000000000000000000000000000000000000000000000000081526004016112c9906125a7565b60405180910390fd5b60006112e184600001516107ac565b90506000836020015190508085600001511015611333576040517f08c379a000000000000000000000000000000000000000000000000000000000815260040161132a9061265f565b60405180910390fd5b808560000151111561141c5780600660003373ffffffffffffffffffffffffffffffffffffffff1673ffffffffffffffffffffffffffffffffffffffff1681526020019081526020016000206000015461138d9190611d4f565b600660003373ffffffffffffffffffffffffffffffffffffffff1673ffffffffffffffffffffffffffffffffffffffff168152602001908152602001600020600001819055506000600660003373ffffffffffffffffffffffffffffffffffffffff1673ffffffffffffffffffffffffffffffffffffffff168152602001908152602001600020600201819055505b60008054906101000a900473ffffffffffffffffffffffffffffffffffffffff1673ffffffffffffffffffffffffffffffffffffffff1663a9059cbb33836040518363ffffffff1660e01b815260040161147792919061267f565b6020604051808303816000875af1158015611496573d6000803e3d6000fd5b505050506040513d601f19601f820116820180604052508101906114ba91906122aa565b6114f9576040517f08c379a00000000000000000000000000000000000000000000000000000000081526004016114f090612740565b60405180910390fd5b6000600660003373ffffffffffffffffffffffffffffffffffffffff1673ffffffffffffffffffffffffffffffffffffffff16815260200190815260200160002060000154036115e057600160086000848152602001908152602001600020600101600082825461156a9190611d4f565b92505081905550600660003373ffffffffffffffffffffffffffffffffffffffff1673ffffffffffffffffffffffffffffffffffffffff168152602001908152602001600020600080820160009055600182016000905560028201600090556003820160006101000a81549060ff021916905550505b6000600660003373ffffffffffffffffffffffffffffffffffffffff1673ffffffffffffffffffffffffffffffffffffffff16815260200190815260200160002060000154146116595760016008600084815260200190815260200160002060010160008282546116519190611d4f565b925050819055505b6000600760003373ffffffffffffffffffffffffffffffffffffffff1673ffffffffffffffffffffffffffffffffffffffff168152602001908152602001600020600101819055506000600760003373ffffffffffffffffffffffffffffffffffffffff1673ffffffffffffffffffffffffffffffffffffffff168152602001908152602001600020600001819055506000611736600660003373ffffffffffffffffffffffffffffffffffffffff1673ffffffffffffffffffffffffffffffffffffffff168152602001908152602001600020600001546107ac565b9050600160086000838152602001908152602001600020600101600082825461175f9190611fcb565b925050819055503373ffffffffffffffffffffffffffffffffffffffff167f7b2a72f0889ae9bb89e8ee7ec3e7c465552d1b76d51df9b0426d0e4e7f39528f836040516117ac91906118a6565b60405180910390a2505050505050565b60008054906101000a900473ffffffffffffffffffffffffffffffffffffffff1681565b600060028284186117f19190612504565b8284166117fe9190611fcb565b905092915050565b600080fd5b6000819050919050565b61181e8161180b565b811461182957600080fd5b50565b60008135905061183b81611815565b92915050565b60006020828403121561185757611856611806565b5b60006118658482850161182c565b91505092915050565b6118778161180b565b82525050565b6000604082019050611892600083018561186e565b61189f602083018461186e565b9392505050565b60006020820190506118bb600083018461186e565b92915050565b600073ffffffffffffffffffffffffffffffffffffffff82169050919050565b60006118ec826118c1565b9050919050565b6118fc816118e1565b811461190757600080fd5b50565b600081359050611919816118f3565b92915050565b60006020828403121561193557611934611806565b5b60006119438482850161190a565b91505092915050565b611955816118e1565b82525050565b6000602082019050611970600083018461194c565b92915050565b6000806040838503121561198d5761198c611806565b5b600061199b8582860161182c565b92505060206119ac8582860161182c565b9150509250929050565b60006060820190506119cb600083018661186e565b6119d8602083018561186e565b6119e5604083018461186e565b949350505050565b60008115159050919050565b611a02816119ed565b82525050565b6000608082019050611a1d600083018761186e565b611a2a602083018661186e565b611a37604083018561186e565b611a4460608301846119f9565b95945050505050565b6000819050919050565b6000611a72611a6d611a68846118c1565b611a4d565b6118c1565b9050919050565b6000611a8482611a57565b9050919050565b6000611a9682611a79565b9050919050565b611aa681611a8b565b82525050565b6000602082019050611ac16000830184611a9d565b92915050565b600082825260208201905092915050565b7f4d6f6475735374616b696e673a20496e76616c6964207769746864726177616c60008201527f20616d6f756e7400000000000000000000000000000000000000000000000000602082015250565b6000611b34602783611ac7565b9150611b3f82611ad8565b604082019050919050565b60006020820190508181036000830152611b6381611b27565b9050919050565b7f4d6f6475735374616b696e673a205468657265206973206e6f207374616b652060008201527f6465706f73697420666f722074686973206163636f756e740000000000000000602082015250565b6000611bc6603883611ac7565b9150611bd182611b6a565b604082019050919050565b60006020820190508181036000830152611bf581611bb9565b9050919050565b7f4d6f6475735374616b696e673a20576974686472617720616d6f756e7420657860008201527f6365656420746865207374616b6520616d6f756e740000000000000000000000602082015250565b6000611c58603583611ac7565b9150611c6382611bfc565b604082019050919050565b60006020820190508181036000830152611c8781611c4b565b9050919050565b7f4d6f6475735374616b696e673a20596f75206861766520616c7265616479206960008201527f6e6974696174656420746865207769746864726177616c000000000000000000602082015250565b6000611cea603783611ac7565b9150611cf582611c8e565b604082019050919050565b60006020820190508181036000830152611d1981611cdd565b9050919050565b7f4e487b7100000000000000000000000000000000000000000000000000000000600052601160045260246000fd5b6000611d5a8261180b565b9150611d658361180b565b9250828203905081811115611d7d57611d7c611d20565b5b92915050565b7f4d6f6475735374616b696e673a204164647265737320756e617574686f72697a60008201527f6564000000000000000000000000000000000000000000000000000000000000602082015250565b6000611ddf602283611ac7565b9150611dea82611d83565b604082019050919050565b60006020820190508181036000830152611e0e81611dd2565b9050919050565b7f4d6f6475735374616b696e673a20496e76616c696420746f6b656e206164647260008201527f6573730000000000000000000000000000000000000000000000000000000000602082015250565b6000611e71602383611ac7565b9150611e7c82611e15565b604082019050919050565b60006020820190508181036000830152611ea081611e64565b9050919050565b7f4d6f6475735374616b696e673a2054686973206163636f756e7420646f65736e60008201527f277420686176652061207374616b65206465706f736974000000000000000000602082015250565b6000611f03603783611ac7565b9150611f0e82611ea7565b604082019050919050565b60006020820190508181036000830152611f3281611ef6565b9050919050565b7f4d6f6475735374616b696e673a205374616b65206465706f736974206c6f776560008201527f7220666f7220616e792074696572200000000000000000000000000000000000602082015250565b6000611f95602f83611ac7565b9150611fa082611f39565b604082019050919050565b60006020820190508181036000830152611fc481611f88565b9050919050565b6000611fd68261180b565b9150611fe18361180b565b9250828201905080821115611ff957611ff8611d20565b5b92915050565b7f4d6f6475735374616b696e673a20496e76616c69642074696572204944000000600082015250565b6000612035601d83611ac7565b915061204082611fff565b602082019050919050565b6000602082019050818103600083015261206481612028565b9050919050565b7f4d6f6475735374616b696e673a20546f6b656e20666f7220746869732074696560008201527f72206d7573742062652067726561746572207468616e2070726576696f75732060208201527f7469657220000000000000000000000000000000000000000000000000000000604082015250565b60006120ed604583611ac7565b91506120f88261206b565b606082019050919050565b6000602082019050818103600083015261211c816120e0565b9050919050565b7f4d6f6475735374616b696e673a20546f6b656e20666f7220746869732074696560008201527f72206d757374206265206c657373207468616e20746965722061667465722000602082015250565b600061217f603f83611ac7565b915061218a82612123565b604082019050919050565b600060208201905081810360008301526121ae81612172565b9050919050565b7f4d6f6475735374616b696e673a20546865207374616b65206465706f7369742060008201527f68617320746f206265206c6172676572207468616e2030000000000000000000602082015250565b6000612211603783611ac7565b915061221c826121b5565b604082019050919050565b6000602082019050818103600083015261224081612204565b9050919050565b600060608201905061225c600083018661194c565b612269602083018561194c565b612276604083018461186e565b949350505050565b612287816119ed565b811461229257600080fd5b50565b6000815190506122a48161227e565b92915050565b6000602082840312156122c0576122bf611806565b5b60006122ce84828501612295565b91505092915050565b7f4d6f6475735374616b696e673a20536f6d657468696e672077656e742077726f60008201527f6e6720647572696e672074686520746f6b656e207472616e7366657200000000602082015250565b6000612333603c83611ac7565b915061233e826122d7565b604082019050919050565b6000602082019050818103600083015261236281612326565b9050919050565b7f4d6f6475735374616b696e673a20546f6b656e20666f7220746869732074696560008201527f72206d75737420626520696e20736f72746564206f7264657220000000000000602082015250565b60006123c5603a83611ac7565b91506123d082612369565b604082019050919050565b600060208201905081810360008301526123f4816123b8565b9050919050565b60006124068261180b565b91507fffffffffffffffffffffffffffffffffffffffffffffffffffffffffffffffff820361243857612437611d20565b5b600182019050919050565b7f4d6f6475735374616b696e673a205769746864726177206973206e6f7420696e60008201527f697469616c697a65640000000000000000000000000000000000000000000000602082015250565b600061249f602983611ac7565b91506124aa82612443565b604082019050919050565b600060208201905081810360008301526124ce81612492565b9050919050565b7f4e487b7100000000000000000000000000000000000000000000000000000000600052601260045260246000fd5b600061250f8261180b565b915061251a8361180b565b92508261252a576125296124d5565b5b828204905092915050565b7f4d6f6475735374616b696e673a2054686520756e7374616b696e67207065726960008201527f6f6420646964206e6f7420706173730000000000000000000000000000000000602082015250565b6000612591602f83611ac7565b915061259c82612535565b604082019050919050565b600060208201905081810360008301526125c081612584565b9050919050565b7f4d6f6475735374616b696e673a2052656d61696e696e67207374616b6564657060008201527f6f73697420616d6f756e74206d75737420626520686967686572207468616e2060208201527f776974686472617720616d6f756e740000000000000000000000000000000000604082015250565b6000612649604f83611ac7565b9150612654826125c7565b606082019050919050565b600060208201905081810360008301526126788161263c565b9050919050565b6000604082019050612694600083018561194c565b6126a1602083018461186e565b9392505050565b7f4d6f6475735374616b696e673a20536f6d657468696e672077656e742077726f60008201527f6e67207768696c65207472616e7366657272696e6720796f757220696e69746960208201527f616c206465706f73697400000000000000000000000000000000000000000000604082015250565b600061272a604a83611ac7565b9150612735826126a8565b606082019050919050565b600060208201905081810360008301526127598161271d565b905091905056fea2646970667358221220d01a382059d9502510212a51b533816bcd9bd47cef4da2e3c73045347ef371be64736f6c63430008100033",
  "immutableReferences": {},
  "source": "// SPDX-License-Identifier: MIT\npragma solidity ^0.8.16;\n\nimport \"@openzeppelin/contracts/token/ERC20/IERC20.sol\";\nimport \"@openzeppelin/contracts/utils/math/Math.sol\";\n\ncontract ModusStakingContract {\n    /* Contract state variables */\n    IERC20 public token;\n    address public owner;\n    uint256 public currentTotalStake;\n    uint256 public unstakingPeriod;\n    uint256 public tierID = 0;\n    uint256 public totalTiers = 0;\n\n    /* Struct Declarations */\n    struct StakeDeposit {\n        uint256 amount;\n        uint256 startDate;\n        uint256 endDate;\n        bool exists;\n    }\n\n    struct WithdrawalState {\n        uint256 initiateDate;\n        uint256 amount;\n    }\n\n    struct Tier {\n        uint256 tokensToStake;\n        uint256 investorsCount;\n    }\n\n    /* Mappings */\n    mapping(address => StakeDeposit) public _stakeDeposits;\n    mapping(address => WithdrawalState) private _withdrawStates;\n    mapping(uint256 => Tier) public tierAllocated;\n\n    /* Events */\n    event StakeDeposited(address indexed account, uint256 amount);\n    event WithdrawInitiated(\n        address indexed account,\n        uint256 amount,\n        uint256 initiateDate\n    );\n    event WithdrawExecuted(address indexed account, uint256 amount);\n    event TierAdded(uint256 IDtier, uint256 tierStakeAmount);\n    event TierUpdated(uint256 IDtier, uint256 tierStakeAmount);\n\n    /* Modifiers */\n    modifier onlyOwner() {\n        require(msg.sender == owner, \"ModusStaking: Address unauthorized\");\n        _;\n    }\n\n    /* Constructor */\n    constructor(address _stakingToken, uint256 _unstakingPeriod) {\n        owner = msg.sender;\n        require(\n            _stakingToken != address(0),\n            \"ModusStaking: Invalid token address\"\n        );\n\n        token = IERC20(_stakingToken);\n        unstakingPeriod = _unstakingPeriod;\n    }\n\n    /* Owner Functions */\n\n    /**\n     * @notice This function is used to set modus token address\n     * @dev only the owner can call this function\n     * @param _token Address of the modus token\n     */\n    function setTokenAddress(address _token) external onlyOwner {\n        require(_token != address(0), \"ModusStaking: Invalid token address\");\n        token = IERC20(_token);\n    }\n\n    /**\n     * @notice This function is used to set Tiers based on modus staked\n     * @dev only the owner can call this function\n     * @param _tokensToStake Amount of the modus token for each Tier\n     */\n    function setTiers(uint256 _tokensToStake) external onlyOwner {\n        tierID += 1;\n        require(tierID != 0, \"ModusStaking: Invalid tier ID\");\n        require(\n            _tokensToStake > tierAllocated[tierID - 1].tokensToStake,\n            \"ModusStaking: Token for this tier must be in sorted order \"\n        );\n        tierAllocated[tierID] = Tier(_tokensToStake, 0);\n        totalTiers++;\n        emit TierAdded(tierID, _tokensToStake);\n    }\n\n    /**\n     * @notice This function is used to set Tiers based on modus staked\n     * @dev only the owner can call this function\n     * @param _tokensToStake Amount of the modus token for each Tier\n     * @param _tierID ID of the tier to be updated\n     */\n    function updateTiers(\n        uint256 _tierID,\n        uint256 _tokensToStake\n    ) external onlyOwner {\n        require(_tierID != 0, \"ModusStaking: Invalid tier ID\");\n        require(\n            _tokensToStake > tierAllocated[_tierID - 1].tokensToStake,\n            \"ModusStaking: Token for this tier must be greater than previous tier \"\n        );\n        require(\n            _tokensToStake < tierAllocated[_tierID + 1].tokensToStake,\n            \"ModusStaking: Token for this tier must be less than tier after \"\n        );\n        tierAllocated[_tierID] = Tier(_tokensToStake, 0);\n        emit TierUpdated(_tierID, _tokensToStake);\n    }\n\n    /* Tier */\n    /**\n     * @notice This function is used to determine Tiers based on modus staked\n     * @param _stakedAmount Amount of the modus token staked by user\n     * @return tier Returns the tier ID\n     */\n    function determineTiers(\n        uint256 _stakedAmount\n    ) public view returns (uint256 tier) {\n        require(\n            _stakedAmount != 0,\n            \"ModusStaking: This account doesn't have a stake deposit\"\n        );\n        uint256 low = 1;\n        uint256 high = totalTiers;\n        require(\n            _stakedAmount >= tierAllocated[low].tokensToStake,\n            \"ModusStaking: Stake deposit lower for any tier \"\n        );\n        if (totalTiers == 1) {\n            return 1;\n        } else if (_stakedAmount >= tierAllocated[totalTiers].tokensToStake) {\n            return totalTiers;\n        } else {\n            while (low < high) {\n                uint256 mid = Math.average(low, high);\n                if (tierAllocated[mid].tokensToStake > _stakedAmount) {\n                    high = mid;\n                } else {\n                    low = mid + 1;\n                }\n            }\n            return low - 1;\n        }\n    }\n\n    /**\n     * @notice This function is used to determine total investors in a tier\n     * @param _tierID Tier ID of the user\n     * @return  Returns the investors count in each tier\n     */\n    function totalInvestorsInTier(\n        uint256 _tierID\n    ) external view returns (uint256) {\n        return tierAllocated[_tierID].investorsCount;\n    }\n\n    /**\n     * @notice This function is used to determine stake amount for a tier\n     * @param _tierID Tier ID of the user\n     * @return  Returns stake amount in each tier\n     */\n    function stakeTokensInTier(\n        uint256 _tierID\n    ) external view returns (uint256) {\n        return tierAllocated[_tierID].tokensToStake;\n    }\n\n    /* Staking */\n    /**\n     * @notice This function is used to deposit and stake the modus token\n     * @param amount Amount of the modus token the user wish to stake\n     */\n    function deposit(uint256 amount) external {\n        require(\n            amount != 0,\n            \"ModusStaking: The stake deposit has to be larger than 0\"\n        );\n        StakeDeposit storage stakeDeposit = _stakeDeposits[msg.sender];\n        uint256 currentTierInvestorsCount;\n        uint256 currentTierID;\n        if (stakeDeposit.exists) {\n            currentTierID = determineTiers(stakeDeposit.amount);\n            currentTierInvestorsCount = tierAllocated[currentTierID]\n                .investorsCount;\n        }\n        stakeDeposit.amount += amount;\n        stakeDeposit.startDate = block.timestamp;\n        stakeDeposit.exists = true;\n\n        currentTotalStake += amount;\n\n        // Transfer the Tokens to this contract\n        require(\n            token.transferFrom(msg.sender, address(this), amount),\n            \"ModusStaking: Something went wrong during the token transfer\"\n        );\n        uint256 toTier = determineTiers(stakeDeposit.amount);\n        tierAllocated[toTier].investorsCount += 1;\n        if (currentTierInvestorsCount != 0) {\n            tierAllocated[currentTierID].investorsCount -= 1;\n        }\n\n        emit StakeDeposited(msg.sender, amount);\n    }\n\n    /**\n     * @notice This function is used to initiate withdrawal of tokens staked\n     * @param withdrawAmount Amount of the modus token user wish to withdraw\n     */\n    function initiateWithdrawal(uint256 withdrawAmount) external {\n        StakeDeposit storage stakeDeposit = _stakeDeposits[msg.sender];\n        WithdrawalState storage withdrawState = _withdrawStates[msg.sender];\n        require(withdrawAmount > 0, \"ModusStaking: Invalid withdrawal amount\");\n        require(\n            stakeDeposit.amount != 0,\n            \"ModusStaking: There is no stake deposit for this account\"\n        );\n        require(\n            withdrawAmount <= stakeDeposit.amount,\n            \"ModusStaking: Withdraw amount exceed the stake amount\"\n        );\n\n        require(\n            stakeDeposit.endDate == 0,\n            \"ModusStaking: You have already initiated the withdrawal\"\n        );\n        require(\n            withdrawState.amount == 0,\n            \"ModusStaking: You have already initiated the withdrawal\"\n        );\n        // set stakeDeposit end to current block timestamp (for struct StakeDeposit)\n        stakeDeposit.endDate = block.timestamp;\n        withdrawState.amount = withdrawAmount;\n        withdrawState.initiateDate = block.timestamp;\n\n        currentTotalStake = currentTotalStake - withdrawAmount;\n\n        emit WithdrawInitiated(msg.sender, withdrawAmount, block.timestamp);\n    }\n\n    /**\n     * @notice This function is used to execute withdrawal after its initialized\n     */\n    function executeWithdrawal() external {\n        StakeDeposit memory stakeDeposit = _stakeDeposits[msg.sender];\n        //get withdraw state of the user (amount and initiate date)\n        WithdrawalState memory withdrawState = _withdrawStates[msg.sender];\n\n        require(\n            // stakeDeposit.endDate != 0 as timestamp of block recorded when withdrawal initiated\n            stakeDeposit.endDate != 0 || withdrawState.amount != 0,\n            \"ModusStaking: Withdraw is not initialized\"\n        );\n        require(\n            stakeDeposit.amount != 0,\n            \"ModusStaking: There is no stake deposit for this account\"\n        );\n\n        // validate enough days have passed from initiating the withdrawal\n        uint256 daysPassed = (block.timestamp - stakeDeposit.endDate) / 1 days;\n        require(\n            unstakingPeriod <= daysPassed,\n            \"ModusStaking: The unstaking period did not pass\"\n        );\n\n        //current tier before withdrawal\n        uint256 currentTier = determineTiers(stakeDeposit.amount);\n\n        uint256 amount = withdrawState.amount;\n\n        require(\n            stakeDeposit.amount >= amount,\n            \"ModusStaking: Remaining stakedeposit amount must be higher than withdraw amount\"\n        );\n        if (stakeDeposit.amount > amount) {\n            _stakeDeposits[msg.sender].amount =\n                (_stakeDeposits[msg.sender].amount) -\n                (amount);\n            _stakeDeposits[msg.sender].endDate = 0;\n        }\n\n        require(\n            token.transfer(msg.sender, amount),\n            \"ModusStaking: Something went wrong while transferring your initial deposit\"\n        );\n        if (_stakeDeposits[msg.sender].amount == 0) {\n            tierAllocated[currentTier].investorsCount -= 1;\n            delete _stakeDeposits[msg.sender];\n        }\n        // reducing the investors count of previous tier\n        if (_stakeDeposits[msg.sender].amount != 0) {\n            tierAllocated[currentTier].investorsCount -= 1;\n        }\n        _withdrawStates[msg.sender].amount = 0;\n        _withdrawStates[msg.sender].initiateDate = 0;\n\n        //update investors tier count with current stake value\n        uint256 latestTier = determineTiers(_stakeDeposits[msg.sender].amount);\n        tierAllocated[latestTier].investorsCount += 1;\n\n        //emit WithdrawExecuted(msg.sender, amount);\n        emit WithdrawExecuted(msg.sender, amount);\n    }\n\n    // VIEW FUNCTIONS FOR HELPING THE USER AND CLIENT INTERFACE\n    /**\n     * @notice Helper function to get the stake details of the user\n     * @param account Address of the user staked\n     * @return initialDeposit Returns the stake deposit of the user\n     * @return startDate Returns the start date of staking\n     * @return endDate Returns the end date of staking\n     */\n    function getStakeDetails(\n        address account\n    )\n        external\n        view\n        returns (uint256 initialDeposit, uint256 startDate, uint256 endDate)\n    {\n        StakeDeposit memory s = _stakeDeposits[account];\n\n        return (s.amount, s.startDate, s.endDate);\n    }\n}\n",
  "sourcePath": "/mnt/c/Users/HP/Desktop/MODUS/contracts/staking/ModusStaking.sol",
  "compiler": {
    "name": "solc",
    "version": "0.8.16+commit.07a7930e.Emscripten.clang"
  },
  "schemaVersion": "3.4.9",
  "updatedAt": "2023-01-02T11:25:02.954Z",
  "devdoc": {
    "kind": "dev",
    "methods": {
      "deposit(uint256)": {
        "params": {
          "amount": "Amount of the modus token the user wish to stake"
        }
      },
      "determineTiers(uint256)": {
        "params": {
          "_stakedAmount": "Amount of the modus token staked by user"
        },
        "returns": {
          "tier": "Returns the tier ID"
        }
      },
      "getStakeDetails(address)": {
        "params": {
          "account": "Address of the user staked"
        },
        "returns": {
          "endDate": "Returns the end date of staking",
          "initialDeposit": "Returns the stake deposit of the user",
          "startDate": "Returns the start date of staking"
        }
      },
      "initiateWithdrawal(uint256)": {
        "params": {
          "withdrawAmount": "Amount of the modus token user wish to withdraw"
        }
      },
      "setTiers(uint256)": {
        "details": "only the owner can call this function",
        "params": {
          "_tokensToStake": "Amount of the modus token for each Tier"
        }
      },
      "setTokenAddress(address)": {
        "details": "only the owner can call this function",
        "params": {
          "_token": "Address of the modus token"
        }
      },
      "stakeTokensInTier(uint256)": {
        "params": {
          "_tierID": "Tier ID of the user"
        },
        "returns": {
          "_0": "Returns stake amount in each tier"
        }
      },
      "totalInvestorsInTier(uint256)": {
        "params": {
          "_tierID": "Tier ID of the user"
        },
        "returns": {
          "_0": "Returns the investors count in each tier"
        }
      },
      "updateTiers(uint256,uint256)": {
        "details": "only the owner can call this function",
        "params": {
          "_tierID": "ID of the tier to be updated",
          "_tokensToStake": "Amount of the modus token for each Tier"
        }
      }
    },
    "version": 1
  },
  "userdoc": {
    "kind": "user",
    "methods": {
      "deposit(uint256)": {
        "notice": "This function is used to deposit and stake the modus token"
      },
      "determineTiers(uint256)": {
        "notice": "This function is used to determine Tiers based on modus staked"
      },
      "executeWithdrawal()": {
        "notice": "This function is used to execute withdrawal after its initialized"
      },
      "getStakeDetails(address)": {
        "notice": "Helper function to get the stake details of the user"
      },
      "initiateWithdrawal(uint256)": {
        "notice": "This function is used to initiate withdrawal of tokens staked"
      },
      "setTiers(uint256)": {
        "notice": "This function is used to set Tiers based on modus staked"
      },
      "setTokenAddress(address)": {
        "notice": "This function is used to set modus token address"
      },
      "stakeTokensInTier(uint256)": {
        "notice": "This function is used to determine stake amount for a tier"
      },
      "totalInvestorsInTier(uint256)": {
        "notice": "This function is used to determine total investors in a tier"
      },
      "updateTiers(uint256,uint256)": {
        "notice": "This function is used to set Tiers based on modus staked"
      }
    },
    "version": 1
  }
}