{
  "contractName": "ModusStakingContract",
  "abi": [
    {
      "inputs": [
        {
          "internalType": "address",
          "name": "_stakingToken",
          "type": "address"
        },
        {
          "internalType": "uint256",
          "name": "_unstakingPeriod",
          "type": "uint256"
        }
      ],
      "stateMutability": "nonpayable",
      "type": "constructor"
    },
    {
      "anonymous": false,
      "inputs": [
        {
          "indexed": true,
          "internalType": "address",
          "name": "account",
          "type": "address"
        },
        {
          "indexed": false,
          "internalType": "uint256",
          "name": "amount",
          "type": "uint256"
        }
      ],
      "name": "StakeDeposited",
      "type": "event"
    },
    {
      "anonymous": false,
      "inputs": [
        {
          "indexed": false,
          "internalType": "uint256",
          "name": "IDtier",
          "type": "uint256"
        },
        {
          "indexed": false,
          "internalType": "uint256",
          "name": "tierStakeAmount",
          "type": "uint256"
        }
      ],
      "name": "TierAdded",
      "type": "event"
    },
    {
      "anonymous": false,
      "inputs": [
        {
          "indexed": false,
          "internalType": "uint256",
          "name": "IDtier",
          "type": "uint256"
        },
        {
          "indexed": false,
          "internalType": "uint256",
          "name": "tierStakeAmount",
          "type": "uint256"
        }
      ],
      "name": "TierUpdated",
      "type": "event"
    },
    {
      "anonymous": false,
      "inputs": [
        {
          "indexed": true,
          "internalType": "address",
          "name": "account",
          "type": "address"
        },
        {
          "indexed": false,
          "internalType": "uint256",
          "name": "amount",
          "type": "uint256"
        }
      ],
      "name": "WithdrawExecuted",
      "type": "event"
    },
    {
      "anonymous": false,
      "inputs": [
        {
          "indexed": true,
          "internalType": "address",
          "name": "account",
          "type": "address"
        },
        {
          "indexed": false,
          "internalType": "uint256",
          "name": "amount",
          "type": "uint256"
        },
        {
          "indexed": false,
          "internalType": "uint256",
          "name": "initiateDate",
          "type": "uint256"
        }
      ],
      "name": "WithdrawInitiated",
      "type": "event"
    },
    {
      "inputs": [
        {
          "internalType": "address",
          "name": "",
          "type": "address"
        }
      ],
      "name": "_stakeDeposits",
      "outputs": [
        {
          "internalType": "uint256",
          "name": "amount",
          "type": "uint256"
        },
        {
          "internalType": "bool",
          "name": "exists",
          "type": "bool"
        }
      ],
      "stateMutability": "view",
      "type": "function"
    },
    {
      "inputs": [
        {
          "internalType": "address",
          "name": "",
          "type": "address"
        }
      ],
      "name": "addressestotierID",
      "outputs": [
        {
          "internalType": "uint256",
          "name": "",
          "type": "uint256"
        }
      ],
      "stateMutability": "view",
      "type": "function"
    },
    {
      "inputs": [],
      "name": "currentTotalStake",
      "outputs": [
        {
          "internalType": "uint256",
          "name": "",
          "type": "uint256"
        }
      ],
      "stateMutability": "view",
      "type": "function"
    },
    {
      "inputs": [],
      "name": "owner",
      "outputs": [
        {
          "internalType": "address",
          "name": "",
          "type": "address"
        }
      ],
      "stateMutability": "view",
      "type": "function"
    },
    {
      "inputs": [
        {
          "internalType": "uint256",
          "name": "",
          "type": "uint256"
        }
      ],
      "name": "tierAllocated",
      "outputs": [
        {
          "internalType": "uint256",
          "name": "tokensToStake",
          "type": "uint256"
        },
        {
          "internalType": "uint256",
          "name": "investorsCount",
          "type": "uint256"
        }
      ],
      "stateMutability": "view",
      "type": "function"
    },
    {
      "inputs": [],
      "name": "tierID",
      "outputs": [
        {
          "internalType": "uint256",
          "name": "",
          "type": "uint256"
        }
      ],
      "stateMutability": "view",
      "type": "function"
    },
    {
      "inputs": [],
      "name": "token",
      "outputs": [
        {
          "internalType": "contract IERC20",
          "name": "",
          "type": "address"
        }
      ],
      "stateMutability": "view",
      "type": "function"
    },
    {
      "inputs": [],
      "name": "unstakingPeriod",
      "outputs": [
        {
          "internalType": "uint256",
          "name": "",
          "type": "uint256"
        }
      ],
      "stateMutability": "view",
      "type": "function"
    },
    {
      "inputs": [
        {
          "internalType": "address",
          "name": "_token",
          "type": "address"
        }
      ],
      "name": "setTokenAddress",
      "outputs": [],
      "stateMutability": "nonpayable",
      "type": "function"
    },
    {
      "inputs": [
        {
          "internalType": "uint256",
          "name": "_tokensToStake",
          "type": "uint256"
        }
      ],
      "name": "setTiers",
      "outputs": [],
      "stateMutability": "nonpayable",
      "type": "function"
    },
    {
      "inputs": [
        {
          "internalType": "uint256",
          "name": "_tierID",
          "type": "uint256"
        },
        {
          "internalType": "uint256",
          "name": "_tokensToStake",
          "type": "uint256"
        }
      ],
      "name": "updateTiers",
      "outputs": [],
      "stateMutability": "nonpayable",
      "type": "function"
    },
    {
      "inputs": [
        {
          "internalType": "uint256",
          "name": "_stakedAmount",
          "type": "uint256"
        }
      ],
      "name": "determineTiers",
      "outputs": [
        {
          "internalType": "uint256",
          "name": "tier",
          "type": "uint256"
        }
      ],
      "stateMutability": "view",
      "type": "function"
    },
    {
      "inputs": [
        {
          "internalType": "uint256",
          "name": "_tierID",
          "type": "uint256"
        }
      ],
      "name": "totalInvestorsInTier",
      "outputs": [
        {
          "internalType": "uint256",
          "name": "",
          "type": "uint256"
        }
      ],
      "stateMutability": "view",
      "type": "function"
    },
    {
      "inputs": [
        {
          "internalType": "uint256",
          "name": "_tierID",
          "type": "uint256"
        }
      ],
      "name": "stakeTokensInTier",
      "outputs": [
        {
          "internalType": "uint256",
          "name": "",
          "type": "uint256"
        }
      ],
      "stateMutability": "view",
      "type": "function"
    },
    {
      "inputs": [
        {
          "internalType": "uint256",
          "name": "amount",
          "type": "uint256"
        }
      ],
      "name": "deposit",
      "outputs": [],
      "stateMutability": "nonpayable",
      "type": "function"
    },
    {
      "inputs": [
        {
          "internalType": "uint256",
          "name": "withdrawAmount",
          "type": "uint256"
        }
      ],
      "name": "initiateWithdrawal",
      "outputs": [],
      "stateMutability": "nonpayable",
      "type": "function"
    },
    {
      "inputs": [],
      "name": "executeWithdrawal",
      "outputs": [],
      "stateMutability": "nonpayable",
      "type": "function"
    },
    {
      "inputs": [
        {
          "internalType": "address",
          "name": "account",
          "type": "address"
        }
      ],
      "name": "getStakeDetails",
      "outputs": [
        {
          "internalType": "uint256",
          "name": "initialDeposit",
          "type": "uint256"
        }
      ],
      "stateMutability": "view",
      "type": "function"
    }
  ],
  "bytecode": "0x60806040523480156200001157600080fd5b5060405162002adc38038062002adc8339818101604052810190620000379190620001de565b33600160006101000a81548173ffffffffffffffffffffffffffffffffffffffff021916908373ffffffffffffffffffffffffffffffffffffffff160217905550600073ffffffffffffffffffffffffffffffffffffffff168273ffffffffffffffffffffffffffffffffffffffff1603620000ea576040517f08c379a0000000000000000000000000000000000000000000000000000000008152600401620000e190620002ac565b60405180910390fd5b816000806101000a81548173ffffffffffffffffffffffffffffffffffffffff021916908373ffffffffffffffffffffffffffffffffffffffff160217905550806003819055505050620002ce565b600080fd5b600073ffffffffffffffffffffffffffffffffffffffff82169050919050565b60006200016b826200013e565b9050919050565b6200017d816200015e565b81146200018957600080fd5b50565b6000815190506200019d8162000172565b92915050565b6000819050919050565b620001b881620001a3565b8114620001c457600080fd5b50565b600081519050620001d881620001ad565b92915050565b60008060408385031215620001f857620001f762000139565b5b600062000208858286016200018c565b92505060206200021b85828601620001c7565b9150509250929050565b600082825260208201905092915050565b7f4d6f6475735374616b696e673a20496e76616c696420746f6b656e206164647260008201527f6573730000000000000000000000000000000000000000000000000000000000602082015250565b60006200029460238362000225565b9150620002a18262000236565b604082019050919050565b60006020820190508181036000830152620002c78162000285565b9050919050565b6127fe80620002de6000396000f3fe608060405234801561001057600080fd5b50600436106101165760003560e01c8063a235f85c116100a2578063f21c783b11610071578063f21c783b146102f2578063f41322ac14610310578063f672812514610340578063fa45aa0014610371578063fc0c546a1461037b57610116565b8063a235f85c14610280578063b6b55f251461029c578063ce4843e9146102b8578063dbf1229d146102d657610116565b80634bdb4ede116100e95780634bdb4ede146101b457806385a62d2e146101e45780638da5cb5b14610202578063975bc0141461022057806397ff5b6b1461025057610116565b806307803ddf1461011b57806312edde5e1461014c578063237c33641461016857806326a4e8d214610198575b600080fd5b610135600480360381019061013091906118d8565b610399565b604051610143929190611914565b60405180910390f35b610166600480360381019061016191906118d8565b6103bd565b005b610182600480360381019061017d91906118d8565b6105d6565b60405161018f919061193d565b60405180910390f35b6101b260048036038101906101ad91906119b6565b6105f6565b005b6101ce60048036038101906101c991906119b6565b610738565b6040516101db919061193d565b60405180910390f35b6101ec610750565b6040516101f9919061193d565b60405180910390f35b61020a610756565b60405161021791906119f2565b60405180910390f35b61023a600480360381019061023591906118d8565b61077c565b604051610247919061193d565b60405180910390f35b61026a600480360381019061026591906118d8565b6108d0565b604051610277919061193d565b60405180910390f35b61029a60048036038101906102959190611a0d565b6108f0565b005b6102b660048036038101906102b191906118d8565b610c00565b005b6102c0610f20565b6040516102cd919061193d565b60405180910390f35b6102f060048036038101906102eb91906118d8565b610f26565b005b6102fa6110fb565b604051610307919061193d565b60405180910390f35b61032a600480360381019061032591906119b6565b611101565b604051610337919061193d565b60405180910390f35b61035a600480360381019061035591906119b6565b611182565b604051610368929190611a68565b60405180910390f35b6103796111b3565b005b610383611853565b6040516103909190611af0565b60405180910390f35b60076020528060005260406000206000915090508060000154908060010154905082565b6000600560003373ffffffffffffffffffffffffffffffffffffffff1673ffffffffffffffffffffffffffffffffffffffff16815260200190815260200160002090506000600660003373ffffffffffffffffffffffffffffffffffffffff1673ffffffffffffffffffffffffffffffffffffffff168152602001908152602001600020905060008311610486576040517f08c379a000000000000000000000000000000000000000000000000000000000815260040161047d90611b8e565b60405180910390fd5b60008260000154036104cd576040517f08c379a00000000000000000000000000000000000000000000000000000000081526004016104c490611c20565b60405180910390fd5b8160000154831115610514576040517f08c379a000000000000000000000000000000000000000000000000000000000815260040161050b90611cb2565b60405180910390fd5b600081600101541461055b576040517f08c379a000000000000000000000000000000000000000000000000000000000815260040161055290611d44565b60405180910390fd5b8281600101819055504281600001819055508260025461057b9190611d93565b6002819055503373ffffffffffffffffffffffffffffffffffffffff167ff908b12fe0d8dc1ff4fda115e5bace3a7ad1aad889daca8e638ca0b29f80657784426040516105c9929190611914565b60405180910390a2505050565b600060076000838152602001908152602001600020600101549050919050565b600160009054906101000a900473ffffffffffffffffffffffffffffffffffffffff1673ffffffffffffffffffffffffffffffffffffffff163373ffffffffffffffffffffffffffffffffffffffff1614610686576040517f08c379a000000000000000000000000000000000000000000000000000000000815260040161067d90611e39565b60405180910390fd5b600073ffffffffffffffffffffffffffffffffffffffff168173ffffffffffffffffffffffffffffffffffffffff16036106f5576040517f08c379a00000000000000000000000000000000000000000000000000000000081526004016106ec90611ecb565b60405180910390fd5b806000806101000a81548173ffffffffffffffffffffffffffffffffffffffff021916908373ffffffffffffffffffffffffffffffffffffffff16021790555050565b60086020528060005260406000206000915090505481565b60045481565b600160009054906101000a900473ffffffffffffffffffffffffffffffffffffffff1681565b60008082036107c0576040517f08c379a00000000000000000000000000000000000000000000000000000000081526004016107b790611f5d565b60405180910390fd5b600060019050600060045490506007600083815260200190815260200160002060000154841015610826576040517f08c379a000000000000000000000000000000000000000000000000000000000815260040161081d90611fef565b60405180910390fd5b60016004540361083b576001925050506108cb565b60076000600454815260200190815260200160002060000154841061086657600454925050506108cb565b5b808210156108b957600061087b8383611877565b905084600760008381526020019081526020016000206000015411156108a3578091506108b3565b6001816108b0919061200f565b92505b50610867565b6001826108c69190611d93565b925050505b919050565b600060076000838152602001908152602001600020600001549050919050565b600160009054906101000a900473ffffffffffffffffffffffffffffffffffffffff1673ffffffffffffffffffffffffffffffffffffffff163373ffffffffffffffffffffffffffffffffffffffff1614610980576040517f08c379a000000000000000000000000000000000000000000000000000000000815260040161097790611e39565b60405180910390fd5b600082036109c3576040517f08c379a00000000000000000000000000000000000000000000000000000000081526004016109ba9061208f565b60405180910390fd5b600454821115610a08576040517f08c379a00000000000000000000000000000000000000000000000000000000081526004016109ff906120fb565b60405180910390fd5b6004548203610aba5760076000600184610a229190611d93565b8152602001908152602001600020600001548111610a75576040517f08c379a0000000000000000000000000000000000000000000000000000000008152600401610a6c906121b3565b60405180910390fd5b60405180604001604052808281526020016000815250600760008481526020019081526020016000206000820151816000015560208201518160010155905050610bc3565b60076000600184610acb9190611d93565b8152602001908152602001600020600001548111610b1e576040517f08c379a0000000000000000000000000000000000000000000000000000000008152600401610b15906121b3565b60405180910390fd5b60076000600184610b2f919061200f565b8152602001908152602001600020600001548110610b82576040517f08c379a0000000000000000000000000000000000000000000000000000000008152600401610b7990612245565b60405180910390fd5b604051806040016040528082815260200160008152506007600084815260200190815260200160002060008201518160000155602082015181600101559050505b7f5349d126fd113e080c8df8082fb24f953d527eca3de019efe9b3574285b3f0418282604051610bf4929190611914565b60405180910390a15050565b60008103610c43576040517f08c379a0000000000000000000000000000000000000000000000000000000008152600401610c3a906122d7565b60405180910390fd5b6000600560003373ffffffffffffffffffffffffffffffffffffffff1673ffffffffffffffffffffffffffffffffffffffff168152602001908152602001600020905060008160010160009054906101000a900460ff1615610ce257600860003373ffffffffffffffffffffffffffffffffffffffff1673ffffffffffffffffffffffffffffffffffffffff1681526020019081526020016000205490505b82826000016000828254610cf6919061200f565b9250508190555060018260010160006101000a81548160ff0219169083151502179055508260026000828254610d2c919061200f565b9250508190555060008054906101000a900473ffffffffffffffffffffffffffffffffffffffff1673ffffffffffffffffffffffffffffffffffffffff166323b872dd3330866040518463ffffffff1660e01b8152600401610d90939291906122f7565b6020604051808303816000875af1158015610daf573d6000803e3d6000fd5b505050506040513d601f19601f82011682018060405250810190610dd3919061235a565b610e12576040517f08c379a0000000000000000000000000000000000000000000000000000000008152600401610e09906123f9565b60405180910390fd5b6000610e21836000015461077c565b905080600860003373ffffffffffffffffffffffffffffffffffffffff1673ffffffffffffffffffffffffffffffffffffffff168152602001908152602001600020819055506001600760008381526020019081526020016000206001016000828254610e8e919061200f565b9250508190555060008214610ecc576001600760008481526020019081526020016000206001016000828254610ec49190611d93565b925050819055505b3373ffffffffffffffffffffffffffffffffffffffff167f0a7bb2e28cc4698aac06db79cf9163bfcc20719286cf59fa7d492ceda1b8edc285604051610f12919061193d565b60405180910390a250505050565b60025481565b600160009054906101000a900473ffffffffffffffffffffffffffffffffffffffff1673ffffffffffffffffffffffffffffffffffffffff163373ffffffffffffffffffffffffffffffffffffffff1614610fb6576040517f08c379a0000000000000000000000000000000000000000000000000000000008152600401610fad90611e39565b60405180910390fd5b600160046000828254610fc9919061200f565b92505081905550600060045403611015576040517f08c379a000000000000000000000000000000000000000000000000000000000815260040161100c9061208f565b60405180910390fd5b6007600060016004546110289190611d93565b815260200190815260200160002060000154811161107b576040517f08c379a00000000000000000000000000000000000000000000000000000000081526004016110729061248b565b60405180910390fd5b6040518060400160405280828152602001600081525060076000600454815260200190815260200160002060008201518160000155602082015181600101559050507fcfc4d8961c232632c6b09bddf66bc413cb73448057d761d8e9131102f8fb3f99600454826040516110f0929190611914565b60405180910390a150565b60035481565b600080600560008473ffffffffffffffffffffffffffffffffffffffff1673ffffffffffffffffffffffffffffffffffffffff168152602001908152602001600020604051806040016040529081600082015481526020016001820160009054906101000a900460ff16151515158152505090508060000151915050919050565b60056020528060005260406000206000915090508060000154908060010160009054906101000a900460ff16905082565b6000600560003373ffffffffffffffffffffffffffffffffffffffff1673ffffffffffffffffffffffffffffffffffffffff168152602001908152602001600020604051806040016040529081600082015481526020016001820160009054906101000a900460ff16151515158152505090506000600660003373ffffffffffffffffffffffffffffffffffffffff1673ffffffffffffffffffffffffffffffffffffffff168152602001908152602001600020604051806040016040529081600082015481526020016001820154815250509050600081600001511415806112a157506000816020015114155b6112e0576040517f08c379a00000000000000000000000000000000000000000000000000000000081526004016112d79061251d565b60405180910390fd5b6000826000015103611327576040517f08c379a000000000000000000000000000000000000000000000000000000000815260040161131e90611c20565b60405180910390fd5b60006201518082600001514261133d9190611d93565b611347919061256c565b905080600354111561138e576040517f08c379a00000000000000000000000000000000000000000000000000000000081526004016113859061260f565b60405180910390fd5b6000600860003373ffffffffffffffffffffffffffffffffffffffff1673ffffffffffffffffffffffffffffffffffffffff1681526020019081526020016000205490506000836020015190508085600001511015611422576040517f08c379a0000000000000000000000000000000000000000000000000000000008152600401611419906126c7565b60405180910390fd5b80856000015111156114c35780600560003373ffffffffffffffffffffffffffffffffffffffff1673ffffffffffffffffffffffffffffffffffffffff1681526020019081526020016000206000015461147c9190611d93565b600560003373ffffffffffffffffffffffffffffffffffffffff1673ffffffffffffffffffffffffffffffffffffffff168152602001908152602001600020600001819055505b60008054906101000a900473ffffffffffffffffffffffffffffffffffffffff1673ffffffffffffffffffffffffffffffffffffffff1663a9059cbb33836040518363ffffffff1660e01b815260040161151e9291906126e7565b6020604051808303816000875af115801561153d573d6000803e3d6000fd5b505050506040513d601f19601f82011682018060405250810190611561919061235a565b6115a0576040517f08c379a0000000000000000000000000000000000000000000000000000000008152600401611597906127a8565b60405180910390fd5b6000600560003373ffffffffffffffffffffffffffffffffffffffff1673ffffffffffffffffffffffffffffffffffffffff16815260200190815260200160002060000154036116775760016007600084815260200190815260200160002060010160008282546116119190611d93565b92505081905550600560003373ffffffffffffffffffffffffffffffffffffffff1673ffffffffffffffffffffffffffffffffffffffff1681526020019081526020016000206000808201600090556001820160006101000a81549060ff021916905550505b6000600560003373ffffffffffffffffffffffffffffffffffffffff1673ffffffffffffffffffffffffffffffffffffffff16815260200190815260200160002060000154146116f05760016007600084815260200190815260200160002060010160008282546116e89190611d93565b925050819055505b6000600660003373ffffffffffffffffffffffffffffffffffffffff1673ffffffffffffffffffffffffffffffffffffffff168152602001908152602001600020600101819055506000600660003373ffffffffffffffffffffffffffffffffffffffff1673ffffffffffffffffffffffffffffffffffffffff1681526020019081526020016000206000018190555060006117cd600560003373ffffffffffffffffffffffffffffffffffffffff1673ffffffffffffffffffffffffffffffffffffffff1681526020019081526020016000206000015461077c565b905060016007600083815260200190815260200160002060010160008282546117f6919061200f565b925050819055503373ffffffffffffffffffffffffffffffffffffffff167f7b2a72f0889ae9bb89e8ee7ec3e7c465552d1b76d51df9b0426d0e4e7f39528f83604051611843919061193d565b60405180910390a2505050505050565b60008054906101000a900473ffffffffffffffffffffffffffffffffffffffff1681565b60006002828418611888919061256c565b828416611895919061200f565b905092915050565b600080fd5b6000819050919050565b6118b5816118a2565b81146118c057600080fd5b50565b6000813590506118d2816118ac565b92915050565b6000602082840312156118ee576118ed61189d565b5b60006118fc848285016118c3565b91505092915050565b61190e816118a2565b82525050565b60006040820190506119296000830185611905565b6119366020830184611905565b9392505050565b60006020820190506119526000830184611905565b92915050565b600073ffffffffffffffffffffffffffffffffffffffff82169050919050565b600061198382611958565b9050919050565b61199381611978565b811461199e57600080fd5b50565b6000813590506119b08161198a565b92915050565b6000602082840312156119cc576119cb61189d565b5b60006119da848285016119a1565b91505092915050565b6119ec81611978565b82525050565b6000602082019050611a0760008301846119e3565b92915050565b60008060408385031215611a2457611a2361189d565b5b6000611a32858286016118c3565b9250506020611a43858286016118c3565b9150509250929050565b60008115159050919050565b611a6281611a4d565b82525050565b6000604082019050611a7d6000830185611905565b611a8a6020830184611a59565b9392505050565b6000819050919050565b6000611ab6611ab1611aac84611958565b611a91565b611958565b9050919050565b6000611ac882611a9b565b9050919050565b6000611ada82611abd565b9050919050565b611aea81611acf565b82525050565b6000602082019050611b056000830184611ae1565b92915050565b600082825260208201905092915050565b7f4d6f6475735374616b696e673a20496e76616c6964207769746864726177616c60008201527f20616d6f756e7400000000000000000000000000000000000000000000000000602082015250565b6000611b78602783611b0b565b9150611b8382611b1c565b604082019050919050565b60006020820190508181036000830152611ba781611b6b565b9050919050565b7f4d6f6475735374616b696e673a205468657265206973206e6f207374616b652060008201527f6465706f73697420666f722074686973206163636f756e740000000000000000602082015250565b6000611c0a603883611b0b565b9150611c1582611bae565b604082019050919050565b60006020820190508181036000830152611c3981611bfd565b9050919050565b7f4d6f6475735374616b696e673a20576974686472617720616d6f756e7420657860008201527f6365656420746865207374616b6520616d6f756e740000000000000000000000602082015250565b6000611c9c603583611b0b565b9150611ca782611c40565b604082019050919050565b60006020820190508181036000830152611ccb81611c8f565b9050919050565b7f4d6f6475735374616b696e673a20596f75206861766520616c7265616479206960008201527f6e6974696174656420746865207769746864726177616c000000000000000000602082015250565b6000611d2e603783611b0b565b9150611d3982611cd2565b604082019050919050565b60006020820190508181036000830152611d5d81611d21565b9050919050565b7f4e487b7100000000000000000000000000000000000000000000000000000000600052601160045260246000fd5b6000611d9e826118a2565b9150611da9836118a2565b9250828203905081811115611dc157611dc0611d64565b5b92915050565b7f4d6f6475735374616b696e673a204164647265737320756e617574686f72697a60008201527f6564000000000000000000000000000000000000000000000000000000000000602082015250565b6000611e23602283611b0b565b9150611e2e82611dc7565b604082019050919050565b60006020820190508181036000830152611e5281611e16565b9050919050565b7f4d6f6475735374616b696e673a20496e76616c696420746f6b656e206164647260008201527f6573730000000000000000000000000000000000000000000000000000000000602082015250565b6000611eb5602383611b0b565b9150611ec082611e59565b604082019050919050565b60006020820190508181036000830152611ee481611ea8565b9050919050565b7f4d6f6475735374616b696e673a2054686973206163636f756e7420646f65736e60008201527f277420686176652061207374616b65206465706f736974000000000000000000602082015250565b6000611f47603783611b0b565b9150611f5282611eeb565b604082019050919050565b60006020820190508181036000830152611f7681611f3a565b9050919050565b7f4d6f6475735374616b696e673a205374616b65206465706f736974206c6f776560008201527f7220666f7220616e792074696572200000000000000000000000000000000000602082015250565b6000611fd9602f83611b0b565b9150611fe482611f7d565b604082019050919050565b6000602082019050818103600083015261200881611fcc565b9050919050565b600061201a826118a2565b9150612025836118a2565b925082820190508082111561203d5761203c611d64565b5b92915050565b7f4d6f6475735374616b696e673a20496e76616c69642074696572204944000000600082015250565b6000612079601d83611b0b565b915061208482612043565b602082019050919050565b600060208201905081810360008301526120a88161206c565b9050919050565b7f4d6f6475735374616b696e673a2054696572206e6f742070726573656e740000600082015250565b60006120e5601e83611b0b565b91506120f0826120af565b602082019050919050565b60006020820190508181036000830152612114816120d8565b9050919050565b7f4d6f6475735374616b696e673a20546f6b656e20666f7220746869732074696560008201527f72206d7573742062652067726561746572207468616e2070726576696f75732060208201527f7469657220000000000000000000000000000000000000000000000000000000604082015250565b600061219d604583611b0b565b91506121a88261211b565b606082019050919050565b600060208201905081810360008301526121cc81612190565b9050919050565b7f4d6f6475735374616b696e673a20546f6b656e20666f7220746869732074696560008201527f72206d757374206265206c657373207468616e20746965722061667465722000602082015250565b600061222f603f83611b0b565b915061223a826121d3565b604082019050919050565b6000602082019050818103600083015261225e81612222565b9050919050565b7f4d6f6475735374616b696e673a20546865207374616b65206465706f7369742060008201527f68617320746f206265206c6172676572207468616e2030000000000000000000602082015250565b60006122c1603783611b0b565b91506122cc82612265565b604082019050919050565b600060208201905081810360008301526122f0816122b4565b9050919050565b600060608201905061230c60008301866119e3565b61231960208301856119e3565b6123266040830184611905565b949350505050565b61233781611a4d565b811461234257600080fd5b50565b6000815190506123548161232e565b92915050565b6000602082840312156123705761236f61189d565b5b600061237e84828501612345565b91505092915050565b7f4d6f6475735374616b696e673a20536f6d657468696e672077656e742077726f60008201527f6e6720647572696e672074686520746f6b656e207472616e7366657200000000602082015250565b60006123e3603c83611b0b565b91506123ee82612387565b604082019050919050565b60006020820190508181036000830152612412816123d6565b9050919050565b7f4d6f6475735374616b696e673a20546f6b656e20666f7220746869732074696560008201527f72206d75737420626520696e20736f72746564206f7264657220000000000000602082015250565b6000612475603a83611b0b565b915061248082612419565b604082019050919050565b600060208201905081810360008301526124a481612468565b9050919050565b7f4d6f6475735374616b696e673a205769746864726177206973206e6f7420696e60008201527f697469616c697a65640000000000000000000000000000000000000000000000602082015250565b6000612507602983611b0b565b9150612512826124ab565b604082019050919050565b60006020820190508181036000830152612536816124fa565b9050919050565b7f4e487b7100000000000000000000000000000000000000000000000000000000600052601260045260246000fd5b6000612577826118a2565b9150612582836118a2565b9250826125925761259161253d565b5b828204905092915050565b7f4d6f6475735374616b696e673a2054686520756e7374616b696e67207065726960008201527f6f6420646964206e6f7420706173730000000000000000000000000000000000602082015250565b60006125f9602f83611b0b565b91506126048261259d565b604082019050919050565b60006020820190508181036000830152612628816125ec565b9050919050565b7f4d6f6475735374616b696e673a2052656d61696e696e67207374616b6564657060008201527f6f73697420616d6f756e74206d75737420626520686967686572207468616e2060208201527f776974686472617720616d6f756e740000000000000000000000000000000000604082015250565b60006126b1604f83611b0b565b91506126bc8261262f565b606082019050919050565b600060208201905081810360008301526126e0816126a4565b9050919050565b60006040820190506126fc60008301856119e3565b6127096020830184611905565b9392505050565b7f4d6f6475735374616b696e673a20536f6d657468696e672077656e742077726f60008201527f6e67207768696c65207472616e7366657272696e6720796f757220696e69746960208201527f616c206465706f73697400000000000000000000000000000000000000000000604082015250565b6000612792604a83611b0b565b915061279d82612710565b606082019050919050565b600060208201905081810360008301526127c181612785565b905091905056fea264697066735822122047ca841f10d7f5f5ea5e6c6b1fd0e505db0f20005be4c784b35218de921d997b64736f6c63430008100033",
  "immutableReferences": {},
  "source": "// SPDX-License-Identifier: MIT\npragma solidity ^0.8.16;\n\nimport \"@openzeppelin/contracts/token/ERC20/IERC20.sol\";\nimport \"@openzeppelin/contracts/access/Ownable.sol\";\nimport \"@openzeppelin/contracts/utils/math/Math.sol\";\n\ncontract ModusStakingContract {\n    /* Contract state variables */\n    IERC20 public token;\n    address public owner;\n    uint256 public currentTotalStake;\n    uint256 public unstakingPeriod;\n    uint256 public tierID;\n\n    /* Struct Declarations */\n    struct StakeDeposit {\n        uint256 amount;\n        bool exists;\n    }\n\n    struct WithdrawalState {\n        uint256 initiateDate;\n        uint256 amount;\n    }\n\n    struct Tier {\n        uint256 tokensToStake;\n        uint256 investorsCount;\n    }\n\n    /* Mappings */\n    mapping(address => StakeDeposit) public _stakeDeposits;\n    mapping(address => WithdrawalState) private _withdrawStates;\n    mapping(uint256 => Tier) public tierAllocated;\n    mapping(address => uint256) public addressestotierID;\n\n    /* Events */\n    event StakeDeposited(address indexed account, uint256 amount);\n    event WithdrawInitiated(\n        address indexed account,\n        uint256 amount,\n        uint256 initiateDate\n    );\n    event WithdrawExecuted(address indexed account, uint256 amount);\n    event TierAdded(uint256 IDtier, uint256 tierStakeAmount);\n    event TierUpdated(uint256 IDtier, uint256 tierStakeAmount);\n\n    /* Modifiers */\n    modifier onlyOwner() {\n        require(msg.sender == owner, \"ModusStaking: Address unauthorized\");\n        _;\n    }\n\n    /* Constructor */\n    constructor(address _stakingToken, uint256 _unstakingPeriod) {\n        owner = msg.sender;\n        require(\n            _stakingToken != address(0),\n            \"ModusStaking: Invalid token address\"\n        );\n\n        token = IERC20(_stakingToken);\n        unstakingPeriod = _unstakingPeriod;\n    }\n\n    /* Owner Functions */\n\n    /**\n     * @notice This function is used to set modus token address\n     * @dev only the owner can call this function\n     * @param _token Address of the modus token\n     */\n    function setTokenAddress(address _token) external onlyOwner {\n        require(_token != address(0), \"ModusStaking: Invalid token address\");\n        token = IERC20(_token);\n    }\n\n    /**\n     * @notice This function is used to set Tiers based on modus staked\n     * @dev only the owner can call this function\n     * @param _tokensToStake Amount of the modus token for each Tier\n     */\n    function setTiers(uint256 _tokensToStake) external onlyOwner {\n        tierID += 1;\n        require(tierID != 0, \"ModusStaking: Invalid tier ID\");\n        require(\n            _tokensToStake > tierAllocated[tierID - 1].tokensToStake,\n            \"ModusStaking: Token for this tier must be in sorted order \"\n        );\n        tierAllocated[tierID] = Tier(_tokensToStake, 0);\n        emit TierAdded(tierID, _tokensToStake);\n    }\n\n    /**\n     * @notice This function is used to set Tiers based on modus staked\n     * @dev only the owner can call this function\n     * @param _tokensToStake Amount of the modus token for each Tier\n     * @param _tierID ID of the tier to be updated\n     */\n    function updateTiers(\n        uint256 _tierID,\n        uint256 _tokensToStake\n    ) external onlyOwner {\n        require(_tierID != 0, \"ModusStaking: Invalid tier ID\");\n        require(_tierID <= tierID, \"ModusStaking: Tier not present\");\n        if (_tierID == tierID) {\n            require(\n                _tokensToStake > tierAllocated[_tierID - 1].tokensToStake,\n                \"ModusStaking: Token for this tier must be greater than previous tier \"\n            );\n            tierAllocated[_tierID] = Tier(_tokensToStake, 0);\n        } else {\n            require(\n                _tokensToStake > tierAllocated[_tierID - 1].tokensToStake,\n                \"ModusStaking: Token for this tier must be greater than previous tier \"\n            );\n            require(\n                _tokensToStake < tierAllocated[_tierID + 1].tokensToStake,\n                \"ModusStaking: Token for this tier must be less than tier after \"\n            );\n            tierAllocated[_tierID] = Tier(_tokensToStake, 0);\n        }\n\n        emit TierUpdated(_tierID, _tokensToStake);\n    }\n\n    /* Tier */\n    /**\n     * @notice This function is used to determine Tiers based on modus staked\n     * @param _stakedAmount Amount of the modus token staked by user\n     * @return tier Returns the tier ID\n     */\n    function determineTiers(\n        uint256 _stakedAmount\n    ) public view returns (uint256 tier) {\n        require(\n            _stakedAmount != 0,\n            \"ModusStaking: This account doesn't have a stake deposit\"\n        );\n        uint256 low = 1;\n        uint256 high = tierID;\n        require(\n            _stakedAmount >= tierAllocated[low].tokensToStake,\n            \"ModusStaking: Stake deposit lower for any tier \"\n        );\n        if (tierID == 1) {\n            return 1;\n        } else if (_stakedAmount >= tierAllocated[tierID].tokensToStake) {\n            return tierID;\n        } else {\n            while (low < high) {\n                uint256 mid = Math.average(low, high);\n                if (tierAllocated[mid].tokensToStake > _stakedAmount) {\n                    high = mid;\n                } else {\n                    low = mid + 1;\n                }\n            }\n            return low - 1;\n        }\n    }\n\n    /**\n     * @notice This function is used to determine total investors in a tier\n     * @param _tierID Tier ID of the user\n     * @return  Returns the investors count in each tier\n     */\n    function totalInvestorsInTier(\n        uint256 _tierID\n    ) external view returns (uint256) {\n        return tierAllocated[_tierID].investorsCount;\n    }\n\n    /**\n     * @notice This function is used to determine stake amount for a tier\n     * @param _tierID Tier ID of the user\n     * @return  Returns stake amount in each tier\n     */\n    function stakeTokensInTier(\n        uint256 _tierID\n    ) external view returns (uint256) {\n        return tierAllocated[_tierID].tokensToStake;\n    }\n\n    /* Staking */\n    /**\n     * @notice This function is used to deposit and stake the modus token\n     * @param amount Amount of the modus token the user wish to stake\n     */\n    function deposit(uint256 amount) external {\n        require(\n            amount != 0,\n            \"ModusStaking: The stake deposit has to be larger than 0\"\n        );\n        StakeDeposit storage stakeDeposit = _stakeDeposits[msg.sender];\n\n        uint256 currentTierID;\n        if (stakeDeposit.exists) {\n            currentTierID = addressestotierID[msg.sender];\n        }\n\n        stakeDeposit.amount += amount;\n        stakeDeposit.exists = true;\n        currentTotalStake += amount;\n\n        // Transfer the Tokens to this contract\n        require(\n            token.transferFrom(msg.sender, address(this), amount),\n            \"ModusStaking: Something went wrong during the token transfer\"\n        );\n\n        uint256 toTier = determineTiers(stakeDeposit.amount);\n        addressestotierID[msg.sender] = toTier;\n        tierAllocated[toTier].investorsCount += 1;\n\n        if (currentTierID != 0) {\n            tierAllocated[currentTierID].investorsCount -= 1;\n        }\n\n        emit StakeDeposited(msg.sender, amount);\n    }\n\n    /**\n     * @notice This function is used to initiate withdrawal of tokens staked\n     * @param withdrawAmount Amount of the modus token user wish to withdraw\n     */\n    function initiateWithdrawal(uint256 withdrawAmount) external {\n        StakeDeposit storage stakeDeposit = _stakeDeposits[msg.sender];\n        WithdrawalState storage withdrawState = _withdrawStates[msg.sender];\n        require(withdrawAmount > 0, \"ModusStaking: Invalid withdrawal amount\");\n        require(\n            stakeDeposit.amount != 0,\n            \"ModusStaking: There is no stake deposit for this account\"\n        );\n        require(\n            withdrawAmount <= stakeDeposit.amount,\n            \"ModusStaking: Withdraw amount exceed the stake amount\"\n        );\n\n        require(\n            withdrawState.amount == 0,\n            \"ModusStaking: You have already initiated the withdrawal\"\n        );\n\n        withdrawState.amount = withdrawAmount;\n        withdrawState.initiateDate = block.timestamp;\n\n        currentTotalStake = currentTotalStake - withdrawAmount;\n\n        emit WithdrawInitiated(msg.sender, withdrawAmount, block.timestamp);\n    }\n\n    /**\n     * @notice This function is used to execute withdrawal after its initialized\n     */\n    function executeWithdrawal() external {\n        StakeDeposit memory stakeDeposit = _stakeDeposits[msg.sender];\n        //get withdraw state of the user (amount and initiate date)\n        WithdrawalState memory withdrawState = _withdrawStates[msg.sender];\n\n        require(\n            withdrawState.initiateDate != 0 || withdrawState.amount != 0,\n            \"ModusStaking: Withdraw is not initialized\"\n        );\n        require(\n            stakeDeposit.amount != 0,\n            \"ModusStaking: There is no stake deposit for this account\"\n        );\n\n        // validate enough days have passed from initiating the withdrawal\n        uint256 daysPassed = (block.timestamp - withdrawState.initiateDate) /\n            1 days;\n        require(\n            unstakingPeriod <= daysPassed,\n            \"ModusStaking: The unstaking period did not pass\"\n        );\n\n        //current tier before withdrawal\n        uint256 currentTier = addressestotierID[msg.sender];\n\n        uint256 amount = withdrawState.amount;\n\n        require(\n            stakeDeposit.amount >= amount,\n            \"ModusStaking: Remaining stakedeposit amount must be higher than withdraw amount\"\n        );\n        if (stakeDeposit.amount > amount) {\n            _stakeDeposits[msg.sender].amount =\n                (_stakeDeposits[msg.sender].amount) -\n                (amount);\n        }\n\n        require(\n            token.transfer(msg.sender, amount),\n            \"ModusStaking: Something went wrong while transferring your initial deposit\"\n        );\n        if (_stakeDeposits[msg.sender].amount == 0) {\n            tierAllocated[currentTier].investorsCount -= 1;\n            delete _stakeDeposits[msg.sender];\n        }\n        // reducing the investors count of previous tier\n        if (_stakeDeposits[msg.sender].amount != 0) {\n            tierAllocated[currentTier].investorsCount -= 1;\n        }\n        _withdrawStates[msg.sender].amount = 0;\n        _withdrawStates[msg.sender].initiateDate = 0;\n\n        //update investors tier count with current stake value\n        uint256 latestTier = determineTiers(_stakeDeposits[msg.sender].amount);\n        tierAllocated[latestTier].investorsCount += 1;\n\n        //emit WithdrawExecuted(msg.sender, amount);\n        emit WithdrawExecuted(msg.sender, amount);\n    }\n\n    // VIEW FUNCTIONS FOR HELPING THE USER AND CLIENT INTERFACE\n    /**\n     * @notice Helper function to get the stake details of the user\n     * @param account Address of the user staked\n     * @return initialDeposit Returns the stake deposit of the user\n     \n     */\n    function getStakeDetails(\n        address account\n    ) external view returns (uint256 initialDeposit) {\n        StakeDeposit memory s = _stakeDeposits[account];\n\n        return (s.amount);\n    }\n}\n",
  "sourcePath": "/mnt/c/Users/HP/Desktop/MODUS/contracts/staking/ModusStaking.sol",
  "compiler": {
    "name": "solc",
    "version": "0.8.16+commit.07a7930e.Emscripten.clang"
  },
  "schemaVersion": "3.4.9",
  "updatedAt": "2023-01-18T09:39:41.438Z",
  "devdoc": {
    "kind": "dev",
    "methods": {
      "deposit(uint256)": {
        "params": {
          "amount": "Amount of the modus token the user wish to stake"
        }
      },
      "determineTiers(uint256)": {
        "params": {
          "_stakedAmount": "Amount of the modus token staked by user"
        },
        "returns": {
          "tier": "Returns the tier ID"
        }
      },
      "getStakeDetails(address)": {
        "params": {
          "account": "Address of the user staked"
        },
        "returns": {
          "initialDeposit": "Returns the stake deposit of the user"
        }
      },
      "initiateWithdrawal(uint256)": {
        "params": {
          "withdrawAmount": "Amount of the modus token user wish to withdraw"
        }
      },
      "setTiers(uint256)": {
        "details": "only the owner can call this function",
        "params": {
          "_tokensToStake": "Amount of the modus token for each Tier"
        }
      },
      "setTokenAddress(address)": {
        "details": "only the owner can call this function",
        "params": {
          "_token": "Address of the modus token"
        }
      },
      "stakeTokensInTier(uint256)": {
        "params": {
          "_tierID": "Tier ID of the user"
        },
        "returns": {
          "_0": "Returns stake amount in each tier"
        }
      },
      "totalInvestorsInTier(uint256)": {
        "params": {
          "_tierID": "Tier ID of the user"
        },
        "returns": {
          "_0": "Returns the investors count in each tier"
        }
      },
      "updateTiers(uint256,uint256)": {
        "details": "only the owner can call this function",
        "params": {
          "_tierID": "ID of the tier to be updated",
          "_tokensToStake": "Amount of the modus token for each Tier"
        }
      }
    },
    "version": 1
  },
  "userdoc": {
    "kind": "user",
    "methods": {
      "deposit(uint256)": {
        "notice": "This function is used to deposit and stake the modus token"
      },
      "determineTiers(uint256)": {
        "notice": "This function is used to determine Tiers based on modus staked"
      },
      "executeWithdrawal()": {
        "notice": "This function is used to execute withdrawal after its initialized"
      },
      "getStakeDetails(address)": {
        "notice": "Helper function to get the stake details of the user"
      },
      "initiateWithdrawal(uint256)": {
        "notice": "This function is used to initiate withdrawal of tokens staked"
      },
      "setTiers(uint256)": {
        "notice": "This function is used to set Tiers based on modus staked"
      },
      "setTokenAddress(address)": {
        "notice": "This function is used to set modus token address"
      },
      "stakeTokensInTier(uint256)": {
        "notice": "This function is used to determine stake amount for a tier"
      },
      "totalInvestorsInTier(uint256)": {
        "notice": "This function is used to determine total investors in a tier"
      },
      "updateTiers(uint256,uint256)": {
        "notice": "This function is used to set Tiers based on modus staked"
      }
    },
    "version": 1
  }
}