{
  "contractName": "ModusStakingContract",
  "abi": [
    {
      "inputs": [
        {
          "internalType": "address",
          "name": "_stakingToken",
          "type": "address"
        },
        {
          "internalType": "uint256",
          "name": "_unstakingPeriod",
          "type": "uint256"
        }
      ],
      "stateMutability": "nonpayable",
      "type": "constructor"
    },
    {
      "anonymous": false,
      "inputs": [
        {
          "indexed": true,
          "internalType": "address",
          "name": "account",
          "type": "address"
        },
        {
          "indexed": false,
          "internalType": "uint256",
          "name": "amount",
          "type": "uint256"
        }
      ],
      "name": "StakeDeposited",
      "type": "event"
    },
    {
      "anonymous": false,
      "inputs": [
        {
          "indexed": true,
          "internalType": "address",
          "name": "account",
          "type": "address"
        },
        {
          "indexed": false,
          "internalType": "uint256",
          "name": "amount",
          "type": "uint256"
        }
      ],
      "name": "WithdrawExecuted",
      "type": "event"
    },
    {
      "anonymous": false,
      "inputs": [
        {
          "indexed": true,
          "internalType": "address",
          "name": "account",
          "type": "address"
        },
        {
          "indexed": false,
          "internalType": "uint256",
          "name": "amount",
          "type": "uint256"
        },
        {
          "indexed": false,
          "internalType": "uint256",
          "name": "initiateDate",
          "type": "uint256"
        }
      ],
      "name": "WithdrawInitiated",
      "type": "event"
    },
    {
      "inputs": [],
      "name": "currentTotalStake",
      "outputs": [
        {
          "internalType": "uint256",
          "name": "",
          "type": "uint256"
        }
      ],
      "stateMutability": "view",
      "type": "function"
    },
    {
      "inputs": [],
      "name": "owner",
      "outputs": [
        {
          "internalType": "address",
          "name": "",
          "type": "address"
        }
      ],
      "stateMutability": "view",
      "type": "function"
    },
    {
      "inputs": [
        {
          "internalType": "uint256",
          "name": "",
          "type": "uint256"
        }
      ],
      "name": "tierAllocated",
      "outputs": [
        {
          "internalType": "uint256",
          "name": "tokensToStake",
          "type": "uint256"
        },
        {
          "internalType": "uint256",
          "name": "investorsCount",
          "type": "uint256"
        }
      ],
      "stateMutability": "view",
      "type": "function"
    },
    {
      "inputs": [],
      "name": "tierID",
      "outputs": [
        {
          "internalType": "uint256",
          "name": "",
          "type": "uint256"
        }
      ],
      "stateMutability": "view",
      "type": "function"
    },
    {
      "inputs": [],
      "name": "token",
      "outputs": [
        {
          "internalType": "contract IERC20",
          "name": "",
          "type": "address"
        }
      ],
      "stateMutability": "view",
      "type": "function"
    },
    {
      "inputs": [],
      "name": "totalTiers",
      "outputs": [
        {
          "internalType": "uint256",
          "name": "",
          "type": "uint256"
        }
      ],
      "stateMutability": "view",
      "type": "function"
    },
    {
      "inputs": [],
      "name": "unstakingPeriod",
      "outputs": [
        {
          "internalType": "uint256",
          "name": "",
          "type": "uint256"
        }
      ],
      "stateMutability": "view",
      "type": "function"
    },
    {
      "inputs": [
        {
          "internalType": "address",
          "name": "_token",
          "type": "address"
        }
      ],
      "name": "setTokenAddress",
      "outputs": [],
      "stateMutability": "nonpayable",
      "type": "function"
    },
    {
      "inputs": [
        {
          "internalType": "uint256",
          "name": "_tokensToStake",
          "type": "uint256"
        }
      ],
      "name": "setTiers",
      "outputs": [],
      "stateMutability": "nonpayable",
      "type": "function"
    },
    {
      "inputs": [
        {
          "internalType": "uint256",
          "name": "_tierID",
          "type": "uint256"
        },
        {
          "internalType": "uint256",
          "name": "_tokensToStake",
          "type": "uint256"
        }
      ],
      "name": "updateTiers",
      "outputs": [],
      "stateMutability": "nonpayable",
      "type": "function"
    },
    {
      "inputs": [
        {
          "internalType": "uint256",
          "name": "_stakedAmount",
          "type": "uint256"
        }
      ],
      "name": "determineTiers",
      "outputs": [
        {
          "internalType": "uint256",
          "name": "tier",
          "type": "uint256"
        }
      ],
      "stateMutability": "view",
      "type": "function"
    },
    {
      "inputs": [
        {
          "internalType": "uint256",
          "name": "_tierID",
          "type": "uint256"
        }
      ],
      "name": "totalInvestorsInTier",
      "outputs": [
        {
          "internalType": "uint256",
          "name": "",
          "type": "uint256"
        }
      ],
      "stateMutability": "view",
      "type": "function"
    },
    {
      "inputs": [
        {
          "internalType": "address",
          "name": "account",
          "type": "address"
        }
      ],
      "name": "getTierDetails",
      "outputs": [
        {
          "internalType": "uint256",
          "name": "tier",
          "type": "uint256"
        }
      ],
      "stateMutability": "nonpayable",
      "type": "function"
    },
    {
      "inputs": [
        {
          "internalType": "uint256",
          "name": "amount",
          "type": "uint256"
        }
      ],
      "name": "deposit",
      "outputs": [],
      "stateMutability": "nonpayable",
      "type": "function"
    },
    {
      "inputs": [
        {
          "internalType": "uint256",
          "name": "withdrawAmount",
          "type": "uint256"
        }
      ],
      "name": "initiateWithdrawal",
      "outputs": [],
      "stateMutability": "nonpayable",
      "type": "function"
    },
    {
      "inputs": [],
      "name": "executeWithdrawal",
      "outputs": [],
      "stateMutability": "nonpayable",
      "type": "function"
    },
    {
      "inputs": [
        {
          "internalType": "address",
          "name": "account",
          "type": "address"
        }
      ],
      "name": "getStakeDetails",
      "outputs": [
        {
          "internalType": "uint256",
          "name": "initialDeposit",
          "type": "uint256"
        },
        {
          "internalType": "uint256",
          "name": "startDate",
          "type": "uint256"
        },
        {
          "internalType": "uint256",
          "name": "endDate",
          "type": "uint256"
        }
      ],
      "stateMutability": "view",
      "type": "function"
    }
  ],
  "bytecode": "0x6080604052600060045560006005553480156200001b57600080fd5b50604051620025e7380380620025e78339818101604052810190620000419190620001e8565b33600160006101000a81548173ffffffffffffffffffffffffffffffffffffffff021916908373ffffffffffffffffffffffffffffffffffffffff160217905550600073ffffffffffffffffffffffffffffffffffffffff168273ffffffffffffffffffffffffffffffffffffffff1603620000f4576040517f08c379a0000000000000000000000000000000000000000000000000000000008152600401620000eb90620002b6565b60405180910390fd5b816000806101000a81548173ffffffffffffffffffffffffffffffffffffffff021916908373ffffffffffffffffffffffffffffffffffffffff160217905550806003819055505050620002d8565b600080fd5b600073ffffffffffffffffffffffffffffffffffffffff82169050919050565b6000620001758262000148565b9050919050565b620001878162000168565b81146200019357600080fd5b50565b600081519050620001a7816200017c565b92915050565b6000819050919050565b620001c281620001ad565b8114620001ce57600080fd5b50565b600081519050620001e281620001b7565b92915050565b6000806040838503121562000202576200020162000143565b5b6000620002128582860162000196565b92505060206200022585828601620001d1565b9150509250929050565b600082825260208201905092915050565b7f4d6f6475735374616b696e673a20496e76616c696420746f6b656e206164647260008201527f6573730000000000000000000000000000000000000000000000000000000000602082015250565b60006200029e6023836200022f565b9150620002ab8262000240565b604082019050919050565b60006020820190508181036000830152620002d1816200028f565b9050919050565b6122ff80620002e86000396000f3fe608060405234801561001057600080fd5b506004361061010b5760003560e01c8063975bc014116100a2578063dbf1229d11610071578063dbf1229d146102b9578063f21c783b146102d5578063f41322ac146102f3578063fa45aa0014610325578063fc0c546a1461032f5761010b565b8063975bc01414610233578063a235f85c14610263578063b6b55f251461027f578063ce4843e91461029b5761010b565b806326a4e8d2116100de57806326a4e8d2146101bd57806379eaaf61146101d957806385a62d2e146101f75780638da5cb5b146102155761010b565b806307803ddf1461011057806312edde5e146101415780631c75eaa81461015d578063237c33641461018d575b600080fd5b61012a600480360381019061012591906116b2565b61034d565b6040516101389291906116ee565b60405180910390f35b61015b600480360381019061015691906116b2565b610371565b005b61017760048036038101906101729190611775565b6105da565b60405161018491906117a2565b60405180910390f35b6101a760048036038101906101a291906116b2565b610756565b6040516101b491906117a2565b60405180910390f35b6101d760048036038101906101d29190611775565b610776565b005b6101e16108b8565b6040516101ee91906117a2565b60405180910390f35b6101ff6108be565b60405161020c91906117a2565b60405180910390f35b61021d6108c4565b60405161022a91906117cc565b60405180910390f35b61024d600480360381019061024891906116b2565b6108ea565b60405161025a91906117a2565b60405180910390f35b61027d600480360381019061027891906117e7565b6109e5565b005b610299600480360381019061029491906116b2565b610b2a565b005b6102a3610d34565b6040516102b091906117a2565b60405180910390f35b6102d360048036038101906102ce91906116b2565b610d3a565b005b6102dd610eb6565b6040516102ea91906117a2565b60405180910390f35b61030d60048036038101906103089190611775565b610ebc565b60405161031c93929190611827565b60405180910390f35b61032d611043565b005b61033761162d565b60405161034491906118bd565b60405180910390f35b60086020528060005260406000206000915090508060000154908060010154905082565b6000600660003373ffffffffffffffffffffffffffffffffffffffff1673ffffffffffffffffffffffffffffffffffffffff16815260200190815260200160002090506000600760003373ffffffffffffffffffffffffffffffffffffffff1673ffffffffffffffffffffffffffffffffffffffff16815260200190815260200160002090506000831161043a576040517f08c379a00000000000000000000000000000000000000000000000000000000081526004016104319061195b565b60405180910390fd5b8160000154831115610481576040517f08c379a0000000000000000000000000000000000000000000000000000000008152600401610478906119ed565b60405180910390fd5b60008260000154036104c8576040517f08c379a00000000000000000000000000000000000000000000000000000000081526004016104bf90611a7f565b60405180910390fd5b600082600201541461050f576040517f08c379a000000000000000000000000000000000000000000000000000000000815260040161050690611b11565b60405180910390fd5b6000816001015414610556576040517f08c379a000000000000000000000000000000000000000000000000000000000815260040161054d90611b11565b60405180910390fd5b4282600201819055508281600101819055504281600001819055508260025461057f9190611b60565b6002819055503373ffffffffffffffffffffffffffffffffffffffff167ff908b12fe0d8dc1ff4fda115e5bace3a7ad1aad889daca8e638ca0b29f80657784426040516105cd9291906116ee565b60405180910390a2505050565b6000600660008373ffffffffffffffffffffffffffffffffffffffff1673ffffffffffffffffffffffffffffffffffffffff16815260200190815260200160002060030160009054906101000a900460ff16801561067b57506000600660008473ffffffffffffffffffffffffffffffffffffffff1673ffffffffffffffffffffffffffffffffffffffff1681526020019081526020016000206000015414155b6106ba576040517f08c379a00000000000000000000000000000000000000000000000000000000081526004016106b190611c06565b60405180910390fd5b6000600660008473ffffffffffffffffffffffffffffffffffffffff1673ffffffffffffffffffffffffffffffffffffffff1681526020019081526020016000206040518060800160405290816000820154815260200160018201548152602001600282015481526020016003820160009054906101000a900460ff161515151581525050905061074e81600001516108ea565b915050919050565b600060086000838152602001908152602001600020600101549050919050565b600160009054906101000a900473ffffffffffffffffffffffffffffffffffffffff1673ffffffffffffffffffffffffffffffffffffffff163373ffffffffffffffffffffffffffffffffffffffff1614610806576040517f08c379a00000000000000000000000000000000000000000000000000000000081526004016107fd90611c98565b60405180910390fd5b600073ffffffffffffffffffffffffffffffffffffffff168173ffffffffffffffffffffffffffffffffffffffff1603610875576040517f08c379a000000000000000000000000000000000000000000000000000000000815260040161086c90611d2a565b60405180910390fd5b806000806101000a81548173ffffffffffffffffffffffffffffffffffffffff021916908373ffffffffffffffffffffffffffffffffffffffff16021790555050565b60055481565b60045481565b600160009054906101000a900473ffffffffffffffffffffffffffffffffffffffff1681565b600080820361092e576040517f08c379a000000000000000000000000000000000000000000000000000000000815260040161092590611c06565b60405180910390fd5b60006001905060006005549050600160055403610950576001925050506109e0565b60086000600554815260200190815260200160002060000154841061097b57600554925050506109e0565b5b808210156109ce5760006109908383611651565b905084600860008381526020019081526020016000206000015411156109b8578091506109c8565b6001816109c59190611d4a565b92505b5061097c565b6001826109db9190611b60565b925050505b919050565b600160009054906101000a900473ffffffffffffffffffffffffffffffffffffffff1673ffffffffffffffffffffffffffffffffffffffff163373ffffffffffffffffffffffffffffffffffffffff1614610a75576040517f08c379a0000000000000000000000000000000000000000000000000000000008152600401610a6c90611c98565b60405180910390fd5b60008214158015610aa7575060086000600184610a929190611b60565b81526020019081526020016000206000015481115b610ae6576040517f08c379a0000000000000000000000000000000000000000000000000000000008152600401610add90611e16565b60405180910390fd5b604051806040016040528082815260200160008152506008600084815260200190815260200160002060008201518160000155602082015181600101559050505050565b6000600660003373ffffffffffffffffffffffffffffffffffffffff1673ffffffffffffffffffffffffffffffffffffffff168152602001908152602001600020905081816000016000828254610b819190611d4a565b9250508190555042816001018190555060018160030160006101000a81548160ff0219169083151502179055508160026000828254610bc09190611d4a565b9250508190555060008054906101000a900473ffffffffffffffffffffffffffffffffffffffff1673ffffffffffffffffffffffffffffffffffffffff166323b872dd3330856040518463ffffffff1660e01b8152600401610c2493929190611e36565b6020604051808303816000875af1158015610c43573d6000803e3d6000fd5b505050506040513d601f19601f82011682018060405250810190610c679190611ea5565b610ca6576040517f08c379a0000000000000000000000000000000000000000000000000000000008152600401610c9d90611f44565b60405180910390fd5b6000610cb1336105da565b90506001600860008381526020019081526020016000206001016000828254610cda9190611d4a565b925050819055503373ffffffffffffffffffffffffffffffffffffffff167f0a7bb2e28cc4698aac06db79cf9163bfcc20719286cf59fa7d492ceda1b8edc284604051610d2791906117a2565b60405180910390a2505050565b60025481565b600160009054906101000a900473ffffffffffffffffffffffffffffffffffffffff1673ffffffffffffffffffffffffffffffffffffffff163373ffffffffffffffffffffffffffffffffffffffff1614610dca576040517f08c379a0000000000000000000000000000000000000000000000000000000008152600401610dc190611c98565b60405180910390fd5b600160046000828254610ddd9190611d4a565b92505081905550600060045414158015610e1a5750600860006001600454610e059190611b60565b81526020019081526020016000206000015481115b610e59576040517f08c379a0000000000000000000000000000000000000000000000000000000008152600401610e5090611e16565b60405180910390fd5b60405180604001604052808281526020016000815250600860006004548152602001908152602001600020600082015181600001556020820151816001015590505060056000815480929190610eae90611f64565b919050555050565b60035481565b6000806000600660008573ffffffffffffffffffffffffffffffffffffffff1673ffffffffffffffffffffffffffffffffffffffff16815260200190815260200160002060030160009054906101000a900460ff168015610f6057506000600660008673ffffffffffffffffffffffffffffffffffffffff1673ffffffffffffffffffffffffffffffffffffffff1681526020019081526020016000206000015414155b610f9f576040517f08c379a0000000000000000000000000000000000000000000000000000000008152600401610f9690611c06565b60405180910390fd5b6000600660008673ffffffffffffffffffffffffffffffffffffffff1673ffffffffffffffffffffffffffffffffffffffff1681526020019081526020016000206040518060800160405290816000820154815260200160018201548152602001600282015481526020016003820160009054906101000a900460ff1615151515815250509050806000015181602001518260400151935093509350509193909250565b6000600660003373ffffffffffffffffffffffffffffffffffffffff1673ffffffffffffffffffffffffffffffffffffffff1681526020019081526020016000206040518060800160405290816000820154815260200160018201548152602001600282015481526020016003820160009054906101000a900460ff16151515158152505090506000600760003373ffffffffffffffffffffffffffffffffffffffff1673ffffffffffffffffffffffffffffffffffffffff1681526020019081526020016000206040518060400160405290816000820154815260200160018201548152505090506000826040015114158061114557506000816020015114155b611184576040517f08c379a000000000000000000000000000000000000000000000000000000000815260040161117b9061201e565b60405180910390fd5b60008260000151036111cb576040517f08c379a00000000000000000000000000000000000000000000000000000000081526004016111c290611a7f565b60405180910390fd5b6000620151808360400151426111e19190611b60565b6111eb919061206d565b9050806003541115611232576040517f08c379a000000000000000000000000000000000000000000000000000000000815260040161122990612110565b60405180910390fd5b600061123d336105da565b905060016008600083815260200190815260200160002060010160008282546112669190611b60565b9250508190555060008084602001510361128457846000015161128a565b83602001515b905080856000015110156112d3576040517f08c379a00000000000000000000000000000000000000000000000000000000081526004016112ca906121c8565b60405180910390fd5b80856000015111156113c05780600660003373ffffffffffffffffffffffffffffffffffffffff1673ffffffffffffffffffffffffffffffffffffffff1681526020019081526020016000206000015461132d9190611b60565b600660003373ffffffffffffffffffffffffffffffffffffffff1673ffffffffffffffffffffffffffffffffffffffff168152602001908152602001600020600001819055506000600660003373ffffffffffffffffffffffffffffffffffffffff1673ffffffffffffffffffffffffffffffffffffffff1681526020019081526020016000206002018190555061142f565b600660003373ffffffffffffffffffffffffffffffffffffffff1673ffffffffffffffffffffffffffffffffffffffff168152602001908152602001600020600080820160009055600182016000905560028201600090556003820160006101000a81549060ff021916905550505b60008054906101000a900473ffffffffffffffffffffffffffffffffffffffff1673ffffffffffffffffffffffffffffffffffffffff1663a9059cbb33836040518363ffffffff1660e01b815260040161148a9291906121e8565b6020604051808303816000875af11580156114a9573d6000803e3d6000fd5b505050506040513d601f19601f820116820180604052508101906114cd9190611ea5565b61150c576040517f08c379a0000000000000000000000000000000000000000000000000000000008152600401611503906122a9565b60405180910390fd5b6000600760003373ffffffffffffffffffffffffffffffffffffffff1673ffffffffffffffffffffffffffffffffffffffff168152602001908152602001600020600101819055506000600760003373ffffffffffffffffffffffffffffffffffffffff1673ffffffffffffffffffffffffffffffffffffffff1681526020019081526020016000206000018190555060006115a7336105da565b905060016008600083815260200190815260200160002060010160008282546115d09190611d4a565b925050819055503373ffffffffffffffffffffffffffffffffffffffff167f7b2a72f0889ae9bb89e8ee7ec3e7c465552d1b76d51df9b0426d0e4e7f39528f8360405161161d91906117a2565b60405180910390a2505050505050565b60008054906101000a900473ffffffffffffffffffffffffffffffffffffffff1681565b60006002828418611662919061206d565b82841661166f9190611d4a565b905092915050565b600080fd5b6000819050919050565b61168f8161167c565b811461169a57600080fd5b50565b6000813590506116ac81611686565b92915050565b6000602082840312156116c8576116c7611677565b5b60006116d68482850161169d565b91505092915050565b6116e88161167c565b82525050565b600060408201905061170360008301856116df565b61171060208301846116df565b9392505050565b600073ffffffffffffffffffffffffffffffffffffffff82169050919050565b600061174282611717565b9050919050565b61175281611737565b811461175d57600080fd5b50565b60008135905061176f81611749565b92915050565b60006020828403121561178b5761178a611677565b5b600061179984828501611760565b91505092915050565b60006020820190506117b760008301846116df565b92915050565b6117c681611737565b82525050565b60006020820190506117e160008301846117bd565b92915050565b600080604083850312156117fe576117fd611677565b5b600061180c8582860161169d565b925050602061181d8582860161169d565b9150509250929050565b600060608201905061183c60008301866116df565b61184960208301856116df565b61185660408301846116df565b949350505050565b6000819050919050565b600061188361187e61187984611717565b61185e565b611717565b9050919050565b600061189582611868565b9050919050565b60006118a78261188a565b9050919050565b6118b78161189c565b82525050565b60006020820190506118d260008301846118ae565b92915050565b600082825260208201905092915050565b7f4d6f6475735374616b696e673a20496e76616c6964207769746864726177616c60008201527f20616d6f756e7400000000000000000000000000000000000000000000000000602082015250565b60006119456027836118d8565b9150611950826118e9565b604082019050919050565b6000602082019050818103600083015261197481611938565b9050919050565b7f4d6f6475735374616b696e673a20576974686472617720616d6f756e7420657860008201527f6365656420746865207374616b6520616d6f756e740000000000000000000000602082015250565b60006119d76035836118d8565b91506119e28261197b565b604082019050919050565b60006020820190508181036000830152611a06816119ca565b9050919050565b7f4d6f6475735374616b696e673a205468657265206973206e6f207374616b652060008201527f6465706f73697420666f722074686973206163636f756e740000000000000000602082015250565b6000611a696038836118d8565b9150611a7482611a0d565b604082019050919050565b60006020820190508181036000830152611a9881611a5c565b9050919050565b7f4d6f6475735374616b696e673a20596f75206861766520616c7265616479206960008201527f6e6974696174656420746865207769746864726177616c000000000000000000602082015250565b6000611afb6037836118d8565b9150611b0682611a9f565b604082019050919050565b60006020820190508181036000830152611b2a81611aee565b9050919050565b7f4e487b7100000000000000000000000000000000000000000000000000000000600052601160045260246000fd5b6000611b6b8261167c565b9150611b768361167c565b9250828203905081811115611b8e57611b8d611b31565b5b92915050565b7f4d6f6475735374616b696e673a2054686973206163636f756e7420646f65736e60008201527f277420686176652061207374616b65206465706f736974000000000000000000602082015250565b6000611bf06037836118d8565b9150611bfb82611b94565b604082019050919050565b60006020820190508181036000830152611c1f81611be3565b9050919050565b7f4d6f6475735374616b696e673a204164647265737320756e617574686f72697a60008201527f6564000000000000000000000000000000000000000000000000000000000000602082015250565b6000611c826022836118d8565b9150611c8d82611c26565b604082019050919050565b60006020820190508181036000830152611cb181611c75565b9050919050565b7f4d6f6475735374616b696e673a20496e76616c696420746f6b656e206164647260008201527f6573730000000000000000000000000000000000000000000000000000000000602082015250565b6000611d146023836118d8565b9150611d1f82611cb8565b604082019050919050565b60006020820190508181036000830152611d4381611d07565b9050919050565b6000611d558261167c565b9150611d608361167c565b9250828201905080821115611d7857611d77611b31565b5b92915050565b7f4d6f6475735374616b696e673a20546f6b656e20666f7220746869732074696560008201527f72206d7573742062652067726561746572207468616e2070726576696f75732060208201527f6f6e652000000000000000000000000000000000000000000000000000000000604082015250565b6000611e006044836118d8565b9150611e0b82611d7e565b606082019050919050565b60006020820190508181036000830152611e2f81611df3565b9050919050565b6000606082019050611e4b60008301866117bd565b611e5860208301856117bd565b611e6560408301846116df565b949350505050565b60008115159050919050565b611e8281611e6d565b8114611e8d57600080fd5b50565b600081519050611e9f81611e79565b92915050565b600060208284031215611ebb57611eba611677565b5b6000611ec984828501611e90565b91505092915050565b7f4d6f6475735374616b696e673a20536f6d657468696e672077656e742077726f60008201527f6e6720647572696e672074686520746f6b656e207472616e7366657200000000602082015250565b6000611f2e603c836118d8565b9150611f3982611ed2565b604082019050919050565b60006020820190508181036000830152611f5d81611f21565b9050919050565b6000611f6f8261167c565b91507fffffffffffffffffffffffffffffffffffffffffffffffffffffffffffffffff8203611fa157611fa0611b31565b5b600182019050919050565b7f4d6f6475735374616b696e673a20576974686472617720616d6f756e7420697360008201527f206e6f7420696e697469616c697a656400000000000000000000000000000000602082015250565b60006120086030836118d8565b915061201382611fac565b604082019050919050565b6000602082019050818103600083015261203781611ffb565b9050919050565b7f4e487b7100000000000000000000000000000000000000000000000000000000600052601260045260246000fd5b60006120788261167c565b91506120838361167c565b9250826120935761209261203e565b5b828204905092915050565b7f4d6f6475735374616b696e673a2054686520756e7374616b696e67207065726960008201527f6f6420646964206e6f7420706173730000000000000000000000000000000000602082015250565b60006120fa602f836118d8565b91506121058261209e565b604082019050919050565b60006020820190508181036000830152612129816120ed565b9050919050565b7f4d6f6475735374616b696e673a2052656d61696e696e67207374616b6564657060008201527f6f73697420616d6f756e74206d75737420626520686967686572207468616e2060208201527f776974686472617720616d6f756e740000000000000000000000000000000000604082015250565b60006121b2604f836118d8565b91506121bd82612130565b606082019050919050565b600060208201905081810360008301526121e1816121a5565b9050919050565b60006040820190506121fd60008301856117bd565b61220a60208301846116df565b9392505050565b7f4d6f6475735374616b696e673a20536f6d657468696e672077656e742077726f60008201527f6e67207768696c65207472616e7366657272696e6720796f757220696e69746960208201527f616c206465706f73697400000000000000000000000000000000000000000000604082015250565b6000612293604a836118d8565b915061229e82612211565b606082019050919050565b600060208201905081810360008301526122c281612286565b905091905056fea26469706673582212201f011eb8fa36eba8e3e2f86db6e6d5753329df93db08916df419f576ca53aa6564736f6c63430008100033",
  "immutableReferences": {},
  "source": "// SPDX-License-Identifier: MIT\npragma solidity ^0.8.16;\n\nimport \"@openzeppelin/contracts/token/ERC20/IERC20.sol\";\nimport \"@openzeppelin/contracts/utils/math/Math.sol\";\n\ncontract ModusStakingContract {\n    /* Contract state variables */\n    IERC20 public token;\n    address public owner;\n    uint256 public currentTotalStake;\n    uint256 public unstakingPeriod;\n    uint256 public tierID = 0;\n    uint256 public totalTiers = 0;\n\n    /* Struct Declarations */\n    struct StakeDeposit {\n        uint256 amount;\n        uint256 startDate;\n        uint256 endDate;\n        bool exists;\n    }\n\n    struct WithdrawalState {\n        uint256 initiateDate;\n        uint256 amount;\n    }\n\n    struct Tier {\n        uint256 tokensToStake;\n        uint256 investorsCount;\n    }\n\n    /* Mappings */\n    mapping(address => StakeDeposit) private _stakeDeposits;\n    mapping(address => WithdrawalState) private _withdrawStates;\n    mapping(uint256 => Tier) public tierAllocated;\n\n    /* Events */\n    event StakeDeposited(address indexed account, uint256 amount);\n    event WithdrawInitiated(\n        address indexed account,\n        uint256 amount,\n        uint256 initiateDate\n    );\n    event WithdrawExecuted(address indexed account, uint256 amount);\n\n    /* Modifiers */\n    modifier onlyOwner() {\n        require(msg.sender == owner, \"ModusStaking: Address unauthorized\");\n        _;\n    }\n\n    /* Constructor */\n    constructor(address _stakingToken, uint256 _unstakingPeriod) {\n        owner = msg.sender;\n        require(\n            _stakingToken != address(0),\n            \"ModusStaking: Invalid token address\"\n        );\n\n        token = IERC20(_stakingToken);\n        unstakingPeriod = _unstakingPeriod;\n    }\n\n    /* Owner Functions */\n\n    /**\n     * @notice This function is used to set modus token address\n     * @dev only the owner can call this function\n     * @param _token Address of the modus token\n     */\n    function setTokenAddress(address _token) external onlyOwner {\n        require(_token != address(0), \"ModusStaking: Invalid token address\");\n        token = IERC20(_token);\n    }\n\n    /**\n     * @notice This function is used to set Tiers based on modus staked\n     * @dev only the owner can call this function\n     * @param _tokensToStake Amount of the modus token for each Tier\n     */\n    function setTiers(uint256 _tokensToStake) external onlyOwner {\n        tierID += 1;\n        require(\n            tierID != 0 &&\n                _tokensToStake > tierAllocated[tierID - 1].tokensToStake,\n            \"ModusStaking: Token for this tier must be greater than previous one \"\n        );\n        tierAllocated[tierID] = Tier(_tokensToStake, 0);\n        totalTiers++;\n    }\n\n    /**\n     * @notice This function is used to set Tiers based on modus staked\n     * @dev only the owner can call this function\n     * @param _tokensToStake Amount of the modus token for each Tier\n     * @param _tierID ID of the tier to be updated\n     */\n    function updateTiers(\n        uint256 _tierID,\n        uint256 _tokensToStake\n    ) external onlyOwner {\n        require(\n            _tierID != 0 &&\n                _tokensToStake > tierAllocated[_tierID - 1].tokensToStake,\n            \"ModusStaking: Token for this tier must be greater than previous one \"\n        );\n        tierAllocated[_tierID] = Tier(_tokensToStake, 0);\n    }\n\n    /* Tier */\n    /**\n     * @notice This function is used to determine Tiers based on modus staked\n     * @param _stakedAmount Amount of the modus token staked by user\n     * @return tier Returns the tier ID\n     */\n    function determineTiers(\n        uint256 _stakedAmount\n    ) public view returns (uint256 tier) {\n        require(\n            _stakedAmount != 0,\n            \"ModusStaking: This account doesn't have a stake deposit\"\n        );\n        uint256 low = 1;\n        uint256 high = totalTiers;\n        if (totalTiers == 1) {\n            return 1;\n        } else if (_stakedAmount >= tierAllocated[totalTiers].tokensToStake) {\n            return totalTiers;\n        } else {\n            while (low < high) {\n                uint256 mid = Math.average(low, high);\n                if (tierAllocated[mid].tokensToStake > _stakedAmount) {\n                    high = mid;\n                } else {\n                    low = mid + 1;\n                }\n            }\n            return low - 1;\n        }\n    }\n\n    /**\n     * @notice This function is used to determine total investors in a tier\n     * @param _tierID Tier ID of the user\n     * @return  Returns the investors count in each tier\n     */\n    function totalInvestorsInTier(\n        uint256 _tierID\n    ) external view returns (uint256) {\n        return tierAllocated[_tierID].investorsCount;\n    }\n\n    /**\n     * @notice This function is used to get the Tier details of the user\n     * @param account Address of the user staked\n     * @return tier Returns the tier ID\n     */\n    function getTierDetails(address account) public returns (uint256 tier) {\n        require(\n            _stakeDeposits[account].exists &&\n                _stakeDeposits[account].amount != 0,\n            \"ModusStaking: This account doesn't have a stake deposit\"\n        );\n\n        StakeDeposit memory s = _stakeDeposits[account];\n\n        return (determineTiers(s.amount));\n    }\n\n    /* Staking */\n    /**\n     * @notice This function is used to deposit and stake the modus token\n     * @param amount Amount of the modus token the user wish to stake\n     */\n    function deposit(uint256 amount) external {\n        StakeDeposit storage stakeDeposit = _stakeDeposits[msg.sender];\n\n        stakeDeposit.amount += amount;\n        stakeDeposit.startDate = block.timestamp;\n        stakeDeposit.exists = true;\n\n        currentTotalStake += amount;\n\n        // Transfer the Tokens to this contract\n        require(\n            token.transferFrom(msg.sender, address(this), amount),\n            \"ModusStaking: Something went wrong during the token transfer\"\n        );\n        uint256 toTier = getTierDetails(msg.sender);\n        tierAllocated[toTier].investorsCount += 1;\n\n        emit StakeDeposited(msg.sender, amount);\n    }\n\n    /**\n     * @notice This function is used to initiate withdrawal of tokens staked\n     * @param withdrawAmount Amount of the modus token user wish to withdraw\n     */\n    function initiateWithdrawal(uint256 withdrawAmount) external {\n        StakeDeposit storage stakeDeposit = _stakeDeposits[msg.sender];\n        WithdrawalState storage withdrawState = _withdrawStates[msg.sender];\n        require(withdrawAmount > 0, \"ModusStaking: Invalid withdrawal amount\");\n        require(\n            withdrawAmount <= stakeDeposit.amount,\n            \"ModusStaking: Withdraw amount exceed the stake amount\"\n        );\n        require(\n            stakeDeposit.amount != 0,\n            \"ModusStaking: There is no stake deposit for this account\"\n        );\n        require(\n            stakeDeposit.endDate == 0,\n            \"ModusStaking: You have already initiated the withdrawal\"\n        );\n        require(\n            withdrawState.amount == 0,\n            \"ModusStaking: You have already initiated the withdrawal\"\n        );\n        // set stakeDeposit end to current block timestamp (for struct StakeDeposit)\n        stakeDeposit.endDate = block.timestamp;\n        withdrawState.amount = withdrawAmount;\n        withdrawState.initiateDate = block.timestamp;\n\n        currentTotalStake = currentTotalStake - withdrawAmount;\n\n        emit WithdrawInitiated(msg.sender, withdrawAmount, block.timestamp);\n    }\n\n    /**\n     * @notice This function is used to execute withdrawal after its initialized\n     */\n    function executeWithdrawal() external {\n        StakeDeposit memory stakeDeposit = _stakeDeposits[msg.sender];\n        //get withdraw state of the user (amount and initiate date)\n        WithdrawalState memory withdrawState = _withdrawStates[msg.sender];\n\n        require(\n            // stakeDeposit.endDate != 0 as timestamp of block recorded when withdrawal initiated\n            stakeDeposit.endDate != 0 || withdrawState.amount != 0,\n            \"ModusStaking: Withdraw amount is not initialized\"\n        );\n        require(\n            stakeDeposit.amount != 0,\n            \"ModusStaking: There is no stake deposit for this account\"\n        );\n\n        // validate enough days have passed from initiating the withdrawal\n        uint256 daysPassed = (block.timestamp - stakeDeposit.endDate) / 1 days;\n        require(\n            unstakingPeriod <= daysPassed,\n            \"ModusStaking: The unstaking period did not pass\"\n        );\n\n        // reducing the investors count of current tier\n        uint256 currentTier = getTierDetails(msg.sender);\n        tierAllocated[currentTier].investorsCount -= 1;\n\n        // check whether withdrawing full stake deposit or partially\n        uint256 amount = withdrawState.amount != 0\n            ? withdrawState.amount\n            : stakeDeposit.amount;\n\n        require(\n            stakeDeposit.amount >= amount,\n            \"ModusStaking: Remaining stakedeposit amount must be higher than withdraw amount\"\n        );\n        if (stakeDeposit.amount > amount) {\n            _stakeDeposits[msg.sender].amount =\n                (_stakeDeposits[msg.sender].amount) -\n                (amount);\n            _stakeDeposits[msg.sender].endDate = 0;\n        } else {\n            delete _stakeDeposits[msg.sender];\n        }\n\n        require(\n            token.transfer(msg.sender, amount),\n            \"ModusStaking: Something went wrong while transferring your initial deposit\"\n        );\n\n        _withdrawStates[msg.sender].amount = 0;\n        _withdrawStates[msg.sender].initiateDate = 0;\n\n        //update investors tier count with current stake value\n        uint256 latestTier = getTierDetails(msg.sender);\n        tierAllocated[latestTier].investorsCount += 1;\n\n        emit WithdrawExecuted(msg.sender, amount);\n    }\n\n    // VIEW FUNCTIONS FOR HELPING THE USER AND CLIENT INTERFACE\n    /**\n     * @notice Helper function to get the stake details of the user\n     * @param account Address of the user staked\n     * @return initialDeposit Returns the stake deposit of the user\n     * @return startDate Returns the start date of staking\n     * @return endDate Returns the end date of staking\n     */\n    function getStakeDetails(\n        address account\n    )\n        external\n        view\n        returns (uint256 initialDeposit, uint256 startDate, uint256 endDate)\n    {\n        require(\n            _stakeDeposits[account].exists &&\n                _stakeDeposits[account].amount != 0,\n            \"ModusStaking: This account doesn't have a stake deposit\"\n        );\n\n        StakeDeposit memory s = _stakeDeposits[account];\n\n        return (s.amount, s.startDate, s.endDate);\n    }\n}\n",
  "sourcePath": "/mnt/c/Users/HP/Desktop/MODUS/contracts/staking/ModusStaking.sol",
  "compiler": {
    "name": "solc",
    "version": "0.8.16+commit.07a7930e.Emscripten.clang"
  },
  "schemaVersion": "3.4.9",
  "updatedAt": "2022-12-23T15:27:09.678Z",
  "devdoc": {
    "kind": "dev",
    "methods": {
      "deposit(uint256)": {
        "params": {
          "amount": "Amount of the modus token the user wish to stake"
        }
      },
      "determineTiers(uint256)": {
        "params": {
          "_stakedAmount": "Amount of the modus token staked by user"
        },
        "returns": {
          "tier": "Returns the tier ID"
        }
      },
      "getStakeDetails(address)": {
        "params": {
          "account": "Address of the user staked"
        },
        "returns": {
          "endDate": "Returns the end date of staking",
          "initialDeposit": "Returns the stake deposit of the user",
          "startDate": "Returns the start date of staking"
        }
      },
      "getTierDetails(address)": {
        "params": {
          "account": "Address of the user staked"
        },
        "returns": {
          "tier": "Returns the tier ID"
        }
      },
      "initiateWithdrawal(uint256)": {
        "params": {
          "withdrawAmount": "Amount of the modus token user wish to withdraw"
        }
      },
      "setTiers(uint256)": {
        "details": "only the owner can call this function",
        "params": {
          "_tokensToStake": "Amount of the modus token for each Tier"
        }
      },
      "setTokenAddress(address)": {
        "details": "only the owner can call this function",
        "params": {
          "_token": "Address of the modus token"
        }
      },
      "totalInvestorsInTier(uint256)": {
        "params": {
          "_tierID": "Tier ID of the user"
        },
        "returns": {
          "_0": "Returns the investors count in each tier"
        }
      },
      "updateTiers(uint256,uint256)": {
        "details": "only the owner can call this function",
        "params": {
          "_tierID": "ID of the tier to be updated",
          "_tokensToStake": "Amount of the modus token for each Tier"
        }
      }
    },
    "version": 1
  },
  "userdoc": {
    "kind": "user",
    "methods": {
      "deposit(uint256)": {
        "notice": "This function is used to deposit and stake the modus token"
      },
      "determineTiers(uint256)": {
        "notice": "This function is used to determine Tiers based on modus staked"
      },
      "executeWithdrawal()": {
        "notice": "This function is used to execute withdrawal after its initialized"
      },
      "getStakeDetails(address)": {
        "notice": "Helper function to get the stake details of the user"
      },
      "getTierDetails(address)": {
        "notice": "This function is used to get the Tier details of the user"
      },
      "initiateWithdrawal(uint256)": {
        "notice": "This function is used to initiate withdrawal of tokens staked"
      },
      "setTiers(uint256)": {
        "notice": "This function is used to set Tiers based on modus staked"
      },
      "setTokenAddress(address)": {
        "notice": "This function is used to set modus token address"
      },
      "totalInvestorsInTier(uint256)": {
        "notice": "This function is used to determine total investors in a tier"
      },
      "updateTiers(uint256,uint256)": {
        "notice": "This function is used to set Tiers based on modus staked"
      }
    },
    "version": 1
  }
}