{
  "contractName": "ProjectTokenStakingContract",
  "abi": [
    {
      "inputs": [
        {
          "internalType": "address",
          "name": "_projectToken",
          "type": "address"
        },
        {
          "internalType": "address",
          "name": "_rewardToken",
          "type": "address"
        },
        {
          "internalType": "address",
          "name": "_modusToken",
          "type": "address"
        }
      ],
      "stateMutability": "nonpayable",
      "type": "constructor"
    },
    {
      "anonymous": false,
      "inputs": [
        {
          "indexed": false,
          "internalType": "uint256",
          "name": "amount",
          "type": "uint256"
        }
      ],
      "name": "RewardsDistributed",
      "type": "event"
    },
    {
      "anonymous": false,
      "inputs": [
        {
          "indexed": true,
          "internalType": "address",
          "name": "account",
          "type": "address"
        },
        {
          "indexed": false,
          "internalType": "uint256",
          "name": "reward",
          "type": "uint256"
        }
      ],
      "name": "RewardsWithdrawn",
      "type": "event"
    },
    {
      "anonymous": false,
      "inputs": [
        {
          "indexed": true,
          "internalType": "address",
          "name": "account",
          "type": "address"
        },
        {
          "indexed": false,
          "internalType": "uint256",
          "name": "amount",
          "type": "uint256"
        }
      ],
      "name": "StakeDeposited",
      "type": "event"
    },
    {
      "anonymous": false,
      "inputs": [
        {
          "indexed": true,
          "internalType": "address",
          "name": "account",
          "type": "address"
        },
        {
          "indexed": false,
          "internalType": "uint256",
          "name": "amount",
          "type": "uint256"
        },
        {
          "indexed": false,
          "internalType": "uint256",
          "name": "reward",
          "type": "uint256"
        }
      ],
      "name": "WithdrawExecuted",
      "type": "event"
    },
    {
      "anonymous": false,
      "inputs": [
        {
          "indexed": true,
          "internalType": "address",
          "name": "account",
          "type": "address"
        },
        {
          "indexed": false,
          "internalType": "uint256",
          "name": "amount",
          "type": "uint256"
        },
        {
          "indexed": false,
          "internalType": "uint256",
          "name": "initiateDate",
          "type": "uint256"
        }
      ],
      "name": "WithdrawInitiated",
      "type": "event"
    },
    {
      "inputs": [],
      "name": "currentTotalStake",
      "outputs": [
        {
          "internalType": "uint256",
          "name": "",
          "type": "uint256"
        }
      ],
      "stateMutability": "view",
      "type": "function"
    },
    {
      "inputs": [],
      "name": "maxStakingPeriod",
      "outputs": [
        {
          "internalType": "uint256",
          "name": "",
          "type": "uint256"
        }
      ],
      "stateMutability": "view",
      "type": "function"
    },
    {
      "inputs": [],
      "name": "minstakingPeriod",
      "outputs": [
        {
          "internalType": "uint256",
          "name": "",
          "type": "uint256"
        }
      ],
      "stateMutability": "view",
      "type": "function"
    },
    {
      "inputs": [],
      "name": "modusToken",
      "outputs": [
        {
          "internalType": "contract IERC20",
          "name": "",
          "type": "address"
        }
      ],
      "stateMutability": "view",
      "type": "function"
    },
    {
      "inputs": [],
      "name": "owner",
      "outputs": [
        {
          "internalType": "address",
          "name": "",
          "type": "address"
        }
      ],
      "stateMutability": "view",
      "type": "function"
    },
    {
      "inputs": [],
      "name": "projectToken",
      "outputs": [
        {
          "internalType": "contract IERC20",
          "name": "",
          "type": "address"
        }
      ],
      "stateMutability": "view",
      "type": "function"
    },
    {
      "inputs": [],
      "name": "rewardToken",
      "outputs": [
        {
          "internalType": "contract IERC20",
          "name": "",
          "type": "address"
        }
      ],
      "stateMutability": "view",
      "type": "function"
    },
    {
      "inputs": [],
      "name": "rewardsAddress",
      "outputs": [
        {
          "internalType": "address",
          "name": "",
          "type": "address"
        }
      ],
      "stateMutability": "view",
      "type": "function"
    },
    {
      "inputs": [],
      "name": "rewardsDistributed",
      "outputs": [
        {
          "internalType": "uint256",
          "name": "",
          "type": "uint256"
        }
      ],
      "stateMutability": "view",
      "type": "function"
    },
    {
      "inputs": [],
      "name": "rewardsWithdrawnInModus",
      "outputs": [
        {
          "internalType": "uint256",
          "name": "",
          "type": "uint256"
        }
      ],
      "stateMutability": "view",
      "type": "function"
    },
    {
      "inputs": [],
      "name": "rewardsWithdrawnInRewardToken",
      "outputs": [
        {
          "internalType": "uint256",
          "name": "",
          "type": "uint256"
        }
      ],
      "stateMutability": "view",
      "type": "function"
    },
    {
      "inputs": [],
      "name": "totalRewardsDistributed",
      "outputs": [
        {
          "internalType": "uint256",
          "name": "",
          "type": "uint256"
        }
      ],
      "stateMutability": "view",
      "type": "function"
    },
    {
      "inputs": [
        {
          "internalType": "uint256",
          "name": "_months",
          "type": "uint256"
        }
      ],
      "name": "setMaxStakePeriod",
      "outputs": [],
      "stateMutability": "nonpayable",
      "type": "function"
    },
    {
      "inputs": [
        {
          "internalType": "uint256",
          "name": "_days",
          "type": "uint256"
        }
      ],
      "name": "setMinStakePeriod",
      "outputs": [],
      "stateMutability": "nonpayable",
      "type": "function"
    },
    {
      "inputs": [
        {
          "internalType": "uint256",
          "name": "amount",
          "type": "uint256"
        }
      ],
      "name": "deposit",
      "outputs": [],
      "stateMutability": "nonpayable",
      "type": "function"
    },
    {
      "inputs": [
        {
          "internalType": "uint256",
          "name": "withdrawAmount",
          "type": "uint256"
        }
      ],
      "name": "initiateWithdrawal",
      "outputs": [],
      "stateMutability": "nonpayable",
      "type": "function"
    },
    {
      "inputs": [],
      "name": "executeWithdrawal",
      "outputs": [],
      "stateMutability": "nonpayable",
      "type": "function"
    },
    {
      "inputs": [
        {
          "internalType": "address",
          "name": "account",
          "type": "address"
        }
      ],
      "name": "getStakeDetails",
      "outputs": [
        {
          "internalType": "uint256",
          "name": "initialDeposit",
          "type": "uint256"
        },
        {
          "internalType": "uint256",
          "name": "startDate",
          "type": "uint256"
        },
        {
          "internalType": "uint256",
          "name": "endDate",
          "type": "uint256"
        }
      ],
      "stateMutability": "view",
      "type": "function"
    }
  ],
  "bytecode": "0x60806040523480156200001157600080fd5b50604051620026ae380380620026ae833981810160405281019062000037919062000303565b33600360006101000a81548173ffffffffffffffffffffffffffffffffffffffff021916908373ffffffffffffffffffffffffffffffffffffffff160217905550600073ffffffffffffffffffffffffffffffffffffffff168373ffffffffffffffffffffffffffffffffffffffff1603620000ea576040517f08c379a0000000000000000000000000000000000000000000000000000000008152600401620000e190620003c0565b60405180910390fd5b826000806101000a81548173ffffffffffffffffffffffffffffffffffffffff021916908373ffffffffffffffffffffffffffffffffffffffff160217905550600073ffffffffffffffffffffffffffffffffffffffff168273ffffffffffffffffffffffffffffffffffffffff16036200019c576040517f08c379a0000000000000000000000000000000000000000000000000000000008152600401620001939062000458565b60405180910390fd5b81600260006101000a81548173ffffffffffffffffffffffffffffffffffffffff021916908373ffffffffffffffffffffffffffffffffffffffff160217905550600073ffffffffffffffffffffffffffffffffffffffff168173ffffffffffffffffffffffffffffffffffffffff16036200024f576040517f08c379a00000000000000000000000000000000000000000000000000000000081526004016200024690620004f0565b60405180910390fd5b80600160006101000a81548173ffffffffffffffffffffffffffffffffffffffff021916908373ffffffffffffffffffffffffffffffffffffffff16021790555050505062000512565b600080fd5b600073ffffffffffffffffffffffffffffffffffffffff82169050919050565b6000620002cb826200029e565b9050919050565b620002dd81620002be565b8114620002e957600080fd5b50565b600081519050620002fd81620002d2565b92915050565b6000806000606084860312156200031f576200031e62000299565b5b60006200032f86828701620002ec565b93505060206200034286828701620002ec565b92505060406200035586828701620002ec565b9150509250925092565b600082825260208201905092915050565b7f20496e76616c696420746f6b656e206164647265737300000000000000000000600082015250565b6000620003a86016836200035f565b9150620003b58262000370565b602082019050919050565b60006020820190508181036000830152620003db8162000399565b9050919050565b7f5b56616c69646174696f6e5d205f72657761726473416464726573732069732060008201527f746865207a65726f206164647265737300000000000000000000000000000000602082015250565b6000620004406030836200035f565b91506200044d82620003e2565b604082019050919050565b60006020820190508181036000830152620004738162000431565b9050919050565b7f5b56616c69646174696f6e5d205f6d6f6475734164647265737320697320746860008201527f65207a65726f2061646472657373000000000000000000000000000000000000602082015250565b6000620004d8602e836200035f565b9150620004e5826200047a565b604082019050919050565b600060208201905081810360008301526200050b81620004c9565b9050919050565b61218c80620005226000396000f3fe608060405234801561001057600080fd5b50600436106101165760003560e01c80639c1454d4116100a2578063ce4843e911610071578063ce4843e914610299578063ee172546146102b7578063f41322ac146102d5578063f7c618c114610307578063fa45aa001461032557610116565b80639c1454d414610225578063b6b55f2514610243578063c07634191461025f578063c0973eed1461027b57610116565b8063597c3962116100e9578063597c39621461018f5780636392b96b146101ad57806388d400cf146101cb5780638da5cb5b146101e9578063969163881461020757610116565b806312edde5e1461011b5780632b5b0d1414610137578063499b86d8146101555780634b60ce7714610171575b600080fd5b61013560048036038101906101309190611501565b61032f565b005b61013f6105b3565b60405161014c91906115ad565b60405180910390f35b61016f600480360381019061016a9190611501565b6105d9565b005b610179610673565b60405161018691906115ad565b60405180910390f35b610197610697565b6040516101a491906115d7565b60405180910390f35b6101b561069d565b6040516101c291906115d7565b60405180910390f35b6101d36106a3565b6040516101e091906115d7565b60405180910390f35b6101f16106a9565b6040516101fe9190611613565b60405180910390f35b61020f6106cf565b60405161021c91906115d7565b60405180910390f35b61022d6106d5565b60405161023a91906115d7565b60405180910390f35b61025d60048036038101906102589190611501565b6106db565b005b61027960048036038101906102749190611501565b6108f2565b005b6102836109a5565b6040516102909190611613565b60405180910390f35b6102a16109cb565b6040516102ae91906115d7565b60405180910390f35b6102bf6109d1565b6040516102cc91906115d7565b60405180910390f35b6102ef60048036038101906102ea919061165a565b6109d7565b6040516102fe93929190611687565b60405180910390f35b61030f610b5e565b60405161031c91906115ad565b60405180910390f35b61032d610b84565b005b6000600c60003373ffffffffffffffffffffffffffffffffffffffff1673ffffffffffffffffffffffffffffffffffffffff16815260200190815260200160002090506000600d60003373ffffffffffffffffffffffffffffffffffffffff1673ffffffffffffffffffffffffffffffffffffffff1681526020019081526020016000209050600083116103f8576040517f08c379a00000000000000000000000000000000000000000000000000000000081526004016103ef90611741565b60405180910390fd5b816000015483111561043f576040517f08c379a0000000000000000000000000000000000000000000000000000000008152600401610436906117d3565b60405180910390fd5b8160030160009054906101000a900460ff16801561046257506000826000015414155b6104a1576040517f08c379a000000000000000000000000000000000000000000000000000000000815260040161049890611865565b60405180910390fd5b60008260020154146104e8576040517f08c379a00000000000000000000000000000000000000000000000000000000081526004016104df906118f7565b60405180910390fd5b600081600101541461052f576040517f08c379a0000000000000000000000000000000000000000000000000000000008152600401610526906118f7565b60405180910390fd5b428260020181905550828160010181905550428160000181905550826005546105589190611946565b6005819055503373ffffffffffffffffffffffffffffffffffffffff167ff908b12fe0d8dc1ff4fda115e5bace3a7ad1aad889daca8e638ca0b29f80657784426040516105a692919061197a565b60405180910390a2505050565b600160009054906101000a900473ffffffffffffffffffffffffffffffffffffffff1681565b600360009054906101000a900473ffffffffffffffffffffffffffffffffffffffff1673ffffffffffffffffffffffffffffffffffffffff163373ffffffffffffffffffffffffffffffffffffffff1614610669576040517f08c379a000000000000000000000000000000000000000000000000000000000815260040161066090611a15565b60405180910390fd5b8060068190555050565b60008054906101000a900473ffffffffffffffffffffffffffffffffffffffff1681565b60075481565b600a5481565b60095481565b600360009054906101000a900473ffffffffffffffffffffffffffffffffffffffff1681565b60065481565b60085481565b6000600c60003373ffffffffffffffffffffffffffffffffffffffff1673ffffffffffffffffffffffffffffffffffffffff16815260200190815260200160002090506000816002015414610765576040517f08c379a000000000000000000000000000000000000000000000000000000000815260040161075c90611aa7565b60405180910390fd5b818160000160008282546107799190611ac7565b9250508190555042816001018190555060018160030160006101000a81548160ff021916908315150217905550600554600560008282546107ba9190611ac7565b9250508190555060008054906101000a900473ffffffffffffffffffffffffffffffffffffffff1673ffffffffffffffffffffffffffffffffffffffff166323b872dd3330856040518463ffffffff1660e01b815260040161081e93929190611afb565b6020604051808303816000875af115801561083d573d6000803e3d6000fd5b505050506040513d601f19601f820116820180604052508101906108619190611b6a565b6108a0576040517f08c379a000000000000000000000000000000000000000000000000000000000815260040161089790611c09565b60405180910390fd5b3373ffffffffffffffffffffffffffffffffffffffff167f0a7bb2e28cc4698aac06db79cf9163bfcc20719286cf59fa7d492ceda1b8edc2836040516108e691906115d7565b60405180910390a25050565b600360009054906101000a900473ffffffffffffffffffffffffffffffffffffffff1673ffffffffffffffffffffffffffffffffffffffff163373ffffffffffffffffffffffffffffffffffffffff1614610982576040517f08c379a000000000000000000000000000000000000000000000000000000000815260040161097990611a15565b60405180910390fd5b600c81036109985761016d6007819055506109a2565b6102246007819055505b50565b600460009054906101000a900473ffffffffffffffffffffffffffffffffffffffff1681565b60055481565b600b5481565b6000806000600c60008573ffffffffffffffffffffffffffffffffffffffff1673ffffffffffffffffffffffffffffffffffffffff16815260200190815260200160002060030160009054906101000a900460ff168015610a7b57506000600c60008673ffffffffffffffffffffffffffffffffffffffff1673ffffffffffffffffffffffffffffffffffffffff1681526020019081526020016000206000015414155b610aba576040517f08c379a0000000000000000000000000000000000000000000000000000000008152600401610ab190611c9b565b60405180910390fd5b6000600c60008673ffffffffffffffffffffffffffffffffffffffff1673ffffffffffffffffffffffffffffffffffffffff1681526020019081526020016000206040518060800160405290816000820154815260200160018201548152602001600282015481526020016003820160009054906101000a900460ff1615151515815250509050806000015181602001518260400151935093509350509193909250565b600260009054906101000a900473ffffffffffffffffffffffffffffffffffffffff1681565b6000600c60003373ffffffffffffffffffffffffffffffffffffffff1673ffffffffffffffffffffffffffffffffffffffff1681526020019081526020016000206040518060800160405290816000820154815260200160018201548152602001600282015481526020016003820160009054906101000a900460ff16151515158152505090506000600d60003373ffffffffffffffffffffffffffffffffffffffff1673ffffffffffffffffffffffffffffffffffffffff16815260200190815260200160002060405180604001604052908160008201548152602001600182015481525050905060008260400151141580610c8657506000816020015114155b610cc5576040517f08c379a0000000000000000000000000000000000000000000000000000000008152600401610cbc90611d2d565b60405180910390fd5b81606001518015610cdb57506000826000015114155b610d1a576040517f08c379a0000000000000000000000000000000000000000000000000000000008152600401610d1190611dbf565b60405180910390fd5b60006201518083602001518460400151610d349190611946565b610d3e9190611e0e565b9050600654811015610d85576040517f08c379a0000000000000000000000000000000000000000000000000000000008152600401610d7c90611eb1565b60405180910390fd5b600080836020015103610d9c578360000151610da2565b82602001515b90506000610db08284611474565b90508185600001511015610df9576040517f08c379a0000000000000000000000000000000000000000000000000000000008152600401610df090611f69565b60405180910390fd5b8185600001511115610ee65781600c60003373ffffffffffffffffffffffffffffffffffffffff1673ffffffffffffffffffffffffffffffffffffffff16815260200190815260200160002060000154610e539190611946565b600c60003373ffffffffffffffffffffffffffffffffffffffff1673ffffffffffffffffffffffffffffffffffffffff168152602001908152602001600020600001819055506000600c60003373ffffffffffffffffffffffffffffffffffffffff1673ffffffffffffffffffffffffffffffffffffffff16815260200190815260200160002060020181905550610f55565b600c60003373ffffffffffffffffffffffffffffffffffffffff1673ffffffffffffffffffffffffffffffffffffffff168152602001908152602001600020600080820160009055600182016000905560028201600090556003820160006101000a81549060ff021916905550505b60008054906101000a900473ffffffffffffffffffffffffffffffffffffffff1673ffffffffffffffffffffffffffffffffffffffff1663a9059cbb33846040518363ffffffff1660e01b8152600401610fb0929190611f89565b6020604051808303816000875af1158015610fcf573d6000803e3d6000fd5b505050506040513d601f19601f82011682018060405250810190610ff39190611b6a565b611032576040517f08c379a00000000000000000000000000000000000000000000000000000000081526004016110299061204a565b60405180910390fd5b600081111561138d5760006064604b8361104c919061206a565b6110569190611e0e565b905080826110649190611946565b91506007548410156111915780600960008282546110829190611ac7565b92505081905550600160009054906101000a900473ffffffffffffffffffffffffffffffffffffffff1673ffffffffffffffffffffffffffffffffffffffff166323b872dd600360009054906101000a900473ffffffffffffffffffffffffffffffffffffffff1633846040518463ffffffff1660e01b815260040161110a93929190611afb565b6020604051808303816000875af1158015611129573d6000803e3d6000fd5b505050506040513d601f19601f8201168201806040525081019061114d9190611b6a565b61118c576040517f08c379a000000000000000000000000000000000000000000000000000000000815260040161118390612136565b60405180910390fd5b61138b565b80600a60008282546111a39190611ac7565b92505081905550600260009054906101000a900473ffffffffffffffffffffffffffffffffffffffff1673ffffffffffffffffffffffffffffffffffffffff1663a9059cbb600360009054906101000a900473ffffffffffffffffffffffffffffffffffffffff16846040518363ffffffff1660e01b8152600401611229929190611f89565b6020604051808303816000875af1158015611248573d6000803e3d6000fd5b505050506040513d601f19601f8201168201806040525081019061126c9190611b6a565b6112ab576040517f08c379a00000000000000000000000000000000000000000000000000000000081526004016112a290612136565b60405180910390fd5b600260009054906101000a900473ffffffffffffffffffffffffffffffffffffffff1673ffffffffffffffffffffffffffffffffffffffff1663a9059cbb33836040518363ffffffff1660e01b8152600401611308929190611f89565b6020604051808303816000875af1158015611327573d6000803e3d6000fd5b505050506040513d601f19601f8201168201806040525081019061134b9190611b6a565b61138a576040517f08c379a000000000000000000000000000000000000000000000000000000000815260040161138190612136565b60405180910390fd5b5b505b6000600d60003373ffffffffffffffffffffffffffffffffffffffff1673ffffffffffffffffffffffffffffffffffffffff168152602001908152602001600020600101819055506000600d60003373ffffffffffffffffffffffffffffffffffffffff1673ffffffffffffffffffffffffffffffffffffffff168152602001908152602001600020600001819055503373ffffffffffffffffffffffffffffffffffffffff167ff6c0fc94edc8fd2a37514f1fb85af88fca386b00a54127b912273e6b83322e08838360405161146592919061197a565b60405180910390a25050505050565b600080600183620f42406213399161148c9190611e0e565b186114979190611946565b90506064600f82866114a9919061206a565b6114b3919061206a565b6114bd9190611e0e565b91505092915050565b600080fd5b6000819050919050565b6114de816114cb565b81146114e957600080fd5b50565b6000813590506114fb816114d5565b92915050565b600060208284031215611517576115166114c6565b5b6000611525848285016114ec565b91505092915050565b600073ffffffffffffffffffffffffffffffffffffffff82169050919050565b6000819050919050565b600061157361156e6115698461152e565b61154e565b61152e565b9050919050565b600061158582611558565b9050919050565b60006115978261157a565b9050919050565b6115a78161158c565b82525050565b60006020820190506115c2600083018461159e565b92915050565b6115d1816114cb565b82525050565b60006020820190506115ec60008301846115c8565b92915050565b60006115fd8261152e565b9050919050565b61160d816115f2565b82525050565b60006020820190506116286000830184611604565b92915050565b611637816115f2565b811461164257600080fd5b50565b6000813590506116548161162e565b92915050565b6000602082840312156116705761166f6114c6565b5b600061167e84828501611645565b91505092915050565b600060608201905061169c60008301866115c8565b6116a960208301856115c8565b6116b660408301846115c8565b949350505050565b600082825260208201905092915050565b7f5b496e697469617465205769746864726177616c5d20496e76616c696420776960008201527f746864726177616c20616d6f756e740000000000000000000000000000000000602082015250565b600061172b602f836116be565b9150611736826116cf565b604082019050919050565b6000602082019050818103600083015261175a8161171e565b9050919050565b7f5b496e697469617465205769746864726177616c5d205769746864726177206160008201527f6d6f756e742065786365656420746865207374616b6520616d6f756e74000000602082015250565b60006117bd603d836116be565b91506117c882611761565b604082019050919050565b600060208201905081810360008301526117ec816117b0565b9050919050565b7f5b496e697469617465205769746864726177616c5d205468657265206973206e60008201527f6f207374616b65206465706f73697420666f722074686973206163636f756e74602082015250565b600061184f6040836116be565b915061185a826117f3565b604082019050919050565b6000602082019050818103600083015261187e81611842565b9050919050565b7f5b496e697469617465205769746864726177616c5d20596f752068617665206160008201527f6c726561647920696e6974696174656420746865207769746864726177616c00602082015250565b60006118e1603f836116be565b91506118ec82611885565b604082019050919050565b60006020820190508181036000830152611910816118d4565b9050919050565b7f4e487b7100000000000000000000000000000000000000000000000000000000600052601160045260246000fd5b6000611951826114cb565b915061195c836114cb565b925082820390508181111561197457611973611917565b5b92915050565b600060408201905061198f60008301856115c8565b61199c60208301846115c8565b9392505050565b7f4d6f6475735374616b696e673a204164647265737320756e617574686f72697a60008201527f6564000000000000000000000000000000000000000000000000000000000000602082015250565b60006119ff6022836116be565b9150611a0a826119a3565b604082019050919050565b60006020820190508181036000830152611a2e816119f2565b9050919050565b7f5b4465706f7369745d20596f75206861766520616c726561647920696e69746960008201527f6174656420746865207769746864726177616c00000000000000000000000000602082015250565b6000611a916033836116be565b9150611a9c82611a35565b604082019050919050565b60006020820190508181036000830152611ac081611a84565b9050919050565b6000611ad2826114cb565b9150611add836114cb565b9250828201905080821115611af557611af4611917565b5b92915050565b6000606082019050611b106000830186611604565b611b1d6020830185611604565b611b2a60408301846115c8565b949350505050565b60008115159050919050565b611b4781611b32565b8114611b5257600080fd5b50565b600081519050611b6481611b3e565b92915050565b600060208284031215611b8057611b7f6114c6565b5b6000611b8e84828501611b55565b91505092915050565b7f5b4465706f7369745d20536f6d657468696e672077656e742077726f6e67206460008201527f7572696e672074686520746f6b656e207472616e736665720000000000000000602082015250565b6000611bf36038836116be565b9150611bfe82611b97565b604082019050919050565b60006020820190508181036000830152611c2281611be6565b9050919050565b7f5b56616c69646174696f6e5d2054686973206163636f756e7420646f65736e2760008201527f7420686176652061207374616b65206465706f73697400000000000000000000602082015250565b6000611c856036836116be565b9150611c9082611c29565b604082019050919050565b60006020820190508181036000830152611cb481611c78565b9050919050565b7f5b57697468647261775d20576974686472617720616d6f756e74206973206e6f60008201527f7420696e697469616c697a656400000000000000000000000000000000000000602082015250565b6000611d17602d836116be565b9150611d2282611cbb565b604082019050919050565b60006020820190508181036000830152611d4681611d0a565b9050919050565b7f5b57697468647261775d205468657265206973206e6f207374616b652064657060008201527f6f73697420666f722074686973206163636f756e740000000000000000000000602082015250565b6000611da96035836116be565b9150611db482611d4d565b604082019050919050565b60006020820190508181036000830152611dd881611d9c565b9050919050565b7f4e487b7100000000000000000000000000000000000000000000000000000000600052601260045260246000fd5b6000611e19826114cb565b9150611e24836114cb565b925082611e3457611e33611ddf565b5b828204905092915050565b7f5b57697468647261775d204d696e207374616b696e6720706572696f6420646960008201527f64206e6f74207061737300000000000000000000000000000000000000000000602082015250565b6000611e9b602a836116be565b9150611ea682611e3f565b604082019050919050565b60006020820190508181036000830152611eca81611e8e565b9050919050565b7f5b77697468647261775d2052656d61696e696e67207374616b656465706f736960008201527f7420616d6f756e74206d75737420626520686967686572207468616e2077697460208201527f686472617720616d6f756e740000000000000000000000000000000000000000604082015250565b6000611f53604c836116be565b9150611f5e82611ed1565b606082019050919050565b60006020820190508181036000830152611f8281611f46565b9050919050565b6000604082019050611f9e6000830185611604565b611fab60208301846115c8565b9392505050565b7f5b57697468647261775d20536f6d657468696e672077656e742077726f6e672060008201527f7768696c65207472616e7366657272696e6720796f757220696e697469616c2060208201527f6465706f73697400000000000000000000000000000000000000000000000000604082015250565b60006120346047836116be565b915061203f82611fb2565b606082019050919050565b6000602082019050818103600083015261206381612027565b9050919050565b6000612075826114cb565b9150612080836114cb565b9250817fffffffffffffffffffffffffffffffffffffffffffffffffffffffffffffffff04831182151516156120b9576120b8611917565b5b828202905092915050565b7f5b57697468647261775d20536f6d657468696e672077656e742077726f6e672060008201527f7768696c65207472616e7366657272696e6720796f7572207265776172640000602082015250565b6000612120603e836116be565b915061212b826120c4565b604082019050919050565b6000602082019050818103600083015261214f81612113565b905091905056fea26469706673582212207994484d23c315b87b6685d39526bca5dd761f68816245fb4d1f111bd0e596c464736f6c63430008100033",
  "immutableReferences": {},
  "source": "// SPDX-License-Identifier: MIT\npragma solidity ^0.8.16;\n\nimport \"@openzeppelin/contracts/token/ERC20/IERC20.sol\";\nimport \"@openzeppelin/contracts/utils/math/Math.sol\";\n\ncontract ProjectTokenStakingContract {\n    /* Contract state variables */\n    IERC20 public projectToken;\n    IERC20 public modusToken;\n    IERC20 public rewardToken;\n    address public owner;\n    address public rewardsAddress;\n    uint256 public currentTotalStake;\n    uint256 public minstakingPeriod;\n    uint256 public maxStakingPeriod;\n    uint256 public rewardsDistributed;\n    uint256 public rewardsWithdrawnInModus;\n    uint256 public rewardsWithdrawnInRewardToken;\n    uint256 public totalRewardsDistributed;\n\n    /* Struct Declarations */\n    struct StakeDeposit {\n        uint256 amount;\n        uint256 startDate;\n        uint256 endDate;\n        bool exists;\n    }\n\n    struct WithdrawalState {\n        uint256 initiateDate;\n        uint256 amount;\n    }\n\n    /* Mappings */\n    mapping(address => StakeDeposit) private _stakeDeposits;\n    mapping(address => WithdrawalState) private _withdrawStates;\n\n    /* Events */\n    event StakeDeposited(address indexed account, uint256 amount);\n    event WithdrawInitiated(\n        address indexed account,\n        uint256 amount,\n        uint256 initiateDate\n    );\n    event WithdrawExecuted(\n        address indexed account,\n        uint256 amount,\n        uint256 reward\n    );\n    event RewardsWithdrawn(address indexed account, uint256 reward);\n    event RewardsDistributed(uint256 amount);\n\n    /* Modifiers */\n\n    modifier onlyOwner() {\n        require(msg.sender == owner, \"ModusStaking: Address unauthorized\");\n        _;\n    }\n\n    /* Constructor */\n    constructor(\n        address _projectToken,\n        address _rewardToken,\n        address _modusToken\n    ) {\n        owner = msg.sender;\n        require(_projectToken != address(0), \" Invalid token address\");\n\n        projectToken = IERC20(_projectToken);\n\n        require(\n            _rewardToken != address(0),\n            \"[Validation] _rewardsAddress is the zero address\"\n        );\n        rewardToken = IERC20(_rewardToken);\n        require(\n            _modusToken != address(0),\n            \"[Validation] _modusAddress is the zero address\"\n        );\n        modusToken = IERC20(_modusToken);\n    }\n\n    // PUBLIC FUNCTIONS\n    function setMaxStakePeriod(uint _months) external onlyOwner {\n        if (_months == 12) {\n            maxStakingPeriod = 365; //12 months\n        } else {\n            maxStakingPeriod = 548; //18months\n        }\n    }\n\n    function setMinStakePeriod(uint _days) external onlyOwner {\n        minstakingPeriod = _days;\n    }\n\n    function deposit(uint256 amount) external {\n        StakeDeposit storage stakeDeposit = _stakeDeposits[msg.sender];\n        require(\n            stakeDeposit.endDate == 0,\n            \"[Deposit] You have already initiated the withdrawal\"\n        );\n\n        stakeDeposit.amount += amount;\n        stakeDeposit.startDate = block.timestamp;\n        stakeDeposit.exists = true;\n\n        currentTotalStake += currentTotalStake;\n\n        // Transfer the Tokens to this contract\n        require(\n            projectToken.transferFrom(msg.sender, address(this), amount),\n            \"[Deposit] Something went wrong during the token transfer\"\n        );\n\n        emit StakeDeposited(msg.sender, amount);\n    }\n\n    function initiateWithdrawal(uint256 withdrawAmount) external {\n        StakeDeposit storage stakeDeposit = _stakeDeposits[msg.sender];\n        WithdrawalState storage withdrawState = _withdrawStates[msg.sender];\n        require(\n            withdrawAmount > 0,\n            \"[Initiate Withdrawal] Invalid withdrawal amount\"\n        );\n        require(\n            withdrawAmount <= stakeDeposit.amount,\n            \"[Initiate Withdrawal] Withdraw amount exceed the stake amount\"\n        );\n        require(\n            stakeDeposit.exists && stakeDeposit.amount != 0,\n            \"[Initiate Withdrawal] There is no stake deposit for this account\"\n        );\n        require(\n            stakeDeposit.endDate == 0,\n            \"[Initiate Withdrawal] You have already initiated the withdrawal\"\n        );\n        require(\n            withdrawState.amount == 0,\n            \"[Initiate Withdrawal] You have already initiated the withdrawal\"\n        );\n\n        stakeDeposit.endDate = block.timestamp;\n\n        withdrawState.amount = withdrawAmount;\n        withdrawState.initiateDate = block.timestamp;\n\n        currentTotalStake = currentTotalStake - withdrawAmount;\n\n        emit WithdrawInitiated(msg.sender, withdrawAmount, block.timestamp);\n    }\n\n    function executeWithdrawal() external {\n        StakeDeposit memory stakeDeposit = _stakeDeposits[msg.sender];\n        WithdrawalState memory withdrawState = _withdrawStates[msg.sender];\n\n        require(\n            stakeDeposit.endDate != 0 || withdrawState.amount != 0,\n            \"[Withdraw] Withdraw amount is not initialized\"\n        );\n        require(\n            stakeDeposit.exists && stakeDeposit.amount != 0,\n            \"[Withdraw] There is no stake deposit for this account\"\n        );\n\n        // validate enough days have passed from initiating the withdrawal\n        uint256 daysPassed = (stakeDeposit.endDate - stakeDeposit.startDate) /\n            1 days;\n        require(\n            daysPassed >= minstakingPeriod,\n            \"[Withdraw] Min staking period did not pass\"\n        );\n\n        uint256 amount = withdrawState.amount != 0\n            ? withdrawState.amount\n            : stakeDeposit.amount;\n        uint256 reward = _computeReward(amount, daysPassed);\n\n        require(\n            stakeDeposit.amount >= amount,\n            \"[withdraw] Remaining stakedeposit amount must be higher than withdraw amount\"\n        );\n        if (stakeDeposit.amount > amount) {\n            _stakeDeposits[msg.sender].amount =\n                (_stakeDeposits[msg.sender].amount) -\n                (amount);\n            _stakeDeposits[msg.sender].endDate = 0;\n        } else {\n            delete _stakeDeposits[msg.sender];\n        }\n\n        require(\n            projectToken.transfer(msg.sender, amount),\n            \"[Withdraw] Something went wrong while transferring your initial deposit\"\n        );\n\n        if (reward > 0) {\n            //calculate withdrawed rewards in single distribution cycle\n            uint256 rewardsToTransfer = (reward * 75) / uint256(100);\n            reward -= rewardsToTransfer;\n            if (daysPassed < maxStakingPeriod) {\n                rewardsWithdrawnInModus += rewardsToTransfer;\n                require(\n                    modusToken.transferFrom(\n                        owner,\n                        msg.sender,\n                        rewardsToTransfer\n                    ),\n                    \"[Withdraw] Something went wrong while transferring your reward\"\n                );\n            } else {\n                rewardsWithdrawnInRewardToken += rewardsToTransfer;\n                require(\n                    rewardToken.transfer(owner, reward),\n                    \"[Withdraw] Something went wrong while transferring your reward\"\n                );\n                require(\n                    rewardToken.transfer(msg.sender, rewardsToTransfer),\n                    \"[Withdraw] Something went wrong while transferring your reward\"\n                );\n            }\n        }\n\n        _withdrawStates[msg.sender].amount = 0;\n        _withdrawStates[msg.sender].initiateDate = 0;\n\n        emit WithdrawExecuted(msg.sender, amount, reward);\n    }\n\n    // VIEW FUNCTIONS FOR HELPING THE USER AND CLIENT INTERFACE\n    function getStakeDetails(\n        address account\n    )\n        external\n        view\n        returns (uint256 initialDeposit, uint256 startDate, uint256 endDate)\n    {\n        require(\n            _stakeDeposits[account].exists &&\n                _stakeDeposits[account].amount != 0,\n            \"[Validation] This account doesn't have a stake deposit\"\n        );\n\n        StakeDeposit memory s = _stakeDeposits[account];\n\n        return (s.amount, s.startDate, s.endDate);\n    }\n\n    function _computeReward(\n        uint256 _amount,\n        uint256 _daysStaked\n    ) private pure returns (uint256) {\n        uint256 emissionRate = (((1.259921 * 1000000) / uint256(1000000)) ^\n            (_daysStaked)) - 1;\n        return (((_amount * emissionRate) * 15) / 100);\n    }\n}\n",
  "sourcePath": "/mnt/c/Users/HP/Desktop/MODUS/contracts/staking/ProjectTokenStaking.sol",
  "compiler": {
    "name": "solc",
    "version": "0.8.16+commit.07a7930e.Emscripten.clang"
  },
  "schemaVersion": "3.4.9",
  "updatedAt": "2023-01-16T09:57:21.506Z",
  "devdoc": {
    "kind": "dev",
    "methods": {},
    "version": 1
  },
  "userdoc": {
    "kind": "user",
    "methods": {},
    "version": 1
  }
}