{
  "contractName": "realEstateTransaction",
  "abi": [
    {
      "inputs": [],
      "stateMutability": "nonpayable",
      "type": "constructor"
    },
    {
      "anonymous": false,
      "inputs": [
        {
          "indexed": true,
          "internalType": "address",
          "name": "previousOwner",
          "type": "address"
        },
        {
          "indexed": true,
          "internalType": "address",
          "name": "newOwner",
          "type": "address"
        }
      ],
      "name": "OwnershipTransferred",
      "type": "event"
    },
    {
      "inputs": [
        {
          "internalType": "uint16",
          "name": "",
          "type": "uint16"
        }
      ],
      "name": "idToProperty",
      "outputs": [
        {
          "internalType": "string",
          "name": "",
          "type": "string"
        }
      ],
      "stateMutability": "view",
      "type": "function"
    },
    {
      "inputs": [],
      "name": "owner",
      "outputs": [
        {
          "internalType": "address",
          "name": "",
          "type": "address"
        }
      ],
      "stateMutability": "view",
      "type": "function"
    },
    {
      "inputs": [
        {
          "internalType": "uint16",
          "name": "",
          "type": "uint16"
        }
      ],
      "name": "properties",
      "outputs": [
        {
          "internalType": "string",
          "name": "propertyName",
          "type": "string"
        },
        {
          "internalType": "uint256",
          "name": "price",
          "type": "uint256"
        },
        {
          "internalType": "address payable",
          "name": "seller",
          "type": "address"
        }
      ],
      "stateMutability": "view",
      "type": "function"
    },
    {
      "inputs": [],
      "name": "renounceOwnership",
      "outputs": [],
      "stateMutability": "nonpayable",
      "type": "function"
    },
    {
      "inputs": [
        {
          "internalType": "address",
          "name": "newOwner",
          "type": "address"
        }
      ],
      "name": "transferOwnership",
      "outputs": [],
      "stateMutability": "nonpayable",
      "type": "function"
    },
    {
      "inputs": [
        {
          "internalType": "string",
          "name": "_propertyName",
          "type": "string"
        },
        {
          "internalType": "uint256",
          "name": "_price",
          "type": "uint256"
        }
      ],
      "name": "listProperty",
      "outputs": [
        {
          "internalType": "uint16",
          "name": "",
          "type": "uint16"
        }
      ],
      "stateMutability": "nonpayable",
      "type": "function"
    }
  ],
  "bytecode": "0x608060405260008060146101000a81548161ffff021916908361ffff16021790555034801561002d57600080fd5b5061004a61003f61004f60201b60201c565b61005760201b60201c565b61011b565b600033905090565b60008060009054906101000a900473ffffffffffffffffffffffffffffffffffffffff169050816000806101000a81548173ffffffffffffffffffffffffffffffffffffffff021916908373ffffffffffffffffffffffffffffffffffffffff1602179055508173ffffffffffffffffffffffffffffffffffffffff168173ffffffffffffffffffffffffffffffffffffffff167f8be0079c531659141344cd1fd0a4f28419497f9722a3daafe3b4186f6b6457e060405160405180910390a35050565b610f4c8061012a6000396000f3fe608060405234801561001057600080fd5b50600436106100625760003560e01c80634a3875e51461006757806369a4c4e714610097578063715018a6146100c95780638da5cb5b146100d3578063de9476ad146100f1578063f2fde38b14610121575b600080fd5b610081600480360381019061007c9190610713565b61013d565b60405161008e91906107d0565b60405180910390f35b6100b160048036038101906100ac9190610713565b6101dd565b6040516100c09392919061084c565b60405180910390f35b6100d16102af565b005b6100db6102c3565b6040516100e891906108ab565b60405180910390f35b61010b60048036038101906101069190610957565b6102ec565b60405161011891906109c6565b60405180910390f35b61013b60048036038101906101369190610a0d565b610502565b005b6002602052806000526040600020600091509050805461015c90610a69565b80601f016020809104026020016040519081016040528092919081815260200182805461018890610a69565b80156101d55780601f106101aa576101008083540402835291602001916101d5565b820191906000526020600020905b8154815290600101906020018083116101b857829003601f168201915b505050505081565b600360205280600052604060002060009150905080600001805461020090610a69565b80601f016020809104026020016040519081016040528092919081815260200182805461022c90610a69565b80156102795780601f1061024e57610100808354040283529160200191610279565b820191906000526020600020905b81548152906001019060200180831161025c57829003601f168201915b5050505050908060010154908060020160009054906101000a900473ffffffffffffffffffffffffffffffffffffffff16905083565b6102b7610585565b6102c16000610603565b565b60008060009054906101000a900473ffffffffffffffffffffffffffffffffffffffff16905090565b60006001600060149054906101000a900461ffff1661030b9190610ac9565b600060146101000a81548161ffff021916908361ffff1602179055503373ffffffffffffffffffffffffffffffffffffffff16600160008060149054906101000a900461ffff1661ffff1661ffff16815260200190815260200160002060009054906101000a900473ffffffffffffffffffffffffffffffffffffffff1673ffffffffffffffffffffffffffffffffffffffff16146103df576040517f08c379a00000000000000000000000000000000000000000000000000000000081526004016103d690610b4b565b60405180910390fd5b604051806060016040528085858080601f016020809104026020016040519081016040528093929190818152602001838380828437600081840152601f19601f8201169050808301925050505050505081526020018381526020013373ffffffffffffffffffffffffffffffffffffffff16815250600360008060149054906101000a900461ffff1661ffff1661ffff16815260200190815260200160002060008201518160000190816104939190610d46565b506020820151816001015560408201518160020160006101000a81548173ffffffffffffffffffffffffffffffffffffffff021916908373ffffffffffffffffffffffffffffffffffffffff160217905550905050600060149054906101000a900461ffff1690509392505050565b61050a610585565b600073ffffffffffffffffffffffffffffffffffffffff168173ffffffffffffffffffffffffffffffffffffffff1603610579576040517f08c379a000000000000000000000000000000000000000000000000000000000815260040161057090610e8a565b60405180910390fd5b61058281610603565b50565b61058d6106c7565b73ffffffffffffffffffffffffffffffffffffffff166105ab6102c3565b73ffffffffffffffffffffffffffffffffffffffff1614610601576040517f08c379a00000000000000000000000000000000000000000000000000000000081526004016105f890610ef6565b60405180910390fd5b565b60008060009054906101000a900473ffffffffffffffffffffffffffffffffffffffff169050816000806101000a81548173ffffffffffffffffffffffffffffffffffffffff021916908373ffffffffffffffffffffffffffffffffffffffff1602179055508173ffffffffffffffffffffffffffffffffffffffff168173ffffffffffffffffffffffffffffffffffffffff167f8be0079c531659141344cd1fd0a4f28419497f9722a3daafe3b4186f6b6457e060405160405180910390a35050565b600033905090565b600080fd5b600080fd5b600061ffff82169050919050565b6106f0816106d9565b81146106fb57600080fd5b50565b60008135905061070d816106e7565b92915050565b600060208284031215610729576107286106cf565b5b6000610737848285016106fe565b91505092915050565b600081519050919050565b600082825260208201905092915050565b60005b8381101561077a57808201518184015260208101905061075f565b60008484015250505050565b6000601f19601f8301169050919050565b60006107a282610740565b6107ac818561074b565b93506107bc81856020860161075c565b6107c581610786565b840191505092915050565b600060208201905081810360008301526107ea8184610797565b905092915050565b6000819050919050565b610805816107f2565b82525050565b600073ffffffffffffffffffffffffffffffffffffffff82169050919050565b60006108368261080b565b9050919050565b6108468161082b565b82525050565b600060608201905081810360008301526108668186610797565b905061087560208301856107fc565b610882604083018461083d565b949350505050565b60006108958261080b565b9050919050565b6108a58161088a565b82525050565b60006020820190506108c0600083018461089c565b92915050565b600080fd5b600080fd5b600080fd5b60008083601f8401126108eb576108ea6108c6565b5b8235905067ffffffffffffffff811115610908576109076108cb565b5b602083019150836001820283011115610924576109236108d0565b5b9250929050565b610934816107f2565b811461093f57600080fd5b50565b6000813590506109518161092b565b92915050565b6000806000604084860312156109705761096f6106cf565b5b600084013567ffffffffffffffff81111561098e5761098d6106d4565b5b61099a868287016108d5565b935093505060206109ad86828701610942565b9150509250925092565b6109c0816106d9565b82525050565b60006020820190506109db60008301846109b7565b92915050565b6109ea8161088a565b81146109f557600080fd5b50565b600081359050610a07816109e1565b92915050565b600060208284031215610a2357610a226106cf565b5b6000610a31848285016109f8565b91505092915050565b7f4e487b7100000000000000000000000000000000000000000000000000000000600052602260045260246000fd5b60006002820490506001821680610a8157607f821691505b602082108103610a9457610a93610a3a565b5b50919050565b7f4e487b7100000000000000000000000000000000000000000000000000000000600052601160045260246000fd5b6000610ad4826106d9565b9150610adf836106d9565b9250828201905061ffff811115610af957610af8610a9a565b5b92915050565b7f6973206e6f7420746865206f776e657221000000000000000000000000000000600082015250565b6000610b3560118361074b565b9150610b4082610aff565b602082019050919050565b60006020820190508181036000830152610b6481610b28565b9050919050565b7f4e487b7100000000000000000000000000000000000000000000000000000000600052604160045260246000fd5b60008190508160005260206000209050919050565b60006020601f8301049050919050565b600082821b905092915050565b600060088302610bfc7fffffffffffffffffffffffffffffffffffffffffffffffffffffffffffffffff82610bbf565b610c068683610bbf565b95508019841693508086168417925050509392505050565b6000819050919050565b6000610c43610c3e610c39846107f2565b610c1e565b6107f2565b9050919050565b6000819050919050565b610c5d83610c28565b610c71610c6982610c4a565b848454610bcc565b825550505050565b600090565b610c86610c79565b610c91818484610c54565b505050565b5b81811015610cb557610caa600082610c7e565b600181019050610c97565b5050565b601f821115610cfa57610ccb81610b9a565b610cd484610baf565b81016020851015610ce3578190505b610cf7610cef85610baf565b830182610c96565b50505b505050565b600082821c905092915050565b6000610d1d60001984600802610cff565b1980831691505092915050565b6000610d368383610d0c565b9150826002028217905092915050565b610d4f82610740565b67ffffffffffffffff811115610d6857610d67610b6b565b5b610d728254610a69565b610d7d828285610cb9565b600060209050601f831160018114610db05760008415610d9e578287015190505b610da88582610d2a565b865550610e10565b601f198416610dbe86610b9a565b60005b82811015610de657848901518255600182019150602085019450602081019050610dc1565b86831015610e035784890151610dff601f891682610d0c565b8355505b6001600288020188555050505b505050505050565b7f4f776e61626c653a206e6577206f776e657220697320746865207a65726f206160008201527f6464726573730000000000000000000000000000000000000000000000000000602082015250565b6000610e7460268361074b565b9150610e7f82610e18565b604082019050919050565b60006020820190508181036000830152610ea381610e67565b9050919050565b7f4f776e61626c653a2063616c6c6572206973206e6f7420746865206f776e6572600082015250565b6000610ee060208361074b565b9150610eeb82610eaa565b602082019050919050565b60006020820190508181036000830152610f0f81610ed3565b905091905056fea2646970667358221220e7d16d41f6765fe473f41487fcf32af3caf275e8446cc2a284e3a90949002b7664736f6c63430008100033",
  "immutableReferences": {},
  "source": "// SPDX-License-Identifier: MIT\npragma solidity ^0.8.16;\nimport \"@openzeppelin/contracts/access/Ownable.sol\";\n\ncontract realEstateTransaction is Ownable {\n    constructor() Ownable() {}\n\n    uint16 propertyID = 0;\n    mapping(uint16 => address) internal idToOwner;\n    mapping(uint16 => string) public idToProperty;\n    mapping(uint16 => Property) public properties;\n\n    struct Property {\n        string propertyName;\n        uint price;\n        address payable seller;\n    }\n\n    function listProperty(\n        string calldata _propertyName,\n        uint _price\n    ) public returns (uint16) {\n        propertyID = propertyID + 1;\n        require(idToOwner[propertyID] == msg.sender, \"is not the owner!\");\n        properties[propertyID] = Property({\n            propertyName: _propertyName,\n            price: _price,\n            seller: payable(msg.sender)\n        });\n\n        return propertyID;\n    }\n}\n",
  "sourcePath": "/mnt/c/Users/HP/Desktop/MODUS/contracts/realEstate/realEstateTransaction.sol",
  "compiler": {
    "name": "solc",
    "version": "0.8.16+commit.07a7930e.Emscripten.clang"
  },
  "schemaVersion": "3.4.9",
  "updatedAt": "2022-12-20T13:31:13.869Z",
  "devdoc": {
    "kind": "dev",
    "methods": {
      "owner()": {
        "details": "Returns the address of the current owner."
      },
      "renounceOwnership()": {
        "details": "Leaves the contract without owner. It will not be possible to call `onlyOwner` functions anymore. Can only be called by the current owner. NOTE: Renouncing ownership will leave the contract without an owner, thereby removing any functionality that is only available to the owner."
      },
      "transferOwnership(address)": {
        "details": "Transfers ownership of the contract to a new account (`newOwner`). Can only be called by the current owner."
      }
    },
    "version": 1
  },
  "userdoc": {
    "kind": "user",
    "methods": {},
    "version": 1
  }
}