{
  "contractName": "StakingContract",
  "abi": [
    {
      "inputs": [
        {
          "internalType": "address",
          "name": "_stakingToken",
          "type": "address"
        },
        {
          "internalType": "uint256",
          "name": "_unstakingPeriod",
          "type": "uint256"
        }
      ],
      "stateMutability": "nonpayable",
      "type": "constructor"
    },
    {
      "anonymous": false,
      "inputs": [
        {
          "indexed": true,
          "internalType": "address",
          "name": "account",
          "type": "address"
        },
        {
          "indexed": false,
          "internalType": "uint256",
          "name": "amount",
          "type": "uint256"
        }
      ],
      "name": "StakeDeposited",
      "type": "event"
    },
    {
      "anonymous": false,
      "inputs": [
        {
          "indexed": true,
          "internalType": "address",
          "name": "account",
          "type": "address"
        },
        {
          "indexed": false,
          "internalType": "uint256",
          "name": "amount",
          "type": "uint256"
        }
      ],
      "name": "WithdrawExecuted",
      "type": "event"
    },
    {
      "anonymous": false,
      "inputs": [
        {
          "indexed": true,
          "internalType": "address",
          "name": "account",
          "type": "address"
        },
        {
          "indexed": false,
          "internalType": "uint256",
          "name": "amount",
          "type": "uint256"
        },
        {
          "indexed": false,
          "internalType": "uint256",
          "name": "initiateDate",
          "type": "uint256"
        }
      ],
      "name": "WithdrawInitiated",
      "type": "event"
    },
    {
      "inputs": [],
      "name": "currentTotalStake",
      "outputs": [
        {
          "internalType": "uint256",
          "name": "",
          "type": "uint256"
        }
      ],
      "stateMutability": "view",
      "type": "function"
    },
    {
      "inputs": [],
      "name": "owner",
      "outputs": [
        {
          "internalType": "address",
          "name": "",
          "type": "address"
        }
      ],
      "stateMutability": "view",
      "type": "function"
    },
    {
      "inputs": [
        {
          "internalType": "uint256",
          "name": "",
          "type": "uint256"
        }
      ],
      "name": "tierAllocated",
      "outputs": [
        {
          "internalType": "uint256",
          "name": "tokensToStake",
          "type": "uint256"
        },
        {
          "internalType": "uint256",
          "name": "investorsCount",
          "type": "uint256"
        }
      ],
      "stateMutability": "view",
      "type": "function"
    },
    {
      "inputs": [],
      "name": "tierID",
      "outputs": [
        {
          "internalType": "uint256",
          "name": "",
          "type": "uint256"
        }
      ],
      "stateMutability": "view",
      "type": "function"
    },
    {
      "inputs": [],
      "name": "token",
      "outputs": [
        {
          "internalType": "contract IERC20",
          "name": "",
          "type": "address"
        }
      ],
      "stateMutability": "view",
      "type": "function"
    },
    {
      "inputs": [],
      "name": "totalTiers",
      "outputs": [
        {
          "internalType": "uint256",
          "name": "",
          "type": "uint256"
        }
      ],
      "stateMutability": "view",
      "type": "function"
    },
    {
      "inputs": [],
      "name": "unstakingPeriod",
      "outputs": [
        {
          "internalType": "uint256",
          "name": "",
          "type": "uint256"
        }
      ],
      "stateMutability": "view",
      "type": "function"
    },
    {
      "inputs": [
        {
          "internalType": "address",
          "name": "_token",
          "type": "address"
        }
      ],
      "name": "setTokenAddress",
      "outputs": [],
      "stateMutability": "nonpayable",
      "type": "function"
    },
    {
      "inputs": [
        {
          "internalType": "uint256",
          "name": "_tokensToStake",
          "type": "uint256"
        }
      ],
      "name": "setTiers",
      "outputs": [],
      "stateMutability": "nonpayable",
      "type": "function"
    },
    {
      "inputs": [
        {
          "internalType": "uint256",
          "name": "_stakedAmount",
          "type": "uint256"
        }
      ],
      "name": "determineTiers",
      "outputs": [
        {
          "internalType": "uint256",
          "name": "tier",
          "type": "uint256"
        }
      ],
      "stateMutability": "view",
      "type": "function"
    },
    {
      "inputs": [
        {
          "internalType": "uint256",
          "name": "_tierID",
          "type": "uint256"
        }
      ],
      "name": "totalInvestorsInTier",
      "outputs": [
        {
          "internalType": "uint256",
          "name": "",
          "type": "uint256"
        }
      ],
      "stateMutability": "view",
      "type": "function"
    },
    {
      "inputs": [
        {
          "internalType": "address",
          "name": "account",
          "type": "address"
        }
      ],
      "name": "getTierDetails",
      "outputs": [
        {
          "internalType": "uint256",
          "name": "tier",
          "type": "uint256"
        }
      ],
      "stateMutability": "nonpayable",
      "type": "function"
    },
    {
      "inputs": [
        {
          "internalType": "uint256",
          "name": "amount",
          "type": "uint256"
        }
      ],
      "name": "deposit",
      "outputs": [],
      "stateMutability": "nonpayable",
      "type": "function"
    },
    {
      "inputs": [
        {
          "internalType": "uint256",
          "name": "withdrawAmount",
          "type": "uint256"
        }
      ],
      "name": "initiateWithdrawal",
      "outputs": [],
      "stateMutability": "nonpayable",
      "type": "function"
    },
    {
      "inputs": [],
      "name": "executeWithdrawal",
      "outputs": [],
      "stateMutability": "nonpayable",
      "type": "function"
    },
    {
      "inputs": [
        {
          "internalType": "address",
          "name": "account",
          "type": "address"
        }
      ],
      "name": "getStakeDetails",
      "outputs": [
        {
          "internalType": "uint256",
          "name": "initialDeposit",
          "type": "uint256"
        },
        {
          "internalType": "uint256",
          "name": "startDate",
          "type": "uint256"
        },
        {
          "internalType": "uint256",
          "name": "endDate",
          "type": "uint256"
        }
      ],
      "stateMutability": "view",
      "type": "function"
    }
  ],
  "bytecode": "0x6080604052600060045560006005553480156200001b57600080fd5b506040516200240c3803806200240c8339818101604052810190620000419190620001fe565b33600160006101000a81548173ffffffffffffffffffffffffffffffffffffffff021916908373ffffffffffffffffffffffffffffffffffffffff1602179055506200009482826200009c60201b60201c565b5050620002ee565b600073ffffffffffffffffffffffffffffffffffffffff168273ffffffffffffffffffffffffffffffffffffffff16036200010e576040517f08c379a00000000000000000000000000000000000000000000000000000000081526004016200010590620002cc565b60405180910390fd5b816000806101000a81548173ffffffffffffffffffffffffffffffffffffffff021916908373ffffffffffffffffffffffffffffffffffffffff160217905550806003819055505050565b600080fd5b600073ffffffffffffffffffffffffffffffffffffffff82169050919050565b60006200018b826200015e565b9050919050565b6200019d816200017e565b8114620001a957600080fd5b50565b600081519050620001bd8162000192565b92915050565b6000819050919050565b620001d881620001c3565b8114620001e457600080fd5b50565b600081519050620001f881620001cd565b92915050565b6000806040838503121562000218576200021762000159565b5b60006200022885828601620001ac565b92505060206200023b85828601620001e7565b9150509250929050565b600082825260208201905092915050565b7f5b56616c69646174696f6e5d20496e76616c6964207377617020746f6b656e2060008201527f6164647265737300000000000000000000000000000000000000000000000000602082015250565b6000620002b460278362000245565b9150620002c18262000256565b604082019050919050565b60006020820190508181036000830152620002e781620002a5565b9050919050565b61210e80620002fe6000396000f3fe608060405234801561001057600080fd5b50600436106101005760003560e01c8063975bc01411610097578063f21c783b11610066578063f21c783b146102ae578063f41322ac146102cc578063fa45aa00146102fe578063fc0c546a1461030857610100565b8063975bc01414610228578063b6b55f2514610258578063ce4843e914610274578063dbf1229d1461029257610100565b806326a4e8d2116100d357806326a4e8d2146101b257806379eaaf61146101ce57806385a62d2e146101ec5780638da5cb5b1461020a57610100565b806307803ddf1461010557806312edde5e146101365780631c75eaa814610152578063237c336414610182575b600080fd5b61011f600480360381019061011a9190611495565b610326565b60405161012d9291906114d1565b60405180910390f35b610150600480360381019061014b9190611495565b61034a565b005b61016c60048036038101906101679190611558565b6105ce565b6040516101799190611585565b60405180910390f35b61019c60048036038101906101979190611495565b61074a565b6040516101a99190611585565b60405180910390f35b6101cc60048036038101906101c79190611558565b61076a565b005b6101d66108ac565b6040516101e39190611585565b60405180910390f35b6101f46108b2565b6040516102019190611585565b60405180910390f35b6102126108b8565b60405161021f91906115af565b60405180910390f35b610242600480360381019061023d9190611495565b6108de565b60405161024f9190611585565b60405180910390f35b610272600480360381019061026d9190611495565b6109a1565b005b61027c610be0565b6040516102899190611585565b60405180910390f35b6102ac60048036038101906102a79190611495565b610be6565b005b6102b6610ced565b6040516102c39190611585565b60405180910390f35b6102e660048036038101906102e19190611558565b610cf3565b6040516102f5939291906115ca565b60405180910390f35b610306610e7a565b005b610310611436565b60405161031d9190611660565b60405180910390f35b60086020528060005260406000206000915090508060000154908060010154905082565b6000600660003373ffffffffffffffffffffffffffffffffffffffff1673ffffffffffffffffffffffffffffffffffffffff16815260200190815260200160002090506000600760003373ffffffffffffffffffffffffffffffffffffffff1673ffffffffffffffffffffffffffffffffffffffff168152602001908152602001600020905060008311610413576040517f08c379a000000000000000000000000000000000000000000000000000000000815260040161040a906116fe565b60405180910390fd5b816000015483111561045a576040517f08c379a000000000000000000000000000000000000000000000000000000000815260040161045190611790565b60405180910390fd5b8160030160009054906101000a900460ff16801561047d57506000826000015414155b6104bc576040517f08c379a00000000000000000000000000000000000000000000000000000000081526004016104b390611822565b60405180910390fd5b6000826002015414610503576040517f08c379a00000000000000000000000000000000000000000000000000000000081526004016104fa906118b4565b60405180910390fd5b600081600101541461054a576040517f08c379a0000000000000000000000000000000000000000000000000000000008152600401610541906118b4565b60405180910390fd5b428260020181905550828160010181905550428160000181905550826002546105739190611903565b6002819055503373ffffffffffffffffffffffffffffffffffffffff167ff908b12fe0d8dc1ff4fda115e5bace3a7ad1aad889daca8e638ca0b29f80657784426040516105c19291906114d1565b60405180910390a2505050565b6000600660008373ffffffffffffffffffffffffffffffffffffffff1673ffffffffffffffffffffffffffffffffffffffff16815260200190815260200160002060030160009054906101000a900460ff16801561066f57506000600660008473ffffffffffffffffffffffffffffffffffffffff1673ffffffffffffffffffffffffffffffffffffffff1681526020019081526020016000206000015414155b6106ae576040517f08c379a00000000000000000000000000000000000000000000000000000000081526004016106a5906119a9565b60405180910390fd5b6000600660008473ffffffffffffffffffffffffffffffffffffffff1673ffffffffffffffffffffffffffffffffffffffff1681526020019081526020016000206040518060800160405290816000820154815260200160018201548152602001600282015481526020016003820160009054906101000a900460ff161515151581525050905061074281600001516108de565b915050919050565b600060086000838152602001908152602001600020600101549050919050565b600160009054906101000a900473ffffffffffffffffffffffffffffffffffffffff1673ffffffffffffffffffffffffffffffffffffffff163373ffffffffffffffffffffffffffffffffffffffff16146107fa576040517f08c379a00000000000000000000000000000000000000000000000000000000081526004016107f190611a3b565b60405180910390fd5b600073ffffffffffffffffffffffffffffffffffffffff168173ffffffffffffffffffffffffffffffffffffffff1603610869576040517f08c379a000000000000000000000000000000000000000000000000000000000815260040161086090611acd565b60405180910390fd5b806000806101000a81548173ffffffffffffffffffffffffffffffffffffffff021916908373ffffffffffffffffffffffffffffffffffffffff16021790555050565b60055481565b60045481565b600160009054906101000a900473ffffffffffffffffffffffffffffffffffffffff1681565b6000808203610922576040517f08c379a0000000000000000000000000000000000000000000000000000000008152600401610919906119a9565b60405180910390fd5b6000600190505b600554811161099a57600860008281526020019081526020016000206000015483101580156109795750600860006001836109649190611aed565b81526020019081526020016000206000015483105b15610987578091505061099c565b808061099290611b21565b915050610929565b505b919050565b6000600660003373ffffffffffffffffffffffffffffffffffffffff1673ffffffffffffffffffffffffffffffffffffffff16815260200190815260200160002090506000816002015414610a2b576040517f08c379a0000000000000000000000000000000000000000000000000000000008152600401610a2290611bdb565b60405180910390fd5b81816000018190555042816001018190555060018160030160006101000a81548160ff0219169083151502179055508160026000828254610a6c9190611aed565b9250508190555060008054906101000a900473ffffffffffffffffffffffffffffffffffffffff1673ffffffffffffffffffffffffffffffffffffffff166323b872dd3330856040518463ffffffff1660e01b8152600401610ad093929190611bfb565b6020604051808303816000875af1158015610aef573d6000803e3d6000fd5b505050506040513d601f19601f82011682018060405250810190610b139190611c6a565b610b52576040517f08c379a0000000000000000000000000000000000000000000000000000000008152600401610b4990611d09565b60405180910390fd5b6000610b5d336105ce565b90506001600860008381526020019081526020016000206001016000828254610b869190611aed565b925050819055503373ffffffffffffffffffffffffffffffffffffffff167f0a7bb2e28cc4698aac06db79cf9163bfcc20719286cf59fa7d492ceda1b8edc284604051610bd39190611585565b60405180910390a2505050565b60025481565b600160009054906101000a900473ffffffffffffffffffffffffffffffffffffffff1673ffffffffffffffffffffffffffffffffffffffff163373ffffffffffffffffffffffffffffffffffffffff1614610c76576040517f08c379a0000000000000000000000000000000000000000000000000000000008152600401610c6d90611a3b565b60405180910390fd5b600160046000828254610c899190611aed565b9250508190555060405180604001604052808281526020016000815250600860006004548152602001908152602001600020600082015181600001556020820151816001015590505060056000815480929190610ce590611b21565b919050555050565b60035481565b6000806000600660008573ffffffffffffffffffffffffffffffffffffffff1673ffffffffffffffffffffffffffffffffffffffff16815260200190815260200160002060030160009054906101000a900460ff168015610d9757506000600660008673ffffffffffffffffffffffffffffffffffffffff1673ffffffffffffffffffffffffffffffffffffffff1681526020019081526020016000206000015414155b610dd6576040517f08c379a0000000000000000000000000000000000000000000000000000000008152600401610dcd906119a9565b60405180910390fd5b6000600660008673ffffffffffffffffffffffffffffffffffffffff1673ffffffffffffffffffffffffffffffffffffffff1681526020019081526020016000206040518060800160405290816000820154815260200160018201548152602001600282015481526020016003820160009054906101000a900460ff1615151515815250509050806000015181602001518260400151935093509350509193909250565b6000600660003373ffffffffffffffffffffffffffffffffffffffff1673ffffffffffffffffffffffffffffffffffffffff1681526020019081526020016000206040518060800160405290816000820154815260200160018201548152602001600282015481526020016003820160009054906101000a900460ff16151515158152505090506000600760003373ffffffffffffffffffffffffffffffffffffffff1673ffffffffffffffffffffffffffffffffffffffff16815260200190815260200160002060405180604001604052908160008201548152602001600182015481525050905060008260400151141580610f7c57506000816020015114155b610fbb576040517f08c379a0000000000000000000000000000000000000000000000000000000008152600401610fb290611d9b565b60405180910390fd5b81606001518015610fd157506000826000015114155b611010576040517f08c379a000000000000000000000000000000000000000000000000000000000815260040161100790611e2d565b60405180910390fd5b6000620151808360400151426110269190611903565b6110309190611e7c565b9050806003541115611077576040517f08c379a000000000000000000000000000000000000000000000000000000000815260040161106e90611f1f565b60405180910390fd5b60008083602001510361108e578360000151611094565b82602001515b905080846000015110156110dd576040517f08c379a00000000000000000000000000000000000000000000000000000000081526004016110d490611fd7565b60405180910390fd5b80846000015111156111ca5780600660003373ffffffffffffffffffffffffffffffffffffffff1673ffffffffffffffffffffffffffffffffffffffff168152602001908152602001600020600001546111379190611903565b600660003373ffffffffffffffffffffffffffffffffffffffff1673ffffffffffffffffffffffffffffffffffffffff168152602001908152602001600020600001819055506000600660003373ffffffffffffffffffffffffffffffffffffffff1673ffffffffffffffffffffffffffffffffffffffff16815260200190815260200160002060020181905550611239565b600660003373ffffffffffffffffffffffffffffffffffffffff1673ffffffffffffffffffffffffffffffffffffffff168152602001908152602001600020600080820160009055600182016000905560028201600090556003820160006101000a81549060ff021916905550505b6000611244336105ce565b9050600160086000838152602001908152602001600020600101600082825461126d9190611903565b9250508190555060008054906101000a900473ffffffffffffffffffffffffffffffffffffffff1673ffffffffffffffffffffffffffffffffffffffff1663a9059cbb33846040518363ffffffff1660e01b81526004016112cf929190611ff7565b6020604051808303816000875af11580156112ee573d6000803e3d6000fd5b505050506040513d601f19601f820116820180604052508101906113129190611c6a565b611351576040517f08c379a0000000000000000000000000000000000000000000000000000000008152600401611348906120b8565b60405180910390fd5b6000600760003373ffffffffffffffffffffffffffffffffffffffff1673ffffffffffffffffffffffffffffffffffffffff168152602001908152602001600020600101819055506000600760003373ffffffffffffffffffffffffffffffffffffffff1673ffffffffffffffffffffffffffffffffffffffff168152602001908152602001600020600001819055503373ffffffffffffffffffffffffffffffffffffffff167f7b2a72f0889ae9bb89e8ee7ec3e7c465552d1b76d51df9b0426d0e4e7f39528f836040516114279190611585565b60405180910390a25050505050565b60008054906101000a900473ffffffffffffffffffffffffffffffffffffffff1681565b600080fd5b6000819050919050565b6114728161145f565b811461147d57600080fd5b50565b60008135905061148f81611469565b92915050565b6000602082840312156114ab576114aa61145a565b5b60006114b984828501611480565b91505092915050565b6114cb8161145f565b82525050565b60006040820190506114e660008301856114c2565b6114f360208301846114c2565b9392505050565b600073ffffffffffffffffffffffffffffffffffffffff82169050919050565b6000611525826114fa565b9050919050565b6115358161151a565b811461154057600080fd5b50565b6000813590506115528161152c565b92915050565b60006020828403121561156e5761156d61145a565b5b600061157c84828501611543565b91505092915050565b600060208201905061159a60008301846114c2565b92915050565b6115a98161151a565b82525050565b60006020820190506115c460008301846115a0565b92915050565b60006060820190506115df60008301866114c2565b6115ec60208301856114c2565b6115f960408301846114c2565b949350505050565b6000819050919050565b600061162661162161161c846114fa565b611601565b6114fa565b9050919050565b60006116388261160b565b9050919050565b600061164a8261162d565b9050919050565b61165a8161163f565b82525050565b60006020820190506116756000830184611651565b92915050565b600082825260208201905092915050565b7f5b496e697469617465205769746864726177616c5d20496e76616c696420776960008201527f746864726177616c20616d6f756e740000000000000000000000000000000000602082015250565b60006116e8602f8361167b565b91506116f38261168c565b604082019050919050565b60006020820190508181036000830152611717816116db565b9050919050565b7f5b496e697469617465205769746864726177616c5d205769746864726177206160008201527f6d6f756e742065786365656420746865207374616b6520616d6f756e74000000602082015250565b600061177a603d8361167b565b91506117858261171e565b604082019050919050565b600060208201905081810360008301526117a98161176d565b9050919050565b7f5b496e697469617465205769746864726177616c5d205468657265206973206e60008201527f6f207374616b65206465706f73697420666f722074686973206163636f756e74602082015250565b600061180c60408361167b565b9150611817826117b0565b604082019050919050565b6000602082019050818103600083015261183b816117ff565b9050919050565b7f5b496e697469617465205769746864726177616c5d20596f752068617665206160008201527f6c726561647920696e6974696174656420746865207769746864726177616c00602082015250565b600061189e603f8361167b565b91506118a982611842565b604082019050919050565b600060208201905081810360008301526118cd81611891565b9050919050565b7f4e487b7100000000000000000000000000000000000000000000000000000000600052601160045260246000fd5b600061190e8261145f565b91506119198361145f565b9250828203905081811115611931576119306118d4565b5b92915050565b7f5b56616c69646174696f6e5d2054686973206163636f756e7420646f65736e2760008201527f7420686176652061207374616b65206465706f73697400000000000000000000602082015250565b600061199360368361167b565b915061199e82611937565b604082019050919050565b600060208201905081810360008301526119c281611986565b9050919050565b7f5b56616c69646174696f6e5d205468652061646472657373206973206e6f742060008201527f617574686f72697a656400000000000000000000000000000000000000000000602082015250565b6000611a25602a8361167b565b9150611a30826119c9565b604082019050919050565b60006020820190508181036000830152611a5481611a18565b9050919050565b7f5b56616c69646174696f6e5d20496e76616c6964207377617020746f6b656e2060008201527f6164647265737300000000000000000000000000000000000000000000000000602082015250565b6000611ab760278361167b565b9150611ac282611a5b565b604082019050919050565b60006020820190508181036000830152611ae681611aaa565b9050919050565b6000611af88261145f565b9150611b038361145f565b9250828201905080821115611b1b57611b1a6118d4565b5b92915050565b6000611b2c8261145f565b91507fffffffffffffffffffffffffffffffffffffffffffffffffffffffffffffffff8203611b5e57611b5d6118d4565b5b600182019050919050565b7f5b4465706f7369745d20596f75206861766520616c726561647920696e69746960008201527f6174656420746865207769746864726177616c00000000000000000000000000602082015250565b6000611bc560338361167b565b9150611bd082611b69565b604082019050919050565b60006020820190508181036000830152611bf481611bb8565b9050919050565b6000606082019050611c1060008301866115a0565b611c1d60208301856115a0565b611c2a60408301846114c2565b949350505050565b60008115159050919050565b611c4781611c32565b8114611c5257600080fd5b50565b600081519050611c6481611c3e565b92915050565b600060208284031215611c8057611c7f61145a565b5b6000611c8e84828501611c55565b91505092915050565b7f5b4465706f7369745d20536f6d657468696e672077656e742077726f6e67206460008201527f7572696e672074686520746f6b656e207472616e736665720000000000000000602082015250565b6000611cf360388361167b565b9150611cfe82611c97565b604082019050919050565b60006020820190508181036000830152611d2281611ce6565b9050919050565b7f5b57697468647261775d20576974686472617720616d6f756e74206973206e6f60008201527f7420696e697469616c697a656400000000000000000000000000000000000000602082015250565b6000611d85602d8361167b565b9150611d9082611d29565b604082019050919050565b60006020820190508181036000830152611db481611d78565b9050919050565b7f5b57697468647261775d205468657265206973206e6f207374616b652064657060008201527f6f73697420666f722074686973206163636f756e740000000000000000000000602082015250565b6000611e1760358361167b565b9150611e2282611dbb565b604082019050919050565b60006020820190508181036000830152611e4681611e0a565b9050919050565b7f4e487b7100000000000000000000000000000000000000000000000000000000600052601260045260246000fd5b6000611e878261145f565b9150611e928361145f565b925082611ea257611ea1611e4d565b5b828204905092915050565b7f5b57697468647261775d2054686520756e7374616b696e6720706572696f642060008201527f646964206e6f7420706173730000000000000000000000000000000000000000602082015250565b6000611f09602c8361167b565b9150611f1482611ead565b604082019050919050565b60006020820190508181036000830152611f3881611efc565b9050919050565b7f5b77697468647261775d2052656d61696e696e67207374616b656465706f736960008201527f7420616d6f756e74206d75737420626520686967686572207468616e2077697460208201527f686472617720616d6f756e740000000000000000000000000000000000000000604082015250565b6000611fc1604c8361167b565b9150611fcc82611f3f565b606082019050919050565b60006020820190508181036000830152611ff081611fb4565b9050919050565b600060408201905061200c60008301856115a0565b61201960208301846114c2565b9392505050565b7f5b57697468647261775d20536f6d657468696e672077656e742077726f6e672060008201527f7768696c65207472616e7366657272696e6720796f757220696e697469616c2060208201527f6465706f73697400000000000000000000000000000000000000000000000000604082015250565b60006120a260478361167b565b91506120ad82612020565b606082019050919050565b600060208201905081810360008301526120d181612095565b905091905056fea2646970667358221220144d1afc1cf9d4323f8896c5369867460e9369f7223d1b66f5ae653fb368f86a64736f6c63430008100033",
  "immutableReferences": {},
  "source": "// SPDX-License-Identifier: MIT\npragma solidity ^0.8.16;\n\nimport \"@openzeppelin/contracts/token/ERC20/IERC20.sol\";\n\ncontract StakingContract {\n    // EVENTS\n    event StakeDeposited(address indexed account, uint256 amount);\n    event WithdrawInitiated(\n        address indexed account,\n        uint256 amount,\n        uint256 initiateDate\n    );\n    event WithdrawExecuted(address indexed account, uint256 amount);\n\n    // STRUCT DECLARATIONS\n    struct StakeDeposit {\n        uint256 amount;\n        uint256 startDate;\n        uint256 endDate;\n        bool exists;\n    }\n\n    // STRUCT WITHDRAWAL\n    struct WithdrawalState {\n        uint256 initiateDate;\n        uint256 amount;\n    }\n\n    //Tier\n    struct Tier {\n        uint256 tokensToStake;\n        uint256 investorsCount;\n    }\n\n    // CONTRACT STATE VARIABLES\n    IERC20 public token;\n    address public owner;\n    uint256 public currentTotalStake;\n    uint256 public unstakingPeriod;\n    uint256 public tierID = 0;\n    uint256 public totalTiers = 0;\n\n    mapping(address => StakeDeposit) private _stakeDeposits;\n    mapping(address => WithdrawalState) private _withdrawStates;\n    mapping(uint256 => Tier) public tierAllocated;\n\n    // MODIFIERS\n\n    modifier onlyOwner() {\n        require(\n            msg.sender == owner,\n            \"[Validation] The address is not authorized\"\n        );\n        _;\n    }\n\n    constructor(address _stakingToken, uint256 _unstakingPeriod) {\n        owner = msg.sender;\n        _StakingContract_init(_stakingToken, _unstakingPeriod);\n    }\n\n    // PUBLIC FUNCTIONS\n\n    function _StakingContract_init(\n        address _token,\n        uint256 _unstakingPeriod\n    ) internal {\n        require(\n            _token != address(0),\n            \"[Validation] Invalid swap token address\"\n        );\n\n        token = IERC20(_token);\n        unstakingPeriod = _unstakingPeriod;\n    }\n\n    function setTokenAddress(address _token) external onlyOwner {\n        require(\n            _token != address(0),\n            \"[Validation] Invalid swap token address\"\n        );\n        token = IERC20(_token);\n    }\n\n    function setTiers(uint256 _tokensToStake) external onlyOwner {\n        tierID += 1;\n        tierAllocated[tierID] = Tier(_tokensToStake, 0);\n        //tierAllocated[tierID].Tier.tokensToStake = _tokensToStake;\n        totalTiers++;\n    }\n\n    function determineTiers(\n        uint256 _stakedAmount\n    ) public view returns (uint256 tier) {\n        require(\n            _stakedAmount != 0,\n            \"[Validation] This account doesn't have a stake deposit\"\n        );\n        for (uint i = 1; i <= totalTiers; i++) {\n            if (\n                (_stakedAmount >= tierAllocated[i].tokensToStake) &&\n                (_stakedAmount < tierAllocated[i + 1].tokensToStake)\n            ) {\n                return i;\n            }\n        }\n    }\n\n    function totalInvestorsInTier(\n        uint256 _tierID\n    ) external view returns (uint256) {\n        return tierAllocated[_tierID].investorsCount;\n    }\n\n    function getTierDetails(address account) public returns (uint256 tier) {\n        require(\n            _stakeDeposits[account].exists &&\n                _stakeDeposits[account].amount != 0,\n            \"[Validation] This account doesn't have a stake deposit\"\n        );\n\n        StakeDeposit memory s = _stakeDeposits[account];\n\n        return (determineTiers(s.amount));\n    }\n\n    function deposit(uint256 amount) external {\n        StakeDeposit storage stakeDeposit = _stakeDeposits[msg.sender];\n        require(\n            stakeDeposit.endDate == 0,\n            \"[Deposit] You have already initiated the withdrawal\"\n        );\n\n        stakeDeposit.amount = amount;\n        stakeDeposit.startDate = block.timestamp;\n        stakeDeposit.exists = true;\n\n        currentTotalStake += amount;\n\n        // Transfer the Tokens to this contract\n        require(\n            token.transferFrom(msg.sender, address(this), amount),\n            \"[Deposit] Something went wrong during the token transfer\"\n        );\n        uint256 toTier = getTierDetails(msg.sender);\n        tierAllocated[toTier].investorsCount += 1;\n\n        emit StakeDeposited(msg.sender, amount);\n    }\n\n    function initiateWithdrawal(uint256 withdrawAmount) external {\n        StakeDeposit storage stakeDeposit = _stakeDeposits[msg.sender];\n        WithdrawalState storage withdrawState = _withdrawStates[msg.sender];\n        require(\n            withdrawAmount > 0,\n            \"[Initiate Withdrawal] Invalid withdrawal amount\"\n        );\n        require(\n            withdrawAmount <= stakeDeposit.amount,\n            \"[Initiate Withdrawal] Withdraw amount exceed the stake amount\"\n        );\n        require(\n            stakeDeposit.exists && stakeDeposit.amount != 0,\n            \"[Initiate Withdrawal] There is no stake deposit for this account\"\n        );\n        require(\n            stakeDeposit.endDate == 0,\n            \"[Initiate Withdrawal] You have already initiated the withdrawal\"\n        );\n        require(\n            withdrawState.amount == 0,\n            \"[Initiate Withdrawal] You have already initiated the withdrawal\"\n        );\n\n        stakeDeposit.endDate = block.timestamp;\n        withdrawState.amount = withdrawAmount;\n        withdrawState.initiateDate = block.timestamp;\n\n        currentTotalStake = currentTotalStake - withdrawAmount;\n\n        emit WithdrawInitiated(msg.sender, withdrawAmount, block.timestamp);\n    }\n\n    function executeWithdrawal() external {\n        StakeDeposit memory stakeDeposit = _stakeDeposits[msg.sender];\n        WithdrawalState memory withdrawState = _withdrawStates[msg.sender];\n\n        require(\n            stakeDeposit.endDate != 0 || withdrawState.amount != 0,\n            \"[Withdraw] Withdraw amount is not initialized\"\n        );\n        require(\n            stakeDeposit.exists && stakeDeposit.amount != 0,\n            \"[Withdraw] There is no stake deposit for this account\"\n        );\n\n        // validate enough days have passed from initiating the withdrawal\n        uint256 daysPassed = (block.timestamp - stakeDeposit.endDate) / 1 days;\n        require(\n            unstakingPeriod <= daysPassed,\n            \"[Withdraw] The unstaking period did not pass\"\n        );\n\n        uint256 amount = withdrawState.amount != 0\n            ? withdrawState.amount\n            : stakeDeposit.amount;\n\n        require(\n            stakeDeposit.amount >= amount,\n            \"[withdraw] Remaining stakedeposit amount must be higher than withdraw amount\"\n        );\n        if (stakeDeposit.amount > amount) {\n            _stakeDeposits[msg.sender].amount =\n                (_stakeDeposits[msg.sender].amount) -\n                (amount);\n            _stakeDeposits[msg.sender].endDate = 0;\n        } else {\n            delete _stakeDeposits[msg.sender];\n        }\n        uint256 toTier = getTierDetails(msg.sender);\n        tierAllocated[toTier].investorsCount -= 1;\n\n        require(\n            token.transfer(msg.sender, amount),\n            \"[Withdraw] Something went wrong while transferring your initial deposit\"\n        );\n\n        _withdrawStates[msg.sender].amount = 0;\n        _withdrawStates[msg.sender].initiateDate = 0;\n\n        emit WithdrawExecuted(msg.sender, amount);\n    }\n\n    // VIEW FUNCTIONS FOR HELPING THE USER AND CLIENT INTERFACE\n    function getStakeDetails(\n        address account\n    )\n        external\n        view\n        returns (uint256 initialDeposit, uint256 startDate, uint256 endDate)\n    {\n        require(\n            _stakeDeposits[account].exists &&\n                _stakeDeposits[account].amount != 0,\n            \"[Validation] This account doesn't have a stake deposit\"\n        );\n\n        StakeDeposit memory s = _stakeDeposits[account];\n\n        return (s.amount, s.startDate, s.endDate);\n    }\n}\n",
  "sourcePath": "/mnt/c/Users/HP/Desktop/MODUS/contracts/staking/StakeModus.sol",
  "compiler": {
    "name": "solc",
    "version": "0.8.16+commit.07a7930e.Emscripten.clang"
  },
  "schemaVersion": "3.4.9",
  "updatedAt": "2022-12-20T13:34:32.329Z",
  "devdoc": {
    "kind": "dev",
    "methods": {},
    "version": 1
  },
  "userdoc": {
    "kind": "user",
    "methods": {},
    "version": 1
  }
}