{
  "contractName": "USDC",
  "abi": [
    {
      "inputs": [
        {
          "internalType": "address",
          "name": "user1",
          "type": "address"
        },
        {
          "internalType": "address",
          "name": "user2",
          "type": "address"
        },
        {
          "internalType": "address",
          "name": "user3",
          "type": "address"
        },
        {
          "internalType": "address",
          "name": "user4",
          "type": "address"
        }
      ],
      "stateMutability": "nonpayable",
      "type": "constructor"
    },
    {
      "anonymous": false,
      "inputs": [
        {
          "indexed": true,
          "internalType": "address",
          "name": "owner",
          "type": "address"
        },
        {
          "indexed": true,
          "internalType": "address",
          "name": "spender",
          "type": "address"
        },
        {
          "indexed": false,
          "internalType": "uint256",
          "name": "value",
          "type": "uint256"
        }
      ],
      "name": "Approval",
      "type": "event"
    },
    {
      "anonymous": false,
      "inputs": [
        {
          "indexed": true,
          "internalType": "address",
          "name": "previousOwner",
          "type": "address"
        },
        {
          "indexed": true,
          "internalType": "address",
          "name": "newOwner",
          "type": "address"
        }
      ],
      "name": "OwnershipTransferred",
      "type": "event"
    },
    {
      "anonymous": false,
      "inputs": [
        {
          "indexed": true,
          "internalType": "address",
          "name": "from",
          "type": "address"
        },
        {
          "indexed": true,
          "internalType": "address",
          "name": "to",
          "type": "address"
        },
        {
          "indexed": false,
          "internalType": "uint256",
          "name": "value",
          "type": "uint256"
        }
      ],
      "name": "Transfer",
      "type": "event"
    },
    {
      "inputs": [
        {
          "internalType": "address",
          "name": "owner",
          "type": "address"
        },
        {
          "internalType": "address",
          "name": "spender",
          "type": "address"
        }
      ],
      "name": "allowance",
      "outputs": [
        {
          "internalType": "uint256",
          "name": "",
          "type": "uint256"
        }
      ],
      "stateMutability": "view",
      "type": "function"
    },
    {
      "inputs": [
        {
          "internalType": "address",
          "name": "spender",
          "type": "address"
        },
        {
          "internalType": "uint256",
          "name": "amount",
          "type": "uint256"
        }
      ],
      "name": "approve",
      "outputs": [
        {
          "internalType": "bool",
          "name": "",
          "type": "bool"
        }
      ],
      "stateMutability": "nonpayable",
      "type": "function"
    },
    {
      "inputs": [
        {
          "internalType": "address",
          "name": "account",
          "type": "address"
        }
      ],
      "name": "balanceOf",
      "outputs": [
        {
          "internalType": "uint256",
          "name": "",
          "type": "uint256"
        }
      ],
      "stateMutability": "view",
      "type": "function"
    },
    {
      "inputs": [
        {
          "internalType": "uint256",
          "name": "amount",
          "type": "uint256"
        }
      ],
      "name": "burn",
      "outputs": [],
      "stateMutability": "nonpayable",
      "type": "function"
    },
    {
      "inputs": [
        {
          "internalType": "address",
          "name": "account",
          "type": "address"
        },
        {
          "internalType": "uint256",
          "name": "amount",
          "type": "uint256"
        }
      ],
      "name": "burnFrom",
      "outputs": [],
      "stateMutability": "nonpayable",
      "type": "function"
    },
    {
      "inputs": [],
      "name": "decimals",
      "outputs": [
        {
          "internalType": "uint8",
          "name": "",
          "type": "uint8"
        }
      ],
      "stateMutability": "view",
      "type": "function"
    },
    {
      "inputs": [
        {
          "internalType": "address",
          "name": "spender",
          "type": "address"
        },
        {
          "internalType": "uint256",
          "name": "subtractedValue",
          "type": "uint256"
        }
      ],
      "name": "decreaseAllowance",
      "outputs": [
        {
          "internalType": "bool",
          "name": "",
          "type": "bool"
        }
      ],
      "stateMutability": "nonpayable",
      "type": "function"
    },
    {
      "inputs": [
        {
          "internalType": "address",
          "name": "spender",
          "type": "address"
        },
        {
          "internalType": "uint256",
          "name": "addedValue",
          "type": "uint256"
        }
      ],
      "name": "increaseAllowance",
      "outputs": [
        {
          "internalType": "bool",
          "name": "",
          "type": "bool"
        }
      ],
      "stateMutability": "nonpayable",
      "type": "function"
    },
    {
      "inputs": [],
      "name": "name",
      "outputs": [
        {
          "internalType": "string",
          "name": "",
          "type": "string"
        }
      ],
      "stateMutability": "view",
      "type": "function"
    },
    {
      "inputs": [],
      "name": "owner",
      "outputs": [
        {
          "internalType": "address",
          "name": "",
          "type": "address"
        }
      ],
      "stateMutability": "view",
      "type": "function"
    },
    {
      "inputs": [],
      "name": "renounceOwnership",
      "outputs": [],
      "stateMutability": "nonpayable",
      "type": "function"
    },
    {
      "inputs": [],
      "name": "symbol",
      "outputs": [
        {
          "internalType": "string",
          "name": "",
          "type": "string"
        }
      ],
      "stateMutability": "view",
      "type": "function"
    },
    {
      "inputs": [],
      "name": "totalSupply",
      "outputs": [
        {
          "internalType": "uint256",
          "name": "",
          "type": "uint256"
        }
      ],
      "stateMutability": "view",
      "type": "function"
    },
    {
      "inputs": [
        {
          "internalType": "address",
          "name": "to",
          "type": "address"
        },
        {
          "internalType": "uint256",
          "name": "amount",
          "type": "uint256"
        }
      ],
      "name": "transfer",
      "outputs": [
        {
          "internalType": "bool",
          "name": "",
          "type": "bool"
        }
      ],
      "stateMutability": "nonpayable",
      "type": "function"
    },
    {
      "inputs": [
        {
          "internalType": "address",
          "name": "from",
          "type": "address"
        },
        {
          "internalType": "address",
          "name": "to",
          "type": "address"
        },
        {
          "internalType": "uint256",
          "name": "amount",
          "type": "uint256"
        }
      ],
      "name": "transferFrom",
      "outputs": [
        {
          "internalType": "bool",
          "name": "",
          "type": "bool"
        }
      ],
      "stateMutability": "nonpayable",
      "type": "function"
    },
    {
      "inputs": [
        {
          "internalType": "address",
          "name": "newOwner",
          "type": "address"
        }
      ],
      "name": "transferOwnership",
      "outputs": [],
      "stateMutability": "nonpayable",
      "type": "function"
    }
  ],
  "bytecode": "0x60806040523480156200001157600080fd5b506040516200271f3803806200271f8339818101604052810190620000379190620004ca565b6040518060400160405280600481526020017f55534443000000000000000000000000000000000000000000000000000000008152506040518060400160405280600481526020017f55534443000000000000000000000000000000000000000000000000000000008152508160039081620000b49190620007b6565b508060049081620000c69190620007b6565b505050620000e9620000dd620001f760201b60201c565b620001ff60201b60201c565b6200012a84620000fe620002c560201b60201c565b60ff16600a6200010f919062000a20565b6127106200011e919062000a71565b620002ce60201b60201c565b6200016b836200013f620002c560201b60201c565b60ff16600a62000150919062000a20565b6127106200015f919062000a71565b620002ce60201b60201c565b620001ac8262000180620002c560201b60201c565b60ff16600a62000191919062000a20565b612710620001a0919062000a71565b620002ce60201b60201c565b620001ed81620001c1620002c560201b60201c565b60ff16600a620001d2919062000a20565b612710620001e1919062000a71565b620002ce60201b60201c565b5050505062000bbe565b600033905090565b6000600560009054906101000a900473ffffffffffffffffffffffffffffffffffffffff16905081600560006101000a81548173ffffffffffffffffffffffffffffffffffffffff021916908373ffffffffffffffffffffffffffffffffffffffff1602179055508173ffffffffffffffffffffffffffffffffffffffff168173ffffffffffffffffffffffffffffffffffffffff167f8be0079c531659141344cd1fd0a4f28419497f9722a3daafe3b4186f6b6457e060405160405180910390a35050565b60006012905090565b620002e58282620002e960201b620007671760201c565b5050565b600073ffffffffffffffffffffffffffffffffffffffff168273ffffffffffffffffffffffffffffffffffffffff16036200035b576040517f08c379a0000000000000000000000000000000000000000000000000000000008152600401620003529062000b33565b60405180910390fd5b6200036f600083836200045660201b60201c565b806002600082825462000383919062000b55565b92505081905550806000808473ffffffffffffffffffffffffffffffffffffffff1673ffffffffffffffffffffffffffffffffffffffff168152602001908152602001600020600082825401925050819055508173ffffffffffffffffffffffffffffffffffffffff16600073ffffffffffffffffffffffffffffffffffffffff167fddf252ad1be2c89b69c2b068fc378daa952ba7f163c4a11628f55a4df523b3ef8360405162000436919062000ba1565b60405180910390a362000452600083836200045b60201b60201c565b5050565b505050565b505050565b600080fd5b600073ffffffffffffffffffffffffffffffffffffffff82169050919050565b6000620004928262000465565b9050919050565b620004a48162000485565b8114620004b057600080fd5b50565b600081519050620004c48162000499565b92915050565b60008060008060808587031215620004e757620004e662000460565b5b6000620004f787828801620004b3565b94505060206200050a87828801620004b3565b93505060406200051d87828801620004b3565b92505060606200053087828801620004b3565b91505092959194509250565b600081519050919050565b7f4e487b7100000000000000000000000000000000000000000000000000000000600052604160045260246000fd5b7f4e487b7100000000000000000000000000000000000000000000000000000000600052602260045260246000fd5b60006002820490506001821680620005be57607f821691505b602082108103620005d457620005d362000576565b5b50919050565b60008190508160005260206000209050919050565b60006020601f8301049050919050565b600082821b905092915050565b6000600883026200063e7fffffffffffffffffffffffffffffffffffffffffffffffffffffffffffffffff82620005ff565b6200064a8683620005ff565b95508019841693508086168417925050509392505050565b6000819050919050565b6000819050919050565b600062000697620006916200068b8462000662565b6200066c565b62000662565b9050919050565b6000819050919050565b620006b38362000676565b620006cb620006c2826200069e565b8484546200060c565b825550505050565b600090565b620006e2620006d3565b620006ef818484620006a8565b505050565b5b8181101562000717576200070b600082620006d8565b600181019050620006f5565b5050565b601f82111562000766576200073081620005da565b6200073b84620005ef565b810160208510156200074b578190505b620007636200075a85620005ef565b830182620006f4565b50505b505050565b600082821c905092915050565b60006200078b600019846008026200076b565b1980831691505092915050565b6000620007a6838362000778565b9150826002028217905092915050565b620007c1826200053c565b67ffffffffffffffff811115620007dd57620007dc62000547565b5b620007e98254620005a5565b620007f68282856200071b565b600060209050601f8311600181146200082e576000841562000819578287015190505b62000825858262000798565b86555062000895565b601f1984166200083e86620005da565b60005b82811015620008685784890151825560018201915060208501945060208101905062000841565b8683101562000888578489015162000884601f89168262000778565b8355505b6001600288020188555050505b505050505050565b7f4e487b7100000000000000000000000000000000000000000000000000000000600052601160045260246000fd5b60008160011c9050919050565b6000808291508390505b60018511156200092b578086048111156200090357620009026200089d565b5b6001851615620009135780820291505b80810290506200092385620008cc565b9450620008e3565b94509492505050565b60008262000946576001905062000a19565b8162000956576000905062000a19565b81600181146200096f57600281146200097a57620009b0565b600191505062000a19565b60ff8411156200098f576200098e6200089d565b5b8360020a915084821115620009a957620009a86200089d565b5b5062000a19565b5060208310610133831016604e8410600b8410161715620009ea5782820a905083811115620009e457620009e36200089d565b5b62000a19565b620009f98484846001620008d9565b9250905081840481111562000a135762000a126200089d565b5b81810290505b9392505050565b600062000a2d8262000662565b915062000a3a8362000662565b925062000a697fffffffffffffffffffffffffffffffffffffffffffffffffffffffffffffffff848462000934565b905092915050565b600062000a7e8262000662565b915062000a8b8362000662565b9250817fffffffffffffffffffffffffffffffffffffffffffffffffffffffffffffffff048311821515161562000ac75762000ac66200089d565b5b828202905092915050565b600082825260208201905092915050565b7f45524332303a206d696e7420746f20746865207a65726f206164647265737300600082015250565b600062000b1b601f8362000ad2565b915062000b288262000ae3565b602082019050919050565b6000602082019050818103600083015262000b4e8162000b0c565b9050919050565b600062000b628262000662565b915062000b6f8362000662565b925082820190508082111562000b8a5762000b896200089d565b5b92915050565b62000b9b8162000662565b82525050565b600060208201905062000bb8600083018462000b90565b92915050565b611b518062000bce6000396000f3fe608060405234801561001057600080fd5b50600436106101005760003560e01c8063715018a611610097578063a457c2d711610066578063a457c2d71461029d578063a9059cbb146102cd578063dd62ed3e146102fd578063f2fde38b1461032d57610100565b8063715018a61461023b57806379cc6790146102455780638da5cb5b1461026157806395d89b411461027f57610100565b8063313ce567116100d3578063313ce567146101a157806339509351146101bf57806342966c68146101ef57806370a082311461020b57610100565b806306fdde0314610105578063095ea7b31461012357806318160ddd1461015357806323b872dd14610171575b600080fd5b61010d610349565b60405161011a9190611149565b60405180910390f35b61013d60048036038101906101389190611204565b6103db565b60405161014a919061125f565b60405180910390f35b61015b6103fe565b6040516101689190611289565b60405180910390f35b61018b600480360381019061018691906112a4565b610408565b604051610198919061125f565b60405180910390f35b6101a9610437565b6040516101b69190611313565b60405180910390f35b6101d960048036038101906101d49190611204565b610440565b6040516101e6919061125f565b60405180910390f35b6102096004803603810190610204919061132e565b610477565b005b6102256004803603810190610220919061135b565b61048b565b6040516102329190611289565b60405180910390f35b6102436104d3565b005b61025f600480360381019061025a9190611204565b6104e7565b005b610269610507565b6040516102769190611397565b60405180910390f35b610287610531565b6040516102949190611149565b60405180910390f35b6102b760048036038101906102b29190611204565b6105c3565b6040516102c4919061125f565b60405180910390f35b6102e760048036038101906102e29190611204565b61063a565b6040516102f4919061125f565b60405180910390f35b610317600480360381019061031291906113b2565b61065d565b6040516103249190611289565b60405180910390f35b6103476004803603810190610342919061135b565b6106e4565b005b60606003805461035890611421565b80601f016020809104026020016040519081016040528092919081815260200182805461038490611421565b80156103d15780601f106103a6576101008083540402835291602001916103d1565b820191906000526020600020905b8154815290600101906020018083116103b457829003601f168201915b5050505050905090565b6000806103e66108bd565b90506103f38185856108c5565b600191505092915050565b6000600254905090565b6000806104136108bd565b9050610420858285610a8e565b61042b858585610b1a565b60019150509392505050565b60006012905090565b60008061044b6108bd565b905061046c81858561045d858961065d565b6104679190611481565b6108c5565b600191505092915050565b6104886104826108bd565b82610d90565b50565b60008060008373ffffffffffffffffffffffffffffffffffffffff1673ffffffffffffffffffffffffffffffffffffffff168152602001908152602001600020549050919050565b6104db610d9e565b6104e56000610e1c565b565b6104f9826104f36108bd565b83610a8e565b6105038282610d90565b5050565b6000600560009054906101000a900473ffffffffffffffffffffffffffffffffffffffff16905090565b60606004805461054090611421565b80601f016020809104026020016040519081016040528092919081815260200182805461056c90611421565b80156105b95780601f1061058e576101008083540402835291602001916105b9565b820191906000526020600020905b81548152906001019060200180831161059c57829003601f168201915b5050505050905090565b6000806105ce6108bd565b905060006105dc828661065d565b905083811015610621576040517f08c379a000000000000000000000000000000000000000000000000000000000815260040161061890611527565b60405180910390fd5b61062e82868684036108c5565b60019250505092915050565b6000806106456108bd565b9050610652818585610b1a565b600191505092915050565b6000600160008473ffffffffffffffffffffffffffffffffffffffff1673ffffffffffffffffffffffffffffffffffffffff16815260200190815260200160002060008373ffffffffffffffffffffffffffffffffffffffff1673ffffffffffffffffffffffffffffffffffffffff16815260200190815260200160002054905092915050565b6106ec610d9e565b600073ffffffffffffffffffffffffffffffffffffffff168173ffffffffffffffffffffffffffffffffffffffff160361075b576040517f08c379a0000000000000000000000000000000000000000000000000000000008152600401610752906115b9565b60405180910390fd5b61076481610e1c565b50565b600073ffffffffffffffffffffffffffffffffffffffff168273ffffffffffffffffffffffffffffffffffffffff16036107d6576040517f08c379a00000000000000000000000000000000000000000000000000000000081526004016107cd90611625565b60405180910390fd5b6107e260008383610ee2565b80600260008282546107f49190611481565b92505081905550806000808473ffffffffffffffffffffffffffffffffffffffff1673ffffffffffffffffffffffffffffffffffffffff168152602001908152602001600020600082825401925050819055508173ffffffffffffffffffffffffffffffffffffffff16600073ffffffffffffffffffffffffffffffffffffffff167fddf252ad1be2c89b69c2b068fc378daa952ba7f163c4a11628f55a4df523b3ef836040516108a59190611289565b60405180910390a36108b960008383610ee7565b5050565b600033905090565b600073ffffffffffffffffffffffffffffffffffffffff168373ffffffffffffffffffffffffffffffffffffffff1603610934576040517f08c379a000000000000000000000000000000000000000000000000000000000815260040161092b906116b7565b60405180910390fd5b600073ffffffffffffffffffffffffffffffffffffffff168273ffffffffffffffffffffffffffffffffffffffff16036109a3576040517f08c379a000000000000000000000000000000000000000000000000000000000815260040161099a90611749565b60405180910390fd5b80600160008573ffffffffffffffffffffffffffffffffffffffff1673ffffffffffffffffffffffffffffffffffffffff16815260200190815260200160002060008473ffffffffffffffffffffffffffffffffffffffff1673ffffffffffffffffffffffffffffffffffffffff168152602001908152602001600020819055508173ffffffffffffffffffffffffffffffffffffffff168373ffffffffffffffffffffffffffffffffffffffff167f8c5be1e5ebec7d5bd14f71427d1e84f3dd0314c0f7b2291e5b200ac8c7c3b92583604051610a819190611289565b60405180910390a3505050565b6000610a9a848461065d565b90507fffffffffffffffffffffffffffffffffffffffffffffffffffffffffffffffff8114610b145781811015610b06576040517f08c379a0000000000000000000000000000000000000000000000000000000008152600401610afd906117b5565b60405180910390fd5b610b1384848484036108c5565b5b50505050565b600073ffffffffffffffffffffffffffffffffffffffff168373ffffffffffffffffffffffffffffffffffffffff1603610b89576040517f08c379a0000000000000000000000000000000000000000000000000000000008152600401610b8090611847565b60405180910390fd5b600073ffffffffffffffffffffffffffffffffffffffff168273ffffffffffffffffffffffffffffffffffffffff1603610bf8576040517f08c379a0000000000000000000000000000000000000000000000000000000008152600401610bef906118d9565b60405180910390fd5b610c03838383610ee2565b60008060008573ffffffffffffffffffffffffffffffffffffffff1673ffffffffffffffffffffffffffffffffffffffff16815260200190815260200160002054905081811015610c89576040517f08c379a0000000000000000000000000000000000000000000000000000000008152600401610c809061196b565b60405180910390fd5b8181036000808673ffffffffffffffffffffffffffffffffffffffff1673ffffffffffffffffffffffffffffffffffffffff16815260200190815260200160002081905550816000808573ffffffffffffffffffffffffffffffffffffffff1673ffffffffffffffffffffffffffffffffffffffff168152602001908152602001600020600082825401925050819055508273ffffffffffffffffffffffffffffffffffffffff168473ffffffffffffffffffffffffffffffffffffffff167fddf252ad1be2c89b69c2b068fc378daa952ba7f163c4a11628f55a4df523b3ef84604051610d779190611289565b60405180910390a3610d8a848484610ee7565b50505050565b610d9a8282610eec565b5050565b610da66108bd565b73ffffffffffffffffffffffffffffffffffffffff16610dc4610507565b73ffffffffffffffffffffffffffffffffffffffff1614610e1a576040517f08c379a0000000000000000000000000000000000000000000000000000000008152600401610e11906119d7565b60405180910390fd5b565b6000600560009054906101000a900473ffffffffffffffffffffffffffffffffffffffff16905081600560006101000a81548173ffffffffffffffffffffffffffffffffffffffff021916908373ffffffffffffffffffffffffffffffffffffffff1602179055508173ffffffffffffffffffffffffffffffffffffffff168173ffffffffffffffffffffffffffffffffffffffff167f8be0079c531659141344cd1fd0a4f28419497f9722a3daafe3b4186f6b6457e060405160405180910390a35050565b505050565b505050565b600073ffffffffffffffffffffffffffffffffffffffff168273ffffffffffffffffffffffffffffffffffffffff1603610f5b576040517f08c379a0000000000000000000000000000000000000000000000000000000008152600401610f5290611a69565b60405180910390fd5b610f6782600083610ee2565b60008060008473ffffffffffffffffffffffffffffffffffffffff1673ffffffffffffffffffffffffffffffffffffffff16815260200190815260200160002054905081811015610fed576040517f08c379a0000000000000000000000000000000000000000000000000000000008152600401610fe490611afb565b60405180910390fd5b8181036000808573ffffffffffffffffffffffffffffffffffffffff1673ffffffffffffffffffffffffffffffffffffffff1681526020019081526020016000208190555081600260008282540392505081905550600073ffffffffffffffffffffffffffffffffffffffff168373ffffffffffffffffffffffffffffffffffffffff167fddf252ad1be2c89b69c2b068fc378daa952ba7f163c4a11628f55a4df523b3ef846040516110a09190611289565b60405180910390a36110b483600084610ee7565b505050565b600081519050919050565b600082825260208201905092915050565b60005b838110156110f35780820151818401526020810190506110d8565b60008484015250505050565b6000601f19601f8301169050919050565b600061111b826110b9565b61112581856110c4565b93506111358185602086016110d5565b61113e816110ff565b840191505092915050565b600060208201905081810360008301526111638184611110565b905092915050565b600080fd5b600073ffffffffffffffffffffffffffffffffffffffff82169050919050565b600061119b82611170565b9050919050565b6111ab81611190565b81146111b657600080fd5b50565b6000813590506111c8816111a2565b92915050565b6000819050919050565b6111e1816111ce565b81146111ec57600080fd5b50565b6000813590506111fe816111d8565b92915050565b6000806040838503121561121b5761121a61116b565b5b6000611229858286016111b9565b925050602061123a858286016111ef565b9150509250929050565b60008115159050919050565b61125981611244565b82525050565b60006020820190506112746000830184611250565b92915050565b611283816111ce565b82525050565b600060208201905061129e600083018461127a565b92915050565b6000806000606084860312156112bd576112bc61116b565b5b60006112cb868287016111b9565b93505060206112dc868287016111b9565b92505060406112ed868287016111ef565b9150509250925092565b600060ff82169050919050565b61130d816112f7565b82525050565b60006020820190506113286000830184611304565b92915050565b6000602082840312156113445761134361116b565b5b6000611352848285016111ef565b91505092915050565b6000602082840312156113715761137061116b565b5b600061137f848285016111b9565b91505092915050565b61139181611190565b82525050565b60006020820190506113ac6000830184611388565b92915050565b600080604083850312156113c9576113c861116b565b5b60006113d7858286016111b9565b92505060206113e8858286016111b9565b9150509250929050565b7f4e487b7100000000000000000000000000000000000000000000000000000000600052602260045260246000fd5b6000600282049050600182168061143957607f821691505b60208210810361144c5761144b6113f2565b5b50919050565b7f4e487b7100000000000000000000000000000000000000000000000000000000600052601160045260246000fd5b600061148c826111ce565b9150611497836111ce565b92508282019050808211156114af576114ae611452565b5b92915050565b7f45524332303a2064656372656173656420616c6c6f77616e63652062656c6f7760008201527f207a65726f000000000000000000000000000000000000000000000000000000602082015250565b60006115116025836110c4565b915061151c826114b5565b604082019050919050565b6000602082019050818103600083015261154081611504565b9050919050565b7f4f776e61626c653a206e6577206f776e657220697320746865207a65726f206160008201527f6464726573730000000000000000000000000000000000000000000000000000602082015250565b60006115a36026836110c4565b91506115ae82611547565b604082019050919050565b600060208201905081810360008301526115d281611596565b9050919050565b7f45524332303a206d696e7420746f20746865207a65726f206164647265737300600082015250565b600061160f601f836110c4565b915061161a826115d9565b602082019050919050565b6000602082019050818103600083015261163e81611602565b9050919050565b7f45524332303a20617070726f76652066726f6d20746865207a65726f2061646460008201527f7265737300000000000000000000000000000000000000000000000000000000602082015250565b60006116a16024836110c4565b91506116ac82611645565b604082019050919050565b600060208201905081810360008301526116d081611694565b9050919050565b7f45524332303a20617070726f766520746f20746865207a65726f20616464726560008201527f7373000000000000000000000000000000000000000000000000000000000000602082015250565b60006117336022836110c4565b915061173e826116d7565b604082019050919050565b6000602082019050818103600083015261176281611726565b9050919050565b7f45524332303a20696e73756666696369656e7420616c6c6f77616e6365000000600082015250565b600061179f601d836110c4565b91506117aa82611769565b602082019050919050565b600060208201905081810360008301526117ce81611792565b9050919050565b7f45524332303a207472616e736665722066726f6d20746865207a65726f20616460008201527f6472657373000000000000000000000000000000000000000000000000000000602082015250565b60006118316025836110c4565b915061183c826117d5565b604082019050919050565b6000602082019050818103600083015261186081611824565b9050919050565b7f45524332303a207472616e7366657220746f20746865207a65726f206164647260008201527f6573730000000000000000000000000000000000000000000000000000000000602082015250565b60006118c36023836110c4565b91506118ce82611867565b604082019050919050565b600060208201905081810360008301526118f2816118b6565b9050919050565b7f45524332303a207472616e7366657220616d6f756e742065786365656473206260008201527f616c616e63650000000000000000000000000000000000000000000000000000602082015250565b60006119556026836110c4565b9150611960826118f9565b604082019050919050565b6000602082019050818103600083015261198481611948565b9050919050565b7f4f776e61626c653a2063616c6c6572206973206e6f7420746865206f776e6572600082015250565b60006119c16020836110c4565b91506119cc8261198b565b602082019050919050565b600060208201905081810360008301526119f0816119b4565b9050919050565b7f45524332303a206275726e2066726f6d20746865207a65726f2061646472657360008201527f7300000000000000000000000000000000000000000000000000000000000000602082015250565b6000611a536021836110c4565b9150611a5e826119f7565b604082019050919050565b60006020820190508181036000830152611a8281611a46565b9050919050565b7f45524332303a206275726e20616d6f756e7420657863656564732062616c616e60008201527f6365000000000000000000000000000000000000000000000000000000000000602082015250565b6000611ae56022836110c4565b9150611af082611a89565b604082019050919050565b60006020820190508181036000830152611b1481611ad8565b905091905056fea26469706673582212204acb51d5e4e8c22adf9d0006468b9d794e4c8db454323b192086cdd51f05ecb664736f6c63430008100033",
  "immutableReferences": {},
  "source": "// SPDX-License-Identifier: MIT\npragma solidity ^0.8.16;\n\nimport \"@openzeppelin/contracts/token/ERC20/ERC20.sol\";\nimport \"@openzeppelin/contracts/token/ERC20/extensions/ERC20Votes.sol\";\nimport \"@openzeppelin/contracts/access/Ownable.sol\";\nimport \"@openzeppelin/contracts/token/ERC20/extensions/ERC20Burnable.sol\";\n\ncontract USDC is ERC20, ERC20Burnable, Ownable {\n    constructor(\n        address user1,\n        address user2,\n        address user3,\n        address user4\n    ) ERC20(\"USDC\", \"USDC\") {\n        _mint(user1, 10000 * (10 ** uint256(decimals())));\n        _mint(user2, 10000 * (10 ** uint256(decimals())));\n        _mint(user3, 10000 * (10 ** uint256(decimals())));\n        _mint(user4, 10000 * (10 ** uint256(decimals())));\n    }\n\n    function _mint(address to, uint256 amount) internal override(ERC20) {\n        super._mint(to, amount);\n    }\n\n    function _burn(address account, uint256 amount) internal override(ERC20) {\n        super._burn(account, amount);\n    }\n}\n",
  "sourcePath": "/mnt/c/Users/HP/Desktop/MODUS/contracts/tokens/USDC.sol",
  "compiler": {
    "name": "solc",
    "version": "0.8.16+commit.07a7930e.Emscripten.clang"
  },
  "schemaVersion": "3.4.9",
  "updatedAt": "2022-12-20T13:31:14.020Z",
  "devdoc": {
    "kind": "dev",
    "methods": {
      "allowance(address,address)": {
        "details": "See {IERC20-allowance}."
      },
      "approve(address,uint256)": {
        "details": "See {IERC20-approve}. NOTE: If `amount` is the maximum `uint256`, the allowance is not updated on `transferFrom`. This is semantically equivalent to an infinite approval. Requirements: - `spender` cannot be the zero address."
      },
      "balanceOf(address)": {
        "details": "See {IERC20-balanceOf}."
      },
      "burn(uint256)": {
        "details": "Destroys `amount` tokens from the caller. See {ERC20-_burn}."
      },
      "burnFrom(address,uint256)": {
        "details": "Destroys `amount` tokens from `account`, deducting from the caller's allowance. See {ERC20-_burn} and {ERC20-allowance}. Requirements: - the caller must have allowance for ``accounts``'s tokens of at least `amount`."
      },
      "decimals()": {
        "details": "Returns the number of decimals used to get its user representation. For example, if `decimals` equals `2`, a balance of `505` tokens should be displayed to a user as `5.05` (`505 / 10 ** 2`). Tokens usually opt for a value of 18, imitating the relationship between Ether and Wei. This is the value {ERC20} uses, unless this function is overridden; NOTE: This information is only used for _display_ purposes: it in no way affects any of the arithmetic of the contract, including {IERC20-balanceOf} and {IERC20-transfer}."
      },
      "decreaseAllowance(address,uint256)": {
        "details": "Atomically decreases the allowance granted to `spender` by the caller. This is an alternative to {approve} that can be used as a mitigation for problems described in {IERC20-approve}. Emits an {Approval} event indicating the updated allowance. Requirements: - `spender` cannot be the zero address. - `spender` must have allowance for the caller of at least `subtractedValue`."
      },
      "increaseAllowance(address,uint256)": {
        "details": "Atomically increases the allowance granted to `spender` by the caller. This is an alternative to {approve} that can be used as a mitigation for problems described in {IERC20-approve}. Emits an {Approval} event indicating the updated allowance. Requirements: - `spender` cannot be the zero address."
      },
      "name()": {
        "details": "Returns the name of the token."
      },
      "owner()": {
        "details": "Returns the address of the current owner."
      },
      "renounceOwnership()": {
        "details": "Leaves the contract without owner. It will not be possible to call `onlyOwner` functions anymore. Can only be called by the current owner. NOTE: Renouncing ownership will leave the contract without an owner, thereby removing any functionality that is only available to the owner."
      },
      "symbol()": {
        "details": "Returns the symbol of the token, usually a shorter version of the name."
      },
      "totalSupply()": {
        "details": "See {IERC20-totalSupply}."
      },
      "transfer(address,uint256)": {
        "details": "See {IERC20-transfer}. Requirements: - `to` cannot be the zero address. - the caller must have a balance of at least `amount`."
      },
      "transferFrom(address,address,uint256)": {
        "details": "See {IERC20-transferFrom}. Emits an {Approval} event indicating the updated allowance. This is not required by the EIP. See the note at the beginning of {ERC20}. NOTE: Does not update the allowance if the current allowance is the maximum `uint256`. Requirements: - `from` and `to` cannot be the zero address. - `from` must have a balance of at least `amount`. - the caller must have allowance for ``from``'s tokens of at least `amount`."
      },
      "transferOwnership(address)": {
        "details": "Transfers ownership of the contract to a new account (`newOwner`). Can only be called by the current owner."
      }
    },
    "version": 1
  },
  "userdoc": {
    "kind": "user",
    "methods": {},
    "version": 1
  }
}